{
	"contracts/vedu.sol": {
		"Vedant": {
			"abi": [
				{
					"inputs": [
						{
							"internalType": "uint256",
							"name": "a",
							"type": "uint256"
						},
						{
							"internalType": "uint256",
							"name": "b",
							"type": "uint256"
						}
					],
					"name": "bit",
					"outputs": [
						{
							"internalType": "uint256",
							"name": "",
							"type": "uint256"
						},
						{
							"internalType": "uint256",
							"name": "",
							"type": "uint256"
						},
						{
							"internalType": "uint256",
							"name": "",
							"type": "uint256"
						},
						{
							"internalType": "uint256",
							"name": "",
							"type": "uint256"
						},
						{
							"internalType": "uint256",
							"name": "",
							"type": "uint256"
						}
					],
					"stateMutability": "pure",
					"type": "function"
				},
				{
					"inputs": [
						{
							"internalType": "uint256",
							"name": "a",
							"type": "uint256"
						}
					],
					"name": "prime",
					"outputs": [
						{
							"internalType": "bool",
							"name": "",
							"type": "bool"
						}
					],
					"stateMutability": "pure",
					"type": "function"
				}
			],
			"devdoc": {
				"kind": "dev",
				"methods": {},
				"version": 1
			},
			"evm": {
				"assembly": "    /* \"contracts/vedu.sol\":58:612  contract Vedant {... */\n  mstore(0x40, 0x80)\n  callvalue\n  dup1\n  iszero\n  tag_1\n  jumpi\n  0x00\n  dup1\n  revert\ntag_1:\n  pop\n  dataSize(sub_0)\n  dup1\n  dataOffset(sub_0)\n  0x00\n  codecopy\n  0x00\n  return\nstop\n\nsub_0: assembly {\n        /* \"contracts/vedu.sol\":58:612  contract Vedant {... */\n      mstore(0x40, 0x80)\n      callvalue\n      dup1\n      iszero\n      tag_1\n      jumpi\n      0x00\n      dup1\n      revert\n    tag_1:\n      pop\n      jumpi(tag_2, lt(calldatasize, 0x04))\n      shr(0xe0, calldataload(0x00))\n      dup1\n      0x72e0e984\n      eq\n      tag_3\n      jumpi\n      dup1\n      0x76de1e1d\n      eq\n      tag_4\n      jumpi\n    tag_2:\n      0x00\n      dup1\n      revert\n        /* \"contracts/vedu.sol\":80:328  function prime(uint a)pure public returns (bool){... */\n    tag_3:\n      tag_5\n      0x04\n      dup1\n      calldatasize\n      sub\n      dup2\n      add\n      swap1\n      tag_6\n      swap2\n      swap1\n      tag_7\n      jump\t// in\n    tag_6:\n      tag_8\n      jump\t// in\n    tag_5:\n      mload(0x40)\n      tag_9\n      swap2\n      swap1\n      tag_10\n      jump\t// in\n    tag_9:\n      mload(0x40)\n      dup1\n      swap2\n      sub\n      swap1\n      return\n        /* \"contracts/vedu.sol\":339:610  function bit(uint a, uint b) pure public  returns (uint, uint, uint, uint, uint){... */\n    tag_4:\n      tag_11\n      0x04\n      dup1\n      calldatasize\n      sub\n      dup2\n      add\n      swap1\n      tag_12\n      swap2\n      swap1\n      tag_13\n      jump\t// in\n    tag_12:\n      tag_14\n      jump\t// in\n    tag_11:\n      mload(0x40)\n      tag_15\n      swap6\n      swap5\n      swap4\n      swap3\n      swap2\n      swap1\n      tag_16\n      jump\t// in\n    tag_15:\n      mload(0x40)\n      dup1\n      swap2\n      sub\n      swap1\n      return\n        /* \"contracts/vedu.sol\":80:328  function prime(uint a)pure public returns (bool){... */\n    tag_8:\n        /* \"contracts/vedu.sol\":123:127  bool */\n      0x00\n        /* \"contracts/vedu.sol\":144:145  2 */\n      0x02\n        /* \"contracts/vedu.sol\":142:143  a */\n      dup3\n        /* \"contracts/vedu.sol\":142:145  a<2 */\n      lt\n        /* \"contracts/vedu.sol\":138:183  if (a<2){... */\n      iszero\n      tag_18\n      jumpi\n        /* \"contracts/vedu.sol\":167:172  false */\n      0x00\n        /* \"contracts/vedu.sol\":160:172  return false */\n      swap1\n      pop\n      jump(tag_17)\n        /* \"contracts/vedu.sol\":138:183  if (a<2){... */\n    tag_18:\n        /* \"contracts/vedu.sol\":198:204  uint i */\n      0x00\n        /* \"contracts/vedu.sol\":206:207  2 */\n      0x02\n        /* \"contracts/vedu.sol\":198:207  uint i =2 */\n      swap1\n      pop\n        /* \"contracts/vedu.sol\":193:301  for (uint i =2; i<a; i++){... */\n    tag_19:\n        /* \"contracts/vedu.sol\":211:212  a */\n      dup3\n        /* \"contracts/vedu.sol\":209:210  i */\n      dup2\n        /* \"contracts/vedu.sol\":209:212  i<a */\n      lt\n        /* \"contracts/vedu.sol\":193:301  for (uint i =2; i<a; i++){... */\n      iszero\n      tag_20\n      jumpi\n        /* \"contracts/vedu.sol\":243:244  0 */\n      0x00\n        /* \"contracts/vedu.sol\":238:239  i */\n      dup2\n        /* \"contracts/vedu.sol\":236:237  a */\n      dup5\n        /* \"contracts/vedu.sol\":236:239  a%i */\n      tag_22\n      swap2\n      swap1\n      tag_23\n      jump\t// in\n    tag_22:\n        /* \"contracts/vedu.sol\":236:244  a%i == 0 */\n      sub\n        /* \"contracts/vedu.sol\":232:290  if (a%i == 0){... */\n      tag_24\n      jumpi\n        /* \"contracts/vedu.sol\":270:275  false */\n      0x00\n        /* \"contracts/vedu.sol\":263:275  return false */\n      swap2\n      pop\n      pop\n      jump(tag_17)\n        /* \"contracts/vedu.sol\":232:290  if (a%i == 0){... */\n    tag_24:\n        /* \"contracts/vedu.sol\":214:217  i++ */\n      dup1\n      dup1\n      0x01\n      add\n      swap2\n      pop\n      pop\n        /* \"contracts/vedu.sol\":193:301  for (uint i =2; i<a; i++){... */\n      jump(tag_19)\n    tag_20:\n      pop\n        /* \"contracts/vedu.sol\":317:321  true */\n      0x01\n        /* \"contracts/vedu.sol\":310:321  return true */\n      swap1\n      pop\n        /* \"contracts/vedu.sol\":80:328  function prime(uint a)pure public returns (bool){... */\n    tag_17:\n      swap2\n      swap1\n      pop\n      jump\t// out\n        /* \"contracts/vedu.sol\":339:610  function bit(uint a, uint b) pure public  returns (uint, uint, uint, uint, uint){... */\n    tag_14:\n        /* \"contracts/vedu.sol\":390:394  uint */\n      0x00\n        /* \"contracts/vedu.sol\":396:400  uint */\n      dup1\n        /* \"contracts/vedu.sol\":402:406  uint */\n      0x00\n        /* \"contracts/vedu.sol\":408:412  uint */\n      dup1\n        /* \"contracts/vedu.sol\":414:418  uint */\n      0x00\n        /* \"contracts/vedu.sol\":429:437  uint and */\n      dup1\n        /* \"contracts/vedu.sol\":444:445  b */\n      dup7\n        /* \"contracts/vedu.sol\":440:441  a */\n      dup9\n        /* \"contracts/vedu.sol\":440:445  a & b */\n      and\n        /* \"contracts/vedu.sol\":429:445  uint and = a & b */\n      swap1\n      pop\n        /* \"contracts/vedu.sol\":455:462  uint or */\n      0x00\n        /* \"contracts/vedu.sol\":469:470  b */\n      dup8\n        /* \"contracts/vedu.sol\":465:466  a */\n      dup10\n        /* \"contracts/vedu.sol\":465:470  a | b */\n      or\n        /* \"contracts/vedu.sol\":455:470  uint or = a | b */\n      swap1\n      pop\n        /* \"contracts/vedu.sol\":480:488  uint xor */\n      0x00\n        /* \"contracts/vedu.sol\":495:496  b */\n      dup9\n        /* \"contracts/vedu.sol\":491:492  a */\n      dup11\n        /* \"contracts/vedu.sol\":491:496  a ^ b */\n      xor\n        /* \"contracts/vedu.sol\":480:496  uint xor = a ^ b */\n      swap1\n      pop\n        /* \"contracts/vedu.sol\":506:517  uint lshift */\n      0x00\n        /* \"contracts/vedu.sol\":525:526  b */\n      dup10\n        /* \"contracts/vedu.sol\":520:521  a */\n      dup12\n        /* \"contracts/vedu.sol\":520:526  a << b */\n      swap1\n      shl\n        /* \"contracts/vedu.sol\":506:526  uint lshift = a << b */\n      swap1\n      pop\n        /* \"contracts/vedu.sol\":536:547  uint rshift */\n      0x00\n        /* \"contracts/vedu.sol\":555:556  b */\n      dup11\n        /* \"contracts/vedu.sol\":550:551  a */\n      dup13\n        /* \"contracts/vedu.sol\":550:556  a >> b */\n      swap1\n      shr\n        /* \"contracts/vedu.sol\":536:556  uint rshift = a >> b */\n      swap1\n      pop\n        /* \"contracts/vedu.sol\":574:577  and */\n      dup5\n        /* \"contracts/vedu.sol\":579:581  or */\n      dup5\n        /* \"contracts/vedu.sol\":583:586  xor */\n      dup5\n        /* \"contracts/vedu.sol\":588:594  lshift */\n      dup5\n        /* \"contracts/vedu.sol\":596:602  rshift */\n      dup5\n        /* \"contracts/vedu.sol\":566:603  return (and, or, xor, lshift, rshift) */\n      swap10\n      pop\n      swap10\n      pop\n      swap10\n      pop\n      swap10\n      pop\n      swap10\n      pop\n      pop\n      pop\n      pop\n      pop\n      pop\n        /* \"contracts/vedu.sol\":339:610  function bit(uint a, uint b) pure public  returns (uint, uint, uint, uint, uint){... */\n      swap3\n      swap6\n      pop\n      swap3\n      swap6\n      swap1\n      swap4\n      pop\n      jump\t// out\n        /* \"#utility.yul\":88:205   */\n    tag_27:\n        /* \"#utility.yul\":197:198   */\n      0x00\n        /* \"#utility.yul\":194:195   */\n      dup1\n        /* \"#utility.yul\":187:199   */\n      revert\n        /* \"#utility.yul\":334:411   */\n    tag_29:\n        /* \"#utility.yul\":371:378   */\n      0x00\n        /* \"#utility.yul\":400:405   */\n      dup2\n        /* \"#utility.yul\":389:405   */\n      swap1\n      pop\n        /* \"#utility.yul\":334:411   */\n      swap2\n      swap1\n      pop\n      jump\t// out\n        /* \"#utility.yul\":417:539   */\n    tag_30:\n        /* \"#utility.yul\":490:514   */\n      tag_42\n        /* \"#utility.yul\":508:513   */\n      dup2\n        /* \"#utility.yul\":490:514   */\n      tag_29\n      jump\t// in\n    tag_42:\n        /* \"#utility.yul\":483:488   */\n      dup2\n        /* \"#utility.yul\":480:515   */\n      eq\n        /* \"#utility.yul\":470:533   */\n      tag_43\n      jumpi\n        /* \"#utility.yul\":529:530   */\n      0x00\n        /* \"#utility.yul\":526:527   */\n      dup1\n        /* \"#utility.yul\":519:531   */\n      revert\n        /* \"#utility.yul\":470:533   */\n    tag_43:\n        /* \"#utility.yul\":417:539   */\n      pop\n      jump\t// out\n        /* \"#utility.yul\":545:684   */\n    tag_31:\n        /* \"#utility.yul\":591:596   */\n      0x00\n        /* \"#utility.yul\":629:635   */\n      dup2\n        /* \"#utility.yul\":616:636   */\n      calldataload\n        /* \"#utility.yul\":607:636   */\n      swap1\n      pop\n        /* \"#utility.yul\":645:678   */\n      tag_45\n        /* \"#utility.yul\":672:677   */\n      dup2\n        /* \"#utility.yul\":645:678   */\n      tag_30\n      jump\t// in\n    tag_45:\n        /* \"#utility.yul\":545:684   */\n      swap3\n      swap2\n      pop\n      pop\n      jump\t// out\n        /* \"#utility.yul\":690:1019   */\n    tag_7:\n        /* \"#utility.yul\":749:755   */\n      0x00\n        /* \"#utility.yul\":798:800   */\n      0x20\n        /* \"#utility.yul\":786:795   */\n      dup3\n        /* \"#utility.yul\":777:784   */\n      dup5\n        /* \"#utility.yul\":773:796   */\n      sub\n        /* \"#utility.yul\":769:801   */\n      slt\n        /* \"#utility.yul\":766:885   */\n      iszero\n      tag_47\n      jumpi\n        /* \"#utility.yul\":804:883   */\n      tag_48\n      tag_27\n      jump\t// in\n    tag_48:\n        /* \"#utility.yul\":766:885   */\n    tag_47:\n        /* \"#utility.yul\":924:925   */\n      0x00\n        /* \"#utility.yul\":949:1002   */\n      tag_49\n        /* \"#utility.yul\":994:1001   */\n      dup5\n        /* \"#utility.yul\":985:991   */\n      dup3\n        /* \"#utility.yul\":974:983   */\n      dup6\n        /* \"#utility.yul\":970:992   */\n      add\n        /* \"#utility.yul\":949:1002   */\n      tag_31\n      jump\t// in\n    tag_49:\n        /* \"#utility.yul\":939:1002   */\n      swap2\n      pop\n        /* \"#utility.yul\":895:1012   */\n      pop\n        /* \"#utility.yul\":690:1019   */\n      swap3\n      swap2\n      pop\n      pop\n      jump\t// out\n        /* \"#utility.yul\":1025:1115   */\n    tag_32:\n        /* \"#utility.yul\":1059:1066   */\n      0x00\n        /* \"#utility.yul\":1102:1107   */\n      dup2\n        /* \"#utility.yul\":1095:1108   */\n      iszero\n        /* \"#utility.yul\":1088:1109   */\n      iszero\n        /* \"#utility.yul\":1077:1109   */\n      swap1\n      pop\n        /* \"#utility.yul\":1025:1115   */\n      swap2\n      swap1\n      pop\n      jump\t// out\n        /* \"#utility.yul\":1121:1230   */\n    tag_33:\n        /* \"#utility.yul\":1202:1223   */\n      tag_52\n        /* \"#utility.yul\":1217:1222   */\n      dup2\n        /* \"#utility.yul\":1202:1223   */\n      tag_32\n      jump\t// in\n    tag_52:\n        /* \"#utility.yul\":1197:1200   */\n      dup3\n        /* \"#utility.yul\":1190:1224   */\n      mstore\n        /* \"#utility.yul\":1121:1230   */\n      pop\n      pop\n      jump\t// out\n        /* \"#utility.yul\":1236:1446   */\n    tag_10:\n        /* \"#utility.yul\":1323:1327   */\n      0x00\n        /* \"#utility.yul\":1361:1363   */\n      0x20\n        /* \"#utility.yul\":1350:1359   */\n      dup3\n        /* \"#utility.yul\":1346:1364   */\n      add\n        /* \"#utility.yul\":1338:1364   */\n      swap1\n      pop\n        /* \"#utility.yul\":1374:1439   */\n      tag_54\n        /* \"#utility.yul\":1436:1437   */\n      0x00\n        /* \"#utility.yul\":1425:1434   */\n      dup4\n        /* \"#utility.yul\":1421:1438   */\n      add\n        /* \"#utility.yul\":1412:1418   */\n      dup5\n        /* \"#utility.yul\":1374:1439   */\n      tag_33\n      jump\t// in\n    tag_54:\n        /* \"#utility.yul\":1236:1446   */\n      swap3\n      swap2\n      pop\n      pop\n      jump\t// out\n        /* \"#utility.yul\":1452:1926   */\n    tag_13:\n        /* \"#utility.yul\":1520:1526   */\n      0x00\n        /* \"#utility.yul\":1528:1534   */\n      dup1\n        /* \"#utility.yul\":1577:1579   */\n      0x40\n        /* \"#utility.yul\":1565:1574   */\n      dup4\n        /* \"#utility.yul\":1556:1563   */\n      dup6\n        /* \"#utility.yul\":1552:1575   */\n      sub\n        /* \"#utility.yul\":1548:1580   */\n      slt\n        /* \"#utility.yul\":1545:1664   */\n      iszero\n      tag_56\n      jumpi\n        /* \"#utility.yul\":1583:1662   */\n      tag_57\n      tag_27\n      jump\t// in\n    tag_57:\n        /* \"#utility.yul\":1545:1664   */\n    tag_56:\n        /* \"#utility.yul\":1703:1704   */\n      0x00\n        /* \"#utility.yul\":1728:1781   */\n      tag_58\n        /* \"#utility.yul\":1773:1780   */\n      dup6\n        /* \"#utility.yul\":1764:1770   */\n      dup3\n        /* \"#utility.yul\":1753:1762   */\n      dup7\n        /* \"#utility.yul\":1749:1771   */\n      add\n        /* \"#utility.yul\":1728:1781   */\n      tag_31\n      jump\t// in\n    tag_58:\n        /* \"#utility.yul\":1718:1781   */\n      swap3\n      pop\n        /* \"#utility.yul\":1674:1791   */\n      pop\n        /* \"#utility.yul\":1830:1832   */\n      0x20\n        /* \"#utility.yul\":1856:1909   */\n      tag_59\n        /* \"#utility.yul\":1901:1908   */\n      dup6\n        /* \"#utility.yul\":1892:1898   */\n      dup3\n        /* \"#utility.yul\":1881:1890   */\n      dup7\n        /* \"#utility.yul\":1877:1899   */\n      add\n        /* \"#utility.yul\":1856:1909   */\n      tag_31\n      jump\t// in\n    tag_59:\n        /* \"#utility.yul\":1846:1909   */\n      swap2\n      pop\n        /* \"#utility.yul\":1801:1919   */\n      pop\n        /* \"#utility.yul\":1452:1926   */\n      swap3\n      pop\n      swap3\n      swap1\n      pop\n      jump\t// out\n        /* \"#utility.yul\":1932:2050   */\n    tag_34:\n        /* \"#utility.yul\":2019:2043   */\n      tag_61\n        /* \"#utility.yul\":2037:2042   */\n      dup2\n        /* \"#utility.yul\":2019:2043   */\n      tag_29\n      jump\t// in\n    tag_61:\n        /* \"#utility.yul\":2014:2017   */\n      dup3\n        /* \"#utility.yul\":2007:2044   */\n      mstore\n        /* \"#utility.yul\":1932:2050   */\n      pop\n      pop\n      jump\t// out\n        /* \"#utility.yul\":2056:2720   */\n    tag_16:\n        /* \"#utility.yul\":2261:2265   */\n      0x00\n        /* \"#utility.yul\":2299:2302   */\n      0xa0\n        /* \"#utility.yul\":2288:2297   */\n      dup3\n        /* \"#utility.yul\":2284:2303   */\n      add\n        /* \"#utility.yul\":2276:2303   */\n      swap1\n      pop\n        /* \"#utility.yul\":2313:2384   */\n      tag_63\n        /* \"#utility.yul\":2381:2382   */\n      0x00\n        /* \"#utility.yul\":2370:2379   */\n      dup4\n        /* \"#utility.yul\":2366:2383   */\n      add\n        /* \"#utility.yul\":2357:2363   */\n      dup9\n        /* \"#utility.yul\":2313:2384   */\n      tag_34\n      jump\t// in\n    tag_63:\n        /* \"#utility.yul\":2394:2466   */\n      tag_64\n        /* \"#utility.yul\":2462:2464   */\n      0x20\n        /* \"#utility.yul\":2451:2460   */\n      dup4\n        /* \"#utility.yul\":2447:2465   */\n      add\n        /* \"#utility.yul\":2438:2444   */\n      dup8\n        /* \"#utility.yul\":2394:2466   */\n      tag_34\n      jump\t// in\n    tag_64:\n        /* \"#utility.yul\":2476:2548   */\n      tag_65\n        /* \"#utility.yul\":2544:2546   */\n      0x40\n        /* \"#utility.yul\":2533:2542   */\n      dup4\n        /* \"#utility.yul\":2529:2547   */\n      add\n        /* \"#utility.yul\":2520:2526   */\n      dup7\n        /* \"#utility.yul\":2476:2548   */\n      tag_34\n      jump\t// in\n    tag_65:\n        /* \"#utility.yul\":2558:2630   */\n      tag_66\n        /* \"#utility.yul\":2626:2628   */\n      0x60\n        /* \"#utility.yul\":2615:2624   */\n      dup4\n        /* \"#utility.yul\":2611:2629   */\n      add\n        /* \"#utility.yul\":2602:2608   */\n      dup6\n        /* \"#utility.yul\":2558:2630   */\n      tag_34\n      jump\t// in\n    tag_66:\n        /* \"#utility.yul\":2640:2713   */\n      tag_67\n        /* \"#utility.yul\":2708:2711   */\n      0x80\n        /* \"#utility.yul\":2697:2706   */\n      dup4\n        /* \"#utility.yul\":2693:2712   */\n      add\n        /* \"#utility.yul\":2684:2690   */\n      dup5\n        /* \"#utility.yul\":2640:2713   */\n      tag_34\n      jump\t// in\n    tag_67:\n        /* \"#utility.yul\":2056:2720   */\n      swap7\n      swap6\n      pop\n      pop\n      pop\n      pop\n      pop\n      pop\n      jump\t// out\n        /* \"#utility.yul\":2726:2906   */\n    tag_35:\n        /* \"#utility.yul\":2774:2851   */\n      0x4e487b7100000000000000000000000000000000000000000000000000000000\n        /* \"#utility.yul\":2771:2772   */\n      0x00\n        /* \"#utility.yul\":2764:2852   */\n      mstore\n        /* \"#utility.yul\":2871:2875   */\n      0x12\n        /* \"#utility.yul\":2868:2869   */\n      0x04\n        /* \"#utility.yul\":2861:2876   */\n      mstore\n        /* \"#utility.yul\":2895:2899   */\n      0x24\n        /* \"#utility.yul\":2892:2893   */\n      0x00\n        /* \"#utility.yul\":2885:2900   */\n      revert\n        /* \"#utility.yul\":2912:3088   */\n    tag_23:\n        /* \"#utility.yul\":2944:2945   */\n      0x00\n        /* \"#utility.yul\":2961:2981   */\n      tag_70\n        /* \"#utility.yul\":2979:2980   */\n      dup3\n        /* \"#utility.yul\":2961:2981   */\n      tag_29\n      jump\t// in\n    tag_70:\n        /* \"#utility.yul\":2956:2981   */\n      swap2\n      pop\n        /* \"#utility.yul\":2995:3015   */\n      tag_71\n        /* \"#utility.yul\":3013:3014   */\n      dup4\n        /* \"#utility.yul\":2995:3015   */\n      tag_29\n      jump\t// in\n    tag_71:\n        /* \"#utility.yul\":2990:3015   */\n      swap3\n      pop\n        /* \"#utility.yul\":3034:3035   */\n      dup3\n        /* \"#utility.yul\":3024:3059   */\n      tag_72\n      jumpi\n        /* \"#utility.yul\":3039:3057   */\n      tag_73\n      tag_35\n      jump\t// in\n    tag_73:\n        /* \"#utility.yul\":3024:3059   */\n    tag_72:\n        /* \"#utility.yul\":3080:3081   */\n      dup3\n        /* \"#utility.yul\":3077:3078   */\n      dup3\n        /* \"#utility.yul\":3073:3082   */\n      mod\n        /* \"#utility.yul\":3068:3082   */\n      swap1\n      pop\n        /* \"#utility.yul\":2912:3088   */\n      swap3\n      swap2\n      pop\n      pop\n      jump\t// out\n\n    auxdata: 0xa2646970667358221220b6c843b34ce95c45787ad04deb3a93dccbec4ba407761b924558c6d3380b153564736f6c634300081a0033\n}\n",
				"bytecode": {
					"linkReferences": {},
					"object": "6080604052348015600e575f80fd5b506102f88061001c5f395ff3fe608060405234801561000f575f80fd5b5060043610610034575f3560e01c806372e0e9841461003857806376de1e1d14610068575b5f80fd5b610052600480360381019061004d9190610169565b61009c565b60405161005f91906101ae565b60405180910390f35b610082600480360381019061007d91906101c7565b6100ef565b604051610093959493929190610214565b60405180910390f35b5f60028210156100ae575f90506100ea565b5f600290505b828110156100e4575f81846100c99190610292565b036100d7575f9150506100ea565b80806001019150506100b4565b50600190505b919050565b5f805f805f8086881690505f87891790505f888a1890505f898b901b90505f8a8c901c905084848484849950995099509950995050505050509295509295909350565b5f80fd5b5f819050919050565b61014881610136565b8114610152575f80fd5b50565b5f813590506101638161013f565b92915050565b5f6020828403121561017e5761017d610132565b5b5f61018b84828501610155565b91505092915050565b5f8115159050919050565b6101a881610194565b82525050565b5f6020820190506101c15f83018461019f565b92915050565b5f80604083850312156101dd576101dc610132565b5b5f6101ea85828601610155565b92505060206101fb85828601610155565b9150509250929050565b61020e81610136565b82525050565b5f60a0820190506102275f830188610205565b6102346020830187610205565b6102416040830186610205565b61024e6060830185610205565b61025b6080830184610205565b9695505050505050565b7f4e487b71000000000000000000000000000000000000000000000000000000005f52601260045260245ffd5b5f61029c82610136565b91506102a783610136565b9250826102b7576102b6610265565b5b82820690509291505056fea2646970667358221220b6c843b34ce95c45787ad04deb3a93dccbec4ba407761b924558c6d3380b153564736f6c634300081a0033",
					"opcodes": "PUSH1 0x80 PUSH1 0x40 MSTORE CALLVALUE DUP1 ISZERO PUSH1 0xE JUMPI PUSH0 DUP1 REVERT JUMPDEST POP PUSH2 0x2F8 DUP1 PUSH2 0x1C PUSH0 CODECOPY PUSH0 RETURN INVALID PUSH1 0x80 PUSH1 0x40 MSTORE CALLVALUE DUP1 ISZERO PUSH2 0xF JUMPI PUSH0 DUP1 REVERT JUMPDEST POP PUSH1 0x4 CALLDATASIZE LT PUSH2 0x34 JUMPI PUSH0 CALLDATALOAD PUSH1 0xE0 SHR DUP1 PUSH4 0x72E0E984 EQ PUSH2 0x38 JUMPI DUP1 PUSH4 0x76DE1E1D EQ PUSH2 0x68 JUMPI JUMPDEST PUSH0 DUP1 REVERT JUMPDEST PUSH2 0x52 PUSH1 0x4 DUP1 CALLDATASIZE SUB DUP2 ADD SWAP1 PUSH2 0x4D SWAP2 SWAP1 PUSH2 0x169 JUMP JUMPDEST PUSH2 0x9C JUMP JUMPDEST PUSH1 0x40 MLOAD PUSH2 0x5F SWAP2 SWAP1 PUSH2 0x1AE JUMP JUMPDEST PUSH1 0x40 MLOAD DUP1 SWAP2 SUB SWAP1 RETURN JUMPDEST PUSH2 0x82 PUSH1 0x4 DUP1 CALLDATASIZE SUB DUP2 ADD SWAP1 PUSH2 0x7D SWAP2 SWAP1 PUSH2 0x1C7 JUMP JUMPDEST PUSH2 0xEF JUMP JUMPDEST PUSH1 0x40 MLOAD PUSH2 0x93 SWAP6 SWAP5 SWAP4 SWAP3 SWAP2 SWAP1 PUSH2 0x214 JUMP JUMPDEST PUSH1 0x40 MLOAD DUP1 SWAP2 SUB SWAP1 RETURN JUMPDEST PUSH0 PUSH1 0x2 DUP3 LT ISZERO PUSH2 0xAE JUMPI PUSH0 SWAP1 POP PUSH2 0xEA JUMP JUMPDEST PUSH0 PUSH1 0x2 SWAP1 POP JUMPDEST DUP3 DUP2 LT ISZERO PUSH2 0xE4 JUMPI PUSH0 DUP2 DUP5 PUSH2 0xC9 SWAP2 SWAP1 PUSH2 0x292 JUMP JUMPDEST SUB PUSH2 0xD7 JUMPI PUSH0 SWAP2 POP POP PUSH2 0xEA JUMP JUMPDEST DUP1 DUP1 PUSH1 0x1 ADD SWAP2 POP POP PUSH2 0xB4 JUMP JUMPDEST POP PUSH1 0x1 SWAP1 POP JUMPDEST SWAP2 SWAP1 POP JUMP JUMPDEST PUSH0 DUP1 PUSH0 DUP1 PUSH0 DUP1 DUP7 DUP9 AND SWAP1 POP PUSH0 DUP8 DUP10 OR SWAP1 POP PUSH0 DUP9 DUP11 XOR SWAP1 POP PUSH0 DUP10 DUP12 SWAP1 SHL SWAP1 POP PUSH0 DUP11 DUP13 SWAP1 SHR SWAP1 POP DUP5 DUP5 DUP5 DUP5 DUP5 SWAP10 POP SWAP10 POP SWAP10 POP SWAP10 POP SWAP10 POP POP POP POP POP POP SWAP3 SWAP6 POP SWAP3 SWAP6 SWAP1 SWAP4 POP JUMP JUMPDEST PUSH0 DUP1 REVERT JUMPDEST PUSH0 DUP2 SWAP1 POP SWAP2 SWAP1 POP JUMP JUMPDEST PUSH2 0x148 DUP2 PUSH2 0x136 JUMP JUMPDEST DUP2 EQ PUSH2 0x152 JUMPI PUSH0 DUP1 REVERT JUMPDEST POP JUMP JUMPDEST PUSH0 DUP2 CALLDATALOAD SWAP1 POP PUSH2 0x163 DUP2 PUSH2 0x13F JUMP JUMPDEST SWAP3 SWAP2 POP POP JUMP JUMPDEST PUSH0 PUSH1 0x20 DUP3 DUP5 SUB SLT ISZERO PUSH2 0x17E JUMPI PUSH2 0x17D PUSH2 0x132 JUMP JUMPDEST JUMPDEST PUSH0 PUSH2 0x18B DUP5 DUP3 DUP6 ADD PUSH2 0x155 JUMP JUMPDEST SWAP2 POP POP SWAP3 SWAP2 POP POP JUMP JUMPDEST PUSH0 DUP2 ISZERO ISZERO SWAP1 POP SWAP2 SWAP1 POP JUMP JUMPDEST PUSH2 0x1A8 DUP2 PUSH2 0x194 JUMP JUMPDEST DUP3 MSTORE POP POP JUMP JUMPDEST PUSH0 PUSH1 0x20 DUP3 ADD SWAP1 POP PUSH2 0x1C1 PUSH0 DUP4 ADD DUP5 PUSH2 0x19F JUMP JUMPDEST SWAP3 SWAP2 POP POP JUMP JUMPDEST PUSH0 DUP1 PUSH1 0x40 DUP4 DUP6 SUB SLT ISZERO PUSH2 0x1DD JUMPI PUSH2 0x1DC PUSH2 0x132 JUMP JUMPDEST JUMPDEST PUSH0 PUSH2 0x1EA DUP6 DUP3 DUP7 ADD PUSH2 0x155 JUMP JUMPDEST SWAP3 POP POP PUSH1 0x20 PUSH2 0x1FB DUP6 DUP3 DUP7 ADD PUSH2 0x155 JUMP JUMPDEST SWAP2 POP POP SWAP3 POP SWAP3 SWAP1 POP JUMP JUMPDEST PUSH2 0x20E DUP2 PUSH2 0x136 JUMP JUMPDEST DUP3 MSTORE POP POP JUMP JUMPDEST PUSH0 PUSH1 0xA0 DUP3 ADD SWAP1 POP PUSH2 0x227 PUSH0 DUP4 ADD DUP9 PUSH2 0x205 JUMP JUMPDEST PUSH2 0x234 PUSH1 0x20 DUP4 ADD DUP8 PUSH2 0x205 JUMP JUMPDEST PUSH2 0x241 PUSH1 0x40 DUP4 ADD DUP7 PUSH2 0x205 JUMP JUMPDEST PUSH2 0x24E PUSH1 0x60 DUP4 ADD DUP6 PUSH2 0x205 JUMP JUMPDEST PUSH2 0x25B PUSH1 0x80 DUP4 ADD DUP5 PUSH2 0x205 JUMP JUMPDEST SWAP7 SWAP6 POP POP POP POP POP POP JUMP JUMPDEST PUSH32 0x4E487B7100000000000000000000000000000000000000000000000000000000 PUSH0 MSTORE PUSH1 0x12 PUSH1 0x4 MSTORE PUSH1 0x24 PUSH0 REVERT JUMPDEST PUSH0 PUSH2 0x29C DUP3 PUSH2 0x136 JUMP JUMPDEST SWAP2 POP PUSH2 0x2A7 DUP4 PUSH2 0x136 JUMP JUMPDEST SWAP3 POP DUP3 PUSH2 0x2B7 JUMPI PUSH2 0x2B6 PUSH2 0x265 JUMP JUMPDEST JUMPDEST DUP3 DUP3 MOD SWAP1 POP SWAP3 SWAP2 POP POP JUMP INVALID LOG2 PUSH5 0x6970667358 0x22 SLT KECCAK256 0xB6 0xC8 NUMBER 0xB3 0x4C 0xE9 TLOAD GASLIMIT PUSH25 0x7AD04DEB3A93DCCBEC4BA407761B924558C6D3380B15356473 PUSH16 0x6C634300081A00330000000000000000 "
				},
				"gasEstimates": {
					"creation": {
						"codeDepositCost": "152000",
						"executionCost": "194",
						"totalCost": "152194"
					},
					"external": {
						"bit(uint256,uint256)": "infinite",
						"prime(uint256)": "infinite"
					}
				},
				"methodIdentifiers": {
					"bit(uint256,uint256)": "76de1e1d",
					"prime(uint256)": "72e0e984"
				}
			},
			"storageLayout": {
				"storage": [],
				"types": null
			},
			"userdoc": {
				"kind": "user",
				"methods": {},
				"version": 1
			}
		}
	}
}