{
	"contracts/Hello.sol": {
		"Binary": {
			"abi": [
				{
					"inputs": [
						{
							"internalType": "uint256",
							"name": "a",
							"type": "uint256"
						},
						{
							"internalType": "uint256",
							"name": "b",
							"type": "uint256"
						}
					],
					"name": "operations",
					"outputs": [
						{
							"internalType": "uint256",
							"name": "",
							"type": "uint256"
						},
						{
							"internalType": "uint256",
							"name": "",
							"type": "uint256"
						},
						{
							"internalType": "uint256",
							"name": "",
							"type": "uint256"
						},
						{
							"internalType": "uint256",
							"name": "",
							"type": "uint256"
						},
						{
							"internalType": "uint256",
							"name": "",
							"type": "uint256"
						},
						{
							"internalType": "uint256",
							"name": "",
							"type": "uint256"
						}
					],
					"stateMutability": "pure",
					"type": "function"
				}
			],
			"devdoc": {
				"kind": "dev",
				"methods": {},
				"version": 1
			},
			"evm": {
				"assembly": "    /* \"contracts/Hello.sol\":255:592  contract Binary {... */\n  mstore(0x40, 0x80)\n  callvalue\n  dup1\n  iszero\n  tag_1\n  jumpi\n  0x00\n  dup1\n  revert\ntag_1:\n  pop\n  dataSize(sub_0)\n  dup1\n  dataOffset(sub_0)\n  0x00\n  codecopy\n  0x00\n  return\nstop\n\nsub_0: assembly {\n        /* \"contracts/Hello.sol\":255:592  contract Binary {... */\n      mstore(0x40, 0x80)\n      callvalue\n      dup1\n      iszero\n      tag_1\n      jumpi\n      0x00\n      dup1\n      revert\n    tag_1:\n      pop\n      jumpi(tag_2, lt(calldatasize, 0x04))\n      shr(0xe0, calldataload(0x00))\n      dup1\n      0xd9c5c054\n      eq\n      tag_3\n      jumpi\n    tag_2:\n      0x00\n      dup1\n      revert\n        /* \"contracts/Hello.sol\":278:590  function operations(uint a, uint b) pure public returns (uint, uint, uint, uint, uint, uint){... */\n    tag_3:\n      tag_4\n      0x04\n      dup1\n      calldatasize\n      sub\n      dup2\n      add\n      swap1\n      tag_5\n      swap2\n      swap1\n      tag_6\n      jump\t// in\n    tag_5:\n      tag_7\n      jump\t// in\n    tag_4:\n      mload(0x40)\n      tag_8\n      swap7\n      swap6\n      swap5\n      swap4\n      swap3\n      swap2\n      swap1\n      tag_9\n      jump\t// in\n    tag_8:\n      mload(0x40)\n      dup1\n      swap2\n      sub\n      swap1\n      return\n    tag_7:\n        /* \"contracts/Hello.sol\":335:339  uint */\n      0x00\n        /* \"contracts/Hello.sol\":341:345  uint */\n      dup1\n        /* \"contracts/Hello.sol\":347:351  uint */\n      0x00\n        /* \"contracts/Hello.sol\":353:357  uint */\n      dup1\n        /* \"contracts/Hello.sol\":359:363  uint */\n      0x00\n        /* \"contracts/Hello.sol\":365:369  uint */\n      dup1\n        /* \"contracts/Hello.sol\":380:388  uint and */\n      0x00\n        /* \"contracts/Hello.sol\":395:396  b */\n      dup8\n        /* \"contracts/Hello.sol\":391:392  a */\n      dup10\n        /* \"contracts/Hello.sol\":391:396  a & b */\n      and\n        /* \"contracts/Hello.sol\":380:396  uint and = a & b */\n      swap1\n      pop\n        /* \"contracts/Hello.sol\":406:413  uint or */\n      0x00\n        /* \"contracts/Hello.sol\":420:421  b */\n      dup9\n        /* \"contracts/Hello.sol\":416:417  a */\n      dup11\n        /* \"contracts/Hello.sol\":416:421  a | b */\n      or\n        /* \"contracts/Hello.sol\":406:421  uint or = a | b */\n      swap1\n      pop\n        /* \"contracts/Hello.sol\":431:439  uint xor */\n      0x00\n        /* \"contracts/Hello.sol\":446:447  b */\n      dup10\n        /* \"contracts/Hello.sol\":442:443  a */\n      dup12\n        /* \"contracts/Hello.sol\":442:447  a ^ b */\n      xor\n        /* \"contracts/Hello.sol\":431:447  uint xor = a ^ b */\n      swap1\n      pop\n        /* \"contracts/Hello.sol\":457:468  uint lshift */\n      0x00\n        /* \"contracts/Hello.sol\":476:477  b */\n      dup11\n        /* \"contracts/Hello.sol\":471:472  a */\n      dup13\n        /* \"contracts/Hello.sol\":471:477  a << b */\n      swap1\n      shl\n        /* \"contracts/Hello.sol\":457:477  uint lshift = a << b */\n      swap1\n      pop\n        /* \"contracts/Hello.sol\":487:498  uint rshift */\n      0x00\n        /* \"contracts/Hello.sol\":506:507  b */\n      dup12\n        /* \"contracts/Hello.sol\":501:502  a */\n      dup14\n        /* \"contracts/Hello.sol\":501:507  a >> b */\n      swap1\n      shr\n        /* \"contracts/Hello.sol\":487:507  uint rshift = a >> b */\n      swap1\n      pop\n        /* \"contracts/Hello.sol\":517:525  uint not */\n      0x00\n        /* \"contracts/Hello.sol\":529:530  a */\n      dup14\n        /* \"contracts/Hello.sol\":528:530  ~a */\n      not\n        /* \"contracts/Hello.sol\":517:530  uint not = ~a */\n      swap1\n      pop\n        /* \"contracts/Hello.sol\":549:552  and */\n      dup6\n        /* \"contracts/Hello.sol\":554:556  or */\n      dup6\n        /* \"contracts/Hello.sol\":558:561  xor */\n      dup6\n        /* \"contracts/Hello.sol\":563:569  lshift */\n      dup6\n        /* \"contracts/Hello.sol\":571:577  rshift */\n      dup6\n        /* \"contracts/Hello.sol\":579:582  not */\n      dup6\n        /* \"contracts/Hello.sol\":541:583  return (and, or, xor, lshift, rshift, not) */\n      swap12\n      pop\n      swap12\n      pop\n      swap12\n      pop\n      swap12\n      pop\n      swap12\n      pop\n      swap12\n      pop\n      pop\n      pop\n      pop\n      pop\n      pop\n      pop\n        /* \"contracts/Hello.sol\":278:590  function operations(uint a, uint b) pure public returns (uint, uint, uint, uint, uint, uint){... */\n      swap3\n      swap6\n      pop\n      swap3\n      swap6\n      pop\n      swap3\n      swap6\n      jump\t// out\n        /* \"#utility.yul\":88:205   */\n    tag_12:\n        /* \"#utility.yul\":197:198   */\n      0x00\n        /* \"#utility.yul\":194:195   */\n      dup1\n        /* \"#utility.yul\":187:199   */\n      revert\n        /* \"#utility.yul\":334:411   */\n    tag_14:\n        /* \"#utility.yul\":371:378   */\n      0x00\n        /* \"#utility.yul\":400:405   */\n      dup2\n        /* \"#utility.yul\":389:405   */\n      swap1\n      pop\n        /* \"#utility.yul\":334:411   */\n      swap2\n      swap1\n      pop\n      jump\t// out\n        /* \"#utility.yul\":417:539   */\n    tag_15:\n        /* \"#utility.yul\":490:514   */\n      tag_24\n        /* \"#utility.yul\":508:513   */\n      dup2\n        /* \"#utility.yul\":490:514   */\n      tag_14\n      jump\t// in\n    tag_24:\n        /* \"#utility.yul\":483:488   */\n      dup2\n        /* \"#utility.yul\":480:515   */\n      eq\n        /* \"#utility.yul\":470:533   */\n      tag_25\n      jumpi\n        /* \"#utility.yul\":529:530   */\n      0x00\n        /* \"#utility.yul\":526:527   */\n      dup1\n        /* \"#utility.yul\":519:531   */\n      revert\n        /* \"#utility.yul\":470:533   */\n    tag_25:\n        /* \"#utility.yul\":417:539   */\n      pop\n      jump\t// out\n        /* \"#utility.yul\":545:684   */\n    tag_16:\n        /* \"#utility.yul\":591:596   */\n      0x00\n        /* \"#utility.yul\":629:635   */\n      dup2\n        /* \"#utility.yul\":616:636   */\n      calldataload\n        /* \"#utility.yul\":607:636   */\n      swap1\n      pop\n        /* \"#utility.yul\":645:678   */\n      tag_27\n        /* \"#utility.yul\":672:677   */\n      dup2\n        /* \"#utility.yul\":645:678   */\n      tag_15\n      jump\t// in\n    tag_27:\n        /* \"#utility.yul\":545:684   */\n      swap3\n      swap2\n      pop\n      pop\n      jump\t// out\n        /* \"#utility.yul\":690:1164   */\n    tag_6:\n        /* \"#utility.yul\":758:764   */\n      0x00\n        /* \"#utility.yul\":766:772   */\n      dup1\n        /* \"#utility.yul\":815:817   */\n      0x40\n        /* \"#utility.yul\":803:812   */\n      dup4\n        /* \"#utility.yul\":794:801   */\n      dup6\n        /* \"#utility.yul\":790:813   */\n      sub\n        /* \"#utility.yul\":786:818   */\n      slt\n        /* \"#utility.yul\":783:902   */\n      iszero\n      tag_29\n      jumpi\n        /* \"#utility.yul\":821:900   */\n      tag_30\n      tag_12\n      jump\t// in\n    tag_30:\n        /* \"#utility.yul\":783:902   */\n    tag_29:\n        /* \"#utility.yul\":941:942   */\n      0x00\n        /* \"#utility.yul\":966:1019   */\n      tag_31\n        /* \"#utility.yul\":1011:1018   */\n      dup6\n        /* \"#utility.yul\":1002:1008   */\n      dup3\n        /* \"#utility.yul\":991:1000   */\n      dup7\n        /* \"#utility.yul\":987:1009   */\n      add\n        /* \"#utility.yul\":966:1019   */\n      tag_16\n      jump\t// in\n    tag_31:\n        /* \"#utility.yul\":956:1019   */\n      swap3\n      pop\n        /* \"#utility.yul\":912:1029   */\n      pop\n        /* \"#utility.yul\":1068:1070   */\n      0x20\n        /* \"#utility.yul\":1094:1147   */\n      tag_32\n        /* \"#utility.yul\":1139:1146   */\n      dup6\n        /* \"#utility.yul\":1130:1136   */\n      dup3\n        /* \"#utility.yul\":1119:1128   */\n      dup7\n        /* \"#utility.yul\":1115:1137   */\n      add\n        /* \"#utility.yul\":1094:1147   */\n      tag_16\n      jump\t// in\n    tag_32:\n        /* \"#utility.yul\":1084:1147   */\n      swap2\n      pop\n        /* \"#utility.yul\":1039:1157   */\n      pop\n        /* \"#utility.yul\":690:1164   */\n      swap3\n      pop\n      swap3\n      swap1\n      pop\n      jump\t// out\n        /* \"#utility.yul\":1170:1288   */\n    tag_17:\n        /* \"#utility.yul\":1257:1281   */\n      tag_34\n        /* \"#utility.yul\":1275:1280   */\n      dup2\n        /* \"#utility.yul\":1257:1281   */\n      tag_14\n      jump\t// in\n    tag_34:\n        /* \"#utility.yul\":1252:1255   */\n      dup3\n        /* \"#utility.yul\":1245:1282   */\n      mstore\n        /* \"#utility.yul\":1170:1288   */\n      pop\n      pop\n      jump\t// out\n        /* \"#utility.yul\":1294:2069   */\n    tag_9:\n        /* \"#utility.yul\":1527:1531   */\n      0x00\n        /* \"#utility.yul\":1565:1568   */\n      0xc0\n        /* \"#utility.yul\":1554:1563   */\n      dup3\n        /* \"#utility.yul\":1550:1569   */\n      add\n        /* \"#utility.yul\":1542:1569   */\n      swap1\n      pop\n        /* \"#utility.yul\":1579:1650   */\n      tag_36\n        /* \"#utility.yul\":1647:1648   */\n      0x00\n        /* \"#utility.yul\":1636:1645   */\n      dup4\n        /* \"#utility.yul\":1632:1649   */\n      add\n        /* \"#utility.yul\":1623:1629   */\n      dup10\n        /* \"#utility.yul\":1579:1650   */\n      tag_17\n      jump\t// in\n    tag_36:\n        /* \"#utility.yul\":1660:1732   */\n      tag_37\n        /* \"#utility.yul\":1728:1730   */\n      0x20\n        /* \"#utility.yul\":1717:1726   */\n      dup4\n        /* \"#utility.yul\":1713:1731   */\n      add\n        /* \"#utility.yul\":1704:1710   */\n      dup9\n        /* \"#utility.yul\":1660:1732   */\n      tag_17\n      jump\t// in\n    tag_37:\n        /* \"#utility.yul\":1742:1814   */\n      tag_38\n        /* \"#utility.yul\":1810:1812   */\n      0x40\n        /* \"#utility.yul\":1799:1808   */\n      dup4\n        /* \"#utility.yul\":1795:1813   */\n      add\n        /* \"#utility.yul\":1786:1792   */\n      dup8\n        /* \"#utility.yul\":1742:1814   */\n      tag_17\n      jump\t// in\n    tag_38:\n        /* \"#utility.yul\":1824:1896   */\n      tag_39\n        /* \"#utility.yul\":1892:1894   */\n      0x60\n        /* \"#utility.yul\":1881:1890   */\n      dup4\n        /* \"#utility.yul\":1877:1895   */\n      add\n        /* \"#utility.yul\":1868:1874   */\n      dup7\n        /* \"#utility.yul\":1824:1896   */\n      tag_17\n      jump\t// in\n    tag_39:\n        /* \"#utility.yul\":1906:1979   */\n      tag_40\n        /* \"#utility.yul\":1974:1977   */\n      0x80\n        /* \"#utility.yul\":1963:1972   */\n      dup4\n        /* \"#utility.yul\":1959:1978   */\n      add\n        /* \"#utility.yul\":1950:1956   */\n      dup6\n        /* \"#utility.yul\":1906:1979   */\n      tag_17\n      jump\t// in\n    tag_40:\n        /* \"#utility.yul\":1989:2062   */\n      tag_41\n        /* \"#utility.yul\":2057:2060   */\n      0xa0\n        /* \"#utility.yul\":2046:2055   */\n      dup4\n        /* \"#utility.yul\":2042:2061   */\n      add\n        /* \"#utility.yul\":2033:2039   */\n      dup5\n        /* \"#utility.yul\":1989:2062   */\n      tag_17\n      jump\t// in\n    tag_41:\n        /* \"#utility.yul\":1294:2069   */\n      swap8\n      swap7\n      pop\n      pop\n      pop\n      pop\n      pop\n      pop\n      pop\n      jump\t// out\n\n    auxdata: 0xa2646970667358221220cf3ade4da65e08121d3c51e1dc1cdf7bd6305ab428bb7fad1c08012dc26678df64736f6c634300081a0033\n}\n",
				"bytecode": {
					"linkReferences": {},
					"object": "6080604052348015600e575f80fd5b506101c88061001c5f395ff3fe608060405234801561000f575f80fd5b5060043610610029575f3560e01c8063d9c5c0541461002d575b5f80fd5b610047600480360381019061004291906100e6565b610062565b60405161005996959493929190610133565b60405180910390f35b5f805f805f805f87891690505f888a1790505f898b1890505f8a8c901b90505f8b8d901c90505f8d1990508585858585859b509b509b509b509b509b505050505050509295509295509295565b5f80fd5b5f819050919050565b6100c5816100b3565b81146100cf575f80fd5b50565b5f813590506100e0816100bc565b92915050565b5f80604083850312156100fc576100fb6100af565b5b5f610109858286016100d2565b925050602061011a858286016100d2565b9150509250929050565b61012d816100b3565b82525050565b5f60c0820190506101465f830189610124565b6101536020830188610124565b6101606040830187610124565b61016d6060830186610124565b61017a6080830185610124565b61018760a0830184610124565b97965050505050505056fea2646970667358221220cf3ade4da65e08121d3c51e1dc1cdf7bd6305ab428bb7fad1c08012dc26678df64736f6c634300081a0033",
					"opcodes": "PUSH1 0x80 PUSH1 0x40 MSTORE CALLVALUE DUP1 ISZERO PUSH1 0xE JUMPI PUSH0 DUP1 REVERT JUMPDEST POP PUSH2 0x1C8 DUP1 PUSH2 0x1C PUSH0 CODECOPY PUSH0 RETURN INVALID PUSH1 0x80 PUSH1 0x40 MSTORE CALLVALUE DUP1 ISZERO PUSH2 0xF JUMPI PUSH0 DUP1 REVERT JUMPDEST POP PUSH1 0x4 CALLDATASIZE LT PUSH2 0x29 JUMPI PUSH0 CALLDATALOAD PUSH1 0xE0 SHR DUP1 PUSH4 0xD9C5C054 EQ PUSH2 0x2D JUMPI JUMPDEST PUSH0 DUP1 REVERT JUMPDEST PUSH2 0x47 PUSH1 0x4 DUP1 CALLDATASIZE SUB DUP2 ADD SWAP1 PUSH2 0x42 SWAP2 SWAP1 PUSH2 0xE6 JUMP JUMPDEST PUSH2 0x62 JUMP JUMPDEST PUSH1 0x40 MLOAD PUSH2 0x59 SWAP7 SWAP6 SWAP5 SWAP4 SWAP3 SWAP2 SWAP1 PUSH2 0x133 JUMP JUMPDEST PUSH1 0x40 MLOAD DUP1 SWAP2 SUB SWAP1 RETURN JUMPDEST PUSH0 DUP1 PUSH0 DUP1 PUSH0 DUP1 PUSH0 DUP8 DUP10 AND SWAP1 POP PUSH0 DUP9 DUP11 OR SWAP1 POP PUSH0 DUP10 DUP12 XOR SWAP1 POP PUSH0 DUP11 DUP13 SWAP1 SHL SWAP1 POP PUSH0 DUP12 DUP14 SWAP1 SHR SWAP1 POP PUSH0 DUP14 NOT SWAP1 POP DUP6 DUP6 DUP6 DUP6 DUP6 DUP6 SWAP12 POP SWAP12 POP SWAP12 POP SWAP12 POP SWAP12 POP SWAP12 POP POP POP POP POP POP POP SWAP3 SWAP6 POP SWAP3 SWAP6 POP SWAP3 SWAP6 JUMP JUMPDEST PUSH0 DUP1 REVERT JUMPDEST PUSH0 DUP2 SWAP1 POP SWAP2 SWAP1 POP JUMP JUMPDEST PUSH2 0xC5 DUP2 PUSH2 0xB3 JUMP JUMPDEST DUP2 EQ PUSH2 0xCF JUMPI PUSH0 DUP1 REVERT JUMPDEST POP JUMP JUMPDEST PUSH0 DUP2 CALLDATALOAD SWAP1 POP PUSH2 0xE0 DUP2 PUSH2 0xBC JUMP JUMPDEST SWAP3 SWAP2 POP POP JUMP JUMPDEST PUSH0 DUP1 PUSH1 0x40 DUP4 DUP6 SUB SLT ISZERO PUSH2 0xFC JUMPI PUSH2 0xFB PUSH2 0xAF JUMP JUMPDEST JUMPDEST PUSH0 PUSH2 0x109 DUP6 DUP3 DUP7 ADD PUSH2 0xD2 JUMP JUMPDEST SWAP3 POP POP PUSH1 0x20 PUSH2 0x11A DUP6 DUP3 DUP7 ADD PUSH2 0xD2 JUMP JUMPDEST SWAP2 POP POP SWAP3 POP SWAP3 SWAP1 POP JUMP JUMPDEST PUSH2 0x12D DUP2 PUSH2 0xB3 JUMP JUMPDEST DUP3 MSTORE POP POP JUMP JUMPDEST PUSH0 PUSH1 0xC0 DUP3 ADD SWAP1 POP PUSH2 0x146 PUSH0 DUP4 ADD DUP10 PUSH2 0x124 JUMP JUMPDEST PUSH2 0x153 PUSH1 0x20 DUP4 ADD DUP9 PUSH2 0x124 JUMP JUMPDEST PUSH2 0x160 PUSH1 0x40 DUP4 ADD DUP8 PUSH2 0x124 JUMP JUMPDEST PUSH2 0x16D PUSH1 0x60 DUP4 ADD DUP7 PUSH2 0x124 JUMP JUMPDEST PUSH2 0x17A PUSH1 0x80 DUP4 ADD DUP6 PUSH2 0x124 JUMP JUMPDEST PUSH2 0x187 PUSH1 0xA0 DUP4 ADD DUP5 PUSH2 0x124 JUMP JUMPDEST SWAP8 SWAP7 POP POP POP POP POP POP POP JUMP INVALID LOG2 PUSH5 0x6970667358 0x22 SLT KECCAK256 0xCF GASPRICE 0xDE 0x4D 0xA6 MCOPY ADDMOD SLT SAR EXTCODECOPY MLOAD 0xE1 0xDC SHR 0xDF PUSH28 0xD6305AB428BB7FAD1C08012DC26678DF64736F6C634300081A003300 "
				},
				"gasEstimates": {
					"creation": {
						"codeDepositCost": "91200",
						"executionCost": "139",
						"totalCost": "91339"
					},
					"external": {
						"operations(uint256,uint256)": "infinite"
					}
				},
				"methodIdentifiers": {
					"operations(uint256,uint256)": "d9c5c054"
				}
			},
			"storageLayout": {
				"storage": [],
				"types": null
			},
			"userdoc": {
				"kind": "user",
				"methods": {},
				"version": 1
			}
		}
	}
}