{
	"contracts/access.sol": {
		"Modify": {
			"abi": [
				{
					"inputs": [],
					"name": "getA",
					"outputs": [
						{
							"internalType": "uint256",
							"name": "",
							"type": "uint256"
						}
					],
					"stateMutability": "view",
					"type": "function"
				},
				{
					"inputs": [],
					"name": "getB",
					"outputs": [
						{
							"internalType": "int256",
							"name": "",
							"type": "int256"
						}
					],
					"stateMutability": "view",
					"type": "function"
				},
				{
					"inputs": [],
					"name": "getC",
					"outputs": [
						{
							"internalType": "string",
							"name": "",
							"type": "string"
						}
					],
					"stateMutability": "view",
					"type": "function"
				},
				{
					"inputs": [],
					"name": "getD",
					"outputs": [
						{
							"internalType": "bool",
							"name": "",
							"type": "bool"
						}
					],
					"stateMutability": "view",
					"type": "function"
				},
				{
					"inputs": [
						{
							"internalType": "uint256",
							"name": "x",
							"type": "uint256"
						}
					],
					"name": "setA",
					"outputs": [],
					"stateMutability": "nonpayable",
					"type": "function"
				},
				{
					"inputs": [
						{
							"internalType": "int256",
							"name": "x",
							"type": "int256"
						}
					],
					"name": "setB",
					"outputs": [],
					"stateMutability": "nonpayable",
					"type": "function"
				},
				{
					"inputs": [
						{
							"internalType": "string",
							"name": "x",
							"type": "string"
						}
					],
					"name": "setC",
					"outputs": [],
					"stateMutability": "nonpayable",
					"type": "function"
				},
				{
					"inputs": [
						{
							"internalType": "bool",
							"name": "x",
							"type": "bool"
						}
					],
					"name": "setD",
					"outputs": [],
					"stateMutability": "nonpayable",
					"type": "function"
				}
			],
			"devdoc": {
				"kind": "dev",
				"methods": {},
				"version": 1
			},
			"evm": {
				"assembly": "    /* \"contracts/access.sol\":58:744  contract Modify {... */\n  mstore(0x40, 0x80)\n    /* \"contracts/access.sol\":98:99  5 */\n  0x05\n    /* \"contracts/access.sol\":81:99  uint private a = 5 */\n  0x00\n  sstore\n    /* \"contracts/access.sol\":122:124  -3 */\n  0xfffffffffffffffffffffffffffffffffffffffffffffffffffffffffffffffd\n    /* \"contracts/access.sol\":105:124  int internal b = -3 */\n  0x01\n  sstore\n    /* \"contracts/access.sol\":130:163  string internal c = \"Hello World\" */\n  mload(0x40)\n  dup1\n  0x40\n  add\n  0x40\n  mstore\n  dup1\n  0x0b\n  dup2\n  mstore\n  0x20\n  add\n  0x48656c6c6f20576f726c64000000000000000000000000000000000000000000\n  dup2\n  mstore\n  pop\n  0x02\n  swap1\n  dup2\n  tag_1\n  swap2\n  swap1\n  tag_2\n  jump\t// in\ntag_1:\n  pop\n    /* \"contracts/access.sol\":187:191  true */\n  0x01\n    /* \"contracts/access.sol\":169:191  bool private  d = true */\n  0x03\n  exp(0x0100, 0x00)\n  dup2\n  sload\n  dup2\n  0xff\n  mul\n  not\n  and\n  swap1\n  dup4\n  iszero\n  iszero\n  mul\n  or\n  swap1\n  sstore\n  pop\n    /* \"contracts/access.sol\":58:744  contract Modify {... */\n  callvalue\n  dup1\n  iszero\n  tag_3\n  jumpi\n  0x00\n  dup1\n  revert\ntag_3:\n  pop\n  jump(tag_4)\n    /* \"#utility.yul\":7:106   */\ntag_5:\n    /* \"#utility.yul\":59:65   */\n  0x00\n    /* \"#utility.yul\":93:98   */\n  dup2\n    /* \"#utility.yul\":87:99   */\n  mload\n    /* \"#utility.yul\":77:99   */\n  swap1\n  pop\n    /* \"#utility.yul\":7:106   */\n  swap2\n  swap1\n  pop\n  jump\t// out\n    /* \"#utility.yul\":112:292   */\ntag_6:\n    /* \"#utility.yul\":160:237   */\n  0x4e487b7100000000000000000000000000000000000000000000000000000000\n    /* \"#utility.yul\":157:158   */\n  0x00\n    /* \"#utility.yul\":150:238   */\n  mstore\n    /* \"#utility.yul\":257:261   */\n  0x41\n    /* \"#utility.yul\":254:255   */\n  0x04\n    /* \"#utility.yul\":247:262   */\n  mstore\n    /* \"#utility.yul\":281:285   */\n  0x24\n    /* \"#utility.yul\":278:279   */\n  0x00\n    /* \"#utility.yul\":271:286   */\n  revert\n    /* \"#utility.yul\":298:478   */\ntag_7:\n    /* \"#utility.yul\":346:423   */\n  0x4e487b7100000000000000000000000000000000000000000000000000000000\n    /* \"#utility.yul\":343:344   */\n  0x00\n    /* \"#utility.yul\":336:424   */\n  mstore\n    /* \"#utility.yul\":443:447   */\n  0x22\n    /* \"#utility.yul\":440:441   */\n  0x04\n    /* \"#utility.yul\":433:448   */\n  mstore\n    /* \"#utility.yul\":467:471   */\n  0x24\n    /* \"#utility.yul\":464:465   */\n  0x00\n    /* \"#utility.yul\":457:472   */\n  revert\n    /* \"#utility.yul\":484:804   */\ntag_8:\n    /* \"#utility.yul\":528:534   */\n  0x00\n    /* \"#utility.yul\":565:566   */\n  0x02\n    /* \"#utility.yul\":559:563   */\n  dup3\n    /* \"#utility.yul\":555:567   */\n  div\n    /* \"#utility.yul\":545:567   */\n  swap1\n  pop\n    /* \"#utility.yul\":612:613   */\n  0x01\n    /* \"#utility.yul\":606:610   */\n  dup3\n    /* \"#utility.yul\":602:614   */\n  and\n    /* \"#utility.yul\":633:651   */\n  dup1\n    /* \"#utility.yul\":623:704   */\n  tag_30\n  jumpi\n    /* \"#utility.yul\":689:693   */\n  0x7f\n    /* \"#utility.yul\":681:687   */\n  dup3\n    /* \"#utility.yul\":677:694   */\n  and\n    /* \"#utility.yul\":667:694   */\n  swap2\n  pop\n    /* \"#utility.yul\":623:704   */\ntag_30:\n    /* \"#utility.yul\":751:753   */\n  0x20\n    /* \"#utility.yul\":743:749   */\n  dup3\n    /* \"#utility.yul\":740:754   */\n  lt\n    /* \"#utility.yul\":720:738   */\n  dup2\n    /* \"#utility.yul\":717:755   */\n  sub\n    /* \"#utility.yul\":714:798   */\n  tag_31\n  jumpi\n    /* \"#utility.yul\":770:788   */\n  tag_32\n  tag_7\n  jump\t// in\ntag_32:\n    /* \"#utility.yul\":714:798   */\ntag_31:\n    /* \"#utility.yul\":535:804   */\n  pop\n    /* \"#utility.yul\":484:804   */\n  swap2\n  swap1\n  pop\n  jump\t// out\n    /* \"#utility.yul\":810:951   */\ntag_9:\n    /* \"#utility.yul\":859:863   */\n  0x00\n    /* \"#utility.yul\":882:885   */\n  dup2\n    /* \"#utility.yul\":874:885   */\n  swap1\n  pop\n    /* \"#utility.yul\":905:908   */\n  dup2\n    /* \"#utility.yul\":902:903   */\n  0x00\n    /* \"#utility.yul\":895:909   */\n  mstore\n    /* \"#utility.yul\":939:943   */\n  0x20\n    /* \"#utility.yul\":936:937   */\n  0x00\n    /* \"#utility.yul\":926:944   */\n  keccak256\n    /* \"#utility.yul\":918:944   */\n  swap1\n  pop\n    /* \"#utility.yul\":810:951   */\n  swap2\n  swap1\n  pop\n  jump\t// out\n    /* \"#utility.yul\":957:1050   */\ntag_10:\n    /* \"#utility.yul\":994:1000   */\n  0x00\n    /* \"#utility.yul\":1041:1043   */\n  0x20\n    /* \"#utility.yul\":1036:1038   */\n  0x1f\n    /* \"#utility.yul\":1029:1034   */\n  dup4\n    /* \"#utility.yul\":1025:1039   */\n  add\n    /* \"#utility.yul\":1021:1044   */\n  div\n    /* \"#utility.yul\":1011:1044   */\n  swap1\n  pop\n    /* \"#utility.yul\":957:1050   */\n  swap2\n  swap1\n  pop\n  jump\t// out\n    /* \"#utility.yul\":1056:1163   */\ntag_11:\n    /* \"#utility.yul\":1100:1108   */\n  0x00\n    /* \"#utility.yul\":1150:1155   */\n  dup3\n    /* \"#utility.yul\":1144:1148   */\n  dup3\n    /* \"#utility.yul\":1140:1156   */\n  shl\n    /* \"#utility.yul\":1119:1156   */\n  swap1\n  pop\n    /* \"#utility.yul\":1056:1163   */\n  swap3\n  swap2\n  pop\n  pop\n  jump\t// out\n    /* \"#utility.yul\":1169:1562   */\ntag_12:\n    /* \"#utility.yul\":1238:1244   */\n  0x00\n    /* \"#utility.yul\":1288:1289   */\n  0x08\n    /* \"#utility.yul\":1276:1286   */\n  dup4\n    /* \"#utility.yul\":1272:1290   */\n  mul\n    /* \"#utility.yul\":1311:1408   */\n  tag_37\n    /* \"#utility.yul\":1341:1407   */\n  0xffffffffffffffffffffffffffffffffffffffffffffffffffffffffffffffff\n    /* \"#utility.yul\":1330:1339   */\n  dup3\n    /* \"#utility.yul\":1311:1408   */\n  tag_11\n  jump\t// in\ntag_37:\n    /* \"#utility.yul\":1429:1468   */\n  tag_38\n    /* \"#utility.yul\":1459:1467   */\n  dup7\n    /* \"#utility.yul\":1448:1457   */\n  dup4\n    /* \"#utility.yul\":1429:1468   */\n  tag_11\n  jump\t// in\ntag_38:\n    /* \"#utility.yul\":1417:1468   */\n  swap6\n  pop\n    /* \"#utility.yul\":1501:1505   */\n  dup1\n    /* \"#utility.yul\":1497:1506   */\n  not\n    /* \"#utility.yul\":1490:1495   */\n  dup5\n    /* \"#utility.yul\":1486:1507   */\n  and\n    /* \"#utility.yul\":1477:1507   */\n  swap4\n  pop\n    /* \"#utility.yul\":1550:1554   */\n  dup1\n    /* \"#utility.yul\":1540:1548   */\n  dup7\n    /* \"#utility.yul\":1536:1555   */\n  and\n    /* \"#utility.yul\":1529:1534   */\n  dup5\n    /* \"#utility.yul\":1526:1556   */\n  or\n    /* \"#utility.yul\":1516:1556   */\n  swap3\n  pop\n    /* \"#utility.yul\":1245:1562   */\n  pop\n  pop\n    /* \"#utility.yul\":1169:1562   */\n  swap4\n  swap3\n  pop\n  pop\n  pop\n  jump\t// out\n    /* \"#utility.yul\":1568:1645   */\ntag_13:\n    /* \"#utility.yul\":1605:1612   */\n  0x00\n    /* \"#utility.yul\":1634:1639   */\n  dup2\n    /* \"#utility.yul\":1623:1639   */\n  swap1\n  pop\n    /* \"#utility.yul\":1568:1645   */\n  swap2\n  swap1\n  pop\n  jump\t// out\n    /* \"#utility.yul\":1651:1711   */\ntag_14:\n    /* \"#utility.yul\":1679:1682   */\n  0x00\n    /* \"#utility.yul\":1700:1705   */\n  dup2\n    /* \"#utility.yul\":1693:1705   */\n  swap1\n  pop\n    /* \"#utility.yul\":1651:1711   */\n  swap2\n  swap1\n  pop\n  jump\t// out\n    /* \"#utility.yul\":1717:1859   */\ntag_15:\n    /* \"#utility.yul\":1767:1776   */\n  0x00\n    /* \"#utility.yul\":1800:1853   */\n  tag_42\n    /* \"#utility.yul\":1818:1852   */\n  tag_43\n    /* \"#utility.yul\":1827:1851   */\n  tag_44\n    /* \"#utility.yul\":1845:1850   */\n  dup5\n    /* \"#utility.yul\":1827:1851   */\n  tag_13\n  jump\t// in\ntag_44:\n    /* \"#utility.yul\":1818:1852   */\n  tag_14\n  jump\t// in\ntag_43:\n    /* \"#utility.yul\":1800:1853   */\n  tag_13\n  jump\t// in\ntag_42:\n    /* \"#utility.yul\":1787:1853   */\n  swap1\n  pop\n    /* \"#utility.yul\":1717:1859   */\n  swap2\n  swap1\n  pop\n  jump\t// out\n    /* \"#utility.yul\":1865:1940   */\ntag_16:\n    /* \"#utility.yul\":1908:1911   */\n  0x00\n    /* \"#utility.yul\":1929:1934   */\n  dup2\n    /* \"#utility.yul\":1922:1934   */\n  swap1\n  pop\n    /* \"#utility.yul\":1865:1940   */\n  swap2\n  swap1\n  pop\n  jump\t// out\n    /* \"#utility.yul\":1946:2215   */\ntag_17:\n    /* \"#utility.yul\":2056:2095   */\n  tag_47\n    /* \"#utility.yul\":2087:2094   */\n  dup4\n    /* \"#utility.yul\":2056:2095   */\n  tag_15\n  jump\t// in\ntag_47:\n    /* \"#utility.yul\":2117:2208   */\n  tag_48\n    /* \"#utility.yul\":2166:2207   */\n  tag_49\n    /* \"#utility.yul\":2190:2206   */\n  dup3\n    /* \"#utility.yul\":2166:2207   */\n  tag_16\n  jump\t// in\ntag_49:\n    /* \"#utility.yul\":2158:2164   */\n  dup5\n    /* \"#utility.yul\":2151:2155   */\n  dup5\n    /* \"#utility.yul\":2145:2156   */\n  sload\n    /* \"#utility.yul\":2117:2208   */\n  tag_12\n  jump\t// in\ntag_48:\n    /* \"#utility.yul\":2111:2115   */\n  dup3\n    /* \"#utility.yul\":2104:2209   */\n  sstore\n    /* \"#utility.yul\":2022:2215   */\n  pop\n    /* \"#utility.yul\":1946:2215   */\n  pop\n  pop\n  pop\n  jump\t// out\n    /* \"#utility.yul\":2221:2294   */\ntag_18:\n    /* \"#utility.yul\":2266:2269   */\n  0x00\n    /* \"#utility.yul\":2221:2294   */\n  swap1\n  jump\t// out\n    /* \"#utility.yul\":2300:2489   */\ntag_19:\n    /* \"#utility.yul\":2377:2409   */\n  tag_52\n  tag_18\n  jump\t// in\ntag_52:\n    /* \"#utility.yul\":2418:2483   */\n  tag_53\n    /* \"#utility.yul\":2476:2482   */\n  dup2\n    /* \"#utility.yul\":2468:2474   */\n  dup5\n    /* \"#utility.yul\":2462:2466   */\n  dup5\n    /* \"#utility.yul\":2418:2483   */\n  tag_17\n  jump\t// in\ntag_53:\n    /* \"#utility.yul\":2353:2489   */\n  pop\n    /* \"#utility.yul\":2300:2489   */\n  pop\n  pop\n  jump\t// out\n    /* \"#utility.yul\":2495:2681   */\ntag_20:\n    /* \"#utility.yul\":2555:2675   */\ntag_55:\n    /* \"#utility.yul\":2572:2575   */\n  dup2\n    /* \"#utility.yul\":2565:2570   */\n  dup2\n    /* \"#utility.yul\":2562:2576   */\n  lt\n    /* \"#utility.yul\":2555:2675   */\n  iszero\n  tag_57\n  jumpi\n    /* \"#utility.yul\":2626:2665   */\n  tag_58\n    /* \"#utility.yul\":2663:2664   */\n  0x00\n    /* \"#utility.yul\":2656:2661   */\n  dup3\n    /* \"#utility.yul\":2626:2665   */\n  tag_19\n  jump\t// in\ntag_58:\n    /* \"#utility.yul\":2599:2600   */\n  0x01\n    /* \"#utility.yul\":2592:2597   */\n  dup2\n    /* \"#utility.yul\":2588:2601   */\n  add\n    /* \"#utility.yul\":2579:2601   */\n  swap1\n  pop\n    /* \"#utility.yul\":2555:2675   */\n  jump(tag_55)\ntag_57:\n    /* \"#utility.yul\":2495:2681   */\n  pop\n  pop\n  jump\t// out\n    /* \"#utility.yul\":2687:3230   */\ntag_21:\n    /* \"#utility.yul\":2788:2790   */\n  0x1f\n    /* \"#utility.yul\":2783:2786   */\n  dup3\n    /* \"#utility.yul\":2780:2791   */\n  gt\n    /* \"#utility.yul\":2777:3223   */\n  iszero\n  tag_60\n  jumpi\n    /* \"#utility.yul\":2822:2860   */\n  tag_61\n    /* \"#utility.yul\":2854:2859   */\n  dup2\n    /* \"#utility.yul\":2822:2860   */\n  tag_9\n  jump\t// in\ntag_61:\n    /* \"#utility.yul\":2906:2935   */\n  tag_62\n    /* \"#utility.yul\":2924:2934   */\n  dup5\n    /* \"#utility.yul\":2906:2935   */\n  tag_10\n  jump\t// in\ntag_62:\n    /* \"#utility.yul\":2896:2904   */\n  dup2\n    /* \"#utility.yul\":2892:2936   */\n  add\n    /* \"#utility.yul\":3089:3091   */\n  0x20\n    /* \"#utility.yul\":3077:3087   */\n  dup6\n    /* \"#utility.yul\":3074:3092   */\n  lt\n    /* \"#utility.yul\":3071:3120   */\n  iszero\n  tag_63\n  jumpi\n    /* \"#utility.yul\":3110:3118   */\n  dup2\n    /* \"#utility.yul\":3095:3118   */\n  swap1\n  pop\n    /* \"#utility.yul\":3071:3120   */\ntag_63:\n    /* \"#utility.yul\":3133:3213   */\n  tag_64\n    /* \"#utility.yul\":3189:3211   */\n  tag_65\n    /* \"#utility.yul\":3207:3210   */\n  dup6\n    /* \"#utility.yul\":3189:3211   */\n  tag_10\n  jump\t// in\ntag_65:\n    /* \"#utility.yul\":3179:3187   */\n  dup4\n    /* \"#utility.yul\":3175:3212   */\n  add\n    /* \"#utility.yul\":3162:3173   */\n  dup3\n    /* \"#utility.yul\":3133:3213   */\n  tag_20\n  jump\t// in\ntag_64:\n    /* \"#utility.yul\":2792:3223   */\n  pop\n  pop\n    /* \"#utility.yul\":2777:3223   */\ntag_60:\n    /* \"#utility.yul\":2687:3230   */\n  pop\n  pop\n  pop\n  jump\t// out\n    /* \"#utility.yul\":3236:3353   */\ntag_22:\n    /* \"#utility.yul\":3290:3298   */\n  0x00\n    /* \"#utility.yul\":3340:3345   */\n  dup3\n    /* \"#utility.yul\":3334:3338   */\n  dup3\n    /* \"#utility.yul\":3330:3346   */\n  shr\n    /* \"#utility.yul\":3309:3346   */\n  swap1\n  pop\n    /* \"#utility.yul\":3236:3353   */\n  swap3\n  swap2\n  pop\n  pop\n  jump\t// out\n    /* \"#utility.yul\":3359:3528   */\ntag_23:\n    /* \"#utility.yul\":3403:3409   */\n  0x00\n    /* \"#utility.yul\":3436:3487   */\n  tag_68\n    /* \"#utility.yul\":3484:3485   */\n  0x00\n    /* \"#utility.yul\":3480:3486   */\n  not\n    /* \"#utility.yul\":3472:3477   */\n  dup5\n    /* \"#utility.yul\":3469:3470   */\n  0x08\n    /* \"#utility.yul\":3465:3478   */\n  mul\n    /* \"#utility.yul\":3436:3487   */\n  tag_22\n  jump\t// in\ntag_68:\n    /* \"#utility.yul\":3432:3488   */\n  not\n    /* \"#utility.yul\":3517:3521   */\n  dup1\n    /* \"#utility.yul\":3511:3515   */\n  dup4\n    /* \"#utility.yul\":3507:3522   */\n  and\n    /* \"#utility.yul\":3497:3522   */\n  swap2\n  pop\n    /* \"#utility.yul\":3410:3528   */\n  pop\n    /* \"#utility.yul\":3359:3528   */\n  swap3\n  swap2\n  pop\n  pop\n  jump\t// out\n    /* \"#utility.yul\":3533:3828   */\ntag_24:\n    /* \"#utility.yul\":3609:3613   */\n  0x00\n    /* \"#utility.yul\":3755:3784   */\n  tag_70\n    /* \"#utility.yul\":3780:3783   */\n  dup4\n    /* \"#utility.yul\":3774:3778   */\n  dup4\n    /* \"#utility.yul\":3755:3784   */\n  tag_23\n  jump\t// in\ntag_70:\n    /* \"#utility.yul\":3747:3784   */\n  swap2\n  pop\n    /* \"#utility.yul\":3817:3820   */\n  dup3\n    /* \"#utility.yul\":3814:3815   */\n  0x02\n    /* \"#utility.yul\":3810:3821   */\n  mul\n    /* \"#utility.yul\":3804:3808   */\n  dup3\n    /* \"#utility.yul\":3801:3822   */\n  or\n    /* \"#utility.yul\":3793:3822   */\n  swap1\n  pop\n    /* \"#utility.yul\":3533:3828   */\n  swap3\n  swap2\n  pop\n  pop\n  jump\t// out\n    /* \"#utility.yul\":3833:5228   */\ntag_2:\n    /* \"#utility.yul\":3950:3987   */\n  tag_72\n    /* \"#utility.yul\":3983:3986   */\n  dup3\n    /* \"#utility.yul\":3950:3987   */\n  tag_5\n  jump\t// in\ntag_72:\n    /* \"#utility.yul\":4052:4070   */\n  0xffffffffffffffff\n    /* \"#utility.yul\":4044:4050   */\n  dup2\n    /* \"#utility.yul\":4041:4071   */\n  gt\n    /* \"#utility.yul\":4038:4094   */\n  iszero\n  tag_73\n  jumpi\n    /* \"#utility.yul\":4074:4092   */\n  tag_74\n  tag_6\n  jump\t// in\ntag_74:\n    /* \"#utility.yul\":4038:4094   */\ntag_73:\n    /* \"#utility.yul\":4118:4156   */\n  tag_75\n    /* \"#utility.yul\":4150:4154   */\n  dup3\n    /* \"#utility.yul\":4144:4155   */\n  sload\n    /* \"#utility.yul\":4118:4156   */\n  tag_8\n  jump\t// in\ntag_75:\n    /* \"#utility.yul\":4203:4270   */\n  tag_76\n    /* \"#utility.yul\":4263:4269   */\n  dup3\n    /* \"#utility.yul\":4255:4261   */\n  dup3\n    /* \"#utility.yul\":4249:4253   */\n  dup6\n    /* \"#utility.yul\":4203:4270   */\n  tag_21\n  jump\t// in\ntag_76:\n    /* \"#utility.yul\":4297:4298   */\n  0x00\n    /* \"#utility.yul\":4321:4325   */\n  0x20\n    /* \"#utility.yul\":4308:4325   */\n  swap1\n  pop\n    /* \"#utility.yul\":4353:4355   */\n  0x1f\n    /* \"#utility.yul\":4345:4351   */\n  dup4\n    /* \"#utility.yul\":4342:4356   */\n  gt\n    /* \"#utility.yul\":4370:4371   */\n  0x01\n    /* \"#utility.yul\":4365:4983   */\n  dup2\n  eq\n  tag_78\n  jumpi\n    /* \"#utility.yul\":5027:5028   */\n  0x00\n    /* \"#utility.yul\":5044:5050   */\n  dup5\n    /* \"#utility.yul\":5041:5118   */\n  iszero\n  tag_79\n  jumpi\n    /* \"#utility.yul\":5093:5102   */\n  dup3\n    /* \"#utility.yul\":5088:5091   */\n  dup8\n    /* \"#utility.yul\":5084:5103   */\n  add\n    /* \"#utility.yul\":5078:5104   */\n  mload\n    /* \"#utility.yul\":5069:5104   */\n  swap1\n  pop\n    /* \"#utility.yul\":5041:5118   */\ntag_79:\n    /* \"#utility.yul\":5144:5211   */\n  tag_80\n    /* \"#utility.yul\":5204:5210   */\n  dup6\n    /* \"#utility.yul\":5197:5202   */\n  dup3\n    /* \"#utility.yul\":5144:5211   */\n  tag_24\n  jump\t// in\ntag_80:\n    /* \"#utility.yul\":5138:5142   */\n  dup7\n    /* \"#utility.yul\":5131:5212   */\n  sstore\n    /* \"#utility.yul\":5000:5222   */\n  pop\n    /* \"#utility.yul\":4335:5222   */\n  jump(tag_77)\n    /* \"#utility.yul\":4365:4983   */\ntag_78:\n    /* \"#utility.yul\":4417:4421   */\n  0x1f\n    /* \"#utility.yul\":4413:4422   */\n  not\n    /* \"#utility.yul\":4405:4411   */\n  dup5\n    /* \"#utility.yul\":4401:4423   */\n  and\n    /* \"#utility.yul\":4451:4488   */\n  tag_81\n    /* \"#utility.yul\":4483:4487   */\n  dup7\n    /* \"#utility.yul\":4451:4488   */\n  tag_9\n  jump\t// in\ntag_81:\n    /* \"#utility.yul\":4510:4511   */\n  0x00\n    /* \"#utility.yul\":4524:4732   */\ntag_82:\n    /* \"#utility.yul\":4538:4545   */\n  dup3\n    /* \"#utility.yul\":4535:4536   */\n  dup2\n    /* \"#utility.yul\":4532:4546   */\n  lt\n    /* \"#utility.yul\":4524:4732   */\n  iszero\n  tag_84\n  jumpi\n    /* \"#utility.yul\":4617:4626   */\n  dup5\n    /* \"#utility.yul\":4612:4615   */\n  dup10\n    /* \"#utility.yul\":4608:4627   */\n  add\n    /* \"#utility.yul\":4602:4628   */\n  mload\n    /* \"#utility.yul\":4594:4600   */\n  dup3\n    /* \"#utility.yul\":4587:4629   */\n  sstore\n    /* \"#utility.yul\":4668:4669   */\n  0x01\n    /* \"#utility.yul\":4660:4666   */\n  dup3\n    /* \"#utility.yul\":4656:4670   */\n  add\n    /* \"#utility.yul\":4646:4670   */\n  swap2\n  pop\n    /* \"#utility.yul\":4715:4717   */\n  0x20\n    /* \"#utility.yul\":4704:4713   */\n  dup6\n    /* \"#utility.yul\":4700:4718   */\n  add\n    /* \"#utility.yul\":4687:4718   */\n  swap5\n  pop\n    /* \"#utility.yul\":4561:4565   */\n  0x20\n    /* \"#utility.yul\":4558:4559   */\n  dup2\n    /* \"#utility.yul\":4554:4566   */\n  add\n    /* \"#utility.yul\":4549:4566   */\n  swap1\n  pop\n    /* \"#utility.yul\":4524:4732   */\n  jump(tag_82)\ntag_84:\n    /* \"#utility.yul\":4760:4766   */\n  dup7\n    /* \"#utility.yul\":4751:4758   */\n  dup4\n    /* \"#utility.yul\":4748:4767   */\n  lt\n    /* \"#utility.yul\":4745:4924   */\n  iszero\n  tag_85\n  jumpi\n    /* \"#utility.yul\":4818:4827   */\n  dup5\n    /* \"#utility.yul\":4813:4816   */\n  dup10\n    /* \"#utility.yul\":4809:4828   */\n  add\n    /* \"#utility.yul\":4803:4829   */\n  mload\n    /* \"#utility.yul\":4861:4909   */\n  tag_86\n    /* \"#utility.yul\":4903:4907   */\n  0x1f\n    /* \"#utility.yul\":4895:4901   */\n  dup10\n    /* \"#utility.yul\":4891:4908   */\n  and\n    /* \"#utility.yul\":4880:4889   */\n  dup3\n    /* \"#utility.yul\":4861:4909   */\n  tag_23\n  jump\t// in\ntag_86:\n    /* \"#utility.yul\":4853:4859   */\n  dup4\n    /* \"#utility.yul\":4846:4910   */\n  sstore\n    /* \"#utility.yul\":4768:4924   */\n  pop\n    /* \"#utility.yul\":4745:4924   */\ntag_85:\n    /* \"#utility.yul\":4970:4971   */\n  0x01\n    /* \"#utility.yul\":4966:4967   */\n  0x02\n    /* \"#utility.yul\":4958:4964   */\n  dup9\n    /* \"#utility.yul\":4954:4968   */\n  mul\n    /* \"#utility.yul\":4950:4972   */\n  add\n    /* \"#utility.yul\":4944:4948   */\n  dup9\n    /* \"#utility.yul\":4937:4973   */\n  sstore\n    /* \"#utility.yul\":4372:4983   */\n  pop\n  pop\n  pop\n    /* \"#utility.yul\":4335:5222   */\ntag_77:\n  pop\n    /* \"#utility.yul\":3925:5228   */\n  pop\n  pop\n  pop\n    /* \"#utility.yul\":3833:5228   */\n  pop\n  pop\n  jump\t// out\n    /* \"contracts/access.sol\":58:744  contract Modify {... */\ntag_4:\n  dataSize(sub_0)\n  dup1\n  dataOffset(sub_0)\n  0x00\n  codecopy\n  0x00\n  return\nstop\n\nsub_0: assembly {\n        /* \"contracts/access.sol\":58:744  contract Modify {... */\n      mstore(0x40, 0x80)\n      callvalue\n      dup1\n      iszero\n      tag_1\n      jumpi\n      0x00\n      dup1\n      revert\n    tag_1:\n      pop\n      jumpi(tag_2, lt(calldatasize, 0x04))\n      shr(0xe0, calldataload(0x00))\n      dup1\n      0xa2375d1e\n      gt\n      tag_11\n      jumpi\n      dup1\n      0xa2375d1e\n      eq\n      tag_7\n      jumpi\n      dup1\n      0xaf3b6902\n      eq\n      tag_8\n      jumpi\n      dup1\n      0xd46300fd\n      eq\n      tag_9\n      jumpi\n      dup1\n      0xee919d50\n      eq\n      tag_10\n      jumpi\n      jump(tag_2)\n    tag_11:\n      dup1\n      0x1a14ff7a\n      eq\n      tag_3\n      jumpi\n      dup1\n      0x1b72e3cd\n      eq\n      tag_4\n      jumpi\n      dup1\n      0x2495477e\n      eq\n      tag_5\n      jumpi\n      dup1\n      0xa1c51915\n      eq\n      tag_6\n      jumpi\n    tag_2:\n      0x00\n      dup1\n      revert\n        /* \"contracts/access.sol\":428:498  function getD() external  view returns (bool){... */\n    tag_3:\n      tag_12\n      tag_13\n      jump\t// in\n    tag_12:\n      mload(0x40)\n      tag_14\n      swap2\n      swap1\n      tag_15\n      jump\t// in\n    tag_14:\n      mload(0x40)\n      dup1\n      swap2\n      sub\n      swap1\n      return\n        /* \"contracts/access.sol\":619:683  function setC(string calldata x) external {... */\n    tag_4:\n      tag_16\n      0x04\n      dup1\n      calldatasize\n      sub\n      dup2\n      add\n      swap1\n      tag_17\n      swap2\n      swap1\n      tag_18\n      jump\t// in\n    tag_17:\n      tag_19\n      jump\t// in\n    tag_16:\n      stop\n        /* \"contracts/access.sol\":688:741  function setD(bool x) external {... */\n    tag_5:\n      tag_20\n      0x04\n      dup1\n      calldatasize\n      sub\n      dup2\n      add\n      swap1\n      tag_21\n      swap2\n      swap1\n      tag_22\n      jump\t// in\n    tag_21:\n      tag_23\n      jump\t// in\n    tag_20:\n      stop\n        /* \"contracts/access.sol\":272:339  function getB() public  view returns (int){... */\n    tag_6:\n      tag_24\n      tag_25\n      jump\t// in\n    tag_24:\n      mload(0x40)\n      tag_26\n      swap2\n      swap1\n      tag_27\n      jump\t// in\n    tag_26:\n      mload(0x40)\n      dup1\n      swap2\n      sub\n      swap1\n      return\n        /* \"contracts/access.sol\":345:422  function getC() public  view returns (string memory){... */\n    tag_7:\n      tag_28\n      tag_29\n      jump\t// in\n    tag_28:\n      mload(0x40)\n      tag_30\n      swap2\n      swap1\n      tag_31\n      jump\t// in\n    tag_30:\n      mload(0x40)\n      dup1\n      swap2\n      sub\n      swap1\n      return\n        /* \"contracts/access.sol\":562:614  function setB(int x) external {... */\n    tag_8:\n      tag_32\n      0x04\n      dup1\n      calldatasize\n      sub\n      dup2\n      add\n      swap1\n      tag_33\n      swap2\n      swap1\n      tag_34\n      jump\t// in\n    tag_33:\n      tag_35\n      jump\t// in\n    tag_32:\n      stop\n        /* \"contracts/access.sol\":198:266  function getA() external view returns(uint){... */\n    tag_9:\n      tag_36\n      tag_37\n      jump\t// in\n    tag_36:\n      mload(0x40)\n      tag_38\n      swap2\n      swap1\n      tag_39\n      jump\t// in\n    tag_38:\n      mload(0x40)\n      dup1\n      swap2\n      sub\n      swap1\n      return\n        /* \"contracts/access.sol\":504:557  function setA(uint x) external {... */\n    tag_10:\n      tag_40\n      0x04\n      dup1\n      calldatasize\n      sub\n      dup2\n      add\n      swap1\n      tag_41\n      swap2\n      swap1\n      tag_42\n      jump\t// in\n    tag_41:\n      tag_43\n      jump\t// in\n    tag_40:\n      stop\n        /* \"contracts/access.sol\":428:498  function getD() external  view returns (bool){... */\n    tag_13:\n        /* \"contracts/access.sol\":468:472  bool */\n      0x00\n        /* \"contracts/access.sol\":490:491  d */\n      0x03\n      0x00\n      swap1\n      sload\n      swap1\n      0x0100\n      exp\n      swap1\n      div\n      0xff\n      and\n        /* \"contracts/access.sol\":483:491  return d */\n      swap1\n      pop\n        /* \"contracts/access.sol\":428:498  function getD() external  view returns (bool){... */\n      swap1\n      jump\t// out\n        /* \"contracts/access.sol\":619:683  function setC(string calldata x) external {... */\n    tag_19:\n        /* \"contracts/access.sol\":675:676  x */\n      dup2\n      dup2\n        /* \"contracts/access.sol\":671:672  c */\n      0x02\n        /* \"contracts/access.sol\":671:676  c = x */\n      swap2\n      dup3\n      tag_46\n      swap3\n      swap2\n      swap1\n      tag_47\n      jump\t// in\n    tag_46:\n      pop\n        /* \"contracts/access.sol\":619:683  function setC(string calldata x) external {... */\n      pop\n      pop\n      jump\t// out\n        /* \"contracts/access.sol\":688:741  function setD(bool x) external {... */\n    tag_23:\n        /* \"contracts/access.sol\":733:734  x */\n      dup1\n        /* \"contracts/access.sol\":729:730  d */\n      0x03\n      0x00\n        /* \"contracts/access.sol\":729:734  d = x */\n      0x0100\n      exp\n      dup2\n      sload\n      dup2\n      0xff\n      mul\n      not\n      and\n      swap1\n      dup4\n      iszero\n      iszero\n      mul\n      or\n      swap1\n      sstore\n      pop\n        /* \"contracts/access.sol\":688:741  function setD(bool x) external {... */\n      pop\n      jump\t// out\n        /* \"contracts/access.sol\":272:339  function getB() public  view returns (int){... */\n    tag_25:\n        /* \"contracts/access.sol\":310:313  int */\n      0x00\n        /* \"contracts/access.sol\":331:332  b */\n      sload(0x01)\n        /* \"contracts/access.sol\":324:332  return b */\n      swap1\n      pop\n        /* \"contracts/access.sol\":272:339  function getB() public  view returns (int){... */\n      swap1\n      jump\t// out\n        /* \"contracts/access.sol\":345:422  function getC() public  view returns (string memory){... */\n    tag_29:\n        /* \"contracts/access.sol\":383:396  string memory */\n      0x60\n        /* \"contracts/access.sol\":414:415  c */\n      0x02\n        /* \"contracts/access.sol\":407:415  return c */\n      dup1\n      sload\n      tag_51\n      swap1\n      tag_52\n      jump\t// in\n    tag_51:\n      dup1\n      0x1f\n      add\n      0x20\n      dup1\n      swap2\n      div\n      mul\n      0x20\n      add\n      mload(0x40)\n      swap1\n      dup2\n      add\n      0x40\n      mstore\n      dup1\n      swap3\n      swap2\n      swap1\n      dup2\n      dup2\n      mstore\n      0x20\n      add\n      dup3\n      dup1\n      sload\n      tag_53\n      swap1\n      tag_52\n      jump\t// in\n    tag_53:\n      dup1\n      iszero\n      tag_54\n      jumpi\n      dup1\n      0x1f\n      lt\n      tag_55\n      jumpi\n      0x0100\n      dup1\n      dup4\n      sload\n      div\n      mul\n      dup4\n      mstore\n      swap2\n      0x20\n      add\n      swap2\n      jump(tag_54)\n    tag_55:\n      dup3\n      add\n      swap2\n      swap1\n      0x00\n      mstore\n      keccak256(0x00, 0x20)\n      swap1\n    tag_56:\n      dup2\n      sload\n      dup2\n      mstore\n      swap1\n      0x01\n      add\n      swap1\n      0x20\n      add\n      dup1\n      dup4\n      gt\n      tag_56\n      jumpi\n      dup3\n      swap1\n      sub\n      0x1f\n      and\n      dup3\n      add\n      swap2\n    tag_54:\n      pop\n      pop\n      pop\n      pop\n      pop\n      swap1\n      pop\n        /* \"contracts/access.sol\":345:422  function getC() public  view returns (string memory){... */\n      swap1\n      jump\t// out\n        /* \"contracts/access.sol\":562:614  function setB(int x) external {... */\n    tag_35:\n        /* \"contracts/access.sol\":606:607  x */\n      dup1\n        /* \"contracts/access.sol\":602:603  b */\n      0x01\n        /* \"contracts/access.sol\":602:607  b = x */\n      dup2\n      swap1\n      sstore\n      pop\n        /* \"contracts/access.sol\":562:614  function setB(int x) external {... */\n      pop\n      jump\t// out\n        /* \"contracts/access.sol\":198:266  function getA() external view returns(uint){... */\n    tag_37:\n        /* \"contracts/access.sol\":236:240  uint */\n      0x00\n        /* \"contracts/access.sol\":258:259  a */\n      dup1\n      sload\n        /* \"contracts/access.sol\":251:259  return a */\n      swap1\n      pop\n        /* \"contracts/access.sol\":198:266  function getA() external view returns(uint){... */\n      swap1\n      jump\t// out\n        /* \"contracts/access.sol\":504:557  function setA(uint x) external {... */\n    tag_43:\n        /* \"contracts/access.sol\":549:550  x */\n      dup1\n        /* \"contracts/access.sol\":545:546  a */\n      0x00\n        /* \"contracts/access.sol\":545:550  a = x */\n      dup2\n      swap1\n      sstore\n      pop\n        /* \"contracts/access.sol\":504:557  function setA(uint x) external {... */\n      pop\n      jump\t// out\n        /* \"#utility.yul\":7:97   */\n    tag_60:\n        /* \"#utility.yul\":41:48   */\n      0x00\n        /* \"#utility.yul\":84:89   */\n      dup2\n        /* \"#utility.yul\":77:90   */\n      iszero\n        /* \"#utility.yul\":70:91   */\n      iszero\n        /* \"#utility.yul\":59:91   */\n      swap1\n      pop\n        /* \"#utility.yul\":7:97   */\n      swap2\n      swap1\n      pop\n      jump\t// out\n        /* \"#utility.yul\":103:212   */\n    tag_61:\n        /* \"#utility.yul\":184:205   */\n      tag_105\n        /* \"#utility.yul\":199:204   */\n      dup2\n        /* \"#utility.yul\":184:205   */\n      tag_60\n      jump\t// in\n    tag_105:\n        /* \"#utility.yul\":179:182   */\n      dup3\n        /* \"#utility.yul\":172:206   */\n      mstore\n        /* \"#utility.yul\":103:212   */\n      pop\n      pop\n      jump\t// out\n        /* \"#utility.yul\":218:428   */\n    tag_15:\n        /* \"#utility.yul\":305:309   */\n      0x00\n        /* \"#utility.yul\":343:345   */\n      0x20\n        /* \"#utility.yul\":332:341   */\n      dup3\n        /* \"#utility.yul\":328:346   */\n      add\n        /* \"#utility.yul\":320:346   */\n      swap1\n      pop\n        /* \"#utility.yul\":356:421   */\n      tag_107\n        /* \"#utility.yul\":418:419   */\n      0x00\n        /* \"#utility.yul\":407:416   */\n      dup4\n        /* \"#utility.yul\":403:420   */\n      add\n        /* \"#utility.yul\":394:400   */\n      dup5\n        /* \"#utility.yul\":356:421   */\n      tag_61\n      jump\t// in\n    tag_107:\n        /* \"#utility.yul\":218:428   */\n      swap3\n      swap2\n      pop\n      pop\n      jump\t// out\n        /* \"#utility.yul\":515:632   */\n    tag_63:\n        /* \"#utility.yul\":624:625   */\n      0x00\n        /* \"#utility.yul\":621:622   */\n      dup1\n        /* \"#utility.yul\":614:626   */\n      revert\n        /* \"#utility.yul\":638:755   */\n    tag_64:\n        /* \"#utility.yul\":747:748   */\n      0x00\n        /* \"#utility.yul\":744:745   */\n      dup1\n        /* \"#utility.yul\":737:749   */\n      revert\n        /* \"#utility.yul\":761:878   */\n    tag_65:\n        /* \"#utility.yul\":870:871   */\n      0x00\n        /* \"#utility.yul\":867:868   */\n      dup1\n        /* \"#utility.yul\":860:872   */\n      revert\n        /* \"#utility.yul\":884:1001   */\n    tag_66:\n        /* \"#utility.yul\":993:994   */\n      0x00\n        /* \"#utility.yul\":990:991   */\n      dup1\n        /* \"#utility.yul\":983:995   */\n      revert\n        /* \"#utility.yul\":1007:1124   */\n    tag_67:\n        /* \"#utility.yul\":1116:1117   */\n      0x00\n        /* \"#utility.yul\":1113:1114   */\n      dup1\n        /* \"#utility.yul\":1106:1118   */\n      revert\n        /* \"#utility.yul\":1144:1697   */\n    tag_68:\n        /* \"#utility.yul\":1202:1210   */\n      0x00\n        /* \"#utility.yul\":1212:1218   */\n      dup1\n        /* \"#utility.yul\":1262:1265   */\n      dup4\n        /* \"#utility.yul\":1255:1259   */\n      0x1f\n        /* \"#utility.yul\":1247:1253   */\n      dup5\n        /* \"#utility.yul\":1243:1260   */\n      add\n        /* \"#utility.yul\":1239:1266   */\n      slt\n        /* \"#utility.yul\":1229:1351   */\n      tag_115\n      jumpi\n        /* \"#utility.yul\":1270:1349   */\n      tag_116\n      tag_65\n      jump\t// in\n    tag_116:\n        /* \"#utility.yul\":1229:1351   */\n    tag_115:\n        /* \"#utility.yul\":1383:1389   */\n      dup3\n        /* \"#utility.yul\":1370:1390   */\n      calldataload\n        /* \"#utility.yul\":1360:1390   */\n      swap1\n      pop\n        /* \"#utility.yul\":1413:1431   */\n      0xffffffffffffffff\n        /* \"#utility.yul\":1405:1411   */\n      dup2\n        /* \"#utility.yul\":1402:1432   */\n      gt\n        /* \"#utility.yul\":1399:1516   */\n      iszero\n      tag_117\n      jumpi\n        /* \"#utility.yul\":1435:1514   */\n      tag_118\n      tag_66\n      jump\t// in\n    tag_118:\n        /* \"#utility.yul\":1399:1516   */\n    tag_117:\n        /* \"#utility.yul\":1549:1553   */\n      0x20\n        /* \"#utility.yul\":1541:1547   */\n      dup4\n        /* \"#utility.yul\":1537:1554   */\n      add\n        /* \"#utility.yul\":1525:1554   */\n      swap2\n      pop\n        /* \"#utility.yul\":1603:1606   */\n      dup4\n        /* \"#utility.yul\":1595:1599   */\n      0x01\n        /* \"#utility.yul\":1587:1593   */\n      dup3\n        /* \"#utility.yul\":1583:1600   */\n      mul\n        /* \"#utility.yul\":1573:1581   */\n      dup4\n        /* \"#utility.yul\":1569:1601   */\n      add\n        /* \"#utility.yul\":1566:1607   */\n      gt\n        /* \"#utility.yul\":1563:1691   */\n      iszero\n      tag_119\n      jumpi\n        /* \"#utility.yul\":1610:1689   */\n      tag_120\n      tag_67\n      jump\t// in\n    tag_120:\n        /* \"#utility.yul\":1563:1691   */\n    tag_119:\n        /* \"#utility.yul\":1144:1697   */\n      swap3\n      pop\n      swap3\n      swap1\n      pop\n      jump\t// out\n        /* \"#utility.yul\":1703:2232   */\n    tag_18:\n        /* \"#utility.yul\":1774:1780   */\n      0x00\n        /* \"#utility.yul\":1782:1788   */\n      dup1\n        /* \"#utility.yul\":1831:1833   */\n      0x20\n        /* \"#utility.yul\":1819:1828   */\n      dup4\n        /* \"#utility.yul\":1810:1817   */\n      dup6\n        /* \"#utility.yul\":1806:1829   */\n      sub\n        /* \"#utility.yul\":1802:1834   */\n      slt\n        /* \"#utility.yul\":1799:1918   */\n      iszero\n      tag_122\n      jumpi\n        /* \"#utility.yul\":1837:1916   */\n      tag_123\n      tag_63\n      jump\t// in\n    tag_123:\n        /* \"#utility.yul\":1799:1918   */\n    tag_122:\n        /* \"#utility.yul\":1985:1986   */\n      0x00\n        /* \"#utility.yul\":1974:1983   */\n      dup4\n        /* \"#utility.yul\":1970:1987   */\n      add\n        /* \"#utility.yul\":1957:1988   */\n      calldataload\n        /* \"#utility.yul\":2015:2033   */\n      0xffffffffffffffff\n        /* \"#utility.yul\":2007:2013   */\n      dup2\n        /* \"#utility.yul\":2004:2034   */\n      gt\n        /* \"#utility.yul\":2001:2118   */\n      iszero\n      tag_124\n      jumpi\n        /* \"#utility.yul\":2037:2116   */\n      tag_125\n      tag_64\n      jump\t// in\n    tag_125:\n        /* \"#utility.yul\":2001:2118   */\n    tag_124:\n        /* \"#utility.yul\":2150:2215   */\n      tag_126\n        /* \"#utility.yul\":2207:2214   */\n      dup6\n        /* \"#utility.yul\":2198:2204   */\n      dup3\n        /* \"#utility.yul\":2187:2196   */\n      dup7\n        /* \"#utility.yul\":2183:2205   */\n      add\n        /* \"#utility.yul\":2150:2215   */\n      tag_68\n      jump\t// in\n    tag_126:\n        /* \"#utility.yul\":2132:2215   */\n      swap3\n      pop\n      swap3\n      pop\n        /* \"#utility.yul\":1928:2225   */\n      pop\n        /* \"#utility.yul\":1703:2232   */\n      swap3\n      pop\n      swap3\n      swap1\n      pop\n      jump\t// out\n        /* \"#utility.yul\":2238:2354   */\n    tag_69:\n        /* \"#utility.yul\":2308:2329   */\n      tag_128\n        /* \"#utility.yul\":2323:2328   */\n      dup2\n        /* \"#utility.yul\":2308:2329   */\n      tag_60\n      jump\t// in\n    tag_128:\n        /* \"#utility.yul\":2301:2306   */\n      dup2\n        /* \"#utility.yul\":2298:2330   */\n      eq\n        /* \"#utility.yul\":2288:2348   */\n      tag_129\n      jumpi\n        /* \"#utility.yul\":2344:2345   */\n      0x00\n        /* \"#utility.yul\":2341:2342   */\n      dup1\n        /* \"#utility.yul\":2334:2346   */\n      revert\n        /* \"#utility.yul\":2288:2348   */\n    tag_129:\n        /* \"#utility.yul\":2238:2354   */\n      pop\n      jump\t// out\n        /* \"#utility.yul\":2360:2493   */\n    tag_70:\n        /* \"#utility.yul\":2403:2408   */\n      0x00\n        /* \"#utility.yul\":2441:2447   */\n      dup2\n        /* \"#utility.yul\":2428:2448   */\n      calldataload\n        /* \"#utility.yul\":2419:2448   */\n      swap1\n      pop\n        /* \"#utility.yul\":2457:2487   */\n      tag_131\n        /* \"#utility.yul\":2481:2486   */\n      dup2\n        /* \"#utility.yul\":2457:2487   */\n      tag_69\n      jump\t// in\n    tag_131:\n        /* \"#utility.yul\":2360:2493   */\n      swap3\n      swap2\n      pop\n      pop\n      jump\t// out\n        /* \"#utility.yul\":2499:2822   */\n    tag_22:\n        /* \"#utility.yul\":2555:2561   */\n      0x00\n        /* \"#utility.yul\":2604:2606   */\n      0x20\n        /* \"#utility.yul\":2592:2601   */\n      dup3\n        /* \"#utility.yul\":2583:2590   */\n      dup5\n        /* \"#utility.yul\":2579:2602   */\n      sub\n        /* \"#utility.yul\":2575:2607   */\n      slt\n        /* \"#utility.yul\":2572:2691   */\n      iszero\n      tag_133\n      jumpi\n        /* \"#utility.yul\":2610:2689   */\n      tag_134\n      tag_63\n      jump\t// in\n    tag_134:\n        /* \"#utility.yul\":2572:2691   */\n    tag_133:\n        /* \"#utility.yul\":2730:2731   */\n      0x00\n        /* \"#utility.yul\":2755:2805   */\n      tag_135\n        /* \"#utility.yul\":2797:2804   */\n      dup5\n        /* \"#utility.yul\":2788:2794   */\n      dup3\n        /* \"#utility.yul\":2777:2786   */\n      dup6\n        /* \"#utility.yul\":2773:2795   */\n      add\n        /* \"#utility.yul\":2755:2805   */\n      tag_70\n      jump\t// in\n    tag_135:\n        /* \"#utility.yul\":2745:2805   */\n      swap2\n      pop\n        /* \"#utility.yul\":2701:2815   */\n      pop\n        /* \"#utility.yul\":2499:2822   */\n      swap3\n      swap2\n      pop\n      pop\n      jump\t// out\n        /* \"#utility.yul\":2828:2904   */\n    tag_71:\n        /* \"#utility.yul\":2864:2871   */\n      0x00\n        /* \"#utility.yul\":2893:2898   */\n      dup2\n        /* \"#utility.yul\":2882:2898   */\n      swap1\n      pop\n        /* \"#utility.yul\":2828:2904   */\n      swap2\n      swap1\n      pop\n      jump\t// out\n        /* \"#utility.yul\":2910:3025   */\n    tag_72:\n        /* \"#utility.yul\":2995:3018   */\n      tag_138\n        /* \"#utility.yul\":3012:3017   */\n      dup2\n        /* \"#utility.yul\":2995:3018   */\n      tag_71\n      jump\t// in\n    tag_138:\n        /* \"#utility.yul\":2990:2993   */\n      dup3\n        /* \"#utility.yul\":2983:3019   */\n      mstore\n        /* \"#utility.yul\":2910:3025   */\n      pop\n      pop\n      jump\t// out\n        /* \"#utility.yul\":3031:3249   */\n    tag_27:\n        /* \"#utility.yul\":3122:3126   */\n      0x00\n        /* \"#utility.yul\":3160:3162   */\n      0x20\n        /* \"#utility.yul\":3149:3158   */\n      dup3\n        /* \"#utility.yul\":3145:3163   */\n      add\n        /* \"#utility.yul\":3137:3163   */\n      swap1\n      pop\n        /* \"#utility.yul\":3173:3242   */\n      tag_140\n        /* \"#utility.yul\":3239:3240   */\n      0x00\n        /* \"#utility.yul\":3228:3237   */\n      dup4\n        /* \"#utility.yul\":3224:3241   */\n      add\n        /* \"#utility.yul\":3215:3221   */\n      dup5\n        /* \"#utility.yul\":3173:3242   */\n      tag_72\n      jump\t// in\n    tag_140:\n        /* \"#utility.yul\":3031:3249   */\n      swap3\n      swap2\n      pop\n      pop\n      jump\t// out\n        /* \"#utility.yul\":3255:3354   */\n    tag_73:\n        /* \"#utility.yul\":3307:3313   */\n      0x00\n        /* \"#utility.yul\":3341:3346   */\n      dup2\n        /* \"#utility.yul\":3335:3347   */\n      mload\n        /* \"#utility.yul\":3325:3347   */\n      swap1\n      pop\n        /* \"#utility.yul\":3255:3354   */\n      swap2\n      swap1\n      pop\n      jump\t// out\n        /* \"#utility.yul\":3360:3529   */\n    tag_74:\n        /* \"#utility.yul\":3444:3455   */\n      0x00\n        /* \"#utility.yul\":3478:3484   */\n      dup3\n        /* \"#utility.yul\":3473:3476   */\n      dup3\n        /* \"#utility.yul\":3466:3485   */\n      mstore\n        /* \"#utility.yul\":3518:3522   */\n      0x20\n        /* \"#utility.yul\":3513:3516   */\n      dup3\n        /* \"#utility.yul\":3509:3523   */\n      add\n        /* \"#utility.yul\":3494:3523   */\n      swap1\n      pop\n        /* \"#utility.yul\":3360:3529   */\n      swap3\n      swap2\n      pop\n      pop\n      jump\t// out\n        /* \"#utility.yul\":3535:3674   */\n    tag_75:\n        /* \"#utility.yul\":3624:3630   */\n      dup3\n        /* \"#utility.yul\":3619:3622   */\n      dup2\n        /* \"#utility.yul\":3614:3617   */\n      dup4\n        /* \"#utility.yul\":3608:3631   */\n      mcopy\n        /* \"#utility.yul\":3665:3666   */\n      0x00\n        /* \"#utility.yul\":3656:3662   */\n      dup4\n        /* \"#utility.yul\":3651:3654   */\n      dup4\n        /* \"#utility.yul\":3647:3663   */\n      add\n        /* \"#utility.yul\":3640:3667   */\n      mstore\n        /* \"#utility.yul\":3535:3674   */\n      pop\n      pop\n      pop\n      jump\t// out\n        /* \"#utility.yul\":3680:3782   */\n    tag_76:\n        /* \"#utility.yul\":3721:3727   */\n      0x00\n        /* \"#utility.yul\":3772:3774   */\n      0x1f\n        /* \"#utility.yul\":3768:3775   */\n      not\n        /* \"#utility.yul\":3763:3765   */\n      0x1f\n        /* \"#utility.yul\":3756:3761   */\n      dup4\n        /* \"#utility.yul\":3752:3766   */\n      add\n        /* \"#utility.yul\":3748:3776   */\n      and\n        /* \"#utility.yul\":3738:3776   */\n      swap1\n      pop\n        /* \"#utility.yul\":3680:3782   */\n      swap2\n      swap1\n      pop\n      jump\t// out\n        /* \"#utility.yul\":3788:4165   */\n    tag_77:\n        /* \"#utility.yul\":3876:3879   */\n      0x00\n        /* \"#utility.yul\":3904:3943   */\n      tag_146\n        /* \"#utility.yul\":3937:3942   */\n      dup3\n        /* \"#utility.yul\":3904:3943   */\n      tag_73\n      jump\t// in\n    tag_146:\n        /* \"#utility.yul\":3959:4030   */\n      tag_147\n        /* \"#utility.yul\":4023:4029   */\n      dup2\n        /* \"#utility.yul\":4018:4021   */\n      dup6\n        /* \"#utility.yul\":3959:4030   */\n      tag_74\n      jump\t// in\n    tag_147:\n        /* \"#utility.yul\":3952:4030   */\n      swap4\n      pop\n        /* \"#utility.yul\":4039:4104   */\n      tag_148\n        /* \"#utility.yul\":4097:4103   */\n      dup2\n        /* \"#utility.yul\":4092:4095   */\n      dup6\n        /* \"#utility.yul\":4085:4089   */\n      0x20\n        /* \"#utility.yul\":4078:4083   */\n      dup7\n        /* \"#utility.yul\":4074:4090   */\n      add\n        /* \"#utility.yul\":4039:4104   */\n      tag_75\n      jump\t// in\n    tag_148:\n        /* \"#utility.yul\":4129:4158   */\n      tag_149\n        /* \"#utility.yul\":4151:4157   */\n      dup2\n        /* \"#utility.yul\":4129:4158   */\n      tag_76\n      jump\t// in\n    tag_149:\n        /* \"#utility.yul\":4124:4127   */\n      dup5\n        /* \"#utility.yul\":4120:4159   */\n      add\n        /* \"#utility.yul\":4113:4159   */\n      swap2\n      pop\n        /* \"#utility.yul\":3880:4165   */\n      pop\n        /* \"#utility.yul\":3788:4165   */\n      swap3\n      swap2\n      pop\n      pop\n      jump\t// out\n        /* \"#utility.yul\":4171:4484   */\n    tag_31:\n        /* \"#utility.yul\":4284:4288   */\n      0x00\n        /* \"#utility.yul\":4322:4324   */\n      0x20\n        /* \"#utility.yul\":4311:4320   */\n      dup3\n        /* \"#utility.yul\":4307:4325   */\n      add\n        /* \"#utility.yul\":4299:4325   */\n      swap1\n      pop\n        /* \"#utility.yul\":4371:4380   */\n      dup2\n        /* \"#utility.yul\":4365:4369   */\n      dup2\n        /* \"#utility.yul\":4361:4381   */\n      sub\n        /* \"#utility.yul\":4357:4358   */\n      0x00\n        /* \"#utility.yul\":4346:4355   */\n      dup4\n        /* \"#utility.yul\":4342:4359   */\n      add\n        /* \"#utility.yul\":4335:4382   */\n      mstore\n        /* \"#utility.yul\":4399:4477   */\n      tag_151\n        /* \"#utility.yul\":4472:4476   */\n      dup2\n        /* \"#utility.yul\":4463:4469   */\n      dup5\n        /* \"#utility.yul\":4399:4477   */\n      tag_77\n      jump\t// in\n    tag_151:\n        /* \"#utility.yul\":4391:4477   */\n      swap1\n      pop\n        /* \"#utility.yul\":4171:4484   */\n      swap3\n      swap2\n      pop\n      pop\n      jump\t// out\n        /* \"#utility.yul\":4490:4610   */\n    tag_78:\n        /* \"#utility.yul\":4562:4585   */\n      tag_153\n        /* \"#utility.yul\":4579:4584   */\n      dup2\n        /* \"#utility.yul\":4562:4585   */\n      tag_71\n      jump\t// in\n    tag_153:\n        /* \"#utility.yul\":4555:4560   */\n      dup2\n        /* \"#utility.yul\":4552:4586   */\n      eq\n        /* \"#utility.yul\":4542:4604   */\n      tag_154\n      jumpi\n        /* \"#utility.yul\":4600:4601   */\n      0x00\n        /* \"#utility.yul\":4597:4598   */\n      dup1\n        /* \"#utility.yul\":4590:4602   */\n      revert\n        /* \"#utility.yul\":4542:4604   */\n    tag_154:\n        /* \"#utility.yul\":4490:4610   */\n      pop\n      jump\t// out\n        /* \"#utility.yul\":4616:4753   */\n    tag_79:\n        /* \"#utility.yul\":4661:4666   */\n      0x00\n        /* \"#utility.yul\":4699:4705   */\n      dup2\n        /* \"#utility.yul\":4686:4706   */\n      calldataload\n        /* \"#utility.yul\":4677:4706   */\n      swap1\n      pop\n        /* \"#utility.yul\":4715:4747   */\n      tag_156\n        /* \"#utility.yul\":4741:4746   */\n      dup2\n        /* \"#utility.yul\":4715:4747   */\n      tag_78\n      jump\t// in\n    tag_156:\n        /* \"#utility.yul\":4616:4753   */\n      swap3\n      swap2\n      pop\n      pop\n      jump\t// out\n        /* \"#utility.yul\":4759:5086   */\n    tag_34:\n        /* \"#utility.yul\":4817:4823   */\n      0x00\n        /* \"#utility.yul\":4866:4868   */\n      0x20\n        /* \"#utility.yul\":4854:4863   */\n      dup3\n        /* \"#utility.yul\":4845:4852   */\n      dup5\n        /* \"#utility.yul\":4841:4864   */\n      sub\n        /* \"#utility.yul\":4837:4869   */\n      slt\n        /* \"#utility.yul\":4834:4953   */\n      iszero\n      tag_158\n      jumpi\n        /* \"#utility.yul\":4872:4951   */\n      tag_159\n      tag_63\n      jump\t// in\n    tag_159:\n        /* \"#utility.yul\":4834:4953   */\n    tag_158:\n        /* \"#utility.yul\":4992:4993   */\n      0x00\n        /* \"#utility.yul\":5017:5069   */\n      tag_160\n        /* \"#utility.yul\":5061:5068   */\n      dup5\n        /* \"#utility.yul\":5052:5058   */\n      dup3\n        /* \"#utility.yul\":5041:5050   */\n      dup6\n        /* \"#utility.yul\":5037:5059   */\n      add\n        /* \"#utility.yul\":5017:5069   */\n      tag_79\n      jump\t// in\n    tag_160:\n        /* \"#utility.yul\":5007:5069   */\n      swap2\n      pop\n        /* \"#utility.yul\":4963:5079   */\n      pop\n        /* \"#utility.yul\":4759:5086   */\n      swap3\n      swap2\n      pop\n      pop\n      jump\t// out\n        /* \"#utility.yul\":5092:5169   */\n    tag_80:\n        /* \"#utility.yul\":5129:5136   */\n      0x00\n        /* \"#utility.yul\":5158:5163   */\n      dup2\n        /* \"#utility.yul\":5147:5163   */\n      swap1\n      pop\n        /* \"#utility.yul\":5092:5169   */\n      swap2\n      swap1\n      pop\n      jump\t// out\n        /* \"#utility.yul\":5175:5293   */\n    tag_81:\n        /* \"#utility.yul\":5262:5286   */\n      tag_163\n        /* \"#utility.yul\":5280:5285   */\n      dup2\n        /* \"#utility.yul\":5262:5286   */\n      tag_80\n      jump\t// in\n    tag_163:\n        /* \"#utility.yul\":5257:5260   */\n      dup3\n        /* \"#utility.yul\":5250:5287   */\n      mstore\n        /* \"#utility.yul\":5175:5293   */\n      pop\n      pop\n      jump\t// out\n        /* \"#utility.yul\":5299:5521   */\n    tag_39:\n        /* \"#utility.yul\":5392:5396   */\n      0x00\n        /* \"#utility.yul\":5430:5432   */\n      0x20\n        /* \"#utility.yul\":5419:5428   */\n      dup3\n        /* \"#utility.yul\":5415:5433   */\n      add\n        /* \"#utility.yul\":5407:5433   */\n      swap1\n      pop\n        /* \"#utility.yul\":5443:5514   */\n      tag_165\n        /* \"#utility.yul\":5511:5512   */\n      0x00\n        /* \"#utility.yul\":5500:5509   */\n      dup4\n        /* \"#utility.yul\":5496:5513   */\n      add\n        /* \"#utility.yul\":5487:5493   */\n      dup5\n        /* \"#utility.yul\":5443:5514   */\n      tag_81\n      jump\t// in\n    tag_165:\n        /* \"#utility.yul\":5299:5521   */\n      swap3\n      swap2\n      pop\n      pop\n      jump\t// out\n        /* \"#utility.yul\":5527:5649   */\n    tag_82:\n        /* \"#utility.yul\":5600:5624   */\n      tag_167\n        /* \"#utility.yul\":5618:5623   */\n      dup2\n        /* \"#utility.yul\":5600:5624   */\n      tag_80\n      jump\t// in\n    tag_167:\n        /* \"#utility.yul\":5593:5598   */\n      dup2\n        /* \"#utility.yul\":5590:5625   */\n      eq\n        /* \"#utility.yul\":5580:5643   */\n      tag_168\n      jumpi\n        /* \"#utility.yul\":5639:5640   */\n      0x00\n        /* \"#utility.yul\":5636:5637   */\n      dup1\n        /* \"#utility.yul\":5629:5641   */\n      revert\n        /* \"#utility.yul\":5580:5643   */\n    tag_168:\n        /* \"#utility.yul\":5527:5649   */\n      pop\n      jump\t// out\n        /* \"#utility.yul\":5655:5794   */\n    tag_83:\n        /* \"#utility.yul\":5701:5706   */\n      0x00\n        /* \"#utility.yul\":5739:5745   */\n      dup2\n        /* \"#utility.yul\":5726:5746   */\n      calldataload\n        /* \"#utility.yul\":5717:5746   */\n      swap1\n      pop\n        /* \"#utility.yul\":5755:5788   */\n      tag_170\n        /* \"#utility.yul\":5782:5787   */\n      dup2\n        /* \"#utility.yul\":5755:5788   */\n      tag_82\n      jump\t// in\n    tag_170:\n        /* \"#utility.yul\":5655:5794   */\n      swap3\n      swap2\n      pop\n      pop\n      jump\t// out\n        /* \"#utility.yul\":5800:6129   */\n    tag_42:\n        /* \"#utility.yul\":5859:5865   */\n      0x00\n        /* \"#utility.yul\":5908:5910   */\n      0x20\n        /* \"#utility.yul\":5896:5905   */\n      dup3\n        /* \"#utility.yul\":5887:5894   */\n      dup5\n        /* \"#utility.yul\":5883:5906   */\n      sub\n        /* \"#utility.yul\":5879:5911   */\n      slt\n        /* \"#utility.yul\":5876:5995   */\n      iszero\n      tag_172\n      jumpi\n        /* \"#utility.yul\":5914:5993   */\n      tag_173\n      tag_63\n      jump\t// in\n    tag_173:\n        /* \"#utility.yul\":5876:5995   */\n    tag_172:\n        /* \"#utility.yul\":6034:6035   */\n      0x00\n        /* \"#utility.yul\":6059:6112   */\n      tag_174\n        /* \"#utility.yul\":6104:6111   */\n      dup5\n        /* \"#utility.yul\":6095:6101   */\n      dup3\n        /* \"#utility.yul\":6084:6093   */\n      dup6\n        /* \"#utility.yul\":6080:6102   */\n      add\n        /* \"#utility.yul\":6059:6112   */\n      tag_83\n      jump\t// in\n    tag_174:\n        /* \"#utility.yul\":6049:6112   */\n      swap2\n      pop\n        /* \"#utility.yul\":6005:6122   */\n      pop\n        /* \"#utility.yul\":5800:6129   */\n      swap3\n      swap2\n      pop\n      pop\n      jump\t// out\n        /* \"#utility.yul\":6135:6232   */\n    tag_84:\n        /* \"#utility.yul\":6194:6200   */\n      0x00\n        /* \"#utility.yul\":6222:6225   */\n      dup3\n        /* \"#utility.yul\":6212:6225   */\n      swap1\n      pop\n        /* \"#utility.yul\":6135:6232   */\n      swap3\n      swap2\n      pop\n      pop\n      jump\t// out\n        /* \"#utility.yul\":6238:6418   */\n    tag_85:\n        /* \"#utility.yul\":6286:6363   */\n      0x4e487b7100000000000000000000000000000000000000000000000000000000\n        /* \"#utility.yul\":6283:6284   */\n      0x00\n        /* \"#utility.yul\":6276:6364   */\n      mstore\n        /* \"#utility.yul\":6383:6387   */\n      0x41\n        /* \"#utility.yul\":6380:6381   */\n      0x04\n        /* \"#utility.yul\":6373:6388   */\n      mstore\n        /* \"#utility.yul\":6407:6411   */\n      0x24\n        /* \"#utility.yul\":6404:6405   */\n      0x00\n        /* \"#utility.yul\":6397:6412   */\n      revert\n        /* \"#utility.yul\":6424:6604   */\n    tag_86:\n        /* \"#utility.yul\":6472:6549   */\n      0x4e487b7100000000000000000000000000000000000000000000000000000000\n        /* \"#utility.yul\":6469:6470   */\n      0x00\n        /* \"#utility.yul\":6462:6550   */\n      mstore\n        /* \"#utility.yul\":6569:6573   */\n      0x22\n        /* \"#utility.yul\":6566:6567   */\n      0x04\n        /* \"#utility.yul\":6559:6574   */\n      mstore\n        /* \"#utility.yul\":6593:6597   */\n      0x24\n        /* \"#utility.yul\":6590:6591   */\n      0x00\n        /* \"#utility.yul\":6583:6598   */\n      revert\n        /* \"#utility.yul\":6610:6930   */\n    tag_52:\n        /* \"#utility.yul\":6654:6660   */\n      0x00\n        /* \"#utility.yul\":6691:6692   */\n      0x02\n        /* \"#utility.yul\":6685:6689   */\n      dup3\n        /* \"#utility.yul\":6681:6693   */\n      div\n        /* \"#utility.yul\":6671:6693   */\n      swap1\n      pop\n        /* \"#utility.yul\":6738:6739   */\n      0x01\n        /* \"#utility.yul\":6732:6736   */\n      dup3\n        /* \"#utility.yul\":6728:6740   */\n      and\n        /* \"#utility.yul\":6759:6777   */\n      dup1\n        /* \"#utility.yul\":6749:6830   */\n      tag_179\n      jumpi\n        /* \"#utility.yul\":6815:6819   */\n      0x7f\n        /* \"#utility.yul\":6807:6813   */\n      dup3\n        /* \"#utility.yul\":6803:6820   */\n      and\n        /* \"#utility.yul\":6793:6820   */\n      swap2\n      pop\n        /* \"#utility.yul\":6749:6830   */\n    tag_179:\n        /* \"#utility.yul\":6877:6879   */\n      0x20\n        /* \"#utility.yul\":6869:6875   */\n      dup3\n        /* \"#utility.yul\":6866:6880   */\n      lt\n        /* \"#utility.yul\":6846:6864   */\n      dup2\n        /* \"#utility.yul\":6843:6881   */\n      sub\n        /* \"#utility.yul\":6840:6924   */\n      tag_180\n      jumpi\n        /* \"#utility.yul\":6896:6914   */\n      tag_181\n      tag_86\n      jump\t// in\n    tag_181:\n        /* \"#utility.yul\":6840:6924   */\n    tag_180:\n        /* \"#utility.yul\":6661:6930   */\n      pop\n        /* \"#utility.yul\":6610:6930   */\n      swap2\n      swap1\n      pop\n      jump\t// out\n        /* \"#utility.yul\":6936:7077   */\n    tag_87:\n        /* \"#utility.yul\":6985:6989   */\n      0x00\n        /* \"#utility.yul\":7008:7011   */\n      dup2\n        /* \"#utility.yul\":7000:7011   */\n      swap1\n      pop\n        /* \"#utility.yul\":7031:7034   */\n      dup2\n        /* \"#utility.yul\":7028:7029   */\n      0x00\n        /* \"#utility.yul\":7021:7035   */\n      mstore\n        /* \"#utility.yul\":7065:7069   */\n      0x20\n        /* \"#utility.yul\":7062:7063   */\n      0x00\n        /* \"#utility.yul\":7052:7070   */\n      keccak256\n        /* \"#utility.yul\":7044:7070   */\n      swap1\n      pop\n        /* \"#utility.yul\":6936:7077   */\n      swap2\n      swap1\n      pop\n      jump\t// out\n        /* \"#utility.yul\":7083:7176   */\n    tag_88:\n        /* \"#utility.yul\":7120:7126   */\n      0x00\n        /* \"#utility.yul\":7167:7169   */\n      0x20\n        /* \"#utility.yul\":7162:7164   */\n      0x1f\n        /* \"#utility.yul\":7155:7160   */\n      dup4\n        /* \"#utility.yul\":7151:7165   */\n      add\n        /* \"#utility.yul\":7147:7170   */\n      div\n        /* \"#utility.yul\":7137:7170   */\n      swap1\n      pop\n        /* \"#utility.yul\":7083:7176   */\n      swap2\n      swap1\n      pop\n      jump\t// out\n        /* \"#utility.yul\":7182:7289   */\n    tag_89:\n        /* \"#utility.yul\":7226:7234   */\n      0x00\n        /* \"#utility.yul\":7276:7281   */\n      dup3\n        /* \"#utility.yul\":7270:7274   */\n      dup3\n        /* \"#utility.yul\":7266:7282   */\n      shl\n        /* \"#utility.yul\":7245:7282   */\n      swap1\n      pop\n        /* \"#utility.yul\":7182:7289   */\n      swap3\n      swap2\n      pop\n      pop\n      jump\t// out\n        /* \"#utility.yul\":7295:7688   */\n    tag_90:\n        /* \"#utility.yul\":7364:7370   */\n      0x00\n        /* \"#utility.yul\":7414:7415   */\n      0x08\n        /* \"#utility.yul\":7402:7412   */\n      dup4\n        /* \"#utility.yul\":7398:7416   */\n      mul\n        /* \"#utility.yul\":7437:7534   */\n      tag_186\n        /* \"#utility.yul\":7467:7533   */\n      0xffffffffffffffffffffffffffffffffffffffffffffffffffffffffffffffff\n        /* \"#utility.yul\":7456:7465   */\n      dup3\n        /* \"#utility.yul\":7437:7534   */\n      tag_89\n      jump\t// in\n    tag_186:\n        /* \"#utility.yul\":7555:7594   */\n      tag_187\n        /* \"#utility.yul\":7585:7593   */\n      dup7\n        /* \"#utility.yul\":7574:7583   */\n      dup4\n        /* \"#utility.yul\":7555:7594   */\n      tag_89\n      jump\t// in\n    tag_187:\n        /* \"#utility.yul\":7543:7594   */\n      swap6\n      pop\n        /* \"#utility.yul\":7627:7631   */\n      dup1\n        /* \"#utility.yul\":7623:7632   */\n      not\n        /* \"#utility.yul\":7616:7621   */\n      dup5\n        /* \"#utility.yul\":7612:7633   */\n      and\n        /* \"#utility.yul\":7603:7633   */\n      swap4\n      pop\n        /* \"#utility.yul\":7676:7680   */\n      dup1\n        /* \"#utility.yul\":7666:7674   */\n      dup7\n        /* \"#utility.yul\":7662:7681   */\n      and\n        /* \"#utility.yul\":7655:7660   */\n      dup5\n        /* \"#utility.yul\":7652:7682   */\n      or\n        /* \"#utility.yul\":7642:7682   */\n      swap3\n      pop\n        /* \"#utility.yul\":7371:7688   */\n      pop\n      pop\n        /* \"#utility.yul\":7295:7688   */\n      swap4\n      swap3\n      pop\n      pop\n      pop\n      jump\t// out\n        /* \"#utility.yul\":7694:7754   */\n    tag_91:\n        /* \"#utility.yul\":7722:7725   */\n      0x00\n        /* \"#utility.yul\":7743:7748   */\n      dup2\n        /* \"#utility.yul\":7736:7748   */\n      swap1\n      pop\n        /* \"#utility.yul\":7694:7754   */\n      swap2\n      swap1\n      pop\n      jump\t// out\n        /* \"#utility.yul\":7760:7902   */\n    tag_92:\n        /* \"#utility.yul\":7810:7819   */\n      0x00\n        /* \"#utility.yul\":7843:7896   */\n      tag_190\n        /* \"#utility.yul\":7861:7895   */\n      tag_191\n        /* \"#utility.yul\":7870:7894   */\n      tag_192\n        /* \"#utility.yul\":7888:7893   */\n      dup5\n        /* \"#utility.yul\":7870:7894   */\n      tag_80\n      jump\t// in\n    tag_192:\n        /* \"#utility.yul\":7861:7895   */\n      tag_91\n      jump\t// in\n    tag_191:\n        /* \"#utility.yul\":7843:7896   */\n      tag_80\n      jump\t// in\n    tag_190:\n        /* \"#utility.yul\":7830:7896   */\n      swap1\n      pop\n        /* \"#utility.yul\":7760:7902   */\n      swap2\n      swap1\n      pop\n      jump\t// out\n        /* \"#utility.yul\":7908:7983   */\n    tag_93:\n        /* \"#utility.yul\":7951:7954   */\n      0x00\n        /* \"#utility.yul\":7972:7977   */\n      dup2\n        /* \"#utility.yul\":7965:7977   */\n      swap1\n      pop\n        /* \"#utility.yul\":7908:7983   */\n      swap2\n      swap1\n      pop\n      jump\t// out\n        /* \"#utility.yul\":7989:8258   */\n    tag_94:\n        /* \"#utility.yul\":8099:8138   */\n      tag_195\n        /* \"#utility.yul\":8130:8137   */\n      dup4\n        /* \"#utility.yul\":8099:8138   */\n      tag_92\n      jump\t// in\n    tag_195:\n        /* \"#utility.yul\":8160:8251   */\n      tag_196\n        /* \"#utility.yul\":8209:8250   */\n      tag_197\n        /* \"#utility.yul\":8233:8249   */\n      dup3\n        /* \"#utility.yul\":8209:8250   */\n      tag_93\n      jump\t// in\n    tag_197:\n        /* \"#utility.yul\":8201:8207   */\n      dup5\n        /* \"#utility.yul\":8194:8198   */\n      dup5\n        /* \"#utility.yul\":8188:8199   */\n      sload\n        /* \"#utility.yul\":8160:8251   */\n      tag_90\n      jump\t// in\n    tag_196:\n        /* \"#utility.yul\":8154:8158   */\n      dup3\n        /* \"#utility.yul\":8147:8252   */\n      sstore\n        /* \"#utility.yul\":8065:8258   */\n      pop\n        /* \"#utility.yul\":7989:8258   */\n      pop\n      pop\n      pop\n      jump\t// out\n        /* \"#utility.yul\":8264:8337   */\n    tag_95:\n        /* \"#utility.yul\":8309:8312   */\n      0x00\n        /* \"#utility.yul\":8264:8337   */\n      swap1\n      jump\t// out\n        /* \"#utility.yul\":8343:8532   */\n    tag_96:\n        /* \"#utility.yul\":8420:8452   */\n      tag_200\n      tag_95\n      jump\t// in\n    tag_200:\n        /* \"#utility.yul\":8461:8526   */\n      tag_201\n        /* \"#utility.yul\":8519:8525   */\n      dup2\n        /* \"#utility.yul\":8511:8517   */\n      dup5\n        /* \"#utility.yul\":8505:8509   */\n      dup5\n        /* \"#utility.yul\":8461:8526   */\n      tag_94\n      jump\t// in\n    tag_201:\n        /* \"#utility.yul\":8396:8532   */\n      pop\n        /* \"#utility.yul\":8343:8532   */\n      pop\n      pop\n      jump\t// out\n        /* \"#utility.yul\":8538:8724   */\n    tag_97:\n        /* \"#utility.yul\":8598:8718   */\n    tag_203:\n        /* \"#utility.yul\":8615:8618   */\n      dup2\n        /* \"#utility.yul\":8608:8613   */\n      dup2\n        /* \"#utility.yul\":8605:8619   */\n      lt\n        /* \"#utility.yul\":8598:8718   */\n      iszero\n      tag_205\n      jumpi\n        /* \"#utility.yul\":8669:8708   */\n      tag_206\n        /* \"#utility.yul\":8706:8707   */\n      0x00\n        /* \"#utility.yul\":8699:8704   */\n      dup3\n        /* \"#utility.yul\":8669:8708   */\n      tag_96\n      jump\t// in\n    tag_206:\n        /* \"#utility.yul\":8642:8643   */\n      0x01\n        /* \"#utility.yul\":8635:8640   */\n      dup2\n        /* \"#utility.yul\":8631:8644   */\n      add\n        /* \"#utility.yul\":8622:8644   */\n      swap1\n      pop\n        /* \"#utility.yul\":8598:8718   */\n      jump(tag_203)\n    tag_205:\n        /* \"#utility.yul\":8538:8724   */\n      pop\n      pop\n      jump\t// out\n        /* \"#utility.yul\":8730:9273   */\n    tag_98:\n        /* \"#utility.yul\":8831:8833   */\n      0x1f\n        /* \"#utility.yul\":8826:8829   */\n      dup3\n        /* \"#utility.yul\":8823:8834   */\n      gt\n        /* \"#utility.yul\":8820:9266   */\n      iszero\n      tag_208\n      jumpi\n        /* \"#utility.yul\":8865:8903   */\n      tag_209\n        /* \"#utility.yul\":8897:8902   */\n      dup2\n        /* \"#utility.yul\":8865:8903   */\n      tag_87\n      jump\t// in\n    tag_209:\n        /* \"#utility.yul\":8949:8978   */\n      tag_210\n        /* \"#utility.yul\":8967:8977   */\n      dup5\n        /* \"#utility.yul\":8949:8978   */\n      tag_88\n      jump\t// in\n    tag_210:\n        /* \"#utility.yul\":8939:8947   */\n      dup2\n        /* \"#utility.yul\":8935:8979   */\n      add\n        /* \"#utility.yul\":9132:9134   */\n      0x20\n        /* \"#utility.yul\":9120:9130   */\n      dup6\n        /* \"#utility.yul\":9117:9135   */\n      lt\n        /* \"#utility.yul\":9114:9163   */\n      iszero\n      tag_211\n      jumpi\n        /* \"#utility.yul\":9153:9161   */\n      dup2\n        /* \"#utility.yul\":9138:9161   */\n      swap1\n      pop\n        /* \"#utility.yul\":9114:9163   */\n    tag_211:\n        /* \"#utility.yul\":9176:9256   */\n      tag_212\n        /* \"#utility.yul\":9232:9254   */\n      tag_213\n        /* \"#utility.yul\":9250:9253   */\n      dup6\n        /* \"#utility.yul\":9232:9254   */\n      tag_88\n      jump\t// in\n    tag_213:\n        /* \"#utility.yul\":9222:9230   */\n      dup4\n        /* \"#utility.yul\":9218:9255   */\n      add\n        /* \"#utility.yul\":9205:9216   */\n      dup3\n        /* \"#utility.yul\":9176:9256   */\n      tag_97\n      jump\t// in\n    tag_212:\n        /* \"#utility.yul\":8835:9266   */\n      pop\n      pop\n        /* \"#utility.yul\":8820:9266   */\n    tag_208:\n        /* \"#utility.yul\":8730:9273   */\n      pop\n      pop\n      pop\n      jump\t// out\n        /* \"#utility.yul\":9279:9396   */\n    tag_99:\n        /* \"#utility.yul\":9333:9341   */\n      0x00\n        /* \"#utility.yul\":9383:9388   */\n      dup3\n        /* \"#utility.yul\":9377:9381   */\n      dup3\n        /* \"#utility.yul\":9373:9389   */\n      shr\n        /* \"#utility.yul\":9352:9389   */\n      swap1\n      pop\n        /* \"#utility.yul\":9279:9396   */\n      swap3\n      swap2\n      pop\n      pop\n      jump\t// out\n        /* \"#utility.yul\":9402:9571   */\n    tag_100:\n        /* \"#utility.yul\":9446:9452   */\n      0x00\n        /* \"#utility.yul\":9479:9530   */\n      tag_216\n        /* \"#utility.yul\":9527:9528   */\n      0x00\n        /* \"#utility.yul\":9523:9529   */\n      not\n        /* \"#utility.yul\":9515:9520   */\n      dup5\n        /* \"#utility.yul\":9512:9513   */\n      0x08\n        /* \"#utility.yul\":9508:9521   */\n      mul\n        /* \"#utility.yul\":9479:9530   */\n      tag_99\n      jump\t// in\n    tag_216:\n        /* \"#utility.yul\":9475:9531   */\n      not\n        /* \"#utility.yul\":9560:9564   */\n      dup1\n        /* \"#utility.yul\":9554:9558   */\n      dup4\n        /* \"#utility.yul\":9550:9565   */\n      and\n        /* \"#utility.yul\":9540:9565   */\n      swap2\n      pop\n        /* \"#utility.yul\":9453:9571   */\n      pop\n        /* \"#utility.yul\":9402:9571   */\n      swap3\n      swap2\n      pop\n      pop\n      jump\t// out\n        /* \"#utility.yul\":9576:9871   */\n    tag_101:\n        /* \"#utility.yul\":9652:9656   */\n      0x00\n        /* \"#utility.yul\":9798:9827   */\n      tag_218\n        /* \"#utility.yul\":9823:9826   */\n      dup4\n        /* \"#utility.yul\":9817:9821   */\n      dup4\n        /* \"#utility.yul\":9798:9827   */\n      tag_100\n      jump\t// in\n    tag_218:\n        /* \"#utility.yul\":9790:9827   */\n      swap2\n      pop\n        /* \"#utility.yul\":9860:9863   */\n      dup3\n        /* \"#utility.yul\":9857:9858   */\n      0x02\n        /* \"#utility.yul\":9853:9864   */\n      mul\n        /* \"#utility.yul\":9847:9851   */\n      dup3\n        /* \"#utility.yul\":9844:9865   */\n      or\n        /* \"#utility.yul\":9836:9865   */\n      swap1\n      pop\n        /* \"#utility.yul\":9576:9871   */\n      swap3\n      swap2\n      pop\n      pop\n      jump\t// out\n        /* \"#utility.yul\":9876:11279   */\n    tag_47:\n        /* \"#utility.yul\":10000:10044   */\n      tag_220\n        /* \"#utility.yul\":10040:10043   */\n      dup4\n        /* \"#utility.yul\":10035:10038   */\n      dup4\n        /* \"#utility.yul\":10000:10044   */\n      tag_84\n      jump\t// in\n    tag_220:\n        /* \"#utility.yul\":10109:10127   */\n      0xffffffffffffffff\n        /* \"#utility.yul\":10101:10107   */\n      dup2\n        /* \"#utility.yul\":10098:10128   */\n      gt\n        /* \"#utility.yul\":10095:10151   */\n      iszero\n      tag_221\n      jumpi\n        /* \"#utility.yul\":10131:10149   */\n      tag_222\n      tag_85\n      jump\t// in\n    tag_222:\n        /* \"#utility.yul\":10095:10151   */\n    tag_221:\n        /* \"#utility.yul\":10175:10213   */\n      tag_223\n        /* \"#utility.yul\":10207:10211   */\n      dup3\n        /* \"#utility.yul\":10201:10212   */\n      sload\n        /* \"#utility.yul\":10175:10213   */\n      tag_52\n      jump\t// in\n    tag_223:\n        /* \"#utility.yul\":10260:10327   */\n      tag_224\n        /* \"#utility.yul\":10320:10326   */\n      dup3\n        /* \"#utility.yul\":10312:10318   */\n      dup3\n        /* \"#utility.yul\":10306:10310   */\n      dup6\n        /* \"#utility.yul\":10260:10327   */\n      tag_98\n      jump\t// in\n    tag_224:\n        /* \"#utility.yul\":10354:10355   */\n      0x00\n        /* \"#utility.yul\":10383:10385   */\n      0x1f\n        /* \"#utility.yul\":10375:10381   */\n      dup4\n        /* \"#utility.yul\":10372:10386   */\n      gt\n        /* \"#utility.yul\":10400:10401   */\n      0x01\n        /* \"#utility.yul\":10395:11027   */\n      dup2\n      eq\n      tag_226\n      jumpi\n        /* \"#utility.yul\":11071:11072   */\n      0x00\n        /* \"#utility.yul\":11088:11094   */\n      dup5\n        /* \"#utility.yul\":11085:11169   */\n      iszero\n      tag_227\n      jumpi\n        /* \"#utility.yul\":11144:11153   */\n      dup3\n        /* \"#utility.yul\":11139:11142   */\n      dup8\n        /* \"#utility.yul\":11135:11154   */\n      add\n        /* \"#utility.yul\":11122:11155   */\n      calldataload\n        /* \"#utility.yul\":11113:11155   */\n      swap1\n      pop\n        /* \"#utility.yul\":11085:11169   */\n    tag_227:\n        /* \"#utility.yul\":11195:11262   */\n      tag_228\n        /* \"#utility.yul\":11255:11261   */\n      dup6\n        /* \"#utility.yul\":11248:11253   */\n      dup3\n        /* \"#utility.yul\":11195:11262   */\n      tag_101\n      jump\t// in\n    tag_228:\n        /* \"#utility.yul\":11189:11193   */\n      dup7\n        /* \"#utility.yul\":11182:11263   */\n      sstore\n        /* \"#utility.yul\":11044:11273   */\n      pop\n        /* \"#utility.yul\":10365:11273   */\n      jump(tag_225)\n        /* \"#utility.yul\":10395:11027   */\n    tag_226:\n        /* \"#utility.yul\":10447:10451   */\n      0x1f\n        /* \"#utility.yul\":10443:10452   */\n      not\n        /* \"#utility.yul\":10435:10441   */\n      dup5\n        /* \"#utility.yul\":10431:10453   */\n      and\n        /* \"#utility.yul\":10481:10518   */\n      tag_229\n        /* \"#utility.yul\":10513:10517   */\n      dup7\n        /* \"#utility.yul\":10481:10518   */\n      tag_87\n      jump\t// in\n    tag_229:\n        /* \"#utility.yul\":10540:10541   */\n      0x00\n        /* \"#utility.yul\":10554:10769   */\n    tag_230:\n        /* \"#utility.yul\":10568:10575   */\n      dup3\n        /* \"#utility.yul\":10565:10566   */\n      dup2\n        /* \"#utility.yul\":10562:10576   */\n      lt\n        /* \"#utility.yul\":10554:10769   */\n      iszero\n      tag_232\n      jumpi\n        /* \"#utility.yul\":10654:10663   */\n      dup5\n        /* \"#utility.yul\":10649:10652   */\n      dup10\n        /* \"#utility.yul\":10645:10664   */\n      add\n        /* \"#utility.yul\":10632:10665   */\n      calldataload\n        /* \"#utility.yul\":10624:10630   */\n      dup3\n        /* \"#utility.yul\":10617:10666   */\n      sstore\n        /* \"#utility.yul\":10705:10706   */\n      0x01\n        /* \"#utility.yul\":10697:10703   */\n      dup3\n        /* \"#utility.yul\":10693:10707   */\n      add\n        /* \"#utility.yul\":10683:10707   */\n      swap2\n      pop\n        /* \"#utility.yul\":10752:10754   */\n      0x20\n        /* \"#utility.yul\":10741:10750   */\n      dup6\n        /* \"#utility.yul\":10737:10755   */\n      add\n        /* \"#utility.yul\":10724:10755   */\n      swap5\n      pop\n        /* \"#utility.yul\":10591:10595   */\n      0x20\n        /* \"#utility.yul\":10588:10589   */\n      dup2\n        /* \"#utility.yul\":10584:10596   */\n      add\n        /* \"#utility.yul\":10579:10596   */\n      swap1\n      pop\n        /* \"#utility.yul\":10554:10769   */\n      jump(tag_230)\n    tag_232:\n        /* \"#utility.yul\":10797:10803   */\n      dup7\n        /* \"#utility.yul\":10788:10795   */\n      dup4\n        /* \"#utility.yul\":10785:10804   */\n      lt\n        /* \"#utility.yul\":10782:10968   */\n      iszero\n      tag_233\n      jumpi\n        /* \"#utility.yul\":10862:10871   */\n      dup5\n        /* \"#utility.yul\":10857:10860   */\n      dup10\n        /* \"#utility.yul\":10853:10872   */\n      add\n        /* \"#utility.yul\":10840:10873   */\n      calldataload\n        /* \"#utility.yul\":10905:10953   */\n      tag_234\n        /* \"#utility.yul\":10947:10951   */\n      0x1f\n        /* \"#utility.yul\":10939:10945   */\n      dup10\n        /* \"#utility.yul\":10935:10952   */\n      and\n        /* \"#utility.yul\":10924:10933   */\n      dup3\n        /* \"#utility.yul\":10905:10953   */\n      tag_100\n      jump\t// in\n    tag_234:\n        /* \"#utility.yul\":10897:10903   */\n      dup4\n        /* \"#utility.yul\":10890:10954   */\n      sstore\n        /* \"#utility.yul\":10805:10968   */\n      pop\n        /* \"#utility.yul\":10782:10968   */\n    tag_233:\n        /* \"#utility.yul\":11014:11015   */\n      0x01\n        /* \"#utility.yul\":11010:11011   */\n      0x02\n        /* \"#utility.yul\":11002:11008   */\n      dup9\n        /* \"#utility.yul\":10998:11012   */\n      mul\n        /* \"#utility.yul\":10994:11016   */\n      add\n        /* \"#utility.yul\":10988:10992   */\n      dup9\n        /* \"#utility.yul\":10981:11017   */\n      sstore\n        /* \"#utility.yul\":10402:11027   */\n      pop\n      pop\n      pop\n        /* \"#utility.yul\":10365:11273   */\n    tag_225:\n      pop\n        /* \"#utility.yul\":9975:11279   */\n      pop\n      pop\n      pop\n        /* \"#utility.yul\":9876:11279   */\n      pop\n      pop\n      pop\n      jump\t// out\n\n    auxdata: 0xa2646970667358221220a4de3f9ab1c1138d08c77ddcf7fc3f6a26484fe093ebea1d4e6a14c6d24bfb2364736f6c634300081a0033\n}\n",
				"bytecode": {
					"linkReferences": {},
					"object": "608060405260055f557ffffffffffffffffffffffffffffffffffffffffffffffffffffffffffffffffd6001556040518060400160405280600b81526020017f48656c6c6f20576f726c640000000000000000000000000000000000000000008152506002908161007091906102d6565b50600160035f6101000a81548160ff021916908315150217905550348015610096575f80fd5b506103a5565b5f81519050919050565b7f4e487b71000000000000000000000000000000000000000000000000000000005f52604160045260245ffd5b7f4e487b71000000000000000000000000000000000000000000000000000000005f52602260045260245ffd5b5f600282049050600182168061011757607f821691505b60208210810361012a576101296100d3565b5b50919050565b5f819050815f5260205f209050919050565b5f6020601f8301049050919050565b5f82821b905092915050565b5f6008830261018c7fffffffffffffffffffffffffffffffffffffffffffffffffffffffffffffffff82610151565b6101968683610151565b95508019841693508086168417925050509392505050565b5f819050919050565b5f819050919050565b5f6101da6101d56101d0846101ae565b6101b7565b6101ae565b9050919050565b5f819050919050565b6101f3836101c0565b6102076101ff826101e1565b84845461015d565b825550505050565b5f90565b61021b61020f565b6102268184846101ea565b505050565b5b818110156102495761023e5f82610213565b60018101905061022c565b5050565b601f82111561028e5761025f81610130565b61026884610142565b81016020851015610277578190505b61028b61028385610142565b83018261022b565b50505b505050565b5f82821c905092915050565b5f6102ae5f1984600802610293565b1980831691505092915050565b5f6102c6838361029f565b9150826002028217905092915050565b6102df8261009c565b67ffffffffffffffff8111156102f8576102f76100a6565b5b6103028254610100565b61030d82828561024d565b5f60209050601f83116001811461033e575f841561032c578287015190505b61033685826102bb565b86555061039d565b601f19841661034c86610130565b5f5b828110156103735784890151825560018201915060208501945060208101905061034e565b86831015610390578489015161038c601f89168261029f565b8355505b6001600288020188555050505b505050505050565b610879806103b25f395ff3fe608060405234801561000f575f80fd5b5060043610610086575f3560e01c8063a2375d1e11610059578063a2375d1e146100fe578063af3b69021461011c578063d46300fd14610138578063ee919d501461015657610086565b80631a14ff7a1461008a5780631b72e3cd146100a85780632495477e146100c4578063a1c51915146100e0575b5f80fd5b610092610172565b60405161009f9190610287565b60405180910390f35b6100c260048036038101906100bd9190610309565b610187565b005b6100de60048036038101906100d9919061037e565b61019d565b005b6100e86101b9565b6040516100f591906103c1565b60405180910390f35b6101066101c2565b604051610113919061044a565b60405180910390f35b61013660048036038101906101319190610494565b610252565b005b61014061025c565b60405161014d91906104d7565b60405180910390f35b610170600480360381019061016b919061051a565b610264565b005b5f60035f9054906101000a900460ff16905090565b818160029182610198929190610776565b505050565b8060035f6101000a81548160ff02191690831515021790555050565b5f600154905090565b6060600280546101d1906105a9565b80601f01602080910402602001604051908101604052809291908181526020018280546101fd906105a9565b80156102485780601f1061021f57610100808354040283529160200191610248565b820191905f5260205f20905b81548152906001019060200180831161022b57829003601f168201915b5050505050905090565b8060018190555050565b5f8054905090565b805f8190555050565b5f8115159050919050565b6102818161026d565b82525050565b5f60208201905061029a5f830184610278565b92915050565b5f80fd5b5f80fd5b5f80fd5b5f80fd5b5f80fd5b5f8083601f8401126102c9576102c86102a8565b5b8235905067ffffffffffffffff8111156102e6576102e56102ac565b5b602083019150836001820283011115610302576103016102b0565b5b9250929050565b5f806020838503121561031f5761031e6102a0565b5b5f83013567ffffffffffffffff81111561033c5761033b6102a4565b5b610348858286016102b4565b92509250509250929050565b61035d8161026d565b8114610367575f80fd5b50565b5f8135905061037881610354565b92915050565b5f60208284031215610393576103926102a0565b5b5f6103a08482850161036a565b91505092915050565b5f819050919050565b6103bb816103a9565b82525050565b5f6020820190506103d45f8301846103b2565b92915050565b5f81519050919050565b5f82825260208201905092915050565b8281835e5f83830152505050565b5f601f19601f8301169050919050565b5f61041c826103da565b61042681856103e4565b93506104368185602086016103f4565b61043f81610402565b840191505092915050565b5f6020820190508181035f8301526104628184610412565b905092915050565b610473816103a9565b811461047d575f80fd5b50565b5f8135905061048e8161046a565b92915050565b5f602082840312156104a9576104a86102a0565b5b5f6104b684828501610480565b91505092915050565b5f819050919050565b6104d1816104bf565b82525050565b5f6020820190506104ea5f8301846104c8565b92915050565b6104f9816104bf565b8114610503575f80fd5b50565b5f81359050610514816104f0565b92915050565b5f6020828403121561052f5761052e6102a0565b5b5f61053c84828501610506565b91505092915050565b5f82905092915050565b7f4e487b71000000000000000000000000000000000000000000000000000000005f52604160045260245ffd5b7f4e487b71000000000000000000000000000000000000000000000000000000005f52602260045260245ffd5b5f60028204905060018216806105c057607f821691505b6020821081036105d3576105d261057c565b5b50919050565b5f819050815f5260205f209050919050565b5f6020601f8301049050919050565b5f82821b905092915050565b5f600883026106357fffffffffffffffffffffffffffffffffffffffffffffffffffffffffffffffff826105fa565b61063f86836105fa565b95508019841693508086168417925050509392505050565b5f819050919050565b5f61067a610675610670846104bf565b610657565b6104bf565b9050919050565b5f819050919050565b61069383610660565b6106a761069f82610681565b848454610606565b825550505050565b5f90565b6106bb6106af565b6106c681848461068a565b505050565b5b818110156106e9576106de5f826106b3565b6001810190506106cc565b5050565b601f82111561072e576106ff816105d9565b610708846105eb565b81016020851015610717578190505b61072b610723856105eb565b8301826106cb565b50505b505050565b5f82821c905092915050565b5f61074e5f1984600802610733565b1980831691505092915050565b5f610766838361073f565b9150826002028217905092915050565b6107808383610545565b67ffffffffffffffff8111156107995761079861054f565b5b6107a382546105a9565b6107ae8282856106ed565b5f601f8311600181146107db575f84156107c9578287013590505b6107d3858261075b565b86555061083a565b601f1984166107e9866105d9565b5f5b82811015610810578489013582556001820191506020850194506020810190506107eb565b8683101561082d5784890135610829601f89168261073f565b8355505b6001600288020188555050505b5050505050505056fea2646970667358221220a4de3f9ab1c1138d08c77ddcf7fc3f6a26484fe093ebea1d4e6a14c6d24bfb2364736f6c634300081a0033",
					"opcodes": "PUSH1 0x80 PUSH1 0x40 MSTORE PUSH1 0x5 PUSH0 SSTORE PUSH32 0xFFFFFFFFFFFFFFFFFFFFFFFFFFFFFFFFFFFFFFFFFFFFFFFFFFFFFFFFFFFFFFFD PUSH1 0x1 SSTORE PUSH1 0x40 MLOAD DUP1 PUSH1 0x40 ADD PUSH1 0x40 MSTORE DUP1 PUSH1 0xB DUP2 MSTORE PUSH1 0x20 ADD PUSH32 0x48656C6C6F20576F726C64000000000000000000000000000000000000000000 DUP2 MSTORE POP PUSH1 0x2 SWAP1 DUP2 PUSH2 0x70 SWAP2 SWAP1 PUSH2 0x2D6 JUMP JUMPDEST POP PUSH1 0x1 PUSH1 0x3 PUSH0 PUSH2 0x100 EXP DUP2 SLOAD DUP2 PUSH1 0xFF MUL NOT AND SWAP1 DUP4 ISZERO ISZERO MUL OR SWAP1 SSTORE POP CALLVALUE DUP1 ISZERO PUSH2 0x96 JUMPI PUSH0 DUP1 REVERT JUMPDEST POP PUSH2 0x3A5 JUMP JUMPDEST PUSH0 DUP2 MLOAD SWAP1 POP SWAP2 SWAP1 POP JUMP JUMPDEST PUSH32 0x4E487B7100000000000000000000000000000000000000000000000000000000 PUSH0 MSTORE PUSH1 0x41 PUSH1 0x4 MSTORE PUSH1 0x24 PUSH0 REVERT JUMPDEST PUSH32 0x4E487B7100000000000000000000000000000000000000000000000000000000 PUSH0 MSTORE PUSH1 0x22 PUSH1 0x4 MSTORE PUSH1 0x24 PUSH0 REVERT JUMPDEST PUSH0 PUSH1 0x2 DUP3 DIV SWAP1 POP PUSH1 0x1 DUP3 AND DUP1 PUSH2 0x117 JUMPI PUSH1 0x7F DUP3 AND SWAP2 POP JUMPDEST PUSH1 0x20 DUP3 LT DUP2 SUB PUSH2 0x12A JUMPI PUSH2 0x129 PUSH2 0xD3 JUMP JUMPDEST JUMPDEST POP SWAP2 SWAP1 POP JUMP JUMPDEST PUSH0 DUP2 SWAP1 POP DUP2 PUSH0 MSTORE PUSH1 0x20 PUSH0 KECCAK256 SWAP1 POP SWAP2 SWAP1 POP JUMP JUMPDEST PUSH0 PUSH1 0x20 PUSH1 0x1F DUP4 ADD DIV SWAP1 POP SWAP2 SWAP1 POP JUMP JUMPDEST PUSH0 DUP3 DUP3 SHL SWAP1 POP SWAP3 SWAP2 POP POP JUMP JUMPDEST PUSH0 PUSH1 0x8 DUP4 MUL PUSH2 0x18C PUSH32 0xFFFFFFFFFFFFFFFFFFFFFFFFFFFFFFFFFFFFFFFFFFFFFFFFFFFFFFFFFFFFFFFF DUP3 PUSH2 0x151 JUMP JUMPDEST PUSH2 0x196 DUP7 DUP4 PUSH2 0x151 JUMP JUMPDEST SWAP6 POP DUP1 NOT DUP5 AND SWAP4 POP DUP1 DUP7 AND DUP5 OR SWAP3 POP POP POP SWAP4 SWAP3 POP POP POP JUMP JUMPDEST PUSH0 DUP2 SWAP1 POP SWAP2 SWAP1 POP JUMP JUMPDEST PUSH0 DUP2 SWAP1 POP SWAP2 SWAP1 POP JUMP JUMPDEST PUSH0 PUSH2 0x1DA PUSH2 0x1D5 PUSH2 0x1D0 DUP5 PUSH2 0x1AE JUMP JUMPDEST PUSH2 0x1B7 JUMP JUMPDEST PUSH2 0x1AE JUMP JUMPDEST SWAP1 POP SWAP2 SWAP1 POP JUMP JUMPDEST PUSH0 DUP2 SWAP1 POP SWAP2 SWAP1 POP JUMP JUMPDEST PUSH2 0x1F3 DUP4 PUSH2 0x1C0 JUMP JUMPDEST PUSH2 0x207 PUSH2 0x1FF DUP3 PUSH2 0x1E1 JUMP JUMPDEST DUP5 DUP5 SLOAD PUSH2 0x15D JUMP JUMPDEST DUP3 SSTORE POP POP POP POP JUMP JUMPDEST PUSH0 SWAP1 JUMP JUMPDEST PUSH2 0x21B PUSH2 0x20F JUMP JUMPDEST PUSH2 0x226 DUP2 DUP5 DUP5 PUSH2 0x1EA JUMP JUMPDEST POP POP POP JUMP JUMPDEST JUMPDEST DUP2 DUP2 LT ISZERO PUSH2 0x249 JUMPI PUSH2 0x23E PUSH0 DUP3 PUSH2 0x213 JUMP JUMPDEST PUSH1 0x1 DUP2 ADD SWAP1 POP PUSH2 0x22C JUMP JUMPDEST POP POP JUMP JUMPDEST PUSH1 0x1F DUP3 GT ISZERO PUSH2 0x28E JUMPI PUSH2 0x25F DUP2 PUSH2 0x130 JUMP JUMPDEST PUSH2 0x268 DUP5 PUSH2 0x142 JUMP JUMPDEST DUP2 ADD PUSH1 0x20 DUP6 LT ISZERO PUSH2 0x277 JUMPI DUP2 SWAP1 POP JUMPDEST PUSH2 0x28B PUSH2 0x283 DUP6 PUSH2 0x142 JUMP JUMPDEST DUP4 ADD DUP3 PUSH2 0x22B JUMP JUMPDEST POP POP JUMPDEST POP POP POP JUMP JUMPDEST PUSH0 DUP3 DUP3 SHR SWAP1 POP SWAP3 SWAP2 POP POP JUMP JUMPDEST PUSH0 PUSH2 0x2AE PUSH0 NOT DUP5 PUSH1 0x8 MUL PUSH2 0x293 JUMP JUMPDEST NOT DUP1 DUP4 AND SWAP2 POP POP SWAP3 SWAP2 POP POP JUMP JUMPDEST PUSH0 PUSH2 0x2C6 DUP4 DUP4 PUSH2 0x29F JUMP JUMPDEST SWAP2 POP DUP3 PUSH1 0x2 MUL DUP3 OR SWAP1 POP SWAP3 SWAP2 POP POP JUMP JUMPDEST PUSH2 0x2DF DUP3 PUSH2 0x9C JUMP JUMPDEST PUSH8 0xFFFFFFFFFFFFFFFF DUP2 GT ISZERO PUSH2 0x2F8 JUMPI PUSH2 0x2F7 PUSH2 0xA6 JUMP JUMPDEST JUMPDEST PUSH2 0x302 DUP3 SLOAD PUSH2 0x100 JUMP JUMPDEST PUSH2 0x30D DUP3 DUP3 DUP6 PUSH2 0x24D JUMP JUMPDEST PUSH0 PUSH1 0x20 SWAP1 POP PUSH1 0x1F DUP4 GT PUSH1 0x1 DUP2 EQ PUSH2 0x33E JUMPI PUSH0 DUP5 ISZERO PUSH2 0x32C JUMPI DUP3 DUP8 ADD MLOAD SWAP1 POP JUMPDEST PUSH2 0x336 DUP6 DUP3 PUSH2 0x2BB JUMP JUMPDEST DUP7 SSTORE POP PUSH2 0x39D JUMP JUMPDEST PUSH1 0x1F NOT DUP5 AND PUSH2 0x34C DUP7 PUSH2 0x130 JUMP JUMPDEST PUSH0 JUMPDEST DUP3 DUP2 LT ISZERO PUSH2 0x373 JUMPI DUP5 DUP10 ADD MLOAD DUP3 SSTORE PUSH1 0x1 DUP3 ADD SWAP2 POP PUSH1 0x20 DUP6 ADD SWAP5 POP PUSH1 0x20 DUP2 ADD SWAP1 POP PUSH2 0x34E JUMP JUMPDEST DUP7 DUP4 LT ISZERO PUSH2 0x390 JUMPI DUP5 DUP10 ADD MLOAD PUSH2 0x38C PUSH1 0x1F DUP10 AND DUP3 PUSH2 0x29F JUMP JUMPDEST DUP4 SSTORE POP JUMPDEST PUSH1 0x1 PUSH1 0x2 DUP9 MUL ADD DUP9 SSTORE POP POP POP JUMPDEST POP POP POP POP POP POP JUMP JUMPDEST PUSH2 0x879 DUP1 PUSH2 0x3B2 PUSH0 CODECOPY PUSH0 RETURN INVALID PUSH1 0x80 PUSH1 0x40 MSTORE CALLVALUE DUP1 ISZERO PUSH2 0xF JUMPI PUSH0 DUP1 REVERT JUMPDEST POP PUSH1 0x4 CALLDATASIZE LT PUSH2 0x86 JUMPI PUSH0 CALLDATALOAD PUSH1 0xE0 SHR DUP1 PUSH4 0xA2375D1E GT PUSH2 0x59 JUMPI DUP1 PUSH4 0xA2375D1E EQ PUSH2 0xFE JUMPI DUP1 PUSH4 0xAF3B6902 EQ PUSH2 0x11C JUMPI DUP1 PUSH4 0xD46300FD EQ PUSH2 0x138 JUMPI DUP1 PUSH4 0xEE919D50 EQ PUSH2 0x156 JUMPI PUSH2 0x86 JUMP JUMPDEST DUP1 PUSH4 0x1A14FF7A EQ PUSH2 0x8A JUMPI DUP1 PUSH4 0x1B72E3CD EQ PUSH2 0xA8 JUMPI DUP1 PUSH4 0x2495477E EQ PUSH2 0xC4 JUMPI DUP1 PUSH4 0xA1C51915 EQ PUSH2 0xE0 JUMPI JUMPDEST PUSH0 DUP1 REVERT JUMPDEST PUSH2 0x92 PUSH2 0x172 JUMP JUMPDEST PUSH1 0x40 MLOAD PUSH2 0x9F SWAP2 SWAP1 PUSH2 0x287 JUMP JUMPDEST PUSH1 0x40 MLOAD DUP1 SWAP2 SUB SWAP1 RETURN JUMPDEST PUSH2 0xC2 PUSH1 0x4 DUP1 CALLDATASIZE SUB DUP2 ADD SWAP1 PUSH2 0xBD SWAP2 SWAP1 PUSH2 0x309 JUMP JUMPDEST PUSH2 0x187 JUMP JUMPDEST STOP JUMPDEST PUSH2 0xDE PUSH1 0x4 DUP1 CALLDATASIZE SUB DUP2 ADD SWAP1 PUSH2 0xD9 SWAP2 SWAP1 PUSH2 0x37E JUMP JUMPDEST PUSH2 0x19D JUMP JUMPDEST STOP JUMPDEST PUSH2 0xE8 PUSH2 0x1B9 JUMP JUMPDEST PUSH1 0x40 MLOAD PUSH2 0xF5 SWAP2 SWAP1 PUSH2 0x3C1 JUMP JUMPDEST PUSH1 0x40 MLOAD DUP1 SWAP2 SUB SWAP1 RETURN JUMPDEST PUSH2 0x106 PUSH2 0x1C2 JUMP JUMPDEST PUSH1 0x40 MLOAD PUSH2 0x113 SWAP2 SWAP1 PUSH2 0x44A JUMP JUMPDEST PUSH1 0x40 MLOAD DUP1 SWAP2 SUB SWAP1 RETURN JUMPDEST PUSH2 0x136 PUSH1 0x4 DUP1 CALLDATASIZE SUB DUP2 ADD SWAP1 PUSH2 0x131 SWAP2 SWAP1 PUSH2 0x494 JUMP JUMPDEST PUSH2 0x252 JUMP JUMPDEST STOP JUMPDEST PUSH2 0x140 PUSH2 0x25C JUMP JUMPDEST PUSH1 0x40 MLOAD PUSH2 0x14D SWAP2 SWAP1 PUSH2 0x4D7 JUMP JUMPDEST PUSH1 0x40 MLOAD DUP1 SWAP2 SUB SWAP1 RETURN JUMPDEST PUSH2 0x170 PUSH1 0x4 DUP1 CALLDATASIZE SUB DUP2 ADD SWAP1 PUSH2 0x16B SWAP2 SWAP1 PUSH2 0x51A JUMP JUMPDEST PUSH2 0x264 JUMP JUMPDEST STOP JUMPDEST PUSH0 PUSH1 0x3 PUSH0 SWAP1 SLOAD SWAP1 PUSH2 0x100 EXP SWAP1 DIV PUSH1 0xFF AND SWAP1 POP SWAP1 JUMP JUMPDEST DUP2 DUP2 PUSH1 0x2 SWAP2 DUP3 PUSH2 0x198 SWAP3 SWAP2 SWAP1 PUSH2 0x776 JUMP JUMPDEST POP POP POP JUMP JUMPDEST DUP1 PUSH1 0x3 PUSH0 PUSH2 0x100 EXP DUP2 SLOAD DUP2 PUSH1 0xFF MUL NOT AND SWAP1 DUP4 ISZERO ISZERO MUL OR SWAP1 SSTORE POP POP JUMP JUMPDEST PUSH0 PUSH1 0x1 SLOAD SWAP1 POP SWAP1 JUMP JUMPDEST PUSH1 0x60 PUSH1 0x2 DUP1 SLOAD PUSH2 0x1D1 SWAP1 PUSH2 0x5A9 JUMP JUMPDEST DUP1 PUSH1 0x1F ADD PUSH1 0x20 DUP1 SWAP2 DIV MUL PUSH1 0x20 ADD PUSH1 0x40 MLOAD SWAP1 DUP2 ADD PUSH1 0x40 MSTORE DUP1 SWAP3 SWAP2 SWAP1 DUP2 DUP2 MSTORE PUSH1 0x20 ADD DUP3 DUP1 SLOAD PUSH2 0x1FD SWAP1 PUSH2 0x5A9 JUMP JUMPDEST DUP1 ISZERO PUSH2 0x248 JUMPI DUP1 PUSH1 0x1F LT PUSH2 0x21F JUMPI PUSH2 0x100 DUP1 DUP4 SLOAD DIV MUL DUP4 MSTORE SWAP2 PUSH1 0x20 ADD SWAP2 PUSH2 0x248 JUMP JUMPDEST DUP3 ADD SWAP2 SWAP1 PUSH0 MSTORE PUSH1 0x20 PUSH0 KECCAK256 SWAP1 JUMPDEST DUP2 SLOAD DUP2 MSTORE SWAP1 PUSH1 0x1 ADD SWAP1 PUSH1 0x20 ADD DUP1 DUP4 GT PUSH2 0x22B JUMPI DUP3 SWAP1 SUB PUSH1 0x1F AND DUP3 ADD SWAP2 JUMPDEST POP POP POP POP POP SWAP1 POP SWAP1 JUMP JUMPDEST DUP1 PUSH1 0x1 DUP2 SWAP1 SSTORE POP POP JUMP JUMPDEST PUSH0 DUP1 SLOAD SWAP1 POP SWAP1 JUMP JUMPDEST DUP1 PUSH0 DUP2 SWAP1 SSTORE POP POP JUMP JUMPDEST PUSH0 DUP2 ISZERO ISZERO SWAP1 POP SWAP2 SWAP1 POP JUMP JUMPDEST PUSH2 0x281 DUP2 PUSH2 0x26D JUMP JUMPDEST DUP3 MSTORE POP POP JUMP JUMPDEST PUSH0 PUSH1 0x20 DUP3 ADD SWAP1 POP PUSH2 0x29A PUSH0 DUP4 ADD DUP5 PUSH2 0x278 JUMP JUMPDEST SWAP3 SWAP2 POP POP JUMP JUMPDEST PUSH0 DUP1 REVERT JUMPDEST PUSH0 DUP1 REVERT JUMPDEST PUSH0 DUP1 REVERT JUMPDEST PUSH0 DUP1 REVERT JUMPDEST PUSH0 DUP1 REVERT JUMPDEST PUSH0 DUP1 DUP4 PUSH1 0x1F DUP5 ADD SLT PUSH2 0x2C9 JUMPI PUSH2 0x2C8 PUSH2 0x2A8 JUMP JUMPDEST JUMPDEST DUP3 CALLDATALOAD SWAP1 POP PUSH8 0xFFFFFFFFFFFFFFFF DUP2 GT ISZERO PUSH2 0x2E6 JUMPI PUSH2 0x2E5 PUSH2 0x2AC JUMP JUMPDEST JUMPDEST PUSH1 0x20 DUP4 ADD SWAP2 POP DUP4 PUSH1 0x1 DUP3 MUL DUP4 ADD GT ISZERO PUSH2 0x302 JUMPI PUSH2 0x301 PUSH2 0x2B0 JUMP JUMPDEST JUMPDEST SWAP3 POP SWAP3 SWAP1 POP JUMP JUMPDEST PUSH0 DUP1 PUSH1 0x20 DUP4 DUP6 SUB SLT ISZERO PUSH2 0x31F JUMPI PUSH2 0x31E PUSH2 0x2A0 JUMP JUMPDEST JUMPDEST PUSH0 DUP4 ADD CALLDATALOAD PUSH8 0xFFFFFFFFFFFFFFFF DUP2 GT ISZERO PUSH2 0x33C JUMPI PUSH2 0x33B PUSH2 0x2A4 JUMP JUMPDEST JUMPDEST PUSH2 0x348 DUP6 DUP3 DUP7 ADD PUSH2 0x2B4 JUMP JUMPDEST SWAP3 POP SWAP3 POP POP SWAP3 POP SWAP3 SWAP1 POP JUMP JUMPDEST PUSH2 0x35D DUP2 PUSH2 0x26D JUMP JUMPDEST DUP2 EQ PUSH2 0x367 JUMPI PUSH0 DUP1 REVERT JUMPDEST POP JUMP JUMPDEST PUSH0 DUP2 CALLDATALOAD SWAP1 POP PUSH2 0x378 DUP2 PUSH2 0x354 JUMP JUMPDEST SWAP3 SWAP2 POP POP JUMP JUMPDEST PUSH0 PUSH1 0x20 DUP3 DUP5 SUB SLT ISZERO PUSH2 0x393 JUMPI PUSH2 0x392 PUSH2 0x2A0 JUMP JUMPDEST JUMPDEST PUSH0 PUSH2 0x3A0 DUP5 DUP3 DUP6 ADD PUSH2 0x36A JUMP JUMPDEST SWAP2 POP POP SWAP3 SWAP2 POP POP JUMP JUMPDEST PUSH0 DUP2 SWAP1 POP SWAP2 SWAP1 POP JUMP JUMPDEST PUSH2 0x3BB DUP2 PUSH2 0x3A9 JUMP JUMPDEST DUP3 MSTORE POP POP JUMP JUMPDEST PUSH0 PUSH1 0x20 DUP3 ADD SWAP1 POP PUSH2 0x3D4 PUSH0 DUP4 ADD DUP5 PUSH2 0x3B2 JUMP JUMPDEST SWAP3 SWAP2 POP POP JUMP JUMPDEST PUSH0 DUP2 MLOAD SWAP1 POP SWAP2 SWAP1 POP JUMP JUMPDEST PUSH0 DUP3 DUP3 MSTORE PUSH1 0x20 DUP3 ADD SWAP1 POP SWAP3 SWAP2 POP POP JUMP JUMPDEST DUP3 DUP2 DUP4 MCOPY PUSH0 DUP4 DUP4 ADD MSTORE POP POP POP JUMP JUMPDEST PUSH0 PUSH1 0x1F NOT PUSH1 0x1F DUP4 ADD AND SWAP1 POP SWAP2 SWAP1 POP JUMP JUMPDEST PUSH0 PUSH2 0x41C DUP3 PUSH2 0x3DA JUMP JUMPDEST PUSH2 0x426 DUP2 DUP6 PUSH2 0x3E4 JUMP JUMPDEST SWAP4 POP PUSH2 0x436 DUP2 DUP6 PUSH1 0x20 DUP7 ADD PUSH2 0x3F4 JUMP JUMPDEST PUSH2 0x43F DUP2 PUSH2 0x402 JUMP JUMPDEST DUP5 ADD SWAP2 POP POP SWAP3 SWAP2 POP POP JUMP JUMPDEST PUSH0 PUSH1 0x20 DUP3 ADD SWAP1 POP DUP2 DUP2 SUB PUSH0 DUP4 ADD MSTORE PUSH2 0x462 DUP2 DUP5 PUSH2 0x412 JUMP JUMPDEST SWAP1 POP SWAP3 SWAP2 POP POP JUMP JUMPDEST PUSH2 0x473 DUP2 PUSH2 0x3A9 JUMP JUMPDEST DUP2 EQ PUSH2 0x47D JUMPI PUSH0 DUP1 REVERT JUMPDEST POP JUMP JUMPDEST PUSH0 DUP2 CALLDATALOAD SWAP1 POP PUSH2 0x48E DUP2 PUSH2 0x46A JUMP JUMPDEST SWAP3 SWAP2 POP POP JUMP JUMPDEST PUSH0 PUSH1 0x20 DUP3 DUP5 SUB SLT ISZERO PUSH2 0x4A9 JUMPI PUSH2 0x4A8 PUSH2 0x2A0 JUMP JUMPDEST JUMPDEST PUSH0 PUSH2 0x4B6 DUP5 DUP3 DUP6 ADD PUSH2 0x480 JUMP JUMPDEST SWAP2 POP POP SWAP3 SWAP2 POP POP JUMP JUMPDEST PUSH0 DUP2 SWAP1 POP SWAP2 SWAP1 POP JUMP JUMPDEST PUSH2 0x4D1 DUP2 PUSH2 0x4BF JUMP JUMPDEST DUP3 MSTORE POP POP JUMP JUMPDEST PUSH0 PUSH1 0x20 DUP3 ADD SWAP1 POP PUSH2 0x4EA PUSH0 DUP4 ADD DUP5 PUSH2 0x4C8 JUMP JUMPDEST SWAP3 SWAP2 POP POP JUMP JUMPDEST PUSH2 0x4F9 DUP2 PUSH2 0x4BF JUMP JUMPDEST DUP2 EQ PUSH2 0x503 JUMPI PUSH0 DUP1 REVERT JUMPDEST POP JUMP JUMPDEST PUSH0 DUP2 CALLDATALOAD SWAP1 POP PUSH2 0x514 DUP2 PUSH2 0x4F0 JUMP JUMPDEST SWAP3 SWAP2 POP POP JUMP JUMPDEST PUSH0 PUSH1 0x20 DUP3 DUP5 SUB SLT ISZERO PUSH2 0x52F JUMPI PUSH2 0x52E PUSH2 0x2A0 JUMP JUMPDEST JUMPDEST PUSH0 PUSH2 0x53C DUP5 DUP3 DUP6 ADD PUSH2 0x506 JUMP JUMPDEST SWAP2 POP POP SWAP3 SWAP2 POP POP JUMP JUMPDEST PUSH0 DUP3 SWAP1 POP SWAP3 SWAP2 POP POP JUMP JUMPDEST PUSH32 0x4E487B7100000000000000000000000000000000000000000000000000000000 PUSH0 MSTORE PUSH1 0x41 PUSH1 0x4 MSTORE PUSH1 0x24 PUSH0 REVERT JUMPDEST PUSH32 0x4E487B7100000000000000000000000000000000000000000000000000000000 PUSH0 MSTORE PUSH1 0x22 PUSH1 0x4 MSTORE PUSH1 0x24 PUSH0 REVERT JUMPDEST PUSH0 PUSH1 0x2 DUP3 DIV SWAP1 POP PUSH1 0x1 DUP3 AND DUP1 PUSH2 0x5C0 JUMPI PUSH1 0x7F DUP3 AND SWAP2 POP JUMPDEST PUSH1 0x20 DUP3 LT DUP2 SUB PUSH2 0x5D3 JUMPI PUSH2 0x5D2 PUSH2 0x57C JUMP JUMPDEST JUMPDEST POP SWAP2 SWAP1 POP JUMP JUMPDEST PUSH0 DUP2 SWAP1 POP DUP2 PUSH0 MSTORE PUSH1 0x20 PUSH0 KECCAK256 SWAP1 POP SWAP2 SWAP1 POP JUMP JUMPDEST PUSH0 PUSH1 0x20 PUSH1 0x1F DUP4 ADD DIV SWAP1 POP SWAP2 SWAP1 POP JUMP JUMPDEST PUSH0 DUP3 DUP3 SHL SWAP1 POP SWAP3 SWAP2 POP POP JUMP JUMPDEST PUSH0 PUSH1 0x8 DUP4 MUL PUSH2 0x635 PUSH32 0xFFFFFFFFFFFFFFFFFFFFFFFFFFFFFFFFFFFFFFFFFFFFFFFFFFFFFFFFFFFFFFFF DUP3 PUSH2 0x5FA JUMP JUMPDEST PUSH2 0x63F DUP7 DUP4 PUSH2 0x5FA JUMP JUMPDEST SWAP6 POP DUP1 NOT DUP5 AND SWAP4 POP DUP1 DUP7 AND DUP5 OR SWAP3 POP POP POP SWAP4 SWAP3 POP POP POP JUMP JUMPDEST PUSH0 DUP2 SWAP1 POP SWAP2 SWAP1 POP JUMP JUMPDEST PUSH0 PUSH2 0x67A PUSH2 0x675 PUSH2 0x670 DUP5 PUSH2 0x4BF JUMP JUMPDEST PUSH2 0x657 JUMP JUMPDEST PUSH2 0x4BF JUMP JUMPDEST SWAP1 POP SWAP2 SWAP1 POP JUMP JUMPDEST PUSH0 DUP2 SWAP1 POP SWAP2 SWAP1 POP JUMP JUMPDEST PUSH2 0x693 DUP4 PUSH2 0x660 JUMP JUMPDEST PUSH2 0x6A7 PUSH2 0x69F DUP3 PUSH2 0x681 JUMP JUMPDEST DUP5 DUP5 SLOAD PUSH2 0x606 JUMP JUMPDEST DUP3 SSTORE POP POP POP POP JUMP JUMPDEST PUSH0 SWAP1 JUMP JUMPDEST PUSH2 0x6BB PUSH2 0x6AF JUMP JUMPDEST PUSH2 0x6C6 DUP2 DUP5 DUP5 PUSH2 0x68A JUMP JUMPDEST POP POP POP JUMP JUMPDEST JUMPDEST DUP2 DUP2 LT ISZERO PUSH2 0x6E9 JUMPI PUSH2 0x6DE PUSH0 DUP3 PUSH2 0x6B3 JUMP JUMPDEST PUSH1 0x1 DUP2 ADD SWAP1 POP PUSH2 0x6CC JUMP JUMPDEST POP POP JUMP JUMPDEST PUSH1 0x1F DUP3 GT ISZERO PUSH2 0x72E JUMPI PUSH2 0x6FF DUP2 PUSH2 0x5D9 JUMP JUMPDEST PUSH2 0x708 DUP5 PUSH2 0x5EB JUMP JUMPDEST DUP2 ADD PUSH1 0x20 DUP6 LT ISZERO PUSH2 0x717 JUMPI DUP2 SWAP1 POP JUMPDEST PUSH2 0x72B PUSH2 0x723 DUP6 PUSH2 0x5EB JUMP JUMPDEST DUP4 ADD DUP3 PUSH2 0x6CB JUMP JUMPDEST POP POP JUMPDEST POP POP POP JUMP JUMPDEST PUSH0 DUP3 DUP3 SHR SWAP1 POP SWAP3 SWAP2 POP POP JUMP JUMPDEST PUSH0 PUSH2 0x74E PUSH0 NOT DUP5 PUSH1 0x8 MUL PUSH2 0x733 JUMP JUMPDEST NOT DUP1 DUP4 AND SWAP2 POP POP SWAP3 SWAP2 POP POP JUMP JUMPDEST PUSH0 PUSH2 0x766 DUP4 DUP4 PUSH2 0x73F JUMP JUMPDEST SWAP2 POP DUP3 PUSH1 0x2 MUL DUP3 OR SWAP1 POP SWAP3 SWAP2 POP POP JUMP JUMPDEST PUSH2 0x780 DUP4 DUP4 PUSH2 0x545 JUMP JUMPDEST PUSH8 0xFFFFFFFFFFFFFFFF DUP2 GT ISZERO PUSH2 0x799 JUMPI PUSH2 0x798 PUSH2 0x54F JUMP JUMPDEST JUMPDEST PUSH2 0x7A3 DUP3 SLOAD PUSH2 0x5A9 JUMP JUMPDEST PUSH2 0x7AE DUP3 DUP3 DUP6 PUSH2 0x6ED JUMP JUMPDEST PUSH0 PUSH1 0x1F DUP4 GT PUSH1 0x1 DUP2 EQ PUSH2 0x7DB JUMPI PUSH0 DUP5 ISZERO PUSH2 0x7C9 JUMPI DUP3 DUP8 ADD CALLDATALOAD SWAP1 POP JUMPDEST PUSH2 0x7D3 DUP6 DUP3 PUSH2 0x75B JUMP JUMPDEST DUP7 SSTORE POP PUSH2 0x83A JUMP JUMPDEST PUSH1 0x1F NOT DUP5 AND PUSH2 0x7E9 DUP7 PUSH2 0x5D9 JUMP JUMPDEST PUSH0 JUMPDEST DUP3 DUP2 LT ISZERO PUSH2 0x810 JUMPI DUP5 DUP10 ADD CALLDATALOAD DUP3 SSTORE PUSH1 0x1 DUP3 ADD SWAP2 POP PUSH1 0x20 DUP6 ADD SWAP5 POP PUSH1 0x20 DUP2 ADD SWAP1 POP PUSH2 0x7EB JUMP JUMPDEST DUP7 DUP4 LT ISZERO PUSH2 0x82D JUMPI DUP5 DUP10 ADD CALLDATALOAD PUSH2 0x829 PUSH1 0x1F DUP10 AND DUP3 PUSH2 0x73F JUMP JUMPDEST DUP4 SSTORE POP JUMPDEST PUSH1 0x1 PUSH1 0x2 DUP9 MUL ADD DUP9 SSTORE POP POP POP JUMPDEST POP POP POP POP POP POP POP JUMP INVALID LOG2 PUSH5 0x6970667358 0x22 SLT KECCAK256 LOG4 0xDE EXTCODEHASH SWAP11 0xB1 0xC1 SGT DUP14 ADDMOD 0xC7 PUSH30 0xDCF7FC3F6A26484FE093EBEA1D4E6A14C6D24BFB2364736F6C634300081A STOP CALLER "
				},
				"gasEstimates": {
					"creation": {
						"codeDepositCost": "433800",
						"executionCost": "infinite",
						"totalCost": "infinite"
					},
					"external": {
						"getA()": "2476",
						"getB()": "2499",
						"getC()": "infinite",
						"getD()": "2474",
						"setA(uint256)": "22580",
						"setB(int256)": "22537",
						"setC(string)": "infinite",
						"setD(bool)": "24718"
					}
				},
				"methodIdentifiers": {
					"getA()": "d46300fd",
					"getB()": "a1c51915",
					"getC()": "a2375d1e",
					"getD()": "1a14ff7a",
					"setA(uint256)": "ee919d50",
					"setB(int256)": "af3b6902",
					"setC(string)": "1b72e3cd",
					"setD(bool)": "2495477e"
				}
			},
			"storageLayout": {
				"storage": [
					{
						"astId": 4,
						"contract": "contracts/access.sol:Modify",
						"label": "a",
						"offset": 0,
						"slot": "0",
						"type": "t_uint256"
					},
					{
						"astId": 8,
						"contract": "contracts/access.sol:Modify",
						"label": "b",
						"offset": 0,
						"slot": "1",
						"type": "t_int256"
					},
					{
						"astId": 11,
						"contract": "contracts/access.sol:Modify",
						"label": "c",
						"offset": 0,
						"slot": "2",
						"type": "t_string_storage"
					},
					{
						"astId": 14,
						"contract": "contracts/access.sol:Modify",
						"label": "d",
						"offset": 0,
						"slot": "3",
						"type": "t_bool"
					}
				],
				"types": {
					"t_bool": {
						"encoding": "inplace",
						"label": "bool",
						"numberOfBytes": "1"
					},
					"t_int256": {
						"encoding": "inplace",
						"label": "int256",
						"numberOfBytes": "32"
					},
					"t_string_storage": {
						"encoding": "bytes",
						"label": "string",
						"numberOfBytes": "32"
					},
					"t_uint256": {
						"encoding": "inplace",
						"label": "uint256",
						"numberOfBytes": "32"
					}
				}
			},
			"userdoc": {
				"kind": "user",
				"methods": {},
				"version": 1
			}
		}
	}
}