{
	"contracts/13sep.sol": {
		"Student": {
			"abi": [
				{
					"inputs": [],
					"name": "getStudent1",
					"outputs": [
						{
							"internalType": "string",
							"name": "",
							"type": "string"
						},
						{
							"internalType": "uint256",
							"name": "",
							"type": "uint256"
						},
						{
							"internalType": "uint256[5]",
							"name": "",
							"type": "uint256[5]"
						}
					],
					"stateMutability": "view",
					"type": "function"
				},
				{
					"inputs": [],
					"name": "getStudent2",
					"outputs": [
						{
							"internalType": "string",
							"name": "",
							"type": "string"
						},
						{
							"internalType": "uint256",
							"name": "",
							"type": "uint256"
						},
						{
							"internalType": "uint256[5]",
							"name": "",
							"type": "uint256[5]"
						}
					],
					"stateMutability": "view",
					"type": "function"
				},
				{
					"inputs": [
						{
							"internalType": "string",
							"name": "sname",
							"type": "string"
						},
						{
							"internalType": "uint256",
							"name": "sid",
							"type": "uint256"
						},
						{
							"internalType": "uint256[5]",
							"name": "mks",
							"type": "uint256[5]"
						}
					],
					"name": "setStudent1",
					"outputs": [],
					"stateMutability": "nonpayable",
					"type": "function"
				},
				{
					"inputs": [
						{
							"internalType": "string",
							"name": "sname",
							"type": "string"
						},
						{
							"internalType": "uint256",
							"name": "sid",
							"type": "uint256"
						},
						{
							"internalType": "uint256[5]",
							"name": "mks",
							"type": "uint256[5]"
						}
					],
					"name": "setStudent2",
					"outputs": [],
					"stateMutability": "nonpayable",
					"type": "function"
				}
			],
			"devdoc": {
				"kind": "dev",
				"methods": {},
				"version": 1
			},
			"evm": {
				"assembly": "    /* \"contracts/13sep.sol\":871:1652  contract Student{... */\n  mstore(0x40, 0x80)\n    /* \"contracts/13sep.sol\":1002:1042  stud(\"Vedant\", 22566, [uint(1),2,3,4,5]) */\n  mload(0x40)\n  dup1\n  0x60\n  add\n  0x40\n  mstore\n  dup1\n  mload(0x40)\n  dup1\n  0x40\n  add\n  0x40\n  mstore\n  dup1\n  0x06\n  dup2\n  mstore\n  0x20\n  add\n  0x566564616e740000000000000000000000000000000000000000000000000000\n  dup2\n  mstore\n  pop\n  dup2\n  mstore\n  0x20\n  add\n    /* \"contracts/13sep.sol\":1017:1022  22566 */\n  0x5826\n    /* \"contracts/13sep.sol\":1002:1042  stud(\"Vedant\", 22566, [uint(1),2,3,4,5]) */\n  dup2\n  mstore\n  0x20\n  add\n  mload(0x40)\n  dup1\n  0xa0\n  add\n  0x40\n  mstore\n  dup1\n    /* \"contracts/13sep.sol\":1030:1031  1 */\n  0x01\n    /* \"contracts/13sep.sol\":1002:1042  stud(\"Vedant\", 22566, [uint(1),2,3,4,5]) */\n  dup2\n  mstore\n  0x20\n  add\n    /* \"contracts/13sep.sol\":1033:1034  2 */\n  0x02\n    /* \"contracts/13sep.sol\":1002:1042  stud(\"Vedant\", 22566, [uint(1),2,3,4,5]) */\n  dup2\n  mstore\n  0x20\n  add\n    /* \"contracts/13sep.sol\":1035:1036  3 */\n  0x03\n    /* \"contracts/13sep.sol\":1002:1042  stud(\"Vedant\", 22566, [uint(1),2,3,4,5]) */\n  dup2\n  mstore\n  0x20\n  add\n    /* \"contracts/13sep.sol\":1037:1038  4 */\n  0x04\n    /* \"contracts/13sep.sol\":1002:1042  stud(\"Vedant\", 22566, [uint(1),2,3,4,5]) */\n  dup2\n  mstore\n  0x20\n  add\n    /* \"contracts/13sep.sol\":1039:1040  5 */\n  0x05\n    /* \"contracts/13sep.sol\":1002:1042  stud(\"Vedant\", 22566, [uint(1),2,3,4,5]) */\n  dup2\n  mstore\n  pop\n  dup2\n  mstore\n  pop\n    /* \"contracts/13sep.sol\":992:1042  stud s2 = stud(\"Vedant\", 22566, [uint(1),2,3,4,5]) */\n  0x07\n  0x00\n  dup3\n  add\n  mload\n  dup2\n  0x00\n  add\n  swap1\n  dup2\n  tag_1\n  swap2\n  swap1\n  tag_2\n  jump\t// in\ntag_1:\n  pop\n  0x20\n  dup3\n  add\n  mload\n  dup2\n  0x01\n  add\n  sstore\n  0x40\n  dup3\n  add\n  mload\n  dup2\n  0x02\n  add\n  swap1\n  0x05\n  tag_3\n  swap3\n  swap2\n  swap1\n  tag_4\n  jump\t// in\ntag_3:\n  pop\n  pop\n  pop\n    /* \"contracts/13sep.sol\":871:1652  contract Student{... */\n  callvalue\n  dup1\n  iszero\n  tag_5\n  jumpi\n  0x00\n  dup1\n  revert\ntag_5:\n  pop\n  jump(tag_6)\ntag_4:\n  dup3\n  0x05\n  dup2\n  add\n  swap3\n  dup3\n  iszero\n  tag_7\n  jumpi\n  swap2\n  0x20\n  mul\n  dup3\n  add\ntag_8:\n  dup3\n  dup2\n  gt\n  iszero\n  tag_9\n  jumpi\n  dup3\n  mload\n  dup3\n  sstore\n  swap2\n  0x20\n  add\n  swap2\n  swap1\n  0x01\n  add\n  swap1\n  jump(tag_8)\ntag_9:\ntag_7:\n  pop\n  swap1\n  pop\n  tag_10\n  swap2\n  swap1\n  tag_11\n  jump\t// in\ntag_10:\n  pop\n  swap1\n  jump\t// out\ntag_11:\ntag_12:\n  dup1\n  dup3\n  gt\n  iszero\n  tag_13\n  jumpi\n  0x00\n  dup2\n  0x00\n  swap1\n  sstore\n  pop\n  0x01\n  add\n  jump(tag_12)\ntag_13:\n  pop\n  swap1\n  jump\t// out\n    /* \"#utility.yul\":7:106   */\ntag_14:\n    /* \"#utility.yul\":59:65   */\n  0x00\n    /* \"#utility.yul\":93:98   */\n  dup2\n    /* \"#utility.yul\":87:99   */\n  mload\n    /* \"#utility.yul\":77:99   */\n  swap1\n  pop\n    /* \"#utility.yul\":7:106   */\n  swap2\n  swap1\n  pop\n  jump\t// out\n    /* \"#utility.yul\":112:292   */\ntag_15:\n    /* \"#utility.yul\":160:237   */\n  0x4e487b7100000000000000000000000000000000000000000000000000000000\n    /* \"#utility.yul\":157:158   */\n  0x00\n    /* \"#utility.yul\":150:238   */\n  mstore\n    /* \"#utility.yul\":257:261   */\n  0x41\n    /* \"#utility.yul\":254:255   */\n  0x04\n    /* \"#utility.yul\":247:262   */\n  mstore\n    /* \"#utility.yul\":281:285   */\n  0x24\n    /* \"#utility.yul\":278:279   */\n  0x00\n    /* \"#utility.yul\":271:286   */\n  revert\n    /* \"#utility.yul\":298:478   */\ntag_16:\n    /* \"#utility.yul\":346:423   */\n  0x4e487b7100000000000000000000000000000000000000000000000000000000\n    /* \"#utility.yul\":343:344   */\n  0x00\n    /* \"#utility.yul\":336:424   */\n  mstore\n    /* \"#utility.yul\":443:447   */\n  0x22\n    /* \"#utility.yul\":440:441   */\n  0x04\n    /* \"#utility.yul\":433:448   */\n  mstore\n    /* \"#utility.yul\":467:471   */\n  0x24\n    /* \"#utility.yul\":464:465   */\n  0x00\n    /* \"#utility.yul\":457:472   */\n  revert\n    /* \"#utility.yul\":484:804   */\ntag_17:\n    /* \"#utility.yul\":528:534   */\n  0x00\n    /* \"#utility.yul\":565:566   */\n  0x02\n    /* \"#utility.yul\":559:563   */\n  dup3\n    /* \"#utility.yul\":555:567   */\n  div\n    /* \"#utility.yul\":545:567   */\n  swap1\n  pop\n    /* \"#utility.yul\":612:613   */\n  0x01\n    /* \"#utility.yul\":606:610   */\n  dup3\n    /* \"#utility.yul\":602:614   */\n  and\n    /* \"#utility.yul\":633:651   */\n  dup1\n    /* \"#utility.yul\":623:704   */\n  tag_39\n  jumpi\n    /* \"#utility.yul\":689:693   */\n  0x7f\n    /* \"#utility.yul\":681:687   */\n  dup3\n    /* \"#utility.yul\":677:694   */\n  and\n    /* \"#utility.yul\":667:694   */\n  swap2\n  pop\n    /* \"#utility.yul\":623:704   */\ntag_39:\n    /* \"#utility.yul\":751:753   */\n  0x20\n    /* \"#utility.yul\":743:749   */\n  dup3\n    /* \"#utility.yul\":740:754   */\n  lt\n    /* \"#utility.yul\":720:738   */\n  dup2\n    /* \"#utility.yul\":717:755   */\n  sub\n    /* \"#utility.yul\":714:798   */\n  tag_40\n  jumpi\n    /* \"#utility.yul\":770:788   */\n  tag_41\n  tag_16\n  jump\t// in\ntag_41:\n    /* \"#utility.yul\":714:798   */\ntag_40:\n    /* \"#utility.yul\":535:804   */\n  pop\n    /* \"#utility.yul\":484:804   */\n  swap2\n  swap1\n  pop\n  jump\t// out\n    /* \"#utility.yul\":810:951   */\ntag_18:\n    /* \"#utility.yul\":859:863   */\n  0x00\n    /* \"#utility.yul\":882:885   */\n  dup2\n    /* \"#utility.yul\":874:885   */\n  swap1\n  pop\n    /* \"#utility.yul\":905:908   */\n  dup2\n    /* \"#utility.yul\":902:903   */\n  0x00\n    /* \"#utility.yul\":895:909   */\n  mstore\n    /* \"#utility.yul\":939:943   */\n  0x20\n    /* \"#utility.yul\":936:937   */\n  0x00\n    /* \"#utility.yul\":926:944   */\n  keccak256\n    /* \"#utility.yul\":918:944   */\n  swap1\n  pop\n    /* \"#utility.yul\":810:951   */\n  swap2\n  swap1\n  pop\n  jump\t// out\n    /* \"#utility.yul\":957:1050   */\ntag_19:\n    /* \"#utility.yul\":994:1000   */\n  0x00\n    /* \"#utility.yul\":1041:1043   */\n  0x20\n    /* \"#utility.yul\":1036:1038   */\n  0x1f\n    /* \"#utility.yul\":1029:1034   */\n  dup4\n    /* \"#utility.yul\":1025:1039   */\n  add\n    /* \"#utility.yul\":1021:1044   */\n  div\n    /* \"#utility.yul\":1011:1044   */\n  swap1\n  pop\n    /* \"#utility.yul\":957:1050   */\n  swap2\n  swap1\n  pop\n  jump\t// out\n    /* \"#utility.yul\":1056:1163   */\ntag_20:\n    /* \"#utility.yul\":1100:1108   */\n  0x00\n    /* \"#utility.yul\":1150:1155   */\n  dup3\n    /* \"#utility.yul\":1144:1148   */\n  dup3\n    /* \"#utility.yul\":1140:1156   */\n  shl\n    /* \"#utility.yul\":1119:1156   */\n  swap1\n  pop\n    /* \"#utility.yul\":1056:1163   */\n  swap3\n  swap2\n  pop\n  pop\n  jump\t// out\n    /* \"#utility.yul\":1169:1562   */\ntag_21:\n    /* \"#utility.yul\":1238:1244   */\n  0x00\n    /* \"#utility.yul\":1288:1289   */\n  0x08\n    /* \"#utility.yul\":1276:1286   */\n  dup4\n    /* \"#utility.yul\":1272:1290   */\n  mul\n    /* \"#utility.yul\":1311:1408   */\n  tag_46\n    /* \"#utility.yul\":1341:1407   */\n  0xffffffffffffffffffffffffffffffffffffffffffffffffffffffffffffffff\n    /* \"#utility.yul\":1330:1339   */\n  dup3\n    /* \"#utility.yul\":1311:1408   */\n  tag_20\n  jump\t// in\ntag_46:\n    /* \"#utility.yul\":1429:1468   */\n  tag_47\n    /* \"#utility.yul\":1459:1467   */\n  dup7\n    /* \"#utility.yul\":1448:1457   */\n  dup4\n    /* \"#utility.yul\":1429:1468   */\n  tag_20\n  jump\t// in\ntag_47:\n    /* \"#utility.yul\":1417:1468   */\n  swap6\n  pop\n    /* \"#utility.yul\":1501:1505   */\n  dup1\n    /* \"#utility.yul\":1497:1506   */\n  not\n    /* \"#utility.yul\":1490:1495   */\n  dup5\n    /* \"#utility.yul\":1486:1507   */\n  and\n    /* \"#utility.yul\":1477:1507   */\n  swap4\n  pop\n    /* \"#utility.yul\":1550:1554   */\n  dup1\n    /* \"#utility.yul\":1540:1548   */\n  dup7\n    /* \"#utility.yul\":1536:1555   */\n  and\n    /* \"#utility.yul\":1529:1534   */\n  dup5\n    /* \"#utility.yul\":1526:1556   */\n  or\n    /* \"#utility.yul\":1516:1556   */\n  swap3\n  pop\n    /* \"#utility.yul\":1245:1562   */\n  pop\n  pop\n    /* \"#utility.yul\":1169:1562   */\n  swap4\n  swap3\n  pop\n  pop\n  pop\n  jump\t// out\n    /* \"#utility.yul\":1568:1645   */\ntag_22:\n    /* \"#utility.yul\":1605:1612   */\n  0x00\n    /* \"#utility.yul\":1634:1639   */\n  dup2\n    /* \"#utility.yul\":1623:1639   */\n  swap1\n  pop\n    /* \"#utility.yul\":1568:1645   */\n  swap2\n  swap1\n  pop\n  jump\t// out\n    /* \"#utility.yul\":1651:1711   */\ntag_23:\n    /* \"#utility.yul\":1679:1682   */\n  0x00\n    /* \"#utility.yul\":1700:1705   */\n  dup2\n    /* \"#utility.yul\":1693:1705   */\n  swap1\n  pop\n    /* \"#utility.yul\":1651:1711   */\n  swap2\n  swap1\n  pop\n  jump\t// out\n    /* \"#utility.yul\":1717:1859   */\ntag_24:\n    /* \"#utility.yul\":1767:1776   */\n  0x00\n    /* \"#utility.yul\":1800:1853   */\n  tag_51\n    /* \"#utility.yul\":1818:1852   */\n  tag_52\n    /* \"#utility.yul\":1827:1851   */\n  tag_53\n    /* \"#utility.yul\":1845:1850   */\n  dup5\n    /* \"#utility.yul\":1827:1851   */\n  tag_22\n  jump\t// in\ntag_53:\n    /* \"#utility.yul\":1818:1852   */\n  tag_23\n  jump\t// in\ntag_52:\n    /* \"#utility.yul\":1800:1853   */\n  tag_22\n  jump\t// in\ntag_51:\n    /* \"#utility.yul\":1787:1853   */\n  swap1\n  pop\n    /* \"#utility.yul\":1717:1859   */\n  swap2\n  swap1\n  pop\n  jump\t// out\n    /* \"#utility.yul\":1865:1940   */\ntag_25:\n    /* \"#utility.yul\":1908:1911   */\n  0x00\n    /* \"#utility.yul\":1929:1934   */\n  dup2\n    /* \"#utility.yul\":1922:1934   */\n  swap1\n  pop\n    /* \"#utility.yul\":1865:1940   */\n  swap2\n  swap1\n  pop\n  jump\t// out\n    /* \"#utility.yul\":1946:2215   */\ntag_26:\n    /* \"#utility.yul\":2056:2095   */\n  tag_56\n    /* \"#utility.yul\":2087:2094   */\n  dup4\n    /* \"#utility.yul\":2056:2095   */\n  tag_24\n  jump\t// in\ntag_56:\n    /* \"#utility.yul\":2117:2208   */\n  tag_57\n    /* \"#utility.yul\":2166:2207   */\n  tag_58\n    /* \"#utility.yul\":2190:2206   */\n  dup3\n    /* \"#utility.yul\":2166:2207   */\n  tag_25\n  jump\t// in\ntag_58:\n    /* \"#utility.yul\":2158:2164   */\n  dup5\n    /* \"#utility.yul\":2151:2155   */\n  dup5\n    /* \"#utility.yul\":2145:2156   */\n  sload\n    /* \"#utility.yul\":2117:2208   */\n  tag_21\n  jump\t// in\ntag_57:\n    /* \"#utility.yul\":2111:2115   */\n  dup3\n    /* \"#utility.yul\":2104:2209   */\n  sstore\n    /* \"#utility.yul\":2022:2215   */\n  pop\n    /* \"#utility.yul\":1946:2215   */\n  pop\n  pop\n  pop\n  jump\t// out\n    /* \"#utility.yul\":2221:2294   */\ntag_27:\n    /* \"#utility.yul\":2266:2269   */\n  0x00\n    /* \"#utility.yul\":2221:2294   */\n  swap1\n  jump\t// out\n    /* \"#utility.yul\":2300:2489   */\ntag_28:\n    /* \"#utility.yul\":2377:2409   */\n  tag_61\n  tag_27\n  jump\t// in\ntag_61:\n    /* \"#utility.yul\":2418:2483   */\n  tag_62\n    /* \"#utility.yul\":2476:2482   */\n  dup2\n    /* \"#utility.yul\":2468:2474   */\n  dup5\n    /* \"#utility.yul\":2462:2466   */\n  dup5\n    /* \"#utility.yul\":2418:2483   */\n  tag_26\n  jump\t// in\ntag_62:\n    /* \"#utility.yul\":2353:2489   */\n  pop\n    /* \"#utility.yul\":2300:2489   */\n  pop\n  pop\n  jump\t// out\n    /* \"#utility.yul\":2495:2681   */\ntag_29:\n    /* \"#utility.yul\":2555:2675   */\ntag_64:\n    /* \"#utility.yul\":2572:2575   */\n  dup2\n    /* \"#utility.yul\":2565:2570   */\n  dup2\n    /* \"#utility.yul\":2562:2576   */\n  lt\n    /* \"#utility.yul\":2555:2675   */\n  iszero\n  tag_66\n  jumpi\n    /* \"#utility.yul\":2626:2665   */\n  tag_67\n    /* \"#utility.yul\":2663:2664   */\n  0x00\n    /* \"#utility.yul\":2656:2661   */\n  dup3\n    /* \"#utility.yul\":2626:2665   */\n  tag_28\n  jump\t// in\ntag_67:\n    /* \"#utility.yul\":2599:2600   */\n  0x01\n    /* \"#utility.yul\":2592:2597   */\n  dup2\n    /* \"#utility.yul\":2588:2601   */\n  add\n    /* \"#utility.yul\":2579:2601   */\n  swap1\n  pop\n    /* \"#utility.yul\":2555:2675   */\n  jump(tag_64)\ntag_66:\n    /* \"#utility.yul\":2495:2681   */\n  pop\n  pop\n  jump\t// out\n    /* \"#utility.yul\":2687:3230   */\ntag_30:\n    /* \"#utility.yul\":2788:2790   */\n  0x1f\n    /* \"#utility.yul\":2783:2786   */\n  dup3\n    /* \"#utility.yul\":2780:2791   */\n  gt\n    /* \"#utility.yul\":2777:3223   */\n  iszero\n  tag_69\n  jumpi\n    /* \"#utility.yul\":2822:2860   */\n  tag_70\n    /* \"#utility.yul\":2854:2859   */\n  dup2\n    /* \"#utility.yul\":2822:2860   */\n  tag_18\n  jump\t// in\ntag_70:\n    /* \"#utility.yul\":2906:2935   */\n  tag_71\n    /* \"#utility.yul\":2924:2934   */\n  dup5\n    /* \"#utility.yul\":2906:2935   */\n  tag_19\n  jump\t// in\ntag_71:\n    /* \"#utility.yul\":2896:2904   */\n  dup2\n    /* \"#utility.yul\":2892:2936   */\n  add\n    /* \"#utility.yul\":3089:3091   */\n  0x20\n    /* \"#utility.yul\":3077:3087   */\n  dup6\n    /* \"#utility.yul\":3074:3092   */\n  lt\n    /* \"#utility.yul\":3071:3120   */\n  iszero\n  tag_72\n  jumpi\n    /* \"#utility.yul\":3110:3118   */\n  dup2\n    /* \"#utility.yul\":3095:3118   */\n  swap1\n  pop\n    /* \"#utility.yul\":3071:3120   */\ntag_72:\n    /* \"#utility.yul\":3133:3213   */\n  tag_73\n    /* \"#utility.yul\":3189:3211   */\n  tag_74\n    /* \"#utility.yul\":3207:3210   */\n  dup6\n    /* \"#utility.yul\":3189:3211   */\n  tag_19\n  jump\t// in\ntag_74:\n    /* \"#utility.yul\":3179:3187   */\n  dup4\n    /* \"#utility.yul\":3175:3212   */\n  add\n    /* \"#utility.yul\":3162:3173   */\n  dup3\n    /* \"#utility.yul\":3133:3213   */\n  tag_29\n  jump\t// in\ntag_73:\n    /* \"#utility.yul\":2792:3223   */\n  pop\n  pop\n    /* \"#utility.yul\":2777:3223   */\ntag_69:\n    /* \"#utility.yul\":2687:3230   */\n  pop\n  pop\n  pop\n  jump\t// out\n    /* \"#utility.yul\":3236:3353   */\ntag_31:\n    /* \"#utility.yul\":3290:3298   */\n  0x00\n    /* \"#utility.yul\":3340:3345   */\n  dup3\n    /* \"#utility.yul\":3334:3338   */\n  dup3\n    /* \"#utility.yul\":3330:3346   */\n  shr\n    /* \"#utility.yul\":3309:3346   */\n  swap1\n  pop\n    /* \"#utility.yul\":3236:3353   */\n  swap3\n  swap2\n  pop\n  pop\n  jump\t// out\n    /* \"#utility.yul\":3359:3528   */\ntag_32:\n    /* \"#utility.yul\":3403:3409   */\n  0x00\n    /* \"#utility.yul\":3436:3487   */\n  tag_77\n    /* \"#utility.yul\":3484:3485   */\n  0x00\n    /* \"#utility.yul\":3480:3486   */\n  not\n    /* \"#utility.yul\":3472:3477   */\n  dup5\n    /* \"#utility.yul\":3469:3470   */\n  0x08\n    /* \"#utility.yul\":3465:3478   */\n  mul\n    /* \"#utility.yul\":3436:3487   */\n  tag_31\n  jump\t// in\ntag_77:\n    /* \"#utility.yul\":3432:3488   */\n  not\n    /* \"#utility.yul\":3517:3521   */\n  dup1\n    /* \"#utility.yul\":3511:3515   */\n  dup4\n    /* \"#utility.yul\":3507:3522   */\n  and\n    /* \"#utility.yul\":3497:3522   */\n  swap2\n  pop\n    /* \"#utility.yul\":3410:3528   */\n  pop\n    /* \"#utility.yul\":3359:3528   */\n  swap3\n  swap2\n  pop\n  pop\n  jump\t// out\n    /* \"#utility.yul\":3533:3828   */\ntag_33:\n    /* \"#utility.yul\":3609:3613   */\n  0x00\n    /* \"#utility.yul\":3755:3784   */\n  tag_79\n    /* \"#utility.yul\":3780:3783   */\n  dup4\n    /* \"#utility.yul\":3774:3778   */\n  dup4\n    /* \"#utility.yul\":3755:3784   */\n  tag_32\n  jump\t// in\ntag_79:\n    /* \"#utility.yul\":3747:3784   */\n  swap2\n  pop\n    /* \"#utility.yul\":3817:3820   */\n  dup3\n    /* \"#utility.yul\":3814:3815   */\n  0x02\n    /* \"#utility.yul\":3810:3821   */\n  mul\n    /* \"#utility.yul\":3804:3808   */\n  dup3\n    /* \"#utility.yul\":3801:3822   */\n  or\n    /* \"#utility.yul\":3793:3822   */\n  swap1\n  pop\n    /* \"#utility.yul\":3533:3828   */\n  swap3\n  swap2\n  pop\n  pop\n  jump\t// out\n    /* \"#utility.yul\":3833:5228   */\ntag_2:\n    /* \"#utility.yul\":3950:3987   */\n  tag_81\n    /* \"#utility.yul\":3983:3986   */\n  dup3\n    /* \"#utility.yul\":3950:3987   */\n  tag_14\n  jump\t// in\ntag_81:\n    /* \"#utility.yul\":4052:4070   */\n  0xffffffffffffffff\n    /* \"#utility.yul\":4044:4050   */\n  dup2\n    /* \"#utility.yul\":4041:4071   */\n  gt\n    /* \"#utility.yul\":4038:4094   */\n  iszero\n  tag_82\n  jumpi\n    /* \"#utility.yul\":4074:4092   */\n  tag_83\n  tag_15\n  jump\t// in\ntag_83:\n    /* \"#utility.yul\":4038:4094   */\ntag_82:\n    /* \"#utility.yul\":4118:4156   */\n  tag_84\n    /* \"#utility.yul\":4150:4154   */\n  dup3\n    /* \"#utility.yul\":4144:4155   */\n  sload\n    /* \"#utility.yul\":4118:4156   */\n  tag_17\n  jump\t// in\ntag_84:\n    /* \"#utility.yul\":4203:4270   */\n  tag_85\n    /* \"#utility.yul\":4263:4269   */\n  dup3\n    /* \"#utility.yul\":4255:4261   */\n  dup3\n    /* \"#utility.yul\":4249:4253   */\n  dup6\n    /* \"#utility.yul\":4203:4270   */\n  tag_30\n  jump\t// in\ntag_85:\n    /* \"#utility.yul\":4297:4298   */\n  0x00\n    /* \"#utility.yul\":4321:4325   */\n  0x20\n    /* \"#utility.yul\":4308:4325   */\n  swap1\n  pop\n    /* \"#utility.yul\":4353:4355   */\n  0x1f\n    /* \"#utility.yul\":4345:4351   */\n  dup4\n    /* \"#utility.yul\":4342:4356   */\n  gt\n    /* \"#utility.yul\":4370:4371   */\n  0x01\n    /* \"#utility.yul\":4365:4983   */\n  dup2\n  eq\n  tag_87\n  jumpi\n    /* \"#utility.yul\":5027:5028   */\n  0x00\n    /* \"#utility.yul\":5044:5050   */\n  dup5\n    /* \"#utility.yul\":5041:5118   */\n  iszero\n  tag_88\n  jumpi\n    /* \"#utility.yul\":5093:5102   */\n  dup3\n    /* \"#utility.yul\":5088:5091   */\n  dup8\n    /* \"#utility.yul\":5084:5103   */\n  add\n    /* \"#utility.yul\":5078:5104   */\n  mload\n    /* \"#utility.yul\":5069:5104   */\n  swap1\n  pop\n    /* \"#utility.yul\":5041:5118   */\ntag_88:\n    /* \"#utility.yul\":5144:5211   */\n  tag_89\n    /* \"#utility.yul\":5204:5210   */\n  dup6\n    /* \"#utility.yul\":5197:5202   */\n  dup3\n    /* \"#utility.yul\":5144:5211   */\n  tag_33\n  jump\t// in\ntag_89:\n    /* \"#utility.yul\":5138:5142   */\n  dup7\n    /* \"#utility.yul\":5131:5212   */\n  sstore\n    /* \"#utility.yul\":5000:5222   */\n  pop\n    /* \"#utility.yul\":4335:5222   */\n  jump(tag_86)\n    /* \"#utility.yul\":4365:4983   */\ntag_87:\n    /* \"#utility.yul\":4417:4421   */\n  0x1f\n    /* \"#utility.yul\":4413:4422   */\n  not\n    /* \"#utility.yul\":4405:4411   */\n  dup5\n    /* \"#utility.yul\":4401:4423   */\n  and\n    /* \"#utility.yul\":4451:4488   */\n  tag_90\n    /* \"#utility.yul\":4483:4487   */\n  dup7\n    /* \"#utility.yul\":4451:4488   */\n  tag_18\n  jump\t// in\ntag_90:\n    /* \"#utility.yul\":4510:4511   */\n  0x00\n    /* \"#utility.yul\":4524:4732   */\ntag_91:\n    /* \"#utility.yul\":4538:4545   */\n  dup3\n    /* \"#utility.yul\":4535:4536   */\n  dup2\n    /* \"#utility.yul\":4532:4546   */\n  lt\n    /* \"#utility.yul\":4524:4732   */\n  iszero\n  tag_93\n  jumpi\n    /* \"#utility.yul\":4617:4626   */\n  dup5\n    /* \"#utility.yul\":4612:4615   */\n  dup10\n    /* \"#utility.yul\":4608:4627   */\n  add\n    /* \"#utility.yul\":4602:4628   */\n  mload\n    /* \"#utility.yul\":4594:4600   */\n  dup3\n    /* \"#utility.yul\":4587:4629   */\n  sstore\n    /* \"#utility.yul\":4668:4669   */\n  0x01\n    /* \"#utility.yul\":4660:4666   */\n  dup3\n    /* \"#utility.yul\":4656:4670   */\n  add\n    /* \"#utility.yul\":4646:4670   */\n  swap2\n  pop\n    /* \"#utility.yul\":4715:4717   */\n  0x20\n    /* \"#utility.yul\":4704:4713   */\n  dup6\n    /* \"#utility.yul\":4700:4718   */\n  add\n    /* \"#utility.yul\":4687:4718   */\n  swap5\n  pop\n    /* \"#utility.yul\":4561:4565   */\n  0x20\n    /* \"#utility.yul\":4558:4559   */\n  dup2\n    /* \"#utility.yul\":4554:4566   */\n  add\n    /* \"#utility.yul\":4549:4566   */\n  swap1\n  pop\n    /* \"#utility.yul\":4524:4732   */\n  jump(tag_91)\ntag_93:\n    /* \"#utility.yul\":4760:4766   */\n  dup7\n    /* \"#utility.yul\":4751:4758   */\n  dup4\n    /* \"#utility.yul\":4748:4767   */\n  lt\n    /* \"#utility.yul\":4745:4924   */\n  iszero\n  tag_94\n  jumpi\n    /* \"#utility.yul\":4818:4827   */\n  dup5\n    /* \"#utility.yul\":4813:4816   */\n  dup10\n    /* \"#utility.yul\":4809:4828   */\n  add\n    /* \"#utility.yul\":4803:4829   */\n  mload\n    /* \"#utility.yul\":4861:4909   */\n  tag_95\n    /* \"#utility.yul\":4903:4907   */\n  0x1f\n    /* \"#utility.yul\":4895:4901   */\n  dup10\n    /* \"#utility.yul\":4891:4908   */\n  and\n    /* \"#utility.yul\":4880:4889   */\n  dup3\n    /* \"#utility.yul\":4861:4909   */\n  tag_32\n  jump\t// in\ntag_95:\n    /* \"#utility.yul\":4853:4859   */\n  dup4\n    /* \"#utility.yul\":4846:4910   */\n  sstore\n    /* \"#utility.yul\":4768:4924   */\n  pop\n    /* \"#utility.yul\":4745:4924   */\ntag_94:\n    /* \"#utility.yul\":4970:4971   */\n  0x01\n    /* \"#utility.yul\":4966:4967   */\n  0x02\n    /* \"#utility.yul\":4958:4964   */\n  dup9\n    /* \"#utility.yul\":4954:4968   */\n  mul\n    /* \"#utility.yul\":4950:4972   */\n  add\n    /* \"#utility.yul\":4944:4948   */\n  dup9\n    /* \"#utility.yul\":4937:4973   */\n  sstore\n    /* \"#utility.yul\":4372:4983   */\n  pop\n  pop\n  pop\n    /* \"#utility.yul\":4335:5222   */\ntag_86:\n  pop\n    /* \"#utility.yul\":3925:5228   */\n  pop\n  pop\n  pop\n    /* \"#utility.yul\":3833:5228   */\n  pop\n  pop\n  jump\t// out\n    /* \"contracts/13sep.sol\":871:1652  contract Student{... */\ntag_6:\n  dataSize(sub_0)\n  dup1\n  dataOffset(sub_0)\n  0x00\n  codecopy\n  0x00\n  return\nstop\n\nsub_0: assembly {\n        /* \"contracts/13sep.sol\":871:1652  contract Student{... */\n      mstore(0x40, 0x80)\n      callvalue\n      dup1\n      iszero\n      tag_1\n      jumpi\n      0x00\n      dup1\n      revert\n    tag_1:\n      pop\n      jumpi(tag_2, lt(calldatasize, 0x04))\n      shr(0xe0, calldataload(0x00))\n      dup1\n      0x22efe3b6\n      eq\n      tag_3\n      jumpi\n      dup1\n      0x2fe0d022\n      eq\n      tag_4\n      jumpi\n      dup1\n      0x3b7d3ca6\n      eq\n      tag_5\n      jumpi\n      dup1\n      0xc306742a\n      eq\n      tag_6\n      jumpi\n    tag_2:\n      0x00\n      dup1\n      revert\n        /* \"contracts/13sep.sol\":1349:1480  function getStudent2() public  view returns (string memory, uint, uint[5] memory){... */\n    tag_3:\n      tag_7\n      tag_8\n      jump\t// in\n    tag_7:\n      mload(0x40)\n      tag_9\n      swap4\n      swap3\n      swap2\n      swap1\n      tag_10\n      jump\t// in\n    tag_9:\n      mload(0x40)\n      dup1\n      swap2\n      sub\n      swap1\n      return\n        /* \"contracts/13sep.sol\":1050:1181  function getStudent1() public  view returns (string memory, uint, uint[5] memory){... */\n    tag_4:\n      tag_11\n      tag_12\n      jump\t// in\n    tag_11:\n      mload(0x40)\n      tag_13\n      swap4\n      swap3\n      swap2\n      swap1\n      tag_10\n      jump\t// in\n    tag_13:\n      mload(0x40)\n      dup1\n      swap2\n      sub\n      swap1\n      return\n        /* \"contracts/13sep.sol\":1486:1642  function setStudent2(string memory sname, uint sid, uint[5] memory mks) public {... */\n    tag_5:\n      tag_14\n      0x04\n      dup1\n      calldatasize\n      sub\n      dup2\n      add\n      swap1\n      tag_15\n      swap2\n      swap1\n      tag_16\n      jump\t// in\n    tag_15:\n      tag_17\n      jump\t// in\n    tag_14:\n      stop\n        /* \"contracts/13sep.sol\":1187:1343  function setStudent1(string memory sname, uint sid, uint[5] memory mks) public {... */\n    tag_6:\n      tag_18\n      0x04\n      dup1\n      calldatasize\n      sub\n      dup2\n      add\n      swap1\n      tag_19\n      swap2\n      swap1\n      tag_16\n      jump\t// in\n    tag_19:\n      tag_20\n      jump\t// in\n    tag_18:\n      stop\n        /* \"contracts/13sep.sol\":1349:1480  function getStudent2() public  view returns (string memory, uint, uint[5] memory){... */\n    tag_8:\n        /* \"contracts/13sep.sol\":1394:1407  string memory */\n      0x60\n        /* \"contracts/13sep.sol\":1409:1413  uint */\n      0x00\n        /* \"contracts/13sep.sol\":1415:1429  uint[5] memory */\n      tag_21\n      tag_22\n      jump\t// in\n    tag_21:\n        /* \"contracts/13sep.sol\":1448:1450  s2 */\n      0x07\n        /* \"contracts/13sep.sol\":1448:1455  s2.name */\n      0x00\n      add\n        /* \"contracts/13sep.sol\":1457:1459  s2 */\n      0x07\n        /* \"contracts/13sep.sol\":1457:1462  s2.id */\n      0x01\n      add\n      sload\n        /* \"contracts/13sep.sol\":1464:1466  s2 */\n      0x07\n        /* \"contracts/13sep.sol\":1464:1472  s2.marks */\n      0x02\n      add\n        /* \"contracts/13sep.sol\":1440:1473  return (s2.name, s2.id, s2.marks) */\n      dup3\n      dup1\n      sload\n      tag_24\n      swap1\n      tag_25\n      jump\t// in\n    tag_24:\n      dup1\n      0x1f\n      add\n      0x20\n      dup1\n      swap2\n      div\n      mul\n      0x20\n      add\n      mload(0x40)\n      swap1\n      dup2\n      add\n      0x40\n      mstore\n      dup1\n      swap3\n      swap2\n      swap1\n      dup2\n      dup2\n      mstore\n      0x20\n      add\n      dup3\n      dup1\n      sload\n      tag_26\n      swap1\n      tag_25\n      jump\t// in\n    tag_26:\n      dup1\n      iszero\n      tag_27\n      jumpi\n      dup1\n      0x1f\n      lt\n      tag_28\n      jumpi\n      0x0100\n      dup1\n      dup4\n      sload\n      div\n      mul\n      dup4\n      mstore\n      swap2\n      0x20\n      add\n      swap2\n      jump(tag_27)\n    tag_28:\n      dup3\n      add\n      swap2\n      swap1\n      0x00\n      mstore\n      keccak256(0x00, 0x20)\n      swap1\n    tag_29:\n      dup2\n      sload\n      dup2\n      mstore\n      swap1\n      0x01\n      add\n      swap1\n      0x20\n      add\n      dup1\n      dup4\n      gt\n      tag_29\n      jumpi\n      dup3\n      swap1\n      sub\n      0x1f\n      and\n      dup3\n      add\n      swap2\n    tag_27:\n      pop\n      pop\n      pop\n      pop\n      pop\n      swap3\n      pop\n      dup1\n      0x05\n      dup1\n      0x20\n      mul\n      mload(0x40)\n      swap1\n      dup2\n      add\n      0x40\n      mstore\n      dup1\n      swap3\n      swap2\n      swap1\n      dup3\n      0x05\n      dup1\n      iszero\n      tag_30\n      jumpi\n      0x20\n      mul\n      dup3\n      add\n      swap2\n    tag_31:\n      dup2\n      sload\n      dup2\n      mstore\n      0x20\n      add\n      swap1\n      0x01\n      add\n      swap1\n      dup1\n      dup4\n      gt\n      tag_31\n      jumpi\n    tag_30:\n      pop\n      pop\n      pop\n      pop\n      pop\n      swap1\n      pop\n      swap3\n      pop\n      swap3\n      pop\n      swap3\n      pop\n        /* \"contracts/13sep.sol\":1349:1480  function getStudent2() public  view returns (string memory, uint, uint[5] memory){... */\n      swap1\n      swap2\n      swap3\n      jump\t// out\n        /* \"contracts/13sep.sol\":1050:1181  function getStudent1() public  view returns (string memory, uint, uint[5] memory){... */\n    tag_12:\n        /* \"contracts/13sep.sol\":1095:1108  string memory */\n      0x60\n        /* \"contracts/13sep.sol\":1110:1114  uint */\n      0x00\n        /* \"contracts/13sep.sol\":1116:1130  uint[5] memory */\n      tag_32\n      tag_22\n      jump\t// in\n    tag_32:\n        /* \"contracts/13sep.sol\":1149:1151  s1 */\n      0x00\n        /* \"contracts/13sep.sol\":1149:1156  s1.name */\n      dup1\n      add\n        /* \"contracts/13sep.sol\":1158:1160  s1 */\n      0x00\n        /* \"contracts/13sep.sol\":1158:1163  s1.id */\n      0x01\n      add\n      sload\n        /* \"contracts/13sep.sol\":1165:1167  s1 */\n      0x00\n        /* \"contracts/13sep.sol\":1165:1173  s1.marks */\n      0x02\n      add\n        /* \"contracts/13sep.sol\":1141:1174  return (s1.name, s1.id, s1.marks) */\n      dup3\n      dup1\n      sload\n      tag_34\n      swap1\n      tag_25\n      jump\t// in\n    tag_34:\n      dup1\n      0x1f\n      add\n      0x20\n      dup1\n      swap2\n      div\n      mul\n      0x20\n      add\n      mload(0x40)\n      swap1\n      dup2\n      add\n      0x40\n      mstore\n      dup1\n      swap3\n      swap2\n      swap1\n      dup2\n      dup2\n      mstore\n      0x20\n      add\n      dup3\n      dup1\n      sload\n      tag_35\n      swap1\n      tag_25\n      jump\t// in\n    tag_35:\n      dup1\n      iszero\n      tag_36\n      jumpi\n      dup1\n      0x1f\n      lt\n      tag_37\n      jumpi\n      0x0100\n      dup1\n      dup4\n      sload\n      div\n      mul\n      dup4\n      mstore\n      swap2\n      0x20\n      add\n      swap2\n      jump(tag_36)\n    tag_37:\n      dup3\n      add\n      swap2\n      swap1\n      0x00\n      mstore\n      keccak256(0x00, 0x20)\n      swap1\n    tag_38:\n      dup2\n      sload\n      dup2\n      mstore\n      swap1\n      0x01\n      add\n      swap1\n      0x20\n      add\n      dup1\n      dup4\n      gt\n      tag_38\n      jumpi\n      dup3\n      swap1\n      sub\n      0x1f\n      and\n      dup3\n      add\n      swap2\n    tag_36:\n      pop\n      pop\n      pop\n      pop\n      pop\n      swap3\n      pop\n      dup1\n      0x05\n      dup1\n      0x20\n      mul\n      mload(0x40)\n      swap1\n      dup2\n      add\n      0x40\n      mstore\n      dup1\n      swap3\n      swap2\n      swap1\n      dup3\n      0x05\n      dup1\n      iszero\n      tag_39\n      jumpi\n      0x20\n      mul\n      dup3\n      add\n      swap2\n    tag_40:\n      dup2\n      sload\n      dup2\n      mstore\n      0x20\n      add\n      swap1\n      0x01\n      add\n      swap1\n      dup1\n      dup4\n      gt\n      tag_40\n      jumpi\n    tag_39:\n      pop\n      pop\n      pop\n      pop\n      pop\n      swap1\n      pop\n      swap3\n      pop\n      swap3\n      pop\n      swap3\n      pop\n        /* \"contracts/13sep.sol\":1050:1181  function getStudent1() public  view returns (string memory, uint, uint[5] memory){... */\n      swap1\n      swap2\n      swap3\n      jump\t// out\n        /* \"contracts/13sep.sol\":1486:1642  function setStudent2(string memory sname, uint sid, uint[5] memory mks) public {... */\n    tag_17:\n        /* \"contracts/13sep.sol\":1585:1590  sname */\n      dup3\n        /* \"contracts/13sep.sol\":1575:1577  s2 */\n      0x07\n        /* \"contracts/13sep.sol\":1575:1582  s2.name */\n      0x00\n      add\n        /* \"contracts/13sep.sol\":1575:1590  s2.name = sname */\n      swap1\n      dup2\n      tag_42\n      swap2\n      swap1\n      tag_43\n      jump\t// in\n    tag_42:\n      pop\n        /* \"contracts/13sep.sol\":1608:1611  sid */\n      dup2\n        /* \"contracts/13sep.sol\":1600:1602  s2 */\n      0x07\n        /* \"contracts/13sep.sol\":1600:1605  s2.id */\n      0x01\n      add\n        /* \"contracts/13sep.sol\":1600:1611  s2.id = sid */\n      dup2\n      swap1\n      sstore\n      pop\n        /* \"contracts/13sep.sol\":1632:1635  mks */\n      dup1\n        /* \"contracts/13sep.sol\":1621:1623  s2 */\n      0x07\n        /* \"contracts/13sep.sol\":1621:1629  s2.marks */\n      0x02\n      add\n        /* \"contracts/13sep.sol\":1621:1635  s2.marks = mks */\n      swap1\n      0x05\n      tag_44\n      swap3\n      swap2\n      swap1\n      tag_45\n      jump\t// in\n    tag_44:\n      pop\n        /* \"contracts/13sep.sol\":1486:1642  function setStudent2(string memory sname, uint sid, uint[5] memory mks) public {... */\n      pop\n      pop\n      pop\n      jump\t// out\n        /* \"contracts/13sep.sol\":1187:1343  function setStudent1(string memory sname, uint sid, uint[5] memory mks) public {... */\n    tag_20:\n        /* \"contracts/13sep.sol\":1286:1291  sname */\n      dup3\n        /* \"contracts/13sep.sol\":1276:1278  s1 */\n      0x00\n        /* \"contracts/13sep.sol\":1276:1283  s1.name */\n      dup1\n      add\n        /* \"contracts/13sep.sol\":1276:1291  s1.name = sname */\n      swap1\n      dup2\n      tag_47\n      swap2\n      swap1\n      tag_43\n      jump\t// in\n    tag_47:\n      pop\n        /* \"contracts/13sep.sol\":1309:1312  sid */\n      dup2\n        /* \"contracts/13sep.sol\":1301:1303  s1 */\n      0x00\n        /* \"contracts/13sep.sol\":1301:1306  s1.id */\n      0x01\n      add\n        /* \"contracts/13sep.sol\":1301:1312  s1.id = sid */\n      dup2\n      swap1\n      sstore\n      pop\n        /* \"contracts/13sep.sol\":1333:1336  mks */\n      dup1\n        /* \"contracts/13sep.sol\":1322:1324  s1 */\n      0x00\n        /* \"contracts/13sep.sol\":1322:1330  s1.marks */\n      0x02\n      add\n        /* \"contracts/13sep.sol\":1322:1336  s1.marks = mks */\n      swap1\n      0x05\n      tag_48\n      swap3\n      swap2\n      swap1\n      tag_45\n      jump\t// in\n    tag_48:\n      pop\n        /* \"contracts/13sep.sol\":1187:1343  function setStudent1(string memory sname, uint sid, uint[5] memory mks) public {... */\n      pop\n      pop\n      pop\n      jump\t// out\n    tag_22:\n      mload(0x40)\n      dup1\n      0xa0\n      add\n      0x40\n      mstore\n      dup1\n      0x05\n      swap1\n      0x20\n      dup3\n      mul\n      dup1\n      calldatasize\n      dup4\n      calldatacopy\n      dup1\n      dup3\n      add\n      swap2\n      pop\n      pop\n      swap1\n      pop\n      pop\n      swap1\n      jump\t// out\n    tag_45:\n      dup3\n      0x05\n      dup2\n      add\n      swap3\n      dup3\n      iszero\n      tag_49\n      jumpi\n      swap2\n      0x20\n      mul\n      dup3\n      add\n    tag_50:\n      dup3\n      dup2\n      gt\n      iszero\n      tag_51\n      jumpi\n      dup3\n      mload\n      dup3\n      sstore\n      swap2\n      0x20\n      add\n      swap2\n      swap1\n      0x01\n      add\n      swap1\n      jump(tag_50)\n    tag_51:\n    tag_49:\n      pop\n      swap1\n      pop\n      tag_52\n      swap2\n      swap1\n      tag_53\n      jump\t// in\n    tag_52:\n      pop\n      swap1\n      jump\t// out\n    tag_53:\n    tag_54:\n      dup1\n      dup3\n      gt\n      iszero\n      tag_55\n      jumpi\n      0x00\n      dup2\n      0x00\n      swap1\n      sstore\n      pop\n      0x01\n      add\n      jump(tag_54)\n    tag_55:\n      pop\n      swap1\n      jump\t// out\n        /* \"#utility.yul\":7:106   */\n    tag_56:\n        /* \"#utility.yul\":59:65   */\n      0x00\n        /* \"#utility.yul\":93:98   */\n      dup2\n        /* \"#utility.yul\":87:99   */\n      mload\n        /* \"#utility.yul\":77:99   */\n      swap1\n      pop\n        /* \"#utility.yul\":7:106   */\n      swap2\n      swap1\n      pop\n      jump\t// out\n        /* \"#utility.yul\":112:281   */\n    tag_57:\n        /* \"#utility.yul\":196:207   */\n      0x00\n        /* \"#utility.yul\":230:236   */\n      dup3\n        /* \"#utility.yul\":225:228   */\n      dup3\n        /* \"#utility.yul\":218:237   */\n      mstore\n        /* \"#utility.yul\":270:274   */\n      0x20\n        /* \"#utility.yul\":265:268   */\n      dup3\n        /* \"#utility.yul\":261:275   */\n      add\n        /* \"#utility.yul\":246:275   */\n      swap1\n      pop\n        /* \"#utility.yul\":112:281   */\n      swap3\n      swap2\n      pop\n      pop\n      jump\t// out\n        /* \"#utility.yul\":287:426   */\n    tag_58:\n        /* \"#utility.yul\":376:382   */\n      dup3\n        /* \"#utility.yul\":371:374   */\n      dup2\n        /* \"#utility.yul\":366:369   */\n      dup4\n        /* \"#utility.yul\":360:383   */\n      mcopy\n        /* \"#utility.yul\":417:418   */\n      0x00\n        /* \"#utility.yul\":408:414   */\n      dup4\n        /* \"#utility.yul\":403:406   */\n      dup4\n        /* \"#utility.yul\":399:415   */\n      add\n        /* \"#utility.yul\":392:419   */\n      mstore\n        /* \"#utility.yul\":287:426   */\n      pop\n      pop\n      pop\n      jump\t// out\n        /* \"#utility.yul\":432:534   */\n    tag_59:\n        /* \"#utility.yul\":473:479   */\n      0x00\n        /* \"#utility.yul\":524:526   */\n      0x1f\n        /* \"#utility.yul\":520:527   */\n      not\n        /* \"#utility.yul\":515:517   */\n      0x1f\n        /* \"#utility.yul\":508:513   */\n      dup4\n        /* \"#utility.yul\":504:518   */\n      add\n        /* \"#utility.yul\":500:528   */\n      and\n        /* \"#utility.yul\":490:528   */\n      swap1\n      pop\n        /* \"#utility.yul\":432:534   */\n      swap2\n      swap1\n      pop\n      jump\t// out\n        /* \"#utility.yul\":540:917   */\n    tag_60:\n        /* \"#utility.yul\":628:631   */\n      0x00\n        /* \"#utility.yul\":656:695   */\n      tag_110\n        /* \"#utility.yul\":689:694   */\n      dup3\n        /* \"#utility.yul\":656:695   */\n      tag_56\n      jump\t// in\n    tag_110:\n        /* \"#utility.yul\":711:782   */\n      tag_111\n        /* \"#utility.yul\":775:781   */\n      dup2\n        /* \"#utility.yul\":770:773   */\n      dup6\n        /* \"#utility.yul\":711:782   */\n      tag_57\n      jump\t// in\n    tag_111:\n        /* \"#utility.yul\":704:782   */\n      swap4\n      pop\n        /* \"#utility.yul\":791:856   */\n      tag_112\n        /* \"#utility.yul\":849:855   */\n      dup2\n        /* \"#utility.yul\":844:847   */\n      dup6\n        /* \"#utility.yul\":837:841   */\n      0x20\n        /* \"#utility.yul\":830:835   */\n      dup7\n        /* \"#utility.yul\":826:842   */\n      add\n        /* \"#utility.yul\":791:856   */\n      tag_58\n      jump\t// in\n    tag_112:\n        /* \"#utility.yul\":881:910   */\n      tag_113\n        /* \"#utility.yul\":903:909   */\n      dup2\n        /* \"#utility.yul\":881:910   */\n      tag_59\n      jump\t// in\n    tag_113:\n        /* \"#utility.yul\":876:879   */\n      dup5\n        /* \"#utility.yul\":872:911   */\n      add\n        /* \"#utility.yul\":865:911   */\n      swap2\n      pop\n        /* \"#utility.yul\":632:917   */\n      pop\n        /* \"#utility.yul\":540:917   */\n      swap3\n      swap2\n      pop\n      pop\n      jump\t// out\n        /* \"#utility.yul\":923:1000   */\n    tag_61:\n        /* \"#utility.yul\":960:967   */\n      0x00\n        /* \"#utility.yul\":989:994   */\n      dup2\n        /* \"#utility.yul\":978:994   */\n      swap1\n      pop\n        /* \"#utility.yul\":923:1000   */\n      swap2\n      swap1\n      pop\n      jump\t// out\n        /* \"#utility.yul\":1006:1124   */\n    tag_62:\n        /* \"#utility.yul\":1093:1117   */\n      tag_116\n        /* \"#utility.yul\":1111:1116   */\n      dup2\n        /* \"#utility.yul\":1093:1117   */\n      tag_61\n      jump\t// in\n    tag_116:\n        /* \"#utility.yul\":1088:1091   */\n      dup3\n        /* \"#utility.yul\":1081:1118   */\n      mstore\n        /* \"#utility.yul\":1006:1124   */\n      pop\n      pop\n      jump\t// out\n        /* \"#utility.yul\":1130:1234   */\n    tag_63:\n        /* \"#utility.yul\":1195:1201   */\n      0x00\n        /* \"#utility.yul\":1223:1227   */\n      0x05\n        /* \"#utility.yul\":1213:1227   */\n      swap1\n      pop\n        /* \"#utility.yul\":1130:1234   */\n      swap2\n      swap1\n      pop\n      jump\t// out\n        /* \"#utility.yul\":1240:1383   */\n    tag_64:\n        /* \"#utility.yul\":1337:1348   */\n      0x00\n        /* \"#utility.yul\":1374:1377   */\n      dup2\n        /* \"#utility.yul\":1359:1377   */\n      swap1\n      pop\n        /* \"#utility.yul\":1240:1383   */\n      swap3\n      swap2\n      pop\n      pop\n      jump\t// out\n        /* \"#utility.yul\":1389:1487   */\n    tag_65:\n        /* \"#utility.yul\":1454:1458   */\n      0x00\n        /* \"#utility.yul\":1477:1480   */\n      dup2\n        /* \"#utility.yul\":1469:1480   */\n      swap1\n      pop\n        /* \"#utility.yul\":1389:1487   */\n      swap2\n      swap1\n      pop\n      jump\t// out\n        /* \"#utility.yul\":1493:1601   */\n    tag_66:\n        /* \"#utility.yul\":1570:1594   */\n      tag_121\n        /* \"#utility.yul\":1588:1593   */\n      dup2\n        /* \"#utility.yul\":1570:1594   */\n      tag_61\n      jump\t// in\n    tag_121:\n        /* \"#utility.yul\":1565:1568   */\n      dup3\n        /* \"#utility.yul\":1558:1595   */\n      mstore\n        /* \"#utility.yul\":1493:1601   */\n      pop\n      pop\n      jump\t// out\n        /* \"#utility.yul\":1607:1786   */\n    tag_67:\n        /* \"#utility.yul\":1676:1686   */\n      0x00\n        /* \"#utility.yul\":1697:1743   */\n      tag_123\n        /* \"#utility.yul\":1739:1742   */\n      dup4\n        /* \"#utility.yul\":1731:1737   */\n      dup4\n        /* \"#utility.yul\":1697:1743   */\n      tag_66\n      jump\t// in\n    tag_123:\n        /* \"#utility.yul\":1775:1779   */\n      0x20\n        /* \"#utility.yul\":1770:1773   */\n      dup4\n        /* \"#utility.yul\":1766:1780   */\n      add\n        /* \"#utility.yul\":1752:1780   */\n      swap1\n      pop\n        /* \"#utility.yul\":1607:1786   */\n      swap3\n      swap2\n      pop\n      pop\n      jump\t// out\n        /* \"#utility.yul\":1792:1903   */\n    tag_68:\n        /* \"#utility.yul\":1860:1864   */\n      0x00\n        /* \"#utility.yul\":1892:1896   */\n      0x20\n        /* \"#utility.yul\":1887:1890   */\n      dup3\n        /* \"#utility.yul\":1883:1897   */\n      add\n        /* \"#utility.yul\":1875:1897   */\n      swap1\n      pop\n        /* \"#utility.yul\":1792:1903   */\n      swap2\n      swap1\n      pop\n      jump\t// out\n        /* \"#utility.yul\":1941:2635   */\n    tag_69:\n        /* \"#utility.yul\":2077:2129   */\n      tag_126\n        /* \"#utility.yul\":2123:2128   */\n      dup2\n        /* \"#utility.yul\":2077:2129   */\n      tag_63\n      jump\t// in\n    tag_126:\n        /* \"#utility.yul\":2145:2229   */\n      tag_127\n        /* \"#utility.yul\":2222:2228   */\n      dup2\n        /* \"#utility.yul\":2217:2220   */\n      dup5\n        /* \"#utility.yul\":2145:2229   */\n      tag_64\n      jump\t// in\n    tag_127:\n        /* \"#utility.yul\":2138:2229   */\n      swap3\n      pop\n        /* \"#utility.yul\":2253:2307   */\n      tag_128\n        /* \"#utility.yul\":2301:2306   */\n      dup3\n        /* \"#utility.yul\":2253:2307   */\n      tag_65\n      jump\t// in\n    tag_128:\n        /* \"#utility.yul\":2330:2337   */\n      dup1\n        /* \"#utility.yul\":2361:2362   */\n      0x00\n        /* \"#utility.yul\":2346:2628   */\n    tag_129:\n        /* \"#utility.yul\":2371:2377   */\n      dup4\n        /* \"#utility.yul\":2368:2369   */\n      dup2\n        /* \"#utility.yul\":2365:2378   */\n      lt\n        /* \"#utility.yul\":2346:2628   */\n      iszero\n      tag_131\n      jumpi\n        /* \"#utility.yul\":2447:2453   */\n      dup2\n        /* \"#utility.yul\":2441:2454   */\n      mload\n        /* \"#utility.yul\":2474:2537   */\n      tag_132\n        /* \"#utility.yul\":2533:2536   */\n      dup8\n        /* \"#utility.yul\":2518:2531   */\n      dup3\n        /* \"#utility.yul\":2474:2537   */\n      tag_67\n      jump\t// in\n    tag_132:\n        /* \"#utility.yul\":2467:2537   */\n      swap7\n      pop\n        /* \"#utility.yul\":2560:2618   */\n      tag_133\n        /* \"#utility.yul\":2611:2617   */\n      dup4\n        /* \"#utility.yul\":2560:2618   */\n      tag_68\n      jump\t// in\n    tag_133:\n        /* \"#utility.yul\":2550:2618   */\n      swap3\n      pop\n        /* \"#utility.yul\":2406:2628   */\n      pop\n        /* \"#utility.yul\":2393:2394   */\n      0x01\n        /* \"#utility.yul\":2390:2391   */\n      dup2\n        /* \"#utility.yul\":2386:2395   */\n      add\n        /* \"#utility.yul\":2381:2395   */\n      swap1\n      pop\n        /* \"#utility.yul\":2346:2628   */\n      jump(tag_129)\n    tag_131:\n        /* \"#utility.yul\":2350:2364   */\n      pop\n        /* \"#utility.yul\":2053:2635   */\n      pop\n      pop\n      pop\n        /* \"#utility.yul\":1941:2635   */\n      pop\n      pop\n      jump\t// out\n        /* \"#utility.yul\":2641:3267   */\n    tag_10:\n        /* \"#utility.yul\":2856:2860   */\n      0x00\n        /* \"#utility.yul\":2894:2897   */\n      0xe0\n        /* \"#utility.yul\":2883:2892   */\n      dup3\n        /* \"#utility.yul\":2879:2898   */\n      add\n        /* \"#utility.yul\":2871:2898   */\n      swap1\n      pop\n        /* \"#utility.yul\":2944:2953   */\n      dup2\n        /* \"#utility.yul\":2938:2942   */\n      dup2\n        /* \"#utility.yul\":2934:2954   */\n      sub\n        /* \"#utility.yul\":2930:2931   */\n      0x00\n        /* \"#utility.yul\":2919:2928   */\n      dup4\n        /* \"#utility.yul\":2915:2932   */\n      add\n        /* \"#utility.yul\":2908:2955   */\n      mstore\n        /* \"#utility.yul\":2972:3050   */\n      tag_135\n        /* \"#utility.yul\":3045:3049   */\n      dup2\n        /* \"#utility.yul\":3036:3042   */\n      dup7\n        /* \"#utility.yul\":2972:3050   */\n      tag_60\n      jump\t// in\n    tag_135:\n        /* \"#utility.yul\":2964:3050   */\n      swap1\n      pop\n        /* \"#utility.yul\":3060:3132   */\n      tag_136\n        /* \"#utility.yul\":3128:3130   */\n      0x20\n        /* \"#utility.yul\":3117:3126   */\n      dup4\n        /* \"#utility.yul\":3113:3131   */\n      add\n        /* \"#utility.yul\":3104:3110   */\n      dup6\n        /* \"#utility.yul\":3060:3132   */\n      tag_62\n      jump\t// in\n    tag_136:\n        /* \"#utility.yul\":3142:3260   */\n      tag_137\n        /* \"#utility.yul\":3256:3258   */\n      0x40\n        /* \"#utility.yul\":3245:3254   */\n      dup4\n        /* \"#utility.yul\":3241:3259   */\n      add\n        /* \"#utility.yul\":3232:3238   */\n      dup5\n        /* \"#utility.yul\":3142:3260   */\n      tag_69\n      jump\t// in\n    tag_137:\n        /* \"#utility.yul\":2641:3267   */\n      swap5\n      swap4\n      pop\n      pop\n      pop\n      pop\n      jump\t// out\n        /* \"#utility.yul\":3273:3348   */\n    tag_70:\n        /* \"#utility.yul\":3306:3312   */\n      0x00\n        /* \"#utility.yul\":3339:3341   */\n      0x40\n        /* \"#utility.yul\":3333:3342   */\n      mload\n        /* \"#utility.yul\":3323:3342   */\n      swap1\n      pop\n        /* \"#utility.yul\":3273:3348   */\n      swap1\n      jump\t// out\n        /* \"#utility.yul\":3354:3471   */\n    tag_71:\n        /* \"#utility.yul\":3463:3464   */\n      0x00\n        /* \"#utility.yul\":3460:3461   */\n      dup1\n        /* \"#utility.yul\":3453:3465   */\n      revert\n        /* \"#utility.yul\":3477:3594   */\n    tag_72:\n        /* \"#utility.yul\":3586:3587   */\n      0x00\n        /* \"#utility.yul\":3583:3584   */\n      dup1\n        /* \"#utility.yul\":3576:3588   */\n      revert\n        /* \"#utility.yul\":3600:3717   */\n    tag_73:\n        /* \"#utility.yul\":3709:3710   */\n      0x00\n        /* \"#utility.yul\":3706:3707   */\n      dup1\n        /* \"#utility.yul\":3699:3711   */\n      revert\n        /* \"#utility.yul\":3723:3840   */\n    tag_74:\n        /* \"#utility.yul\":3832:3833   */\n      0x00\n        /* \"#utility.yul\":3829:3830   */\n      dup1\n        /* \"#utility.yul\":3822:3834   */\n      revert\n        /* \"#utility.yul\":3846:4026   */\n    tag_75:\n        /* \"#utility.yul\":3894:3971   */\n      0x4e487b7100000000000000000000000000000000000000000000000000000000\n        /* \"#utility.yul\":3891:3892   */\n      0x00\n        /* \"#utility.yul\":3884:3972   */\n      mstore\n        /* \"#utility.yul\":3991:3995   */\n      0x41\n        /* \"#utility.yul\":3988:3989   */\n      0x04\n        /* \"#utility.yul\":3981:3996   */\n      mstore\n        /* \"#utility.yul\":4015:4019   */\n      0x24\n        /* \"#utility.yul\":4012:4013   */\n      0x00\n        /* \"#utility.yul\":4005:4020   */\n      revert\n        /* \"#utility.yul\":4032:4313   */\n    tag_76:\n        /* \"#utility.yul\":4115:4142   */\n      tag_145\n        /* \"#utility.yul\":4137:4141   */\n      dup3\n        /* \"#utility.yul\":4115:4142   */\n      tag_59\n      jump\t// in\n    tag_145:\n        /* \"#utility.yul\":4107:4113   */\n      dup2\n        /* \"#utility.yul\":4103:4143   */\n      add\n        /* \"#utility.yul\":4245:4251   */\n      dup2\n        /* \"#utility.yul\":4233:4243   */\n      dup2\n        /* \"#utility.yul\":4230:4252   */\n      lt\n        /* \"#utility.yul\":4209:4227   */\n      0xffffffffffffffff\n        /* \"#utility.yul\":4197:4207   */\n      dup3\n        /* \"#utility.yul\":4194:4228   */\n      gt\n        /* \"#utility.yul\":4191:4253   */\n      or\n        /* \"#utility.yul\":4188:4276   */\n      iszero\n      tag_146\n      jumpi\n        /* \"#utility.yul\":4256:4274   */\n      tag_147\n      tag_75\n      jump\t// in\n    tag_147:\n        /* \"#utility.yul\":4188:4276   */\n    tag_146:\n        /* \"#utility.yul\":4296:4306   */\n      dup1\n        /* \"#utility.yul\":4292:4294   */\n      0x40\n        /* \"#utility.yul\":4285:4307   */\n      mstore\n        /* \"#utility.yul\":4075:4313   */\n      pop\n        /* \"#utility.yul\":4032:4313   */\n      pop\n      pop\n      jump\t// out\n        /* \"#utility.yul\":4319:4448   */\n    tag_77:\n        /* \"#utility.yul\":4353:4359   */\n      0x00\n        /* \"#utility.yul\":4380:4400   */\n      tag_149\n      tag_70\n      jump\t// in\n    tag_149:\n        /* \"#utility.yul\":4370:4400   */\n      swap1\n      pop\n        /* \"#utility.yul\":4409:4442   */\n      tag_150\n        /* \"#utility.yul\":4437:4441   */\n      dup3\n        /* \"#utility.yul\":4429:4435   */\n      dup3\n        /* \"#utility.yul\":4409:4442   */\n      tag_76\n      jump\t// in\n    tag_150:\n        /* \"#utility.yul\":4319:4448   */\n      swap2\n      swap1\n      pop\n      jump\t// out\n        /* \"#utility.yul\":4454:4762   */\n    tag_78:\n        /* \"#utility.yul\":4516:4520   */\n      0x00\n        /* \"#utility.yul\":4606:4624   */\n      0xffffffffffffffff\n        /* \"#utility.yul\":4598:4604   */\n      dup3\n        /* \"#utility.yul\":4595:4625   */\n      gt\n        /* \"#utility.yul\":4592:4648   */\n      iszero\n      tag_152\n      jumpi\n        /* \"#utility.yul\":4628:4646   */\n      tag_153\n      tag_75\n      jump\t// in\n    tag_153:\n        /* \"#utility.yul\":4592:4648   */\n    tag_152:\n        /* \"#utility.yul\":4666:4695   */\n      tag_154\n        /* \"#utility.yul\":4688:4694   */\n      dup3\n        /* \"#utility.yul\":4666:4695   */\n      tag_59\n      jump\t// in\n    tag_154:\n        /* \"#utility.yul\":4658:4695   */\n      swap1\n      pop\n        /* \"#utility.yul\":4750:4754   */\n      0x20\n        /* \"#utility.yul\":4744:4748   */\n      dup2\n        /* \"#utility.yul\":4740:4755   */\n      add\n        /* \"#utility.yul\":4732:4755   */\n      swap1\n      pop\n        /* \"#utility.yul\":4454:4762   */\n      swap2\n      swap1\n      pop\n      jump\t// out\n        /* \"#utility.yul\":4768:4916   */\n    tag_79:\n        /* \"#utility.yul\":4866:4872   */\n      dup3\n        /* \"#utility.yul\":4861:4864   */\n      dup2\n        /* \"#utility.yul\":4856:4859   */\n      dup4\n        /* \"#utility.yul\":4843:4873   */\n      calldatacopy\n        /* \"#utility.yul\":4907:4908   */\n      0x00\n        /* \"#utility.yul\":4898:4904   */\n      dup4\n        /* \"#utility.yul\":4893:4896   */\n      dup4\n        /* \"#utility.yul\":4889:4905   */\n      add\n        /* \"#utility.yul\":4882:4909   */\n      mstore\n        /* \"#utility.yul\":4768:4916   */\n      pop\n      pop\n      pop\n      jump\t// out\n        /* \"#utility.yul\":4922:5347   */\n    tag_80:\n        /* \"#utility.yul\":5000:5005   */\n      0x00\n        /* \"#utility.yul\":5025:5091   */\n      tag_157\n        /* \"#utility.yul\":5041:5090   */\n      tag_158\n        /* \"#utility.yul\":5083:5089   */\n      dup5\n        /* \"#utility.yul\":5041:5090   */\n      tag_78\n      jump\t// in\n    tag_158:\n        /* \"#utility.yul\":5025:5091   */\n      tag_77\n      jump\t// in\n    tag_157:\n        /* \"#utility.yul\":5016:5091   */\n      swap1\n      pop\n        /* \"#utility.yul\":5114:5120   */\n      dup3\n        /* \"#utility.yul\":5107:5112   */\n      dup2\n        /* \"#utility.yul\":5100:5121   */\n      mstore\n        /* \"#utility.yul\":5152:5156   */\n      0x20\n        /* \"#utility.yul\":5145:5150   */\n      dup2\n        /* \"#utility.yul\":5141:5157   */\n      add\n        /* \"#utility.yul\":5190:5193   */\n      dup5\n        /* \"#utility.yul\":5181:5187   */\n      dup5\n        /* \"#utility.yul\":5176:5179   */\n      dup5\n        /* \"#utility.yul\":5172:5188   */\n      add\n        /* \"#utility.yul\":5169:5194   */\n      gt\n        /* \"#utility.yul\":5166:5278   */\n      iszero\n      tag_159\n      jumpi\n        /* \"#utility.yul\":5197:5276   */\n      tag_160\n      tag_74\n      jump\t// in\n    tag_160:\n        /* \"#utility.yul\":5166:5278   */\n    tag_159:\n        /* \"#utility.yul\":5287:5341   */\n      tag_161\n        /* \"#utility.yul\":5334:5340   */\n      dup5\n        /* \"#utility.yul\":5329:5332   */\n      dup3\n        /* \"#utility.yul\":5324:5327   */\n      dup6\n        /* \"#utility.yul\":5287:5341   */\n      tag_79\n      jump\t// in\n    tag_161:\n        /* \"#utility.yul\":5006:5347   */\n      pop\n        /* \"#utility.yul\":4922:5347   */\n      swap4\n      swap3\n      pop\n      pop\n      pop\n      jump\t// out\n        /* \"#utility.yul\":5367:5707   */\n    tag_81:\n        /* \"#utility.yul\":5423:5428   */\n      0x00\n        /* \"#utility.yul\":5472:5475   */\n      dup3\n        /* \"#utility.yul\":5465:5469   */\n      0x1f\n        /* \"#utility.yul\":5457:5463   */\n      dup4\n        /* \"#utility.yul\":5453:5470   */\n      add\n        /* \"#utility.yul\":5449:5476   */\n      slt\n        /* \"#utility.yul\":5439:5561   */\n      tag_163\n      jumpi\n        /* \"#utility.yul\":5480:5559   */\n      tag_164\n      tag_73\n      jump\t// in\n    tag_164:\n        /* \"#utility.yul\":5439:5561   */\n    tag_163:\n        /* \"#utility.yul\":5597:5603   */\n      dup2\n        /* \"#utility.yul\":5584:5604   */\n      calldataload\n        /* \"#utility.yul\":5622:5701   */\n      tag_165\n        /* \"#utility.yul\":5697:5700   */\n      dup5\n        /* \"#utility.yul\":5689:5695   */\n      dup3\n        /* \"#utility.yul\":5682:5686   */\n      0x20\n        /* \"#utility.yul\":5674:5680   */\n      dup7\n        /* \"#utility.yul\":5670:5687   */\n      add\n        /* \"#utility.yul\":5622:5701   */\n      tag_80\n      jump\t// in\n    tag_165:\n        /* \"#utility.yul\":5613:5701   */\n      swap2\n      pop\n        /* \"#utility.yul\":5429:5707   */\n      pop\n        /* \"#utility.yul\":5367:5707   */\n      swap3\n      swap2\n      pop\n      pop\n      jump\t// out\n        /* \"#utility.yul\":5713:5835   */\n    tag_82:\n        /* \"#utility.yul\":5786:5810   */\n      tag_167\n        /* \"#utility.yul\":5804:5809   */\n      dup2\n        /* \"#utility.yul\":5786:5810   */\n      tag_61\n      jump\t// in\n    tag_167:\n        /* \"#utility.yul\":5779:5784   */\n      dup2\n        /* \"#utility.yul\":5776:5811   */\n      eq\n        /* \"#utility.yul\":5766:5829   */\n      tag_168\n      jumpi\n        /* \"#utility.yul\":5825:5826   */\n      0x00\n        /* \"#utility.yul\":5822:5823   */\n      dup1\n        /* \"#utility.yul\":5815:5827   */\n      revert\n        /* \"#utility.yul\":5766:5829   */\n    tag_168:\n        /* \"#utility.yul\":5713:5835   */\n      pop\n      jump\t// out\n        /* \"#utility.yul\":5841:5980   */\n    tag_83:\n        /* \"#utility.yul\":5887:5892   */\n      0x00\n        /* \"#utility.yul\":5925:5931   */\n      dup2\n        /* \"#utility.yul\":5912:5932   */\n      calldataload\n        /* \"#utility.yul\":5903:5932   */\n      swap1\n      pop\n        /* \"#utility.yul\":5941:5974   */\n      tag_170\n        /* \"#utility.yul\":5968:5973   */\n      dup2\n        /* \"#utility.yul\":5941:5974   */\n      tag_82\n      jump\t// in\n    tag_170:\n        /* \"#utility.yul\":5841:5980   */\n      swap3\n      swap2\n      pop\n      pop\n      jump\t// out\n        /* \"#utility.yul\":5986:6235   */\n    tag_84:\n        /* \"#utility.yul\":6061:6065   */\n      0x00\n        /* \"#utility.yul\":6151:6169   */\n      0xffffffffffffffff\n        /* \"#utility.yul\":6143:6149   */\n      dup3\n        /* \"#utility.yul\":6140:6170   */\n      gt\n        /* \"#utility.yul\":6137:6193   */\n      iszero\n      tag_172\n      jumpi\n        /* \"#utility.yul\":6173:6191   */\n      tag_173\n      tag_75\n      jump\t// in\n    tag_173:\n        /* \"#utility.yul\":6137:6193   */\n    tag_172:\n        /* \"#utility.yul\":6223:6227   */\n      0x20\n        /* \"#utility.yul\":6215:6221   */\n      dup3\n        /* \"#utility.yul\":6211:6228   */\n      mul\n        /* \"#utility.yul\":6203:6228   */\n      swap1\n      pop\n        /* \"#utility.yul\":5986:6235   */\n      swap2\n      swap1\n      pop\n      jump\t// out\n        /* \"#utility.yul\":6241:6358   */\n    tag_85:\n        /* \"#utility.yul\":6350:6351   */\n      0x00\n        /* \"#utility.yul\":6347:6348   */\n      dup1\n        /* \"#utility.yul\":6340:6352   */\n      revert\n        /* \"#utility.yul\":6382:7025   */\n    tag_86:\n        /* \"#utility.yul\":6476:6481   */\n      0x00\n        /* \"#utility.yul\":6501:6580   */\n      tag_176\n        /* \"#utility.yul\":6517:6579   */\n      tag_177\n        /* \"#utility.yul\":6572:6578   */\n      dup5\n        /* \"#utility.yul\":6517:6579   */\n      tag_84\n      jump\t// in\n    tag_177:\n        /* \"#utility.yul\":6501:6580   */\n      tag_77\n      jump\t// in\n    tag_176:\n        /* \"#utility.yul\":6492:6580   */\n      swap1\n      pop\n        /* \"#utility.yul\":6600:6605   */\n      dup1\n        /* \"#utility.yul\":6653:6657   */\n      0x20\n        /* \"#utility.yul\":6645:6651   */\n      dup5\n        /* \"#utility.yul\":6641:6658   */\n      mul\n        /* \"#utility.yul\":6633:6639   */\n      dup4\n        /* \"#utility.yul\":6629:6659   */\n      add\n        /* \"#utility.yul\":6682:6685   */\n      dup6\n        /* \"#utility.yul\":6674:6680   */\n      dup2\n        /* \"#utility.yul\":6671:6686   */\n      gt\n        /* \"#utility.yul\":6668:6790   */\n      iszero\n      tag_178\n      jumpi\n        /* \"#utility.yul\":6701:6780   */\n      tag_179\n      tag_85\n      jump\t// in\n    tag_179:\n        /* \"#utility.yul\":6668:6790   */\n    tag_178:\n        /* \"#utility.yul\":6816:6822   */\n      dup4\n        /* \"#utility.yul\":6799:7019   */\n    tag_180:\n        /* \"#utility.yul\":6833:6839   */\n      dup2\n        /* \"#utility.yul\":6828:6831   */\n      dup2\n        /* \"#utility.yul\":6825:6840   */\n      lt\n        /* \"#utility.yul\":6799:7019   */\n      iszero\n      tag_182\n      jumpi\n        /* \"#utility.yul\":6908:6911   */\n      dup1\n        /* \"#utility.yul\":6937:6974   */\n      tag_183\n        /* \"#utility.yul\":6970:6973   */\n      dup9\n        /* \"#utility.yul\":6958:6968   */\n      dup3\n        /* \"#utility.yul\":6937:6974   */\n      tag_83\n      jump\t// in\n    tag_183:\n        /* \"#utility.yul\":6932:6935   */\n      dup5\n        /* \"#utility.yul\":6925:6975   */\n      mstore\n        /* \"#utility.yul\":7004:7008   */\n      0x20\n        /* \"#utility.yul\":6999:7002   */\n      dup5\n        /* \"#utility.yul\":6995:7009   */\n      add\n        /* \"#utility.yul\":6988:7009   */\n      swap4\n      pop\n        /* \"#utility.yul\":6875:7019   */\n      pop\n        /* \"#utility.yul\":6859:6863   */\n      0x20\n        /* \"#utility.yul\":6854:6857   */\n      dup2\n        /* \"#utility.yul\":6850:6864   */\n      add\n        /* \"#utility.yul\":6843:6864   */\n      swap1\n      pop\n        /* \"#utility.yul\":6799:7019   */\n      jump(tag_180)\n    tag_182:\n        /* \"#utility.yul\":6803:6824   */\n      pop\n        /* \"#utility.yul\":6482:7025   */\n      pop\n      pop\n        /* \"#utility.yul\":6382:7025   */\n      swap4\n      swap3\n      pop\n      pop\n      pop\n      jump\t// out\n        /* \"#utility.yul\":7049:7388   */\n    tag_87:\n        /* \"#utility.yul\":7118:7123   */\n      0x00\n        /* \"#utility.yul\":7167:7170   */\n      dup3\n        /* \"#utility.yul\":7160:7164   */\n      0x1f\n        /* \"#utility.yul\":7152:7158   */\n      dup4\n        /* \"#utility.yul\":7148:7165   */\n      add\n        /* \"#utility.yul\":7144:7171   */\n      slt\n        /* \"#utility.yul\":7134:7256   */\n      tag_185\n      jumpi\n        /* \"#utility.yul\":7175:7254   */\n      tag_186\n      tag_73\n      jump\t// in\n    tag_186:\n        /* \"#utility.yul\":7134:7256   */\n    tag_185:\n        /* \"#utility.yul\":7279:7283   */\n      0x05\n        /* \"#utility.yul\":7301:7382   */\n      tag_187\n        /* \"#utility.yul\":7378:7381   */\n      dup5\n        /* \"#utility.yul\":7370:7376   */\n      dup3\n        /* \"#utility.yul\":7362:7368   */\n      dup6\n        /* \"#utility.yul\":7301:7382   */\n      tag_86\n      jump\t// in\n    tag_187:\n        /* \"#utility.yul\":7292:7382   */\n      swap2\n      pop\n        /* \"#utility.yul\":7124:7388   */\n      pop\n        /* \"#utility.yul\":7049:7388   */\n      swap3\n      swap2\n      pop\n      pop\n      jump\t// out\n        /* \"#utility.yul\":7394:8240   */\n    tag_16:\n        /* \"#utility.yul\":7504:7510   */\n      0x00\n        /* \"#utility.yul\":7512:7518   */\n      dup1\n        /* \"#utility.yul\":7520:7526   */\n      0x00\n        /* \"#utility.yul\":7569:7572   */\n      0xe0\n        /* \"#utility.yul\":7557:7566   */\n      dup5\n        /* \"#utility.yul\":7548:7555   */\n      dup7\n        /* \"#utility.yul\":7544:7567   */\n      sub\n        /* \"#utility.yul\":7540:7573   */\n      slt\n        /* \"#utility.yul\":7537:7657   */\n      iszero\n      tag_189\n      jumpi\n        /* \"#utility.yul\":7576:7655   */\n      tag_190\n      tag_71\n      jump\t// in\n    tag_190:\n        /* \"#utility.yul\":7537:7657   */\n    tag_189:\n        /* \"#utility.yul\":7724:7725   */\n      0x00\n        /* \"#utility.yul\":7713:7722   */\n      dup5\n        /* \"#utility.yul\":7709:7726   */\n      add\n        /* \"#utility.yul\":7696:7727   */\n      calldataload\n        /* \"#utility.yul\":7754:7772   */\n      0xffffffffffffffff\n        /* \"#utility.yul\":7746:7752   */\n      dup2\n        /* \"#utility.yul\":7743:7773   */\n      gt\n        /* \"#utility.yul\":7740:7857   */\n      iszero\n      tag_191\n      jumpi\n        /* \"#utility.yul\":7776:7855   */\n      tag_192\n      tag_72\n      jump\t// in\n    tag_192:\n        /* \"#utility.yul\":7740:7857   */\n    tag_191:\n        /* \"#utility.yul\":7881:7944   */\n      tag_193\n        /* \"#utility.yul\":7936:7943   */\n      dup7\n        /* \"#utility.yul\":7927:7933   */\n      dup3\n        /* \"#utility.yul\":7916:7925   */\n      dup8\n        /* \"#utility.yul\":7912:7934   */\n      add\n        /* \"#utility.yul\":7881:7944   */\n      tag_81\n      jump\t// in\n    tag_193:\n        /* \"#utility.yul\":7871:7944   */\n      swap4\n      pop\n        /* \"#utility.yul\":7667:7954   */\n      pop\n        /* \"#utility.yul\":7993:7995   */\n      0x20\n        /* \"#utility.yul\":8019:8072   */\n      tag_194\n        /* \"#utility.yul\":8064:8071   */\n      dup7\n        /* \"#utility.yul\":8055:8061   */\n      dup3\n        /* \"#utility.yul\":8044:8053   */\n      dup8\n        /* \"#utility.yul\":8040:8062   */\n      add\n        /* \"#utility.yul\":8019:8072   */\n      tag_83\n      jump\t// in\n    tag_194:\n        /* \"#utility.yul\":8009:8072   */\n      swap3\n      pop\n        /* \"#utility.yul\":7964:8082   */\n      pop\n        /* \"#utility.yul\":8121:8123   */\n      0x40\n        /* \"#utility.yul\":8147:8223   */\n      tag_195\n        /* \"#utility.yul\":8215:8222   */\n      dup7\n        /* \"#utility.yul\":8206:8212   */\n      dup3\n        /* \"#utility.yul\":8195:8204   */\n      dup8\n        /* \"#utility.yul\":8191:8213   */\n      add\n        /* \"#utility.yul\":8147:8223   */\n      tag_87\n      jump\t// in\n    tag_195:\n        /* \"#utility.yul\":8137:8223   */\n      swap2\n      pop\n        /* \"#utility.yul\":8092:8233   */\n      pop\n        /* \"#utility.yul\":7394:8240   */\n      swap3\n      pop\n      swap3\n      pop\n      swap3\n      jump\t// out\n        /* \"#utility.yul\":8246:8426   */\n    tag_88:\n        /* \"#utility.yul\":8294:8371   */\n      0x4e487b7100000000000000000000000000000000000000000000000000000000\n        /* \"#utility.yul\":8291:8292   */\n      0x00\n        /* \"#utility.yul\":8284:8372   */\n      mstore\n        /* \"#utility.yul\":8391:8395   */\n      0x22\n        /* \"#utility.yul\":8388:8389   */\n      0x04\n        /* \"#utility.yul\":8381:8396   */\n      mstore\n        /* \"#utility.yul\":8415:8419   */\n      0x24\n        /* \"#utility.yul\":8412:8413   */\n      0x00\n        /* \"#utility.yul\":8405:8420   */\n      revert\n        /* \"#utility.yul\":8432:8752   */\n    tag_25:\n        /* \"#utility.yul\":8476:8482   */\n      0x00\n        /* \"#utility.yul\":8513:8514   */\n      0x02\n        /* \"#utility.yul\":8507:8511   */\n      dup3\n        /* \"#utility.yul\":8503:8515   */\n      div\n        /* \"#utility.yul\":8493:8515   */\n      swap1\n      pop\n        /* \"#utility.yul\":8560:8561   */\n      0x01\n        /* \"#utility.yul\":8554:8558   */\n      dup3\n        /* \"#utility.yul\":8550:8562   */\n      and\n        /* \"#utility.yul\":8581:8599   */\n      dup1\n        /* \"#utility.yul\":8571:8652   */\n      tag_198\n      jumpi\n        /* \"#utility.yul\":8637:8641   */\n      0x7f\n        /* \"#utility.yul\":8629:8635   */\n      dup3\n        /* \"#utility.yul\":8625:8642   */\n      and\n        /* \"#utility.yul\":8615:8642   */\n      swap2\n      pop\n        /* \"#utility.yul\":8571:8652   */\n    tag_198:\n        /* \"#utility.yul\":8699:8701   */\n      0x20\n        /* \"#utility.yul\":8691:8697   */\n      dup3\n        /* \"#utility.yul\":8688:8702   */\n      lt\n        /* \"#utility.yul\":8668:8686   */\n      dup2\n        /* \"#utility.yul\":8665:8703   */\n      sub\n        /* \"#utility.yul\":8662:8746   */\n      tag_199\n      jumpi\n        /* \"#utility.yul\":8718:8736   */\n      tag_200\n      tag_88\n      jump\t// in\n    tag_200:\n        /* \"#utility.yul\":8662:8746   */\n    tag_199:\n        /* \"#utility.yul\":8483:8752   */\n      pop\n        /* \"#utility.yul\":8432:8752   */\n      swap2\n      swap1\n      pop\n      jump\t// out\n        /* \"#utility.yul\":8758:8899   */\n    tag_89:\n        /* \"#utility.yul\":8807:8811   */\n      0x00\n        /* \"#utility.yul\":8830:8833   */\n      dup2\n        /* \"#utility.yul\":8822:8833   */\n      swap1\n      pop\n        /* \"#utility.yul\":8853:8856   */\n      dup2\n        /* \"#utility.yul\":8850:8851   */\n      0x00\n        /* \"#utility.yul\":8843:8857   */\n      mstore\n        /* \"#utility.yul\":8887:8891   */\n      0x20\n        /* \"#utility.yul\":8884:8885   */\n      0x00\n        /* \"#utility.yul\":8874:8892   */\n      keccak256\n        /* \"#utility.yul\":8866:8892   */\n      swap1\n      pop\n        /* \"#utility.yul\":8758:8899   */\n      swap2\n      swap1\n      pop\n      jump\t// out\n        /* \"#utility.yul\":8905:8998   */\n    tag_90:\n        /* \"#utility.yul\":8942:8948   */\n      0x00\n        /* \"#utility.yul\":8989:8991   */\n      0x20\n        /* \"#utility.yul\":8984:8986   */\n      0x1f\n        /* \"#utility.yul\":8977:8982   */\n      dup4\n        /* \"#utility.yul\":8973:8987   */\n      add\n        /* \"#utility.yul\":8969:8992   */\n      div\n        /* \"#utility.yul\":8959:8992   */\n      swap1\n      pop\n        /* \"#utility.yul\":8905:8998   */\n      swap2\n      swap1\n      pop\n      jump\t// out\n        /* \"#utility.yul\":9004:9111   */\n    tag_91:\n        /* \"#utility.yul\":9048:9056   */\n      0x00\n        /* \"#utility.yul\":9098:9103   */\n      dup3\n        /* \"#utility.yul\":9092:9096   */\n      dup3\n        /* \"#utility.yul\":9088:9104   */\n      shl\n        /* \"#utility.yul\":9067:9104   */\n      swap1\n      pop\n        /* \"#utility.yul\":9004:9111   */\n      swap3\n      swap2\n      pop\n      pop\n      jump\t// out\n        /* \"#utility.yul\":9117:9510   */\n    tag_92:\n        /* \"#utility.yul\":9186:9192   */\n      0x00\n        /* \"#utility.yul\":9236:9237   */\n      0x08\n        /* \"#utility.yul\":9224:9234   */\n      dup4\n        /* \"#utility.yul\":9220:9238   */\n      mul\n        /* \"#utility.yul\":9259:9356   */\n      tag_205\n        /* \"#utility.yul\":9289:9355   */\n      0xffffffffffffffffffffffffffffffffffffffffffffffffffffffffffffffff\n        /* \"#utility.yul\":9278:9287   */\n      dup3\n        /* \"#utility.yul\":9259:9356   */\n      tag_91\n      jump\t// in\n    tag_205:\n        /* \"#utility.yul\":9377:9416   */\n      tag_206\n        /* \"#utility.yul\":9407:9415   */\n      dup7\n        /* \"#utility.yul\":9396:9405   */\n      dup4\n        /* \"#utility.yul\":9377:9416   */\n      tag_91\n      jump\t// in\n    tag_206:\n        /* \"#utility.yul\":9365:9416   */\n      swap6\n      pop\n        /* \"#utility.yul\":9449:9453   */\n      dup1\n        /* \"#utility.yul\":9445:9454   */\n      not\n        /* \"#utility.yul\":9438:9443   */\n      dup5\n        /* \"#utility.yul\":9434:9455   */\n      and\n        /* \"#utility.yul\":9425:9455   */\n      swap4\n      pop\n        /* \"#utility.yul\":9498:9502   */\n      dup1\n        /* \"#utility.yul\":9488:9496   */\n      dup7\n        /* \"#utility.yul\":9484:9503   */\n      and\n        /* \"#utility.yul\":9477:9482   */\n      dup5\n        /* \"#utility.yul\":9474:9504   */\n      or\n        /* \"#utility.yul\":9464:9504   */\n      swap3\n      pop\n        /* \"#utility.yul\":9193:9510   */\n      pop\n      pop\n        /* \"#utility.yul\":9117:9510   */\n      swap4\n      swap3\n      pop\n      pop\n      pop\n      jump\t// out\n        /* \"#utility.yul\":9516:9576   */\n    tag_93:\n        /* \"#utility.yul\":9544:9547   */\n      0x00\n        /* \"#utility.yul\":9565:9570   */\n      dup2\n        /* \"#utility.yul\":9558:9570   */\n      swap1\n      pop\n        /* \"#utility.yul\":9516:9576   */\n      swap2\n      swap1\n      pop\n      jump\t// out\n        /* \"#utility.yul\":9582:9724   */\n    tag_94:\n        /* \"#utility.yul\":9632:9641   */\n      0x00\n        /* \"#utility.yul\":9665:9718   */\n      tag_209\n        /* \"#utility.yul\":9683:9717   */\n      tag_210\n        /* \"#utility.yul\":9692:9716   */\n      tag_211\n        /* \"#utility.yul\":9710:9715   */\n      dup5\n        /* \"#utility.yul\":9692:9716   */\n      tag_61\n      jump\t// in\n    tag_211:\n        /* \"#utility.yul\":9683:9717   */\n      tag_93\n      jump\t// in\n    tag_210:\n        /* \"#utility.yul\":9665:9718   */\n      tag_61\n      jump\t// in\n    tag_209:\n        /* \"#utility.yul\":9652:9718   */\n      swap1\n      pop\n        /* \"#utility.yul\":9582:9724   */\n      swap2\n      swap1\n      pop\n      jump\t// out\n        /* \"#utility.yul\":9730:9805   */\n    tag_95:\n        /* \"#utility.yul\":9773:9776   */\n      0x00\n        /* \"#utility.yul\":9794:9799   */\n      dup2\n        /* \"#utility.yul\":9787:9799   */\n      swap1\n      pop\n        /* \"#utility.yul\":9730:9805   */\n      swap2\n      swap1\n      pop\n      jump\t// out\n        /* \"#utility.yul\":9811:10080   */\n    tag_96:\n        /* \"#utility.yul\":9921:9960   */\n      tag_214\n        /* \"#utility.yul\":9952:9959   */\n      dup4\n        /* \"#utility.yul\":9921:9960   */\n      tag_94\n      jump\t// in\n    tag_214:\n        /* \"#utility.yul\":9982:10073   */\n      tag_215\n        /* \"#utility.yul\":10031:10072   */\n      tag_216\n        /* \"#utility.yul\":10055:10071   */\n      dup3\n        /* \"#utility.yul\":10031:10072   */\n      tag_95\n      jump\t// in\n    tag_216:\n        /* \"#utility.yul\":10023:10029   */\n      dup5\n        /* \"#utility.yul\":10016:10020   */\n      dup5\n        /* \"#utility.yul\":10010:10021   */\n      sload\n        /* \"#utility.yul\":9982:10073   */\n      tag_92\n      jump\t// in\n    tag_215:\n        /* \"#utility.yul\":9976:9980   */\n      dup3\n        /* \"#utility.yul\":9969:10074   */\n      sstore\n        /* \"#utility.yul\":9887:10080   */\n      pop\n        /* \"#utility.yul\":9811:10080   */\n      pop\n      pop\n      pop\n      jump\t// out\n        /* \"#utility.yul\":10086:10159   */\n    tag_97:\n        /* \"#utility.yul\":10131:10134   */\n      0x00\n        /* \"#utility.yul\":10086:10159   */\n      swap1\n      jump\t// out\n        /* \"#utility.yul\":10165:10354   */\n    tag_98:\n        /* \"#utility.yul\":10242:10274   */\n      tag_219\n      tag_97\n      jump\t// in\n    tag_219:\n        /* \"#utility.yul\":10283:10348   */\n      tag_220\n        /* \"#utility.yul\":10341:10347   */\n      dup2\n        /* \"#utility.yul\":10333:10339   */\n      dup5\n        /* \"#utility.yul\":10327:10331   */\n      dup5\n        /* \"#utility.yul\":10283:10348   */\n      tag_96\n      jump\t// in\n    tag_220:\n        /* \"#utility.yul\":10218:10354   */\n      pop\n        /* \"#utility.yul\":10165:10354   */\n      pop\n      pop\n      jump\t// out\n        /* \"#utility.yul\":10360:10546   */\n    tag_99:\n        /* \"#utility.yul\":10420:10540   */\n    tag_222:\n        /* \"#utility.yul\":10437:10440   */\n      dup2\n        /* \"#utility.yul\":10430:10435   */\n      dup2\n        /* \"#utility.yul\":10427:10441   */\n      lt\n        /* \"#utility.yul\":10420:10540   */\n      iszero\n      tag_224\n      jumpi\n        /* \"#utility.yul\":10491:10530   */\n      tag_225\n        /* \"#utility.yul\":10528:10529   */\n      0x00\n        /* \"#utility.yul\":10521:10526   */\n      dup3\n        /* \"#utility.yul\":10491:10530   */\n      tag_98\n      jump\t// in\n    tag_225:\n        /* \"#utility.yul\":10464:10465   */\n      0x01\n        /* \"#utility.yul\":10457:10462   */\n      dup2\n        /* \"#utility.yul\":10453:10466   */\n      add\n        /* \"#utility.yul\":10444:10466   */\n      swap1\n      pop\n        /* \"#utility.yul\":10420:10540   */\n      jump(tag_222)\n    tag_224:\n        /* \"#utility.yul\":10360:10546   */\n      pop\n      pop\n      jump\t// out\n        /* \"#utility.yul\":10552:11095   */\n    tag_100:\n        /* \"#utility.yul\":10653:10655   */\n      0x1f\n        /* \"#utility.yul\":10648:10651   */\n      dup3\n        /* \"#utility.yul\":10645:10656   */\n      gt\n        /* \"#utility.yul\":10642:11088   */\n      iszero\n      tag_227\n      jumpi\n        /* \"#utility.yul\":10687:10725   */\n      tag_228\n        /* \"#utility.yul\":10719:10724   */\n      dup2\n        /* \"#utility.yul\":10687:10725   */\n      tag_89\n      jump\t// in\n    tag_228:\n        /* \"#utility.yul\":10771:10800   */\n      tag_229\n        /* \"#utility.yul\":10789:10799   */\n      dup5\n        /* \"#utility.yul\":10771:10800   */\n      tag_90\n      jump\t// in\n    tag_229:\n        /* \"#utility.yul\":10761:10769   */\n      dup2\n        /* \"#utility.yul\":10757:10801   */\n      add\n        /* \"#utility.yul\":10954:10956   */\n      0x20\n        /* \"#utility.yul\":10942:10952   */\n      dup6\n        /* \"#utility.yul\":10939:10957   */\n      lt\n        /* \"#utility.yul\":10936:10985   */\n      iszero\n      tag_230\n      jumpi\n        /* \"#utility.yul\":10975:10983   */\n      dup2\n        /* \"#utility.yul\":10960:10983   */\n      swap1\n      pop\n        /* \"#utility.yul\":10936:10985   */\n    tag_230:\n        /* \"#utility.yul\":10998:11078   */\n      tag_231\n        /* \"#utility.yul\":11054:11076   */\n      tag_232\n        /* \"#utility.yul\":11072:11075   */\n      dup6\n        /* \"#utility.yul\":11054:11076   */\n      tag_90\n      jump\t// in\n    tag_232:\n        /* \"#utility.yul\":11044:11052   */\n      dup4\n        /* \"#utility.yul\":11040:11077   */\n      add\n        /* \"#utility.yul\":11027:11038   */\n      dup3\n        /* \"#utility.yul\":10998:11078   */\n      tag_99\n      jump\t// in\n    tag_231:\n        /* \"#utility.yul\":10657:11088   */\n      pop\n      pop\n        /* \"#utility.yul\":10642:11088   */\n    tag_227:\n        /* \"#utility.yul\":10552:11095   */\n      pop\n      pop\n      pop\n      jump\t// out\n        /* \"#utility.yul\":11101:11218   */\n    tag_101:\n        /* \"#utility.yul\":11155:11163   */\n      0x00\n        /* \"#utility.yul\":11205:11210   */\n      dup3\n        /* \"#utility.yul\":11199:11203   */\n      dup3\n        /* \"#utility.yul\":11195:11211   */\n      shr\n        /* \"#utility.yul\":11174:11211   */\n      swap1\n      pop\n        /* \"#utility.yul\":11101:11218   */\n      swap3\n      swap2\n      pop\n      pop\n      jump\t// out\n        /* \"#utility.yul\":11224:11393   */\n    tag_102:\n        /* \"#utility.yul\":11268:11274   */\n      0x00\n        /* \"#utility.yul\":11301:11352   */\n      tag_235\n        /* \"#utility.yul\":11349:11350   */\n      0x00\n        /* \"#utility.yul\":11345:11351   */\n      not\n        /* \"#utility.yul\":11337:11342   */\n      dup5\n        /* \"#utility.yul\":11334:11335   */\n      0x08\n        /* \"#utility.yul\":11330:11343   */\n      mul\n        /* \"#utility.yul\":11301:11352   */\n      tag_101\n      jump\t// in\n    tag_235:\n        /* \"#utility.yul\":11297:11353   */\n      not\n        /* \"#utility.yul\":11382:11386   */\n      dup1\n        /* \"#utility.yul\":11376:11380   */\n      dup4\n        /* \"#utility.yul\":11372:11387   */\n      and\n        /* \"#utility.yul\":11362:11387   */\n      swap2\n      pop\n        /* \"#utility.yul\":11275:11393   */\n      pop\n        /* \"#utility.yul\":11224:11393   */\n      swap3\n      swap2\n      pop\n      pop\n      jump\t// out\n        /* \"#utility.yul\":11398:11693   */\n    tag_103:\n        /* \"#utility.yul\":11474:11478   */\n      0x00\n        /* \"#utility.yul\":11620:11649   */\n      tag_237\n        /* \"#utility.yul\":11645:11648   */\n      dup4\n        /* \"#utility.yul\":11639:11643   */\n      dup4\n        /* \"#utility.yul\":11620:11649   */\n      tag_102\n      jump\t// in\n    tag_237:\n        /* \"#utility.yul\":11612:11649   */\n      swap2\n      pop\n        /* \"#utility.yul\":11682:11685   */\n      dup3\n        /* \"#utility.yul\":11679:11680   */\n      0x02\n        /* \"#utility.yul\":11675:11686   */\n      mul\n        /* \"#utility.yul\":11669:11673   */\n      dup3\n        /* \"#utility.yul\":11666:11687   */\n      or\n        /* \"#utility.yul\":11658:11687   */\n      swap1\n      pop\n        /* \"#utility.yul\":11398:11693   */\n      swap3\n      swap2\n      pop\n      pop\n      jump\t// out\n        /* \"#utility.yul\":11698:13093   */\n    tag_43:\n        /* \"#utility.yul\":11815:11852   */\n      tag_239\n        /* \"#utility.yul\":11848:11851   */\n      dup3\n        /* \"#utility.yul\":11815:11852   */\n      tag_56\n      jump\t// in\n    tag_239:\n        /* \"#utility.yul\":11917:11935   */\n      0xffffffffffffffff\n        /* \"#utility.yul\":11909:11915   */\n      dup2\n        /* \"#utility.yul\":11906:11936   */\n      gt\n        /* \"#utility.yul\":11903:11959   */\n      iszero\n      tag_240\n      jumpi\n        /* \"#utility.yul\":11939:11957   */\n      tag_241\n      tag_75\n      jump\t// in\n    tag_241:\n        /* \"#utility.yul\":11903:11959   */\n    tag_240:\n        /* \"#utility.yul\":11983:12021   */\n      tag_242\n        /* \"#utility.yul\":12015:12019   */\n      dup3\n        /* \"#utility.yul\":12009:12020   */\n      sload\n        /* \"#utility.yul\":11983:12021   */\n      tag_25\n      jump\t// in\n    tag_242:\n        /* \"#utility.yul\":12068:12135   */\n      tag_243\n        /* \"#utility.yul\":12128:12134   */\n      dup3\n        /* \"#utility.yul\":12120:12126   */\n      dup3\n        /* \"#utility.yul\":12114:12118   */\n      dup6\n        /* \"#utility.yul\":12068:12135   */\n      tag_100\n      jump\t// in\n    tag_243:\n        /* \"#utility.yul\":12162:12163   */\n      0x00\n        /* \"#utility.yul\":12186:12190   */\n      0x20\n        /* \"#utility.yul\":12173:12190   */\n      swap1\n      pop\n        /* \"#utility.yul\":12218:12220   */\n      0x1f\n        /* \"#utility.yul\":12210:12216   */\n      dup4\n        /* \"#utility.yul\":12207:12221   */\n      gt\n        /* \"#utility.yul\":12235:12236   */\n      0x01\n        /* \"#utility.yul\":12230:12848   */\n      dup2\n      eq\n      tag_245\n      jumpi\n        /* \"#utility.yul\":12892:12893   */\n      0x00\n        /* \"#utility.yul\":12909:12915   */\n      dup5\n        /* \"#utility.yul\":12906:12983   */\n      iszero\n      tag_246\n      jumpi\n        /* \"#utility.yul\":12958:12967   */\n      dup3\n        /* \"#utility.yul\":12953:12956   */\n      dup8\n        /* \"#utility.yul\":12949:12968   */\n      add\n        /* \"#utility.yul\":12943:12969   */\n      mload\n        /* \"#utility.yul\":12934:12969   */\n      swap1\n      pop\n        /* \"#utility.yul\":12906:12983   */\n    tag_246:\n        /* \"#utility.yul\":13009:13076   */\n      tag_247\n        /* \"#utility.yul\":13069:13075   */\n      dup6\n        /* \"#utility.yul\":13062:13067   */\n      dup3\n        /* \"#utility.yul\":13009:13076   */\n      tag_103\n      jump\t// in\n    tag_247:\n        /* \"#utility.yul\":13003:13007   */\n      dup7\n        /* \"#utility.yul\":12996:13077   */\n      sstore\n        /* \"#utility.yul\":12865:13087   */\n      pop\n        /* \"#utility.yul\":12200:13087   */\n      jump(tag_244)\n        /* \"#utility.yul\":12230:12848   */\n    tag_245:\n        /* \"#utility.yul\":12282:12286   */\n      0x1f\n        /* \"#utility.yul\":12278:12287   */\n      not\n        /* \"#utility.yul\":12270:12276   */\n      dup5\n        /* \"#utility.yul\":12266:12288   */\n      and\n        /* \"#utility.yul\":12316:12353   */\n      tag_248\n        /* \"#utility.yul\":12348:12352   */\n      dup7\n        /* \"#utility.yul\":12316:12353   */\n      tag_89\n      jump\t// in\n    tag_248:\n        /* \"#utility.yul\":12375:12376   */\n      0x00\n        /* \"#utility.yul\":12389:12597   */\n    tag_249:\n        /* \"#utility.yul\":12403:12410   */\n      dup3\n        /* \"#utility.yul\":12400:12401   */\n      dup2\n        /* \"#utility.yul\":12397:12411   */\n      lt\n        /* \"#utility.yul\":12389:12597   */\n      iszero\n      tag_251\n      jumpi\n        /* \"#utility.yul\":12482:12491   */\n      dup5\n        /* \"#utility.yul\":12477:12480   */\n      dup10\n        /* \"#utility.yul\":12473:12492   */\n      add\n        /* \"#utility.yul\":12467:12493   */\n      mload\n        /* \"#utility.yul\":12459:12465   */\n      dup3\n        /* \"#utility.yul\":12452:12494   */\n      sstore\n        /* \"#utility.yul\":12533:12534   */\n      0x01\n        /* \"#utility.yul\":12525:12531   */\n      dup3\n        /* \"#utility.yul\":12521:12535   */\n      add\n        /* \"#utility.yul\":12511:12535   */\n      swap2\n      pop\n        /* \"#utility.yul\":12580:12582   */\n      0x20\n        /* \"#utility.yul\":12569:12578   */\n      dup6\n        /* \"#utility.yul\":12565:12583   */\n      add\n        /* \"#utility.yul\":12552:12583   */\n      swap5\n      pop\n        /* \"#utility.yul\":12426:12430   */\n      0x20\n        /* \"#utility.yul\":12423:12424   */\n      dup2\n        /* \"#utility.yul\":12419:12431   */\n      add\n        /* \"#utility.yul\":12414:12431   */\n      swap1\n      pop\n        /* \"#utility.yul\":12389:12597   */\n      jump(tag_249)\n    tag_251:\n        /* \"#utility.yul\":12625:12631   */\n      dup7\n        /* \"#utility.yul\":12616:12623   */\n      dup4\n        /* \"#utility.yul\":12613:12632   */\n      lt\n        /* \"#utility.yul\":12610:12789   */\n      iszero\n      tag_252\n      jumpi\n        /* \"#utility.yul\":12683:12692   */\n      dup5\n        /* \"#utility.yul\":12678:12681   */\n      dup10\n        /* \"#utility.yul\":12674:12693   */\n      add\n        /* \"#utility.yul\":12668:12694   */\n      mload\n        /* \"#utility.yul\":12726:12774   */\n      tag_253\n        /* \"#utility.yul\":12768:12772   */\n      0x1f\n        /* \"#utility.yul\":12760:12766   */\n      dup10\n        /* \"#utility.yul\":12756:12773   */\n      and\n        /* \"#utility.yul\":12745:12754   */\n      dup3\n        /* \"#utility.yul\":12726:12774   */\n      tag_102\n      jump\t// in\n    tag_253:\n        /* \"#utility.yul\":12718:12724   */\n      dup4\n        /* \"#utility.yul\":12711:12775   */\n      sstore\n        /* \"#utility.yul\":12633:12789   */\n      pop\n        /* \"#utility.yul\":12610:12789   */\n    tag_252:\n        /* \"#utility.yul\":12835:12836   */\n      0x01\n        /* \"#utility.yul\":12831:12832   */\n      0x02\n        /* \"#utility.yul\":12823:12829   */\n      dup9\n        /* \"#utility.yul\":12819:12833   */\n      mul\n        /* \"#utility.yul\":12815:12837   */\n      add\n        /* \"#utility.yul\":12809:12813   */\n      dup9\n        /* \"#utility.yul\":12802:12838   */\n      sstore\n        /* \"#utility.yul\":12237:12848   */\n      pop\n      pop\n      pop\n        /* \"#utility.yul\":12200:13087   */\n    tag_244:\n      pop\n        /* \"#utility.yul\":11790:13093   */\n      pop\n      pop\n      pop\n        /* \"#utility.yul\":11698:13093   */\n      pop\n      pop\n      jump\t// out\n\n    auxdata: 0xa2646970667358221220272f5d0a760ac1e1acd9aa25d18e17c5763df9d3ce8dc78d725d7e104c1a70f664736f6c634300081a0033\n}\n",
				"bytecode": {
					"linkReferences": {},
					"object": "608060405260405180606001604052806040518060400160405280600681526020017f566564616e740000000000000000000000000000000000000000000000000000815250815260200161582681526020016040518060a0016040528060018152602001600281526020016003815260200160048152602001600581525081525060075f820151815f0190816100969190610361565b50602082015181600101556040820151816002019060056100b89291906100cc565b5050503480156100c6575f80fd5b50610430565b82600581019282156100fb579160200282015b828111156100fa5782518255916020019190600101906100df565b5b509050610108919061010c565b5090565b5b80821115610123575f815f90555060010161010d565b5090565b5f81519050919050565b7f4e487b71000000000000000000000000000000000000000000000000000000005f52604160045260245ffd5b7f4e487b71000000000000000000000000000000000000000000000000000000005f52602260045260245ffd5b5f60028204905060018216806101a257607f821691505b6020821081036101b5576101b461015e565b5b50919050565b5f819050815f5260205f209050919050565b5f6020601f8301049050919050565b5f82821b905092915050565b5f600883026102177fffffffffffffffffffffffffffffffffffffffffffffffffffffffffffffffff826101dc565b61022186836101dc565b95508019841693508086168417925050509392505050565b5f819050919050565b5f819050919050565b5f61026561026061025b84610239565b610242565b610239565b9050919050565b5f819050919050565b61027e8361024b565b61029261028a8261026c565b8484546101e8565b825550505050565b5f90565b6102a661029a565b6102b1818484610275565b505050565b5b818110156102d4576102c95f8261029e565b6001810190506102b7565b5050565b601f821115610319576102ea816101bb565b6102f3846101cd565b81016020851015610302578190505b61031661030e856101cd565b8301826102b6565b50505b505050565b5f82821c905092915050565b5f6103395f198460080261031e565b1980831691505092915050565b5f610351838361032a565b9150826002028217905092915050565b61036a82610127565b67ffffffffffffffff81111561038357610382610131565b5b61038d825461018b565b6103988282856102d8565b5f60209050601f8311600181146103c9575f84156103b7578287015190505b6103c18582610346565b865550610428565b601f1984166103d7866101bb565b5f5b828110156103fe578489015182556001820191506020850194506020810190506103d9565b8683101561041b5784890151610417601f89168261032a565b8355505b6001600288020188555050505b505050505050565b610a728061043d5f395ff3fe608060405234801561000f575f80fd5b506004361061004a575f3560e01c806322efe3b61461004e5780632fe0d0221461006e5780633b7d3ca61461008e578063c306742a146100aa575b5f80fd5b6100566100c6565b604051610065939291906104b2565b60405180910390f35b6100766101b4565b604051610085939291906104b2565b60405180910390f35b6100a860048036038101906100a39190610707565b61029f565b005b6100c460048036038101906100bf9190610707565b6102d5565b005b60605f6100d1610308565b60075f0160076001015460076002018280546100ec906107a0565b80601f0160208091040260200160405190810160405280929190818152602001828054610118906107a0565b80156101635780601f1061013a57610100808354040283529160200191610163565b820191905f5260205f20905b81548152906001019060200180831161014657829003601f168201915b50505050509250806005806020026040519081016040528092919082600580156101a2576020028201915b81548152602001906001019080831161018e575b50505050509050925092509250909192565b60605f6101bf610308565b5f80015f600101545f6002018280546101d7906107a0565b80601f0160208091040260200160405190810160405280929190818152602001828054610203906107a0565b801561024e5780601f106102255761010080835404028352916020019161024e565b820191905f5260205f20905b81548152906001019060200180831161023157829003601f168201915b505050505092508060058060200260405190810160405280929190826005801561028d576020028201915b815481526020019060010190808311610279575b50505050509050925092509250909192565b8260075f0190816102b0919061096d565b50816007600101819055508060076002019060056102cf92919061032a565b50505050565b825f800190816102e5919061096d565b50815f60010181905550805f60020190600561030292919061032a565b50505050565b6040518060a00160405280600590602082028036833780820191505090505090565b8260058101928215610359579160200282015b8281111561035857825182559160200191906001019061033d565b5b509050610366919061036a565b5090565b5b80821115610381575f815f90555060010161036b565b5090565b5f81519050919050565b5f82825260208201905092915050565b8281835e5f83830152505050565b5f601f19601f8301169050919050565b5f6103c782610385565b6103d1818561038f565b93506103e181856020860161039f565b6103ea816103ad565b840191505092915050565b5f819050919050565b610407816103f5565b82525050565b5f60059050919050565b5f81905092915050565b5f819050919050565b610433816103f5565b82525050565b5f610444838361042a565b60208301905092915050565b5f602082019050919050565b6104658161040d565b61046f8184610417565b925061047a82610421565b805f5b838110156104aa5781516104918782610439565b965061049c83610450565b92505060018101905061047d565b505050505050565b5f60e0820190508181035f8301526104ca81866103bd565b90506104d960208301856103fe565b6104e6604083018461045c565b949350505050565b5f604051905090565b5f80fd5b5f80fd5b5f80fd5b5f80fd5b7f4e487b71000000000000000000000000000000000000000000000000000000005f52604160045260245ffd5b61053d826103ad565b810181811067ffffffffffffffff8211171561055c5761055b610507565b5b80604052505050565b5f61056e6104ee565b905061057a8282610534565b919050565b5f67ffffffffffffffff82111561059957610598610507565b5b6105a2826103ad565b9050602081019050919050565b828183375f83830152505050565b5f6105cf6105ca8461057f565b610565565b9050828152602081018484840111156105eb576105ea610503565b5b6105f68482856105af565b509392505050565b5f82601f830112610612576106116104ff565b5b81356106228482602086016105bd565b91505092915050565b610634816103f5565b811461063e575f80fd5b50565b5f8135905061064f8161062b565b92915050565b5f67ffffffffffffffff82111561066f5761066e610507565b5b602082029050919050565b5f80fd5b5f61069061068b84610655565b610565565b905080602084028301858111156106aa576106a961067a565b5b835b818110156106d357806106bf8882610641565b8452602084019350506020810190506106ac565b5050509392505050565b5f82601f8301126106f1576106f06104ff565b5b60056106fe84828561067e565b91505092915050565b5f805f60e0848603121561071e5761071d6104f7565b5b5f84013567ffffffffffffffff81111561073b5761073a6104fb565b5b610747868287016105fe565b935050602061075886828701610641565b9250506040610769868287016106dd565b9150509250925092565b7f4e487b71000000000000000000000000000000000000000000000000000000005f52602260045260245ffd5b5f60028204905060018216806107b757607f821691505b6020821081036107ca576107c9610773565b5b50919050565b5f819050815f5260205f209050919050565b5f6020601f8301049050919050565b5f82821b905092915050565b5f6008830261082c7fffffffffffffffffffffffffffffffffffffffffffffffffffffffffffffffff826107f1565b61083686836107f1565b95508019841693508086168417925050509392505050565b5f819050919050565b5f61087161086c610867846103f5565b61084e565b6103f5565b9050919050565b5f819050919050565b61088a83610857565b61089e61089682610878565b8484546107fd565b825550505050565b5f90565b6108b26108a6565b6108bd818484610881565b505050565b5b818110156108e0576108d55f826108aa565b6001810190506108c3565b5050565b601f821115610925576108f6816107d0565b6108ff846107e2565b8101602085101561090e578190505b61092261091a856107e2565b8301826108c2565b50505b505050565b5f82821c905092915050565b5f6109455f198460080261092a565b1980831691505092915050565b5f61095d8383610936565b9150826002028217905092915050565b61097682610385565b67ffffffffffffffff81111561098f5761098e610507565b5b61099982546107a0565b6109a48282856108e4565b5f60209050601f8311600181146109d5575f84156109c3578287015190505b6109cd8582610952565b865550610a34565b601f1984166109e3866107d0565b5f5b82811015610a0a578489015182556001820191506020850194506020810190506109e5565b86831015610a275784890151610a23601f891682610936565b8355505b6001600288020188555050505b50505050505056fea2646970667358221220272f5d0a760ac1e1acd9aa25d18e17c5763df9d3ce8dc78d725d7e104c1a70f664736f6c634300081a0033",
					"opcodes": "PUSH1 0x80 PUSH1 0x40 MSTORE PUSH1 0x40 MLOAD DUP1 PUSH1 0x60 ADD PUSH1 0x40 MSTORE DUP1 PUSH1 0x40 MLOAD DUP1 PUSH1 0x40 ADD PUSH1 0x40 MSTORE DUP1 PUSH1 0x6 DUP2 MSTORE PUSH1 0x20 ADD PUSH32 0x566564616E740000000000000000000000000000000000000000000000000000 DUP2 MSTORE POP DUP2 MSTORE PUSH1 0x20 ADD PUSH2 0x5826 DUP2 MSTORE PUSH1 0x20 ADD PUSH1 0x40 MLOAD DUP1 PUSH1 0xA0 ADD PUSH1 0x40 MSTORE DUP1 PUSH1 0x1 DUP2 MSTORE PUSH1 0x20 ADD PUSH1 0x2 DUP2 MSTORE PUSH1 0x20 ADD PUSH1 0x3 DUP2 MSTORE PUSH1 0x20 ADD PUSH1 0x4 DUP2 MSTORE PUSH1 0x20 ADD PUSH1 0x5 DUP2 MSTORE POP DUP2 MSTORE POP PUSH1 0x7 PUSH0 DUP3 ADD MLOAD DUP2 PUSH0 ADD SWAP1 DUP2 PUSH2 0x96 SWAP2 SWAP1 PUSH2 0x361 JUMP JUMPDEST POP PUSH1 0x20 DUP3 ADD MLOAD DUP2 PUSH1 0x1 ADD SSTORE PUSH1 0x40 DUP3 ADD MLOAD DUP2 PUSH1 0x2 ADD SWAP1 PUSH1 0x5 PUSH2 0xB8 SWAP3 SWAP2 SWAP1 PUSH2 0xCC JUMP JUMPDEST POP POP POP CALLVALUE DUP1 ISZERO PUSH2 0xC6 JUMPI PUSH0 DUP1 REVERT JUMPDEST POP PUSH2 0x430 JUMP JUMPDEST DUP3 PUSH1 0x5 DUP2 ADD SWAP3 DUP3 ISZERO PUSH2 0xFB JUMPI SWAP2 PUSH1 0x20 MUL DUP3 ADD JUMPDEST DUP3 DUP2 GT ISZERO PUSH2 0xFA JUMPI DUP3 MLOAD DUP3 SSTORE SWAP2 PUSH1 0x20 ADD SWAP2 SWAP1 PUSH1 0x1 ADD SWAP1 PUSH2 0xDF JUMP JUMPDEST JUMPDEST POP SWAP1 POP PUSH2 0x108 SWAP2 SWAP1 PUSH2 0x10C JUMP JUMPDEST POP SWAP1 JUMP JUMPDEST JUMPDEST DUP1 DUP3 GT ISZERO PUSH2 0x123 JUMPI PUSH0 DUP2 PUSH0 SWAP1 SSTORE POP PUSH1 0x1 ADD PUSH2 0x10D JUMP JUMPDEST POP SWAP1 JUMP JUMPDEST PUSH0 DUP2 MLOAD SWAP1 POP SWAP2 SWAP1 POP JUMP JUMPDEST PUSH32 0x4E487B7100000000000000000000000000000000000000000000000000000000 PUSH0 MSTORE PUSH1 0x41 PUSH1 0x4 MSTORE PUSH1 0x24 PUSH0 REVERT JUMPDEST PUSH32 0x4E487B7100000000000000000000000000000000000000000000000000000000 PUSH0 MSTORE PUSH1 0x22 PUSH1 0x4 MSTORE PUSH1 0x24 PUSH0 REVERT JUMPDEST PUSH0 PUSH1 0x2 DUP3 DIV SWAP1 POP PUSH1 0x1 DUP3 AND DUP1 PUSH2 0x1A2 JUMPI PUSH1 0x7F DUP3 AND SWAP2 POP JUMPDEST PUSH1 0x20 DUP3 LT DUP2 SUB PUSH2 0x1B5 JUMPI PUSH2 0x1B4 PUSH2 0x15E JUMP JUMPDEST JUMPDEST POP SWAP2 SWAP1 POP JUMP JUMPDEST PUSH0 DUP2 SWAP1 POP DUP2 PUSH0 MSTORE PUSH1 0x20 PUSH0 KECCAK256 SWAP1 POP SWAP2 SWAP1 POP JUMP JUMPDEST PUSH0 PUSH1 0x20 PUSH1 0x1F DUP4 ADD DIV SWAP1 POP SWAP2 SWAP1 POP JUMP JUMPDEST PUSH0 DUP3 DUP3 SHL SWAP1 POP SWAP3 SWAP2 POP POP JUMP JUMPDEST PUSH0 PUSH1 0x8 DUP4 MUL PUSH2 0x217 PUSH32 0xFFFFFFFFFFFFFFFFFFFFFFFFFFFFFFFFFFFFFFFFFFFFFFFFFFFFFFFFFFFFFFFF DUP3 PUSH2 0x1DC JUMP JUMPDEST PUSH2 0x221 DUP7 DUP4 PUSH2 0x1DC JUMP JUMPDEST SWAP6 POP DUP1 NOT DUP5 AND SWAP4 POP DUP1 DUP7 AND DUP5 OR SWAP3 POP POP POP SWAP4 SWAP3 POP POP POP JUMP JUMPDEST PUSH0 DUP2 SWAP1 POP SWAP2 SWAP1 POP JUMP JUMPDEST PUSH0 DUP2 SWAP1 POP SWAP2 SWAP1 POP JUMP JUMPDEST PUSH0 PUSH2 0x265 PUSH2 0x260 PUSH2 0x25B DUP5 PUSH2 0x239 JUMP JUMPDEST PUSH2 0x242 JUMP JUMPDEST PUSH2 0x239 JUMP JUMPDEST SWAP1 POP SWAP2 SWAP1 POP JUMP JUMPDEST PUSH0 DUP2 SWAP1 POP SWAP2 SWAP1 POP JUMP JUMPDEST PUSH2 0x27E DUP4 PUSH2 0x24B JUMP JUMPDEST PUSH2 0x292 PUSH2 0x28A DUP3 PUSH2 0x26C JUMP JUMPDEST DUP5 DUP5 SLOAD PUSH2 0x1E8 JUMP JUMPDEST DUP3 SSTORE POP POP POP POP JUMP JUMPDEST PUSH0 SWAP1 JUMP JUMPDEST PUSH2 0x2A6 PUSH2 0x29A JUMP JUMPDEST PUSH2 0x2B1 DUP2 DUP5 DUP5 PUSH2 0x275 JUMP JUMPDEST POP POP POP JUMP JUMPDEST JUMPDEST DUP2 DUP2 LT ISZERO PUSH2 0x2D4 JUMPI PUSH2 0x2C9 PUSH0 DUP3 PUSH2 0x29E JUMP JUMPDEST PUSH1 0x1 DUP2 ADD SWAP1 POP PUSH2 0x2B7 JUMP JUMPDEST POP POP JUMP JUMPDEST PUSH1 0x1F DUP3 GT ISZERO PUSH2 0x319 JUMPI PUSH2 0x2EA DUP2 PUSH2 0x1BB JUMP JUMPDEST PUSH2 0x2F3 DUP5 PUSH2 0x1CD JUMP JUMPDEST DUP2 ADD PUSH1 0x20 DUP6 LT ISZERO PUSH2 0x302 JUMPI DUP2 SWAP1 POP JUMPDEST PUSH2 0x316 PUSH2 0x30E DUP6 PUSH2 0x1CD JUMP JUMPDEST DUP4 ADD DUP3 PUSH2 0x2B6 JUMP JUMPDEST POP POP JUMPDEST POP POP POP JUMP JUMPDEST PUSH0 DUP3 DUP3 SHR SWAP1 POP SWAP3 SWAP2 POP POP JUMP JUMPDEST PUSH0 PUSH2 0x339 PUSH0 NOT DUP5 PUSH1 0x8 MUL PUSH2 0x31E JUMP JUMPDEST NOT DUP1 DUP4 AND SWAP2 POP POP SWAP3 SWAP2 POP POP JUMP JUMPDEST PUSH0 PUSH2 0x351 DUP4 DUP4 PUSH2 0x32A JUMP JUMPDEST SWAP2 POP DUP3 PUSH1 0x2 MUL DUP3 OR SWAP1 POP SWAP3 SWAP2 POP POP JUMP JUMPDEST PUSH2 0x36A DUP3 PUSH2 0x127 JUMP JUMPDEST PUSH8 0xFFFFFFFFFFFFFFFF DUP2 GT ISZERO PUSH2 0x383 JUMPI PUSH2 0x382 PUSH2 0x131 JUMP JUMPDEST JUMPDEST PUSH2 0x38D DUP3 SLOAD PUSH2 0x18B JUMP JUMPDEST PUSH2 0x398 DUP3 DUP3 DUP6 PUSH2 0x2D8 JUMP JUMPDEST PUSH0 PUSH1 0x20 SWAP1 POP PUSH1 0x1F DUP4 GT PUSH1 0x1 DUP2 EQ PUSH2 0x3C9 JUMPI PUSH0 DUP5 ISZERO PUSH2 0x3B7 JUMPI DUP3 DUP8 ADD MLOAD SWAP1 POP JUMPDEST PUSH2 0x3C1 DUP6 DUP3 PUSH2 0x346 JUMP JUMPDEST DUP7 SSTORE POP PUSH2 0x428 JUMP JUMPDEST PUSH1 0x1F NOT DUP5 AND PUSH2 0x3D7 DUP7 PUSH2 0x1BB JUMP JUMPDEST PUSH0 JUMPDEST DUP3 DUP2 LT ISZERO PUSH2 0x3FE JUMPI DUP5 DUP10 ADD MLOAD DUP3 SSTORE PUSH1 0x1 DUP3 ADD SWAP2 POP PUSH1 0x20 DUP6 ADD SWAP5 POP PUSH1 0x20 DUP2 ADD SWAP1 POP PUSH2 0x3D9 JUMP JUMPDEST DUP7 DUP4 LT ISZERO PUSH2 0x41B JUMPI DUP5 DUP10 ADD MLOAD PUSH2 0x417 PUSH1 0x1F DUP10 AND DUP3 PUSH2 0x32A JUMP JUMPDEST DUP4 SSTORE POP JUMPDEST PUSH1 0x1 PUSH1 0x2 DUP9 MUL ADD DUP9 SSTORE POP POP POP JUMPDEST POP POP POP POP POP POP JUMP JUMPDEST PUSH2 0xA72 DUP1 PUSH2 0x43D PUSH0 CODECOPY PUSH0 RETURN INVALID PUSH1 0x80 PUSH1 0x40 MSTORE CALLVALUE DUP1 ISZERO PUSH2 0xF JUMPI PUSH0 DUP1 REVERT JUMPDEST POP PUSH1 0x4 CALLDATASIZE LT PUSH2 0x4A JUMPI PUSH0 CALLDATALOAD PUSH1 0xE0 SHR DUP1 PUSH4 0x22EFE3B6 EQ PUSH2 0x4E JUMPI DUP1 PUSH4 0x2FE0D022 EQ PUSH2 0x6E JUMPI DUP1 PUSH4 0x3B7D3CA6 EQ PUSH2 0x8E JUMPI DUP1 PUSH4 0xC306742A EQ PUSH2 0xAA JUMPI JUMPDEST PUSH0 DUP1 REVERT JUMPDEST PUSH2 0x56 PUSH2 0xC6 JUMP JUMPDEST PUSH1 0x40 MLOAD PUSH2 0x65 SWAP4 SWAP3 SWAP2 SWAP1 PUSH2 0x4B2 JUMP JUMPDEST PUSH1 0x40 MLOAD DUP1 SWAP2 SUB SWAP1 RETURN JUMPDEST PUSH2 0x76 PUSH2 0x1B4 JUMP JUMPDEST PUSH1 0x40 MLOAD PUSH2 0x85 SWAP4 SWAP3 SWAP2 SWAP1 PUSH2 0x4B2 JUMP JUMPDEST PUSH1 0x40 MLOAD DUP1 SWAP2 SUB SWAP1 RETURN JUMPDEST PUSH2 0xA8 PUSH1 0x4 DUP1 CALLDATASIZE SUB DUP2 ADD SWAP1 PUSH2 0xA3 SWAP2 SWAP1 PUSH2 0x707 JUMP JUMPDEST PUSH2 0x29F JUMP JUMPDEST STOP JUMPDEST PUSH2 0xC4 PUSH1 0x4 DUP1 CALLDATASIZE SUB DUP2 ADD SWAP1 PUSH2 0xBF SWAP2 SWAP1 PUSH2 0x707 JUMP JUMPDEST PUSH2 0x2D5 JUMP JUMPDEST STOP JUMPDEST PUSH1 0x60 PUSH0 PUSH2 0xD1 PUSH2 0x308 JUMP JUMPDEST PUSH1 0x7 PUSH0 ADD PUSH1 0x7 PUSH1 0x1 ADD SLOAD PUSH1 0x7 PUSH1 0x2 ADD DUP3 DUP1 SLOAD PUSH2 0xEC SWAP1 PUSH2 0x7A0 JUMP JUMPDEST DUP1 PUSH1 0x1F ADD PUSH1 0x20 DUP1 SWAP2 DIV MUL PUSH1 0x20 ADD PUSH1 0x40 MLOAD SWAP1 DUP2 ADD PUSH1 0x40 MSTORE DUP1 SWAP3 SWAP2 SWAP1 DUP2 DUP2 MSTORE PUSH1 0x20 ADD DUP3 DUP1 SLOAD PUSH2 0x118 SWAP1 PUSH2 0x7A0 JUMP JUMPDEST DUP1 ISZERO PUSH2 0x163 JUMPI DUP1 PUSH1 0x1F LT PUSH2 0x13A JUMPI PUSH2 0x100 DUP1 DUP4 SLOAD DIV MUL DUP4 MSTORE SWAP2 PUSH1 0x20 ADD SWAP2 PUSH2 0x163 JUMP JUMPDEST DUP3 ADD SWAP2 SWAP1 PUSH0 MSTORE PUSH1 0x20 PUSH0 KECCAK256 SWAP1 JUMPDEST DUP2 SLOAD DUP2 MSTORE SWAP1 PUSH1 0x1 ADD SWAP1 PUSH1 0x20 ADD DUP1 DUP4 GT PUSH2 0x146 JUMPI DUP3 SWAP1 SUB PUSH1 0x1F AND DUP3 ADD SWAP2 JUMPDEST POP POP POP POP POP SWAP3 POP DUP1 PUSH1 0x5 DUP1 PUSH1 0x20 MUL PUSH1 0x40 MLOAD SWAP1 DUP2 ADD PUSH1 0x40 MSTORE DUP1 SWAP3 SWAP2 SWAP1 DUP3 PUSH1 0x5 DUP1 ISZERO PUSH2 0x1A2 JUMPI PUSH1 0x20 MUL DUP3 ADD SWAP2 JUMPDEST DUP2 SLOAD DUP2 MSTORE PUSH1 0x20 ADD SWAP1 PUSH1 0x1 ADD SWAP1 DUP1 DUP4 GT PUSH2 0x18E JUMPI JUMPDEST POP POP POP POP POP SWAP1 POP SWAP3 POP SWAP3 POP SWAP3 POP SWAP1 SWAP2 SWAP3 JUMP JUMPDEST PUSH1 0x60 PUSH0 PUSH2 0x1BF PUSH2 0x308 JUMP JUMPDEST PUSH0 DUP1 ADD PUSH0 PUSH1 0x1 ADD SLOAD PUSH0 PUSH1 0x2 ADD DUP3 DUP1 SLOAD PUSH2 0x1D7 SWAP1 PUSH2 0x7A0 JUMP JUMPDEST DUP1 PUSH1 0x1F ADD PUSH1 0x20 DUP1 SWAP2 DIV MUL PUSH1 0x20 ADD PUSH1 0x40 MLOAD SWAP1 DUP2 ADD PUSH1 0x40 MSTORE DUP1 SWAP3 SWAP2 SWAP1 DUP2 DUP2 MSTORE PUSH1 0x20 ADD DUP3 DUP1 SLOAD PUSH2 0x203 SWAP1 PUSH2 0x7A0 JUMP JUMPDEST DUP1 ISZERO PUSH2 0x24E JUMPI DUP1 PUSH1 0x1F LT PUSH2 0x225 JUMPI PUSH2 0x100 DUP1 DUP4 SLOAD DIV MUL DUP4 MSTORE SWAP2 PUSH1 0x20 ADD SWAP2 PUSH2 0x24E JUMP JUMPDEST DUP3 ADD SWAP2 SWAP1 PUSH0 MSTORE PUSH1 0x20 PUSH0 KECCAK256 SWAP1 JUMPDEST DUP2 SLOAD DUP2 MSTORE SWAP1 PUSH1 0x1 ADD SWAP1 PUSH1 0x20 ADD DUP1 DUP4 GT PUSH2 0x231 JUMPI DUP3 SWAP1 SUB PUSH1 0x1F AND DUP3 ADD SWAP2 JUMPDEST POP POP POP POP POP SWAP3 POP DUP1 PUSH1 0x5 DUP1 PUSH1 0x20 MUL PUSH1 0x40 MLOAD SWAP1 DUP2 ADD PUSH1 0x40 MSTORE DUP1 SWAP3 SWAP2 SWAP1 DUP3 PUSH1 0x5 DUP1 ISZERO PUSH2 0x28D JUMPI PUSH1 0x20 MUL DUP3 ADD SWAP2 JUMPDEST DUP2 SLOAD DUP2 MSTORE PUSH1 0x20 ADD SWAP1 PUSH1 0x1 ADD SWAP1 DUP1 DUP4 GT PUSH2 0x279 JUMPI JUMPDEST POP POP POP POP POP SWAP1 POP SWAP3 POP SWAP3 POP SWAP3 POP SWAP1 SWAP2 SWAP3 JUMP JUMPDEST DUP3 PUSH1 0x7 PUSH0 ADD SWAP1 DUP2 PUSH2 0x2B0 SWAP2 SWAP1 PUSH2 0x96D JUMP JUMPDEST POP DUP2 PUSH1 0x7 PUSH1 0x1 ADD DUP2 SWAP1 SSTORE POP DUP1 PUSH1 0x7 PUSH1 0x2 ADD SWAP1 PUSH1 0x5 PUSH2 0x2CF SWAP3 SWAP2 SWAP1 PUSH2 0x32A JUMP JUMPDEST POP POP POP POP JUMP JUMPDEST DUP3 PUSH0 DUP1 ADD SWAP1 DUP2 PUSH2 0x2E5 SWAP2 SWAP1 PUSH2 0x96D JUMP JUMPDEST POP DUP2 PUSH0 PUSH1 0x1 ADD DUP2 SWAP1 SSTORE POP DUP1 PUSH0 PUSH1 0x2 ADD SWAP1 PUSH1 0x5 PUSH2 0x302 SWAP3 SWAP2 SWAP1 PUSH2 0x32A JUMP JUMPDEST POP POP POP POP JUMP JUMPDEST PUSH1 0x40 MLOAD DUP1 PUSH1 0xA0 ADD PUSH1 0x40 MSTORE DUP1 PUSH1 0x5 SWAP1 PUSH1 0x20 DUP3 MUL DUP1 CALLDATASIZE DUP4 CALLDATACOPY DUP1 DUP3 ADD SWAP2 POP POP SWAP1 POP POP SWAP1 JUMP JUMPDEST DUP3 PUSH1 0x5 DUP2 ADD SWAP3 DUP3 ISZERO PUSH2 0x359 JUMPI SWAP2 PUSH1 0x20 MUL DUP3 ADD JUMPDEST DUP3 DUP2 GT ISZERO PUSH2 0x358 JUMPI DUP3 MLOAD DUP3 SSTORE SWAP2 PUSH1 0x20 ADD SWAP2 SWAP1 PUSH1 0x1 ADD SWAP1 PUSH2 0x33D JUMP JUMPDEST JUMPDEST POP SWAP1 POP PUSH2 0x366 SWAP2 SWAP1 PUSH2 0x36A JUMP JUMPDEST POP SWAP1 JUMP JUMPDEST JUMPDEST DUP1 DUP3 GT ISZERO PUSH2 0x381 JUMPI PUSH0 DUP2 PUSH0 SWAP1 SSTORE POP PUSH1 0x1 ADD PUSH2 0x36B JUMP JUMPDEST POP SWAP1 JUMP JUMPDEST PUSH0 DUP2 MLOAD SWAP1 POP SWAP2 SWAP1 POP JUMP JUMPDEST PUSH0 DUP3 DUP3 MSTORE PUSH1 0x20 DUP3 ADD SWAP1 POP SWAP3 SWAP2 POP POP JUMP JUMPDEST DUP3 DUP2 DUP4 MCOPY PUSH0 DUP4 DUP4 ADD MSTORE POP POP POP JUMP JUMPDEST PUSH0 PUSH1 0x1F NOT PUSH1 0x1F DUP4 ADD AND SWAP1 POP SWAP2 SWAP1 POP JUMP JUMPDEST PUSH0 PUSH2 0x3C7 DUP3 PUSH2 0x385 JUMP JUMPDEST PUSH2 0x3D1 DUP2 DUP6 PUSH2 0x38F JUMP JUMPDEST SWAP4 POP PUSH2 0x3E1 DUP2 DUP6 PUSH1 0x20 DUP7 ADD PUSH2 0x39F JUMP JUMPDEST PUSH2 0x3EA DUP2 PUSH2 0x3AD JUMP JUMPDEST DUP5 ADD SWAP2 POP POP SWAP3 SWAP2 POP POP JUMP JUMPDEST PUSH0 DUP2 SWAP1 POP SWAP2 SWAP1 POP JUMP JUMPDEST PUSH2 0x407 DUP2 PUSH2 0x3F5 JUMP JUMPDEST DUP3 MSTORE POP POP JUMP JUMPDEST PUSH0 PUSH1 0x5 SWAP1 POP SWAP2 SWAP1 POP JUMP JUMPDEST PUSH0 DUP2 SWAP1 POP SWAP3 SWAP2 POP POP JUMP JUMPDEST PUSH0 DUP2 SWAP1 POP SWAP2 SWAP1 POP JUMP JUMPDEST PUSH2 0x433 DUP2 PUSH2 0x3F5 JUMP JUMPDEST DUP3 MSTORE POP POP JUMP JUMPDEST PUSH0 PUSH2 0x444 DUP4 DUP4 PUSH2 0x42A JUMP JUMPDEST PUSH1 0x20 DUP4 ADD SWAP1 POP SWAP3 SWAP2 POP POP JUMP JUMPDEST PUSH0 PUSH1 0x20 DUP3 ADD SWAP1 POP SWAP2 SWAP1 POP JUMP JUMPDEST PUSH2 0x465 DUP2 PUSH2 0x40D JUMP JUMPDEST PUSH2 0x46F DUP2 DUP5 PUSH2 0x417 JUMP JUMPDEST SWAP3 POP PUSH2 0x47A DUP3 PUSH2 0x421 JUMP JUMPDEST DUP1 PUSH0 JUMPDEST DUP4 DUP2 LT ISZERO PUSH2 0x4AA JUMPI DUP2 MLOAD PUSH2 0x491 DUP8 DUP3 PUSH2 0x439 JUMP JUMPDEST SWAP7 POP PUSH2 0x49C DUP4 PUSH2 0x450 JUMP JUMPDEST SWAP3 POP POP PUSH1 0x1 DUP2 ADD SWAP1 POP PUSH2 0x47D JUMP JUMPDEST POP POP POP POP POP POP JUMP JUMPDEST PUSH0 PUSH1 0xE0 DUP3 ADD SWAP1 POP DUP2 DUP2 SUB PUSH0 DUP4 ADD MSTORE PUSH2 0x4CA DUP2 DUP7 PUSH2 0x3BD JUMP JUMPDEST SWAP1 POP PUSH2 0x4D9 PUSH1 0x20 DUP4 ADD DUP6 PUSH2 0x3FE JUMP JUMPDEST PUSH2 0x4E6 PUSH1 0x40 DUP4 ADD DUP5 PUSH2 0x45C JUMP JUMPDEST SWAP5 SWAP4 POP POP POP POP JUMP JUMPDEST PUSH0 PUSH1 0x40 MLOAD SWAP1 POP SWAP1 JUMP JUMPDEST PUSH0 DUP1 REVERT JUMPDEST PUSH0 DUP1 REVERT JUMPDEST PUSH0 DUP1 REVERT JUMPDEST PUSH0 DUP1 REVERT JUMPDEST PUSH32 0x4E487B7100000000000000000000000000000000000000000000000000000000 PUSH0 MSTORE PUSH1 0x41 PUSH1 0x4 MSTORE PUSH1 0x24 PUSH0 REVERT JUMPDEST PUSH2 0x53D DUP3 PUSH2 0x3AD JUMP JUMPDEST DUP2 ADD DUP2 DUP2 LT PUSH8 0xFFFFFFFFFFFFFFFF DUP3 GT OR ISZERO PUSH2 0x55C JUMPI PUSH2 0x55B PUSH2 0x507 JUMP JUMPDEST JUMPDEST DUP1 PUSH1 0x40 MSTORE POP POP POP JUMP JUMPDEST PUSH0 PUSH2 0x56E PUSH2 0x4EE JUMP JUMPDEST SWAP1 POP PUSH2 0x57A DUP3 DUP3 PUSH2 0x534 JUMP JUMPDEST SWAP2 SWAP1 POP JUMP JUMPDEST PUSH0 PUSH8 0xFFFFFFFFFFFFFFFF DUP3 GT ISZERO PUSH2 0x599 JUMPI PUSH2 0x598 PUSH2 0x507 JUMP JUMPDEST JUMPDEST PUSH2 0x5A2 DUP3 PUSH2 0x3AD JUMP JUMPDEST SWAP1 POP PUSH1 0x20 DUP2 ADD SWAP1 POP SWAP2 SWAP1 POP JUMP JUMPDEST DUP3 DUP2 DUP4 CALLDATACOPY PUSH0 DUP4 DUP4 ADD MSTORE POP POP POP JUMP JUMPDEST PUSH0 PUSH2 0x5CF PUSH2 0x5CA DUP5 PUSH2 0x57F JUMP JUMPDEST PUSH2 0x565 JUMP JUMPDEST SWAP1 POP DUP3 DUP2 MSTORE PUSH1 0x20 DUP2 ADD DUP5 DUP5 DUP5 ADD GT ISZERO PUSH2 0x5EB JUMPI PUSH2 0x5EA PUSH2 0x503 JUMP JUMPDEST JUMPDEST PUSH2 0x5F6 DUP5 DUP3 DUP6 PUSH2 0x5AF JUMP JUMPDEST POP SWAP4 SWAP3 POP POP POP JUMP JUMPDEST PUSH0 DUP3 PUSH1 0x1F DUP4 ADD SLT PUSH2 0x612 JUMPI PUSH2 0x611 PUSH2 0x4FF JUMP JUMPDEST JUMPDEST DUP2 CALLDATALOAD PUSH2 0x622 DUP5 DUP3 PUSH1 0x20 DUP7 ADD PUSH2 0x5BD JUMP JUMPDEST SWAP2 POP POP SWAP3 SWAP2 POP POP JUMP JUMPDEST PUSH2 0x634 DUP2 PUSH2 0x3F5 JUMP JUMPDEST DUP2 EQ PUSH2 0x63E JUMPI PUSH0 DUP1 REVERT JUMPDEST POP JUMP JUMPDEST PUSH0 DUP2 CALLDATALOAD SWAP1 POP PUSH2 0x64F DUP2 PUSH2 0x62B JUMP JUMPDEST SWAP3 SWAP2 POP POP JUMP JUMPDEST PUSH0 PUSH8 0xFFFFFFFFFFFFFFFF DUP3 GT ISZERO PUSH2 0x66F JUMPI PUSH2 0x66E PUSH2 0x507 JUMP JUMPDEST JUMPDEST PUSH1 0x20 DUP3 MUL SWAP1 POP SWAP2 SWAP1 POP JUMP JUMPDEST PUSH0 DUP1 REVERT JUMPDEST PUSH0 PUSH2 0x690 PUSH2 0x68B DUP5 PUSH2 0x655 JUMP JUMPDEST PUSH2 0x565 JUMP JUMPDEST SWAP1 POP DUP1 PUSH1 0x20 DUP5 MUL DUP4 ADD DUP6 DUP2 GT ISZERO PUSH2 0x6AA JUMPI PUSH2 0x6A9 PUSH2 0x67A JUMP JUMPDEST JUMPDEST DUP4 JUMPDEST DUP2 DUP2 LT ISZERO PUSH2 0x6D3 JUMPI DUP1 PUSH2 0x6BF DUP9 DUP3 PUSH2 0x641 JUMP JUMPDEST DUP5 MSTORE PUSH1 0x20 DUP5 ADD SWAP4 POP POP PUSH1 0x20 DUP2 ADD SWAP1 POP PUSH2 0x6AC JUMP JUMPDEST POP POP POP SWAP4 SWAP3 POP POP POP JUMP JUMPDEST PUSH0 DUP3 PUSH1 0x1F DUP4 ADD SLT PUSH2 0x6F1 JUMPI PUSH2 0x6F0 PUSH2 0x4FF JUMP JUMPDEST JUMPDEST PUSH1 0x5 PUSH2 0x6FE DUP5 DUP3 DUP6 PUSH2 0x67E JUMP JUMPDEST SWAP2 POP POP SWAP3 SWAP2 POP POP JUMP JUMPDEST PUSH0 DUP1 PUSH0 PUSH1 0xE0 DUP5 DUP7 SUB SLT ISZERO PUSH2 0x71E JUMPI PUSH2 0x71D PUSH2 0x4F7 JUMP JUMPDEST JUMPDEST PUSH0 DUP5 ADD CALLDATALOAD PUSH8 0xFFFFFFFFFFFFFFFF DUP2 GT ISZERO PUSH2 0x73B JUMPI PUSH2 0x73A PUSH2 0x4FB JUMP JUMPDEST JUMPDEST PUSH2 0x747 DUP7 DUP3 DUP8 ADD PUSH2 0x5FE JUMP JUMPDEST SWAP4 POP POP PUSH1 0x20 PUSH2 0x758 DUP7 DUP3 DUP8 ADD PUSH2 0x641 JUMP JUMPDEST SWAP3 POP POP PUSH1 0x40 PUSH2 0x769 DUP7 DUP3 DUP8 ADD PUSH2 0x6DD JUMP JUMPDEST SWAP2 POP POP SWAP3 POP SWAP3 POP SWAP3 JUMP JUMPDEST PUSH32 0x4E487B7100000000000000000000000000000000000000000000000000000000 PUSH0 MSTORE PUSH1 0x22 PUSH1 0x4 MSTORE PUSH1 0x24 PUSH0 REVERT JUMPDEST PUSH0 PUSH1 0x2 DUP3 DIV SWAP1 POP PUSH1 0x1 DUP3 AND DUP1 PUSH2 0x7B7 JUMPI PUSH1 0x7F DUP3 AND SWAP2 POP JUMPDEST PUSH1 0x20 DUP3 LT DUP2 SUB PUSH2 0x7CA JUMPI PUSH2 0x7C9 PUSH2 0x773 JUMP JUMPDEST JUMPDEST POP SWAP2 SWAP1 POP JUMP JUMPDEST PUSH0 DUP2 SWAP1 POP DUP2 PUSH0 MSTORE PUSH1 0x20 PUSH0 KECCAK256 SWAP1 POP SWAP2 SWAP1 POP JUMP JUMPDEST PUSH0 PUSH1 0x20 PUSH1 0x1F DUP4 ADD DIV SWAP1 POP SWAP2 SWAP1 POP JUMP JUMPDEST PUSH0 DUP3 DUP3 SHL SWAP1 POP SWAP3 SWAP2 POP POP JUMP JUMPDEST PUSH0 PUSH1 0x8 DUP4 MUL PUSH2 0x82C PUSH32 0xFFFFFFFFFFFFFFFFFFFFFFFFFFFFFFFFFFFFFFFFFFFFFFFFFFFFFFFFFFFFFFFF DUP3 PUSH2 0x7F1 JUMP JUMPDEST PUSH2 0x836 DUP7 DUP4 PUSH2 0x7F1 JUMP JUMPDEST SWAP6 POP DUP1 NOT DUP5 AND SWAP4 POP DUP1 DUP7 AND DUP5 OR SWAP3 POP POP POP SWAP4 SWAP3 POP POP POP JUMP JUMPDEST PUSH0 DUP2 SWAP1 POP SWAP2 SWAP1 POP JUMP JUMPDEST PUSH0 PUSH2 0x871 PUSH2 0x86C PUSH2 0x867 DUP5 PUSH2 0x3F5 JUMP JUMPDEST PUSH2 0x84E JUMP JUMPDEST PUSH2 0x3F5 JUMP JUMPDEST SWAP1 POP SWAP2 SWAP1 POP JUMP JUMPDEST PUSH0 DUP2 SWAP1 POP SWAP2 SWAP1 POP JUMP JUMPDEST PUSH2 0x88A DUP4 PUSH2 0x857 JUMP JUMPDEST PUSH2 0x89E PUSH2 0x896 DUP3 PUSH2 0x878 JUMP JUMPDEST DUP5 DUP5 SLOAD PUSH2 0x7FD JUMP JUMPDEST DUP3 SSTORE POP POP POP POP JUMP JUMPDEST PUSH0 SWAP1 JUMP JUMPDEST PUSH2 0x8B2 PUSH2 0x8A6 JUMP JUMPDEST PUSH2 0x8BD DUP2 DUP5 DUP5 PUSH2 0x881 JUMP JUMPDEST POP POP POP JUMP JUMPDEST JUMPDEST DUP2 DUP2 LT ISZERO PUSH2 0x8E0 JUMPI PUSH2 0x8D5 PUSH0 DUP3 PUSH2 0x8AA JUMP JUMPDEST PUSH1 0x1 DUP2 ADD SWAP1 POP PUSH2 0x8C3 JUMP JUMPDEST POP POP JUMP JUMPDEST PUSH1 0x1F DUP3 GT ISZERO PUSH2 0x925 JUMPI PUSH2 0x8F6 DUP2 PUSH2 0x7D0 JUMP JUMPDEST PUSH2 0x8FF DUP5 PUSH2 0x7E2 JUMP JUMPDEST DUP2 ADD PUSH1 0x20 DUP6 LT ISZERO PUSH2 0x90E JUMPI DUP2 SWAP1 POP JUMPDEST PUSH2 0x922 PUSH2 0x91A DUP6 PUSH2 0x7E2 JUMP JUMPDEST DUP4 ADD DUP3 PUSH2 0x8C2 JUMP JUMPDEST POP POP JUMPDEST POP POP POP JUMP JUMPDEST PUSH0 DUP3 DUP3 SHR SWAP1 POP SWAP3 SWAP2 POP POP JUMP JUMPDEST PUSH0 PUSH2 0x945 PUSH0 NOT DUP5 PUSH1 0x8 MUL PUSH2 0x92A JUMP JUMPDEST NOT DUP1 DUP4 AND SWAP2 POP POP SWAP3 SWAP2 POP POP JUMP JUMPDEST PUSH0 PUSH2 0x95D DUP4 DUP4 PUSH2 0x936 JUMP JUMPDEST SWAP2 POP DUP3 PUSH1 0x2 MUL DUP3 OR SWAP1 POP SWAP3 SWAP2 POP POP JUMP JUMPDEST PUSH2 0x976 DUP3 PUSH2 0x385 JUMP JUMPDEST PUSH8 0xFFFFFFFFFFFFFFFF DUP2 GT ISZERO PUSH2 0x98F JUMPI PUSH2 0x98E PUSH2 0x507 JUMP JUMPDEST JUMPDEST PUSH2 0x999 DUP3 SLOAD PUSH2 0x7A0 JUMP JUMPDEST PUSH2 0x9A4 DUP3 DUP3 DUP6 PUSH2 0x8E4 JUMP JUMPDEST PUSH0 PUSH1 0x20 SWAP1 POP PUSH1 0x1F DUP4 GT PUSH1 0x1 DUP2 EQ PUSH2 0x9D5 JUMPI PUSH0 DUP5 ISZERO PUSH2 0x9C3 JUMPI DUP3 DUP8 ADD MLOAD SWAP1 POP JUMPDEST PUSH2 0x9CD DUP6 DUP3 PUSH2 0x952 JUMP JUMPDEST DUP7 SSTORE POP PUSH2 0xA34 JUMP JUMPDEST PUSH1 0x1F NOT DUP5 AND PUSH2 0x9E3 DUP7 PUSH2 0x7D0 JUMP JUMPDEST PUSH0 JUMPDEST DUP3 DUP2 LT ISZERO PUSH2 0xA0A JUMPI DUP5 DUP10 ADD MLOAD DUP3 SSTORE PUSH1 0x1 DUP3 ADD SWAP2 POP PUSH1 0x20 DUP6 ADD SWAP5 POP PUSH1 0x20 DUP2 ADD SWAP1 POP PUSH2 0x9E5 JUMP JUMPDEST DUP7 DUP4 LT ISZERO PUSH2 0xA27 JUMPI DUP5 DUP10 ADD MLOAD PUSH2 0xA23 PUSH1 0x1F DUP10 AND DUP3 PUSH2 0x936 JUMP JUMPDEST DUP4 SSTORE POP JUMPDEST PUSH1 0x1 PUSH1 0x2 DUP9 MUL ADD DUP9 SSTORE POP POP POP JUMPDEST POP POP POP POP POP POP JUMP INVALID LOG2 PUSH5 0x6970667358 0x22 SLT KECCAK256 0x27 0x2F TSTORE EXP PUSH23 0xAC1E1ACD9AA25D18E17C5763DF9D3CE8DC78D725D7E10 0x4C BYTE PUSH17 0xF664736F6C634300081A00330000000000 "
				},
				"gasEstimates": {
					"creation": {
						"codeDepositCost": "534800",
						"executionCost": "infinite",
						"totalCost": "infinite"
					},
					"external": {
						"getStudent1()": "infinite",
						"getStudent2()": "infinite",
						"setStudent1(string,uint256,uint256[5])": "infinite",
						"setStudent2(string,uint256,uint256[5])": "infinite"
					}
				},
				"methodIdentifiers": {
					"getStudent1()": "2fe0d022",
					"getStudent2()": "22efe3b6",
					"setStudent1(string,uint256,uint256[5])": "c306742a",
					"setStudent2(string,uint256,uint256[5])": "3b7d3ca6"
				}
			},
			"storageLayout": {
				"storage": [
					{
						"astId": 96,
						"contract": "contracts/13sep.sol:Student",
						"label": "s1",
						"offset": 0,
						"slot": "0",
						"type": "t_struct(stud)93_storage"
					},
					{
						"astId": 112,
						"contract": "contracts/13sep.sol:Student",
						"label": "s2",
						"offset": 0,
						"slot": "7",
						"type": "t_struct(stud)93_storage"
					}
				],
				"types": {
					"t_array(t_uint256)5_storage": {
						"base": "t_uint256",
						"encoding": "inplace",
						"label": "uint256[5]",
						"numberOfBytes": "160"
					},
					"t_string_storage": {
						"encoding": "bytes",
						"label": "string",
						"numberOfBytes": "32"
					},
					"t_struct(stud)93_storage": {
						"encoding": "inplace",
						"label": "struct Student.stud",
						"members": [
							{
								"astId": 86,
								"contract": "contracts/13sep.sol:Student",
								"label": "name",
								"offset": 0,
								"slot": "0",
								"type": "t_string_storage"
							},
							{
								"astId": 88,
								"contract": "contracts/13sep.sol:Student",
								"label": "id",
								"offset": 0,
								"slot": "1",
								"type": "t_uint256"
							},
							{
								"astId": 92,
								"contract": "contracts/13sep.sol:Student",
								"label": "marks",
								"offset": 0,
								"slot": "2",
								"type": "t_array(t_uint256)5_storage"
							}
						],
						"numberOfBytes": "224"
					},
					"t_uint256": {
						"encoding": "inplace",
						"label": "uint256",
						"numberOfBytes": "32"
					}
				}
			},
			"userdoc": {
				"kind": "user",
				"methods": {},
				"version": 1
			}
		}
	}
}