{
	"contracts/13sep.sol": {
		"LearningString": {
			"abi": [
				{
					"inputs": [
						{
							"internalType": "string",
							"name": "s",
							"type": "string"
						}
					],
					"name": "getLength",
					"outputs": [
						{
							"internalType": "uint256",
							"name": "",
							"type": "uint256"
						}
					],
					"stateMutability": "pure",
					"type": "function"
				},
				{
					"inputs": [],
					"name": "get_choice",
					"outputs": [
						{
							"internalType": "enum LearningString.week_days",
							"name": "",
							"type": "uint8"
						}
					],
					"stateMutability": "view",
					"type": "function"
				},
				{
					"inputs": [],
					"name": "set_val",
					"outputs": [],
					"stateMutability": "nonpayable",
					"type": "function"
				}
			],
			"devdoc": {
				"kind": "dev",
				"methods": {},
				"version": 1
			},
			"evm": {
				"assembly": "    /* \"contracts/13sep.sol\":59:541  contract LearningString {... */\n  mstore(0x40, 0x80)\n  callvalue\n  dup1\n  iszero\n  tag_1\n  jumpi\n  0x00\n  dup1\n  revert\ntag_1:\n  pop\n  dataSize(sub_0)\n  dup1\n  dataOffset(sub_0)\n  0x00\n  codecopy\n  0x00\n  return\nstop\n\nsub_0: assembly {\n        /* \"contracts/13sep.sol\":59:541  contract LearningString {... */\n      mstore(0x40, 0x80)\n      callvalue\n      dup1\n      iszero\n      tag_1\n      jumpi\n      0x00\n      dup1\n      revert\n    tag_1:\n      pop\n      jumpi(tag_2, lt(calldatasize, 0x04))\n      shr(0xe0, calldataload(0x00))\n      dup1\n      0x30e35f3a\n      eq\n      tag_3\n      jumpi\n      dup1\n      0x630f7035\n      eq\n      tag_4\n      jumpi\n      dup1\n      0x6981b5f4\n      eq\n      tag_5\n      jumpi\n    tag_2:\n      0x00\n      dup1\n      revert\n        /* \"contracts/13sep.sol\":241:309  function set_val() public {... */\n    tag_3:\n      tag_6\n      tag_7\n      jump\t// in\n    tag_6:\n      stop\n        /* \"contracts/13sep.sol\":315:399  function get_choice() public view returns (week_days){... */\n    tag_4:\n      tag_8\n      tag_9\n      jump\t// in\n    tag_8:\n      mload(0x40)\n      tag_10\n      swap2\n      swap1\n      tag_11\n      jump\t// in\n    tag_10:\n      mload(0x40)\n      dup1\n      swap2\n      sub\n      swap1\n      return\n        /* \"contracts/13sep.sol\":405:537  function getLength(string memory s) public pure returns (uint256){... */\n    tag_5:\n      tag_12\n      0x04\n      dup1\n      calldatasize\n      sub\n      dup2\n      add\n      swap1\n      tag_13\n      swap2\n      swap1\n      tag_14\n      jump\t// in\n    tag_13:\n      tag_15\n      jump\t// in\n    tag_12:\n      mload(0x40)\n      tag_16\n      swap2\n      swap1\n      tag_17\n      jump\t// in\n    tag_16:\n      mload(0x40)\n      dup1\n      swap2\n      sub\n      swap1\n      return\n        /* \"contracts/13sep.sol\":241:309  function set_val() public {... */\n    tag_7:\n        /* \"contracts/13sep.sol\":286:302  week_days.Monday */\n      0x00\n        /* \"contracts/13sep.sol\":277:283  choice */\n      dup1\n      0x01\n        /* \"contracts/13sep.sol\":277:302  choice = week_days.Monday */\n      0x0100\n      exp\n      dup2\n      sload\n      dup2\n      0xff\n      mul\n      not\n      and\n      swap1\n      dup4\n      0x02\n      dup2\n      gt\n      iszero\n      tag_19\n      jumpi\n      tag_20\n      tag_21\n      jump\t// in\n    tag_20:\n    tag_19:\n      mul\n      or\n      swap1\n      sstore\n      pop\n        /* \"contracts/13sep.sol\":241:309  function set_val() public {... */\n      jump\t// out\n        /* \"contracts/13sep.sol\":315:399  function get_choice() public view returns (week_days){... */\n    tag_9:\n        /* \"contracts/13sep.sol\":358:367  week_days */\n      0x00\n        /* \"contracts/13sep.sol\":386:392  choice */\n      dup1\n      0x01\n      swap1\n      sload\n      swap1\n      0x0100\n      exp\n      swap1\n      div\n      0xff\n      and\n        /* \"contracts/13sep.sol\":378:392  return  choice */\n      swap1\n      pop\n        /* \"contracts/13sep.sol\":315:399  function get_choice() public view returns (week_days){... */\n      swap1\n      jump\t// out\n        /* \"contracts/13sep.sol\":405:537  function getLength(string memory s) public pure returns (uint256){... */\n    tag_15:\n        /* \"contracts/13sep.sol\":462:469  uint256 */\n      0x00\n        /* \"contracts/13sep.sol\":480:494  bytes memory b */\n      dup1\n        /* \"contracts/13sep.sol\":503:504  s */\n      dup3\n        /* \"contracts/13sep.sol\":480:505  bytes memory b = bytes(s) */\n      swap1\n      pop\n        /* \"contracts/13sep.sol\":522:523  b */\n      dup1\n        /* \"contracts/13sep.sol\":522:530  b.length */\n      mload\n        /* \"contracts/13sep.sol\":515:530  return b.length */\n      swap2\n      pop\n      pop\n        /* \"contracts/13sep.sol\":405:537  function getLength(string memory s) public pure returns (uint256){... */\n      swap2\n      swap1\n      pop\n      jump\t// out\n        /* \"#utility.yul\":7:187   */\n    tag_21:\n        /* \"#utility.yul\":55:132   */\n      0x4e487b7100000000000000000000000000000000000000000000000000000000\n        /* \"#utility.yul\":52:53   */\n      0x00\n        /* \"#utility.yul\":45:133   */\n      mstore\n        /* \"#utility.yul\":152:156   */\n      0x21\n        /* \"#utility.yul\":149:150   */\n      0x04\n        /* \"#utility.yul\":142:157   */\n      mstore\n        /* \"#utility.yul\":176:180   */\n      0x24\n        /* \"#utility.yul\":173:174   */\n      0x00\n        /* \"#utility.yul\":166:181   */\n      revert\n        /* \"#utility.yul\":193:309   */\n    tag_24:\n        /* \"#utility.yul\":277:278   */\n      0x03\n        /* \"#utility.yul\":270:275   */\n      dup2\n        /* \"#utility.yul\":267:279   */\n      lt\n        /* \"#utility.yul\":257:303   */\n      tag_46\n      jumpi\n        /* \"#utility.yul\":283:301   */\n      tag_47\n      tag_21\n      jump\t// in\n    tag_47:\n        /* \"#utility.yul\":257:303   */\n    tag_46:\n        /* \"#utility.yul\":193:309   */\n      pop\n      jump\t// out\n        /* \"#utility.yul\":315:448   */\n    tag_25:\n        /* \"#utility.yul\":363:370   */\n      0x00\n        /* \"#utility.yul\":392:397   */\n      dup2\n        /* \"#utility.yul\":381:397   */\n      swap1\n      pop\n        /* \"#utility.yul\":398:442   */\n      tag_49\n        /* \"#utility.yul\":436:441   */\n      dup3\n        /* \"#utility.yul\":398:442   */\n      tag_24\n      jump\t// in\n    tag_49:\n        /* \"#utility.yul\":315:448   */\n      swap2\n      swap1\n      pop\n      jump\t// out\n        /* \"#utility.yul\":454:587   */\n    tag_26:\n        /* \"#utility.yul\":513:522   */\n      0x00\n        /* \"#utility.yul\":546:581   */\n      tag_51\n        /* \"#utility.yul\":575:580   */\n      dup3\n        /* \"#utility.yul\":546:581   */\n      tag_25\n      jump\t// in\n    tag_51:\n        /* \"#utility.yul\":533:581   */\n      swap1\n      pop\n        /* \"#utility.yul\":454:587   */\n      swap2\n      swap1\n      pop\n      jump\t// out\n        /* \"#utility.yul\":593:742   */\n    tag_27:\n        /* \"#utility.yul\":689:735   */\n      tag_53\n        /* \"#utility.yul\":729:734   */\n      dup2\n        /* \"#utility.yul\":689:735   */\n      tag_26\n      jump\t// in\n    tag_53:\n        /* \"#utility.yul\":684:687   */\n      dup3\n        /* \"#utility.yul\":677:736   */\n      mstore\n        /* \"#utility.yul\":593:742   */\n      pop\n      pop\n      jump\t// out\n        /* \"#utility.yul\":748:988   */\n    tag_11:\n        /* \"#utility.yul\":850:854   */\n      0x00\n        /* \"#utility.yul\":888:890   */\n      0x20\n        /* \"#utility.yul\":877:886   */\n      dup3\n        /* \"#utility.yul\":873:891   */\n      add\n        /* \"#utility.yul\":865:891   */\n      swap1\n      pop\n        /* \"#utility.yul\":901:981   */\n      tag_55\n        /* \"#utility.yul\":978:979   */\n      0x00\n        /* \"#utility.yul\":967:976   */\n      dup4\n        /* \"#utility.yul\":963:980   */\n      add\n        /* \"#utility.yul\":954:960   */\n      dup5\n        /* \"#utility.yul\":901:981   */\n      tag_27\n      jump\t// in\n    tag_55:\n        /* \"#utility.yul\":748:988   */\n      swap3\n      swap2\n      pop\n      pop\n      jump\t// out\n        /* \"#utility.yul\":994:1069   */\n    tag_28:\n        /* \"#utility.yul\":1027:1033   */\n      0x00\n        /* \"#utility.yul\":1060:1062   */\n      0x40\n        /* \"#utility.yul\":1054:1063   */\n      mload\n        /* \"#utility.yul\":1044:1063   */\n      swap1\n      pop\n        /* \"#utility.yul\":994:1069   */\n      swap1\n      jump\t// out\n        /* \"#utility.yul\":1075:1192   */\n    tag_29:\n        /* \"#utility.yul\":1184:1185   */\n      0x00\n        /* \"#utility.yul\":1181:1182   */\n      dup1\n        /* \"#utility.yul\":1174:1186   */\n      revert\n        /* \"#utility.yul\":1198:1315   */\n    tag_30:\n        /* \"#utility.yul\":1307:1308   */\n      0x00\n        /* \"#utility.yul\":1304:1305   */\n      dup1\n        /* \"#utility.yul\":1297:1309   */\n      revert\n        /* \"#utility.yul\":1321:1438   */\n    tag_31:\n        /* \"#utility.yul\":1430:1431   */\n      0x00\n        /* \"#utility.yul\":1427:1428   */\n      dup1\n        /* \"#utility.yul\":1420:1432   */\n      revert\n        /* \"#utility.yul\":1444:1561   */\n    tag_32:\n        /* \"#utility.yul\":1553:1554   */\n      0x00\n        /* \"#utility.yul\":1550:1551   */\n      dup1\n        /* \"#utility.yul\":1543:1555   */\n      revert\n        /* \"#utility.yul\":1567:1669   */\n    tag_33:\n        /* \"#utility.yul\":1608:1614   */\n      0x00\n        /* \"#utility.yul\":1659:1661   */\n      0x1f\n        /* \"#utility.yul\":1655:1662   */\n      not\n        /* \"#utility.yul\":1650:1652   */\n      0x1f\n        /* \"#utility.yul\":1643:1648   */\n      dup4\n        /* \"#utility.yul\":1639:1653   */\n      add\n        /* \"#utility.yul\":1635:1663   */\n      and\n        /* \"#utility.yul\":1625:1663   */\n      swap1\n      pop\n        /* \"#utility.yul\":1567:1669   */\n      swap2\n      swap1\n      pop\n      jump\t// out\n        /* \"#utility.yul\":1675:1855   */\n    tag_34:\n        /* \"#utility.yul\":1723:1800   */\n      0x4e487b7100000000000000000000000000000000000000000000000000000000\n        /* \"#utility.yul\":1720:1721   */\n      0x00\n        /* \"#utility.yul\":1713:1801   */\n      mstore\n        /* \"#utility.yul\":1820:1824   */\n      0x41\n        /* \"#utility.yul\":1817:1818   */\n      0x04\n        /* \"#utility.yul\":1810:1825   */\n      mstore\n        /* \"#utility.yul\":1844:1848   */\n      0x24\n        /* \"#utility.yul\":1841:1842   */\n      0x00\n        /* \"#utility.yul\":1834:1849   */\n      revert\n        /* \"#utility.yul\":1861:2142   */\n    tag_35:\n        /* \"#utility.yul\":1944:1971   */\n      tag_64\n        /* \"#utility.yul\":1966:1970   */\n      dup3\n        /* \"#utility.yul\":1944:1971   */\n      tag_33\n      jump\t// in\n    tag_64:\n        /* \"#utility.yul\":1936:1942   */\n      dup2\n        /* \"#utility.yul\":1932:1972   */\n      add\n        /* \"#utility.yul\":2074:2080   */\n      dup2\n        /* \"#utility.yul\":2062:2072   */\n      dup2\n        /* \"#utility.yul\":2059:2081   */\n      lt\n        /* \"#utility.yul\":2038:2056   */\n      0xffffffffffffffff\n        /* \"#utility.yul\":2026:2036   */\n      dup3\n        /* \"#utility.yul\":2023:2057   */\n      gt\n        /* \"#utility.yul\":2020:2082   */\n      or\n        /* \"#utility.yul\":2017:2105   */\n      iszero\n      tag_65\n      jumpi\n        /* \"#utility.yul\":2085:2103   */\n      tag_66\n      tag_34\n      jump\t// in\n    tag_66:\n        /* \"#utility.yul\":2017:2105   */\n    tag_65:\n        /* \"#utility.yul\":2125:2135   */\n      dup1\n        /* \"#utility.yul\":2121:2123   */\n      0x40\n        /* \"#utility.yul\":2114:2136   */\n      mstore\n        /* \"#utility.yul\":1904:2142   */\n      pop\n        /* \"#utility.yul\":1861:2142   */\n      pop\n      pop\n      jump\t// out\n        /* \"#utility.yul\":2148:2277   */\n    tag_36:\n        /* \"#utility.yul\":2182:2188   */\n      0x00\n        /* \"#utility.yul\":2209:2229   */\n      tag_68\n      tag_28\n      jump\t// in\n    tag_68:\n        /* \"#utility.yul\":2199:2229   */\n      swap1\n      pop\n        /* \"#utility.yul\":2238:2271   */\n      tag_69\n        /* \"#utility.yul\":2266:2270   */\n      dup3\n        /* \"#utility.yul\":2258:2264   */\n      dup3\n        /* \"#utility.yul\":2238:2271   */\n      tag_35\n      jump\t// in\n    tag_69:\n        /* \"#utility.yul\":2148:2277   */\n      swap2\n      swap1\n      pop\n      jump\t// out\n        /* \"#utility.yul\":2283:2591   */\n    tag_37:\n        /* \"#utility.yul\":2345:2349   */\n      0x00\n        /* \"#utility.yul\":2435:2453   */\n      0xffffffffffffffff\n        /* \"#utility.yul\":2427:2433   */\n      dup3\n        /* \"#utility.yul\":2424:2454   */\n      gt\n        /* \"#utility.yul\":2421:2477   */\n      iszero\n      tag_71\n      jumpi\n        /* \"#utility.yul\":2457:2475   */\n      tag_72\n      tag_34\n      jump\t// in\n    tag_72:\n        /* \"#utility.yul\":2421:2477   */\n    tag_71:\n        /* \"#utility.yul\":2495:2524   */\n      tag_73\n        /* \"#utility.yul\":2517:2523   */\n      dup3\n        /* \"#utility.yul\":2495:2524   */\n      tag_33\n      jump\t// in\n    tag_73:\n        /* \"#utility.yul\":2487:2524   */\n      swap1\n      pop\n        /* \"#utility.yul\":2579:2583   */\n      0x20\n        /* \"#utility.yul\":2573:2577   */\n      dup2\n        /* \"#utility.yul\":2569:2584   */\n      add\n        /* \"#utility.yul\":2561:2584   */\n      swap1\n      pop\n        /* \"#utility.yul\":2283:2591   */\n      swap2\n      swap1\n      pop\n      jump\t// out\n        /* \"#utility.yul\":2597:2745   */\n    tag_38:\n        /* \"#utility.yul\":2695:2701   */\n      dup3\n        /* \"#utility.yul\":2690:2693   */\n      dup2\n        /* \"#utility.yul\":2685:2688   */\n      dup4\n        /* \"#utility.yul\":2672:2702   */\n      calldatacopy\n        /* \"#utility.yul\":2736:2737   */\n      0x00\n        /* \"#utility.yul\":2727:2733   */\n      dup4\n        /* \"#utility.yul\":2722:2725   */\n      dup4\n        /* \"#utility.yul\":2718:2734   */\n      add\n        /* \"#utility.yul\":2711:2738   */\n      mstore\n        /* \"#utility.yul\":2597:2745   */\n      pop\n      pop\n      pop\n      jump\t// out\n        /* \"#utility.yul\":2751:3176   */\n    tag_39:\n        /* \"#utility.yul\":2829:2834   */\n      0x00\n        /* \"#utility.yul\":2854:2920   */\n      tag_76\n        /* \"#utility.yul\":2870:2919   */\n      tag_77\n        /* \"#utility.yul\":2912:2918   */\n      dup5\n        /* \"#utility.yul\":2870:2919   */\n      tag_37\n      jump\t// in\n    tag_77:\n        /* \"#utility.yul\":2854:2920   */\n      tag_36\n      jump\t// in\n    tag_76:\n        /* \"#utility.yul\":2845:2920   */\n      swap1\n      pop\n        /* \"#utility.yul\":2943:2949   */\n      dup3\n        /* \"#utility.yul\":2936:2941   */\n      dup2\n        /* \"#utility.yul\":2929:2950   */\n      mstore\n        /* \"#utility.yul\":2981:2985   */\n      0x20\n        /* \"#utility.yul\":2974:2979   */\n      dup2\n        /* \"#utility.yul\":2970:2986   */\n      add\n        /* \"#utility.yul\":3019:3022   */\n      dup5\n        /* \"#utility.yul\":3010:3016   */\n      dup5\n        /* \"#utility.yul\":3005:3008   */\n      dup5\n        /* \"#utility.yul\":3001:3017   */\n      add\n        /* \"#utility.yul\":2998:3023   */\n      gt\n        /* \"#utility.yul\":2995:3107   */\n      iszero\n      tag_78\n      jumpi\n        /* \"#utility.yul\":3026:3105   */\n      tag_79\n      tag_32\n      jump\t// in\n    tag_79:\n        /* \"#utility.yul\":2995:3107   */\n    tag_78:\n        /* \"#utility.yul\":3116:3170   */\n      tag_80\n        /* \"#utility.yul\":3163:3169   */\n      dup5\n        /* \"#utility.yul\":3158:3161   */\n      dup3\n        /* \"#utility.yul\":3153:3156   */\n      dup6\n        /* \"#utility.yul\":3116:3170   */\n      tag_38\n      jump\t// in\n    tag_80:\n        /* \"#utility.yul\":2835:3176   */\n      pop\n        /* \"#utility.yul\":2751:3176   */\n      swap4\n      swap3\n      pop\n      pop\n      pop\n      jump\t// out\n        /* \"#utility.yul\":3196:3536   */\n    tag_40:\n        /* \"#utility.yul\":3252:3257   */\n      0x00\n        /* \"#utility.yul\":3301:3304   */\n      dup3\n        /* \"#utility.yul\":3294:3298   */\n      0x1f\n        /* \"#utility.yul\":3286:3292   */\n      dup4\n        /* \"#utility.yul\":3282:3299   */\n      add\n        /* \"#utility.yul\":3278:3305   */\n      slt\n        /* \"#utility.yul\":3268:3390   */\n      tag_82\n      jumpi\n        /* \"#utility.yul\":3309:3388   */\n      tag_83\n      tag_31\n      jump\t// in\n    tag_83:\n        /* \"#utility.yul\":3268:3390   */\n    tag_82:\n        /* \"#utility.yul\":3426:3432   */\n      dup2\n        /* \"#utility.yul\":3413:3433   */\n      calldataload\n        /* \"#utility.yul\":3451:3530   */\n      tag_84\n        /* \"#utility.yul\":3526:3529   */\n      dup5\n        /* \"#utility.yul\":3518:3524   */\n      dup3\n        /* \"#utility.yul\":3511:3515   */\n      0x20\n        /* \"#utility.yul\":3503:3509   */\n      dup7\n        /* \"#utility.yul\":3499:3516   */\n      add\n        /* \"#utility.yul\":3451:3530   */\n      tag_39\n      jump\t// in\n    tag_84:\n        /* \"#utility.yul\":3442:3530   */\n      swap2\n      pop\n        /* \"#utility.yul\":3258:3536   */\n      pop\n        /* \"#utility.yul\":3196:3536   */\n      swap3\n      swap2\n      pop\n      pop\n      jump\t// out\n        /* \"#utility.yul\":3542:4051   */\n    tag_14:\n        /* \"#utility.yul\":3611:3617   */\n      0x00\n        /* \"#utility.yul\":3660:3662   */\n      0x20\n        /* \"#utility.yul\":3648:3657   */\n      dup3\n        /* \"#utility.yul\":3639:3646   */\n      dup5\n        /* \"#utility.yul\":3635:3658   */\n      sub\n        /* \"#utility.yul\":3631:3663   */\n      slt\n        /* \"#utility.yul\":3628:3747   */\n      iszero\n      tag_86\n      jumpi\n        /* \"#utility.yul\":3666:3745   */\n      tag_87\n      tag_29\n      jump\t// in\n    tag_87:\n        /* \"#utility.yul\":3628:3747   */\n    tag_86:\n        /* \"#utility.yul\":3814:3815   */\n      0x00\n        /* \"#utility.yul\":3803:3812   */\n      dup3\n        /* \"#utility.yul\":3799:3816   */\n      add\n        /* \"#utility.yul\":3786:3817   */\n      calldataload\n        /* \"#utility.yul\":3844:3862   */\n      0xffffffffffffffff\n        /* \"#utility.yul\":3836:3842   */\n      dup2\n        /* \"#utility.yul\":3833:3863   */\n      gt\n        /* \"#utility.yul\":3830:3947   */\n      iszero\n      tag_88\n      jumpi\n        /* \"#utility.yul\":3866:3945   */\n      tag_89\n      tag_30\n      jump\t// in\n    tag_89:\n        /* \"#utility.yul\":3830:3947   */\n    tag_88:\n        /* \"#utility.yul\":3971:4034   */\n      tag_90\n        /* \"#utility.yul\":4026:4033   */\n      dup5\n        /* \"#utility.yul\":4017:4023   */\n      dup3\n        /* \"#utility.yul\":4006:4015   */\n      dup6\n        /* \"#utility.yul\":4002:4024   */\n      add\n        /* \"#utility.yul\":3971:4034   */\n      tag_40\n      jump\t// in\n    tag_90:\n        /* \"#utility.yul\":3961:4034   */\n      swap2\n      pop\n        /* \"#utility.yul\":3757:4044   */\n      pop\n        /* \"#utility.yul\":3542:4051   */\n      swap3\n      swap2\n      pop\n      pop\n      jump\t// out\n        /* \"#utility.yul\":4057:4134   */\n    tag_41:\n        /* \"#utility.yul\":4094:4101   */\n      0x00\n        /* \"#utility.yul\":4123:4128   */\n      dup2\n        /* \"#utility.yul\":4112:4128   */\n      swap1\n      pop\n        /* \"#utility.yul\":4057:4134   */\n      swap2\n      swap1\n      pop\n      jump\t// out\n        /* \"#utility.yul\":4140:4258   */\n    tag_42:\n        /* \"#utility.yul\":4227:4251   */\n      tag_93\n        /* \"#utility.yul\":4245:4250   */\n      dup2\n        /* \"#utility.yul\":4227:4251   */\n      tag_41\n      jump\t// in\n    tag_93:\n        /* \"#utility.yul\":4222:4225   */\n      dup3\n        /* \"#utility.yul\":4215:4252   */\n      mstore\n        /* \"#utility.yul\":4140:4258   */\n      pop\n      pop\n      jump\t// out\n        /* \"#utility.yul\":4264:4486   */\n    tag_17:\n        /* \"#utility.yul\":4357:4361   */\n      0x00\n        /* \"#utility.yul\":4395:4397   */\n      0x20\n        /* \"#utility.yul\":4384:4393   */\n      dup3\n        /* \"#utility.yul\":4380:4398   */\n      add\n        /* \"#utility.yul\":4372:4398   */\n      swap1\n      pop\n        /* \"#utility.yul\":4408:4479   */\n      tag_95\n        /* \"#utility.yul\":4476:4477   */\n      0x00\n        /* \"#utility.yul\":4465:4474   */\n      dup4\n        /* \"#utility.yul\":4461:4478   */\n      add\n        /* \"#utility.yul\":4452:4458   */\n      dup5\n        /* \"#utility.yul\":4408:4479   */\n      tag_42\n      jump\t// in\n    tag_95:\n        /* \"#utility.yul\":4264:4486   */\n      swap3\n      swap2\n      pop\n      pop\n      jump\t// out\n\n    auxdata: 0xa26469706673582212200ec2c374aab0b72dfc158966b2910f87518b6221800439763ef73588cf7553c364736f6c634300081a0033\n}\n",
				"bytecode": {
					"linkReferences": {},
					"object": "6080604052348015600e575f80fd5b506103718061001c5f395ff3fe608060405234801561000f575f80fd5b506004361061003f575f3560e01c806330e35f3a14610043578063630f70351461004d5780636981b5f41461006b575b5f80fd5b61004b61009b565b005b6100556100c6565b604051610062919061015d565b60405180910390f35b610085600480360381019061008091906102c3565b6100db565b6040516100929190610322565b60405180910390f35b5f8060016101000a81548160ff021916908360028111156100bf576100be6100ea565b5b0217905550565b5f8060019054906101000a900460ff16905090565b5f808290508051915050919050565b7f4e487b71000000000000000000000000000000000000000000000000000000005f52602160045260245ffd5b60038110610128576101276100ea565b5b50565b5f81905061013882610117565b919050565b5f6101478261012b565b9050919050565b6101578161013d565b82525050565b5f6020820190506101705f83018461014e565b92915050565b5f604051905090565b5f80fd5b5f80fd5b5f80fd5b5f80fd5b5f601f19601f8301169050919050565b7f4e487b71000000000000000000000000000000000000000000000000000000005f52604160045260245ffd5b6101d58261018f565b810181811067ffffffffffffffff821117156101f4576101f361019f565b5b80604052505050565b5f610206610176565b905061021282826101cc565b919050565b5f67ffffffffffffffff8211156102315761023061019f565b5b61023a8261018f565b9050602081019050919050565b828183375f83830152505050565b5f61026761026284610217565b6101fd565b9050828152602081018484840111156102835761028261018b565b5b61028e848285610247565b509392505050565b5f82601f8301126102aa576102a9610187565b5b81356102ba848260208601610255565b91505092915050565b5f602082840312156102d8576102d761017f565b5b5f82013567ffffffffffffffff8111156102f5576102f4610183565b5b61030184828501610296565b91505092915050565b5f819050919050565b61031c8161030a565b82525050565b5f6020820190506103355f830184610313565b9291505056fea26469706673582212200ec2c374aab0b72dfc158966b2910f87518b6221800439763ef73588cf7553c364736f6c634300081a0033",
					"opcodes": "PUSH1 0x80 PUSH1 0x40 MSTORE CALLVALUE DUP1 ISZERO PUSH1 0xE JUMPI PUSH0 DUP1 REVERT JUMPDEST POP PUSH2 0x371 DUP1 PUSH2 0x1C PUSH0 CODECOPY PUSH0 RETURN INVALID PUSH1 0x80 PUSH1 0x40 MSTORE CALLVALUE DUP1 ISZERO PUSH2 0xF JUMPI PUSH0 DUP1 REVERT JUMPDEST POP PUSH1 0x4 CALLDATASIZE LT PUSH2 0x3F JUMPI PUSH0 CALLDATALOAD PUSH1 0xE0 SHR DUP1 PUSH4 0x30E35F3A EQ PUSH2 0x43 JUMPI DUP1 PUSH4 0x630F7035 EQ PUSH2 0x4D JUMPI DUP1 PUSH4 0x6981B5F4 EQ PUSH2 0x6B JUMPI JUMPDEST PUSH0 DUP1 REVERT JUMPDEST PUSH2 0x4B PUSH2 0x9B JUMP JUMPDEST STOP JUMPDEST PUSH2 0x55 PUSH2 0xC6 JUMP JUMPDEST PUSH1 0x40 MLOAD PUSH2 0x62 SWAP2 SWAP1 PUSH2 0x15D JUMP JUMPDEST PUSH1 0x40 MLOAD DUP1 SWAP2 SUB SWAP1 RETURN JUMPDEST PUSH2 0x85 PUSH1 0x4 DUP1 CALLDATASIZE SUB DUP2 ADD SWAP1 PUSH2 0x80 SWAP2 SWAP1 PUSH2 0x2C3 JUMP JUMPDEST PUSH2 0xDB JUMP JUMPDEST PUSH1 0x40 MLOAD PUSH2 0x92 SWAP2 SWAP1 PUSH2 0x322 JUMP JUMPDEST PUSH1 0x40 MLOAD DUP1 SWAP2 SUB SWAP1 RETURN JUMPDEST PUSH0 DUP1 PUSH1 0x1 PUSH2 0x100 EXP DUP2 SLOAD DUP2 PUSH1 0xFF MUL NOT AND SWAP1 DUP4 PUSH1 0x2 DUP2 GT ISZERO PUSH2 0xBF JUMPI PUSH2 0xBE PUSH2 0xEA JUMP JUMPDEST JUMPDEST MUL OR SWAP1 SSTORE POP JUMP JUMPDEST PUSH0 DUP1 PUSH1 0x1 SWAP1 SLOAD SWAP1 PUSH2 0x100 EXP SWAP1 DIV PUSH1 0xFF AND SWAP1 POP SWAP1 JUMP JUMPDEST PUSH0 DUP1 DUP3 SWAP1 POP DUP1 MLOAD SWAP2 POP POP SWAP2 SWAP1 POP JUMP JUMPDEST PUSH32 0x4E487B7100000000000000000000000000000000000000000000000000000000 PUSH0 MSTORE PUSH1 0x21 PUSH1 0x4 MSTORE PUSH1 0x24 PUSH0 REVERT JUMPDEST PUSH1 0x3 DUP2 LT PUSH2 0x128 JUMPI PUSH2 0x127 PUSH2 0xEA JUMP JUMPDEST JUMPDEST POP JUMP JUMPDEST PUSH0 DUP2 SWAP1 POP PUSH2 0x138 DUP3 PUSH2 0x117 JUMP JUMPDEST SWAP2 SWAP1 POP JUMP JUMPDEST PUSH0 PUSH2 0x147 DUP3 PUSH2 0x12B JUMP JUMPDEST SWAP1 POP SWAP2 SWAP1 POP JUMP JUMPDEST PUSH2 0x157 DUP2 PUSH2 0x13D JUMP JUMPDEST DUP3 MSTORE POP POP JUMP JUMPDEST PUSH0 PUSH1 0x20 DUP3 ADD SWAP1 POP PUSH2 0x170 PUSH0 DUP4 ADD DUP5 PUSH2 0x14E JUMP JUMPDEST SWAP3 SWAP2 POP POP JUMP JUMPDEST PUSH0 PUSH1 0x40 MLOAD SWAP1 POP SWAP1 JUMP JUMPDEST PUSH0 DUP1 REVERT JUMPDEST PUSH0 DUP1 REVERT JUMPDEST PUSH0 DUP1 REVERT JUMPDEST PUSH0 DUP1 REVERT JUMPDEST PUSH0 PUSH1 0x1F NOT PUSH1 0x1F DUP4 ADD AND SWAP1 POP SWAP2 SWAP1 POP JUMP JUMPDEST PUSH32 0x4E487B7100000000000000000000000000000000000000000000000000000000 PUSH0 MSTORE PUSH1 0x41 PUSH1 0x4 MSTORE PUSH1 0x24 PUSH0 REVERT JUMPDEST PUSH2 0x1D5 DUP3 PUSH2 0x18F JUMP JUMPDEST DUP2 ADD DUP2 DUP2 LT PUSH8 0xFFFFFFFFFFFFFFFF DUP3 GT OR ISZERO PUSH2 0x1F4 JUMPI PUSH2 0x1F3 PUSH2 0x19F JUMP JUMPDEST JUMPDEST DUP1 PUSH1 0x40 MSTORE POP POP POP JUMP JUMPDEST PUSH0 PUSH2 0x206 PUSH2 0x176 JUMP JUMPDEST SWAP1 POP PUSH2 0x212 DUP3 DUP3 PUSH2 0x1CC JUMP JUMPDEST SWAP2 SWAP1 POP JUMP JUMPDEST PUSH0 PUSH8 0xFFFFFFFFFFFFFFFF DUP3 GT ISZERO PUSH2 0x231 JUMPI PUSH2 0x230 PUSH2 0x19F JUMP JUMPDEST JUMPDEST PUSH2 0x23A DUP3 PUSH2 0x18F JUMP JUMPDEST SWAP1 POP PUSH1 0x20 DUP2 ADD SWAP1 POP SWAP2 SWAP1 POP JUMP JUMPDEST DUP3 DUP2 DUP4 CALLDATACOPY PUSH0 DUP4 DUP4 ADD MSTORE POP POP POP JUMP JUMPDEST PUSH0 PUSH2 0x267 PUSH2 0x262 DUP5 PUSH2 0x217 JUMP JUMPDEST PUSH2 0x1FD JUMP JUMPDEST SWAP1 POP DUP3 DUP2 MSTORE PUSH1 0x20 DUP2 ADD DUP5 DUP5 DUP5 ADD GT ISZERO PUSH2 0x283 JUMPI PUSH2 0x282 PUSH2 0x18B JUMP JUMPDEST JUMPDEST PUSH2 0x28E DUP5 DUP3 DUP6 PUSH2 0x247 JUMP JUMPDEST POP SWAP4 SWAP3 POP POP POP JUMP JUMPDEST PUSH0 DUP3 PUSH1 0x1F DUP4 ADD SLT PUSH2 0x2AA JUMPI PUSH2 0x2A9 PUSH2 0x187 JUMP JUMPDEST JUMPDEST DUP2 CALLDATALOAD PUSH2 0x2BA DUP5 DUP3 PUSH1 0x20 DUP7 ADD PUSH2 0x255 JUMP JUMPDEST SWAP2 POP POP SWAP3 SWAP2 POP POP JUMP JUMPDEST PUSH0 PUSH1 0x20 DUP3 DUP5 SUB SLT ISZERO PUSH2 0x2D8 JUMPI PUSH2 0x2D7 PUSH2 0x17F JUMP JUMPDEST JUMPDEST PUSH0 DUP3 ADD CALLDATALOAD PUSH8 0xFFFFFFFFFFFFFFFF DUP2 GT ISZERO PUSH2 0x2F5 JUMPI PUSH2 0x2F4 PUSH2 0x183 JUMP JUMPDEST JUMPDEST PUSH2 0x301 DUP5 DUP3 DUP6 ADD PUSH2 0x296 JUMP JUMPDEST SWAP2 POP POP SWAP3 SWAP2 POP POP JUMP JUMPDEST PUSH0 DUP2 SWAP1 POP SWAP2 SWAP1 POP JUMP JUMPDEST PUSH2 0x31C DUP2 PUSH2 0x30A JUMP JUMPDEST DUP3 MSTORE POP POP JUMP JUMPDEST PUSH0 PUSH1 0x20 DUP3 ADD SWAP1 POP PUSH2 0x335 PUSH0 DUP4 ADD DUP5 PUSH2 0x313 JUMP JUMPDEST SWAP3 SWAP2 POP POP JUMP INVALID LOG2 PUSH5 0x6970667358 0x22 SLT KECCAK256 0xE 0xC2 0xC3 PUSH21 0xAAB0B72DFC158966B2910F87518B6221800439763E 0xF7 CALLDATALOAD DUP9 0xCF PUSH22 0x53C364736F6C634300081A0033000000000000000000 "
				},
				"gasEstimates": {
					"creation": {
						"codeDepositCost": "176200",
						"executionCost": "218",
						"totalCost": "176418"
					},
					"external": {
						"getLength(string)": "infinite",
						"get_choice()": "2612",
						"set_val()": "24457"
					}
				},
				"methodIdentifiers": {
					"getLength(string)": "6981b5f4",
					"get_choice()": "630f7035",
					"set_val()": "30e35f3a"
				}
			},
			"storageLayout": {
				"storage": [
					{
						"astId": 8,
						"contract": "contracts/13sep.sol:LearningString",
						"label": "week",
						"offset": 0,
						"slot": "0",
						"type": "t_enum(week_days)5"
					},
					{
						"astId": 11,
						"contract": "contracts/13sep.sol:LearningString",
						"label": "choice",
						"offset": 1,
						"slot": "0",
						"type": "t_enum(week_days)5"
					}
				],
				"types": {
					"t_enum(week_days)5": {
						"encoding": "inplace",
						"label": "enum LearningString.week_days",
						"numberOfBytes": "1"
					}
				}
			},
			"userdoc": {
				"kind": "user",
				"methods": {},
				"version": 1
			}
		}
	}
}