{
	"contracts/Hello.sol": {
		"Base": {
			"abi": [
				{
					"inputs": [],
					"name": "logic",
					"outputs": [
						{
							"internalType": "bool",
							"name": "",
							"type": "bool"
						},
						{
							"internalType": "bool",
							"name": "",
							"type": "bool"
						},
						{
							"internalType": "bool",
							"name": "",
							"type": "bool"
						},
						{
							"internalType": "bool",
							"name": "",
							"type": "bool"
						}
					],
					"stateMutability": "view",
					"type": "function"
				},
				{
					"inputs": [],
					"name": "maths",
					"outputs": [
						{
							"internalType": "uint256",
							"name": "",
							"type": "uint256"
						},
						{
							"internalType": "uint256",
							"name": "",
							"type": "uint256"
						},
						{
							"internalType": "uint256",
							"name": "",
							"type": "uint256"
						},
						{
							"internalType": "uint256",
							"name": "",
							"type": "uint256"
						},
						{
							"internalType": "uint256",
							"name": "",
							"type": "uint256"
						}
					],
					"stateMutability": "view",
					"type": "function"
				},
				{
					"inputs": [],
					"name": "publicVar",
					"outputs": [
						{
							"internalType": "uint256",
							"name": "",
							"type": "uint256"
						}
					],
					"stateMutability": "view",
					"type": "function"
				}
			],
			"devdoc": {
				"kind": "dev",
				"methods": {},
				"version": 1
			},
			"evm": {
				"assembly": "    /* \"contracts/Hello.sol\":258:1015  contract Base {... */\n  mstore(0x40, 0x80)\n    /* \"contracts/Hello.sol\":302:304  20 */\n  0x14\n    /* \"contracts/Hello.sol\":278:304  uint public publicVar = 20 */\n  0x00\n  sstore\n    /* \"contracts/Hello.sol\":336:338  10 */\n  0x0a\n    /* \"contracts/Hello.sol\":310:338  uint private privateVar = 10 */\n  0x01\n  sstore\n    /* \"contracts/Hello.sol\":372:373  5 */\n  0x05\n    /* \"contracts/Hello.sol\":344:373  uint internal internalVar = 5 */\n  0x02\n  sstore\n    /* \"contracts/Hello.sol\":258:1015  contract Base {... */\n  callvalue\n  dup1\n  iszero\n  tag_1\n  jumpi\n  0x00\n  dup1\n  revert\ntag_1:\n  pop\n  dataSize(sub_0)\n  dup1\n  dataOffset(sub_0)\n  0x00\n  codecopy\n  0x00\n  return\nstop\n\nsub_0: assembly {\n        /* \"contracts/Hello.sol\":258:1015  contract Base {... */\n      mstore(0x40, 0x80)\n      callvalue\n      dup1\n      iszero\n      tag_1\n      jumpi\n      0x00\n      dup1\n      revert\n    tag_1:\n      pop\n      jumpi(tag_2, lt(calldatasize, 0x04))\n      shr(0xe0, calldataload(0x00))\n      dup1\n      0x07b3b40e\n      eq\n      tag_3\n      jumpi\n      dup1\n      0x1151fad8\n      eq\n      tag_4\n      jumpi\n      dup1\n      0xd7dfa0dd\n      eq\n      tag_5\n      jumpi\n    tag_2:\n      0x00\n      dup1\n      revert\n        /* \"contracts/Hello.sol\":401:732  function maths() public view returns(uint, uint, uint, uint, uint){... */\n    tag_3:\n      tag_6\n      tag_7\n      jump\t// in\n    tag_6:\n      mload(0x40)\n      tag_8\n      swap6\n      swap5\n      swap4\n      swap3\n      swap2\n      swap1\n      tag_9\n      jump\t// in\n    tag_8:\n      mload(0x40)\n      dup1\n      swap2\n      sub\n      swap1\n      return\n        /* \"contracts/Hello.sol\":278:304  uint public publicVar = 20 */\n    tag_4:\n      tag_10\n      tag_11\n      jump\t// in\n    tag_10:\n      mload(0x40)\n      tag_12\n      swap2\n      swap1\n      tag_13\n      jump\t// in\n    tag_12:\n      mload(0x40)\n      dup1\n      swap2\n      sub\n      swap1\n      return\n        /* \"contracts/Hello.sol\":739:1011  function logic() public view returns(bool, bool, bool, bool){... */\n    tag_5:\n      tag_14\n      tag_15\n      jump\t// in\n    tag_14:\n      mload(0x40)\n      tag_16\n      swap5\n      swap4\n      swap3\n      swap2\n      swap1\n      tag_17\n      jump\t// in\n    tag_16:\n      mload(0x40)\n      dup1\n      swap2\n      sub\n      swap1\n      return\n        /* \"contracts/Hello.sol\":401:732  function maths() public view returns(uint, uint, uint, uint, uint){... */\n    tag_7:\n        /* \"contracts/Hello.sol\":438:442  uint */\n      0x00\n        /* \"contracts/Hello.sol\":444:448  uint */\n      dup1\n        /* \"contracts/Hello.sol\":450:454  uint */\n      0x00\n        /* \"contracts/Hello.sol\":456:460  uint */\n      dup1\n        /* \"contracts/Hello.sol\":462:466  uint */\n      0x00\n        /* \"contracts/Hello.sol\":477:485  uint add */\n      dup1\n        /* \"contracts/Hello.sol\":500:510  privateVar */\n      sload(0x01)\n        /* \"contracts/Hello.sol\":488:497  publicVar */\n      sload(0x00)\n        /* \"contracts/Hello.sol\":488:510  publicVar + privateVar */\n      tag_19\n      swap2\n      swap1\n      tag_20\n      jump\t// in\n    tag_19:\n        /* \"contracts/Hello.sol\":477:510  uint add = publicVar + privateVar */\n      swap1\n      pop\n        /* \"contracts/Hello.sol\":520:528  uint sub */\n      0x00\n        /* \"contracts/Hello.sol\":543:553  privateVar */\n      sload(0x01)\n        /* \"contracts/Hello.sol\":531:540  publicVar */\n      sload(0x00)\n        /* \"contracts/Hello.sol\":531:553  publicVar - privateVar */\n      tag_21\n      swap2\n      swap1\n      tag_22\n      jump\t// in\n    tag_21:\n        /* \"contracts/Hello.sol\":520:553  uint sub = publicVar - privateVar */\n      swap1\n      pop\n        /* \"contracts/Hello.sol\":563:571  uint mul */\n      0x00\n        /* \"contracts/Hello.sol\":586:596  privateVar */\n      sload(0x01)\n        /* \"contracts/Hello.sol\":574:583  publicVar */\n      sload(0x00)\n        /* \"contracts/Hello.sol\":574:596  publicVar - privateVar */\n      tag_23\n      swap2\n      swap1\n      tag_22\n      jump\t// in\n    tag_23:\n        /* \"contracts/Hello.sol\":563:596  uint mul = publicVar - privateVar */\n      swap1\n      pop\n        /* \"contracts/Hello.sol\":606:614  uint div */\n      0x00\n        /* \"contracts/Hello.sol\":629:639  privateVar */\n      sload(0x01)\n        /* \"contracts/Hello.sol\":617:626  publicVar */\n      sload(0x00)\n        /* \"contracts/Hello.sol\":617:639  publicVar / privateVar */\n      tag_24\n      swap2\n      swap1\n      tag_25\n      jump\t// in\n    tag_24:\n        /* \"contracts/Hello.sol\":606:639  uint div = publicVar / privateVar */\n      swap1\n      pop\n        /* \"contracts/Hello.sol\":649:657  uint mod */\n      0x00\n        /* \"contracts/Hello.sol\":672:682  privateVar */\n      sload(0x01)\n        /* \"contracts/Hello.sol\":660:669  publicVar */\n      sload(0x00)\n        /* \"contracts/Hello.sol\":660:682  publicVar % privateVar */\n      tag_26\n      swap2\n      swap1\n      tag_27\n      jump\t// in\n    tag_26:\n        /* \"contracts/Hello.sol\":649:682  uint mod = publicVar % privateVar */\n      swap1\n      pop\n        /* \"contracts/Hello.sol\":701:704  add */\n      dup5\n        /* \"contracts/Hello.sol\":706:709  sub */\n      dup5\n        /* \"contracts/Hello.sol\":711:714  mul */\n      dup5\n        /* \"contracts/Hello.sol\":716:719  div */\n      dup5\n        /* \"contracts/Hello.sol\":721:724  mod */\n      dup5\n        /* \"contracts/Hello.sol\":693:725  return (add, sub, mul, div, mod) */\n      swap10\n      pop\n      swap10\n      pop\n      swap10\n      pop\n      swap10\n      pop\n      swap10\n      pop\n      pop\n      pop\n      pop\n      pop\n      pop\n        /* \"contracts/Hello.sol\":401:732  function maths() public view returns(uint, uint, uint, uint, uint){... */\n      swap1\n      swap2\n      swap3\n      swap4\n      swap5\n      jump\t// out\n        /* \"contracts/Hello.sol\":278:304  uint public publicVar = 20 */\n    tag_11:\n      sload(0x00)\n      dup2\n      jump\t// out\n        /* \"contracts/Hello.sol\":739:1011  function logic() public view returns(bool, bool, bool, bool){... */\n    tag_15:\n        /* \"contracts/Hello.sol\":776:780  bool */\n      0x00\n        /* \"contracts/Hello.sol\":782:786  bool */\n      dup1\n        /* \"contracts/Hello.sol\":788:792  bool */\n      0x00\n        /* \"contracts/Hello.sol\":794:798  bool */\n      dup1\n        /* \"contracts/Hello.sol\":809:816  bool eq */\n      0x00\n        /* \"contracts/Hello.sol\":832:842  privateVar */\n      sload(0x01)\n        /* \"contracts/Hello.sol\":819:828  publicVar */\n      sload(0x00)\n        /* \"contracts/Hello.sol\":819:842  publicVar == privateVar */\n      eq\n        /* \"contracts/Hello.sol\":809:842  bool eq = publicVar == privateVar */\n      swap1\n      pop\n        /* \"contracts/Hello.sol\":852:860  bool not */\n      0x00\n        /* \"contracts/Hello.sol\":876:886  privateVar */\n      sload(0x01)\n        /* \"contracts/Hello.sol\":863:872  publicVar */\n      sload(0x00)\n        /* \"contracts/Hello.sol\":863:886  publicVar != privateVar */\n      eq\n      iszero\n        /* \"contracts/Hello.sol\":852:886  bool not = publicVar != privateVar */\n      swap1\n      pop\n        /* \"contracts/Hello.sol\":896:903  bool gt */\n      0x00\n        /* \"contracts/Hello.sol\":918:928  privateVar */\n      sload(0x01)\n        /* \"contracts/Hello.sol\":906:915  publicVar */\n      sload(0x00)\n        /* \"contracts/Hello.sol\":906:928  publicVar > privateVar */\n      gt\n        /* \"contracts/Hello.sol\":896:928  bool gt = publicVar > privateVar */\n      swap1\n      pop\n        /* \"contracts/Hello.sol\":938:945  bool ls */\n      0x00\n        /* \"contracts/Hello.sol\":960:970  privateVar */\n      sload(0x01)\n        /* \"contracts/Hello.sol\":948:957  publicVar */\n      sload(0x00)\n        /* \"contracts/Hello.sol\":948:970  publicVar < privateVar */\n      lt\n        /* \"contracts/Hello.sol\":938:970  bool ls = publicVar < privateVar */\n      swap1\n      pop\n        /* \"contracts/Hello.sol\":988:990  eq */\n      dup4\n        /* \"contracts/Hello.sol\":992:995  not */\n      dup4\n        /* \"contracts/Hello.sol\":997:999  gt */\n      dup4\n        /* \"contracts/Hello.sol\":1001:1003  ls */\n      dup4\n        /* \"contracts/Hello.sol\":980:1004  return (eq, not, gt, ls) */\n      swap8\n      pop\n      swap8\n      pop\n      swap8\n      pop\n      swap8\n      pop\n      pop\n      pop\n      pop\n      pop\n        /* \"contracts/Hello.sol\":739:1011  function logic() public view returns(bool, bool, bool, bool){... */\n      swap1\n      swap2\n      swap3\n      swap4\n      jump\t// out\n        /* \"#utility.yul\":7:84   */\n    tag_29:\n        /* \"#utility.yul\":44:51   */\n      0x00\n        /* \"#utility.yul\":73:78   */\n      dup2\n        /* \"#utility.yul\":62:78   */\n      swap1\n      pop\n        /* \"#utility.yul\":7:84   */\n      swap2\n      swap1\n      pop\n      jump\t// out\n        /* \"#utility.yul\":90:208   */\n    tag_30:\n        /* \"#utility.yul\":177:201   */\n      tag_38\n        /* \"#utility.yul\":195:200   */\n      dup2\n        /* \"#utility.yul\":177:201   */\n      tag_29\n      jump\t// in\n    tag_38:\n        /* \"#utility.yul\":172:175   */\n      dup3\n        /* \"#utility.yul\":165:202   */\n      mstore\n        /* \"#utility.yul\":90:208   */\n      pop\n      pop\n      jump\t// out\n        /* \"#utility.yul\":214:878   */\n    tag_9:\n        /* \"#utility.yul\":419:423   */\n      0x00\n        /* \"#utility.yul\":457:460   */\n      0xa0\n        /* \"#utility.yul\":446:455   */\n      dup3\n        /* \"#utility.yul\":442:461   */\n      add\n        /* \"#utility.yul\":434:461   */\n      swap1\n      pop\n        /* \"#utility.yul\":471:542   */\n      tag_40\n        /* \"#utility.yul\":539:540   */\n      0x00\n        /* \"#utility.yul\":528:537   */\n      dup4\n        /* \"#utility.yul\":524:541   */\n      add\n        /* \"#utility.yul\":515:521   */\n      dup9\n        /* \"#utility.yul\":471:542   */\n      tag_30\n      jump\t// in\n    tag_40:\n        /* \"#utility.yul\":552:624   */\n      tag_41\n        /* \"#utility.yul\":620:622   */\n      0x20\n        /* \"#utility.yul\":609:618   */\n      dup4\n        /* \"#utility.yul\":605:623   */\n      add\n        /* \"#utility.yul\":596:602   */\n      dup8\n        /* \"#utility.yul\":552:624   */\n      tag_30\n      jump\t// in\n    tag_41:\n        /* \"#utility.yul\":634:706   */\n      tag_42\n        /* \"#utility.yul\":702:704   */\n      0x40\n        /* \"#utility.yul\":691:700   */\n      dup4\n        /* \"#utility.yul\":687:705   */\n      add\n        /* \"#utility.yul\":678:684   */\n      dup7\n        /* \"#utility.yul\":634:706   */\n      tag_30\n      jump\t// in\n    tag_42:\n        /* \"#utility.yul\":716:788   */\n      tag_43\n        /* \"#utility.yul\":784:786   */\n      0x60\n        /* \"#utility.yul\":773:782   */\n      dup4\n        /* \"#utility.yul\":769:787   */\n      add\n        /* \"#utility.yul\":760:766   */\n      dup6\n        /* \"#utility.yul\":716:788   */\n      tag_30\n      jump\t// in\n    tag_43:\n        /* \"#utility.yul\":798:871   */\n      tag_44\n        /* \"#utility.yul\":866:869   */\n      0x80\n        /* \"#utility.yul\":855:864   */\n      dup4\n        /* \"#utility.yul\":851:870   */\n      add\n        /* \"#utility.yul\":842:848   */\n      dup5\n        /* \"#utility.yul\":798:871   */\n      tag_30\n      jump\t// in\n    tag_44:\n        /* \"#utility.yul\":214:878   */\n      swap7\n      swap6\n      pop\n      pop\n      pop\n      pop\n      pop\n      pop\n      jump\t// out\n        /* \"#utility.yul\":884:1106   */\n    tag_13:\n        /* \"#utility.yul\":977:981   */\n      0x00\n        /* \"#utility.yul\":1015:1017   */\n      0x20\n        /* \"#utility.yul\":1004:1013   */\n      dup3\n        /* \"#utility.yul\":1000:1018   */\n      add\n        /* \"#utility.yul\":992:1018   */\n      swap1\n      pop\n        /* \"#utility.yul\":1028:1099   */\n      tag_46\n        /* \"#utility.yul\":1096:1097   */\n      0x00\n        /* \"#utility.yul\":1085:1094   */\n      dup4\n        /* \"#utility.yul\":1081:1098   */\n      add\n        /* \"#utility.yul\":1072:1078   */\n      dup5\n        /* \"#utility.yul\":1028:1099   */\n      tag_30\n      jump\t// in\n    tag_46:\n        /* \"#utility.yul\":884:1106   */\n      swap3\n      swap2\n      pop\n      pop\n      jump\t// out\n        /* \"#utility.yul\":1112:1202   */\n    tag_31:\n        /* \"#utility.yul\":1146:1153   */\n      0x00\n        /* \"#utility.yul\":1189:1194   */\n      dup2\n        /* \"#utility.yul\":1182:1195   */\n      iszero\n        /* \"#utility.yul\":1175:1196   */\n      iszero\n        /* \"#utility.yul\":1164:1196   */\n      swap1\n      pop\n        /* \"#utility.yul\":1112:1202   */\n      swap2\n      swap1\n      pop\n      jump\t// out\n        /* \"#utility.yul\":1208:1317   */\n    tag_32:\n        /* \"#utility.yul\":1289:1310   */\n      tag_49\n        /* \"#utility.yul\":1304:1309   */\n      dup2\n        /* \"#utility.yul\":1289:1310   */\n      tag_31\n      jump\t// in\n    tag_49:\n        /* \"#utility.yul\":1284:1287   */\n      dup3\n        /* \"#utility.yul\":1277:1311   */\n      mstore\n        /* \"#utility.yul\":1208:1317   */\n      pop\n      pop\n      jump\t// out\n        /* \"#utility.yul\":1323:1828   */\n    tag_17:\n        /* \"#utility.yul\":1476:1480   */\n      0x00\n        /* \"#utility.yul\":1514:1517   */\n      0x80\n        /* \"#utility.yul\":1503:1512   */\n      dup3\n        /* \"#utility.yul\":1499:1518   */\n      add\n        /* \"#utility.yul\":1491:1518   */\n      swap1\n      pop\n        /* \"#utility.yul\":1528:1593   */\n      tag_51\n        /* \"#utility.yul\":1590:1591   */\n      0x00\n        /* \"#utility.yul\":1579:1588   */\n      dup4\n        /* \"#utility.yul\":1575:1592   */\n      add\n        /* \"#utility.yul\":1566:1572   */\n      dup8\n        /* \"#utility.yul\":1528:1593   */\n      tag_32\n      jump\t// in\n    tag_51:\n        /* \"#utility.yul\":1603:1669   */\n      tag_52\n        /* \"#utility.yul\":1665:1667   */\n      0x20\n        /* \"#utility.yul\":1654:1663   */\n      dup4\n        /* \"#utility.yul\":1650:1668   */\n      add\n        /* \"#utility.yul\":1641:1647   */\n      dup7\n        /* \"#utility.yul\":1603:1669   */\n      tag_32\n      jump\t// in\n    tag_52:\n        /* \"#utility.yul\":1679:1745   */\n      tag_53\n        /* \"#utility.yul\":1741:1743   */\n      0x40\n        /* \"#utility.yul\":1730:1739   */\n      dup4\n        /* \"#utility.yul\":1726:1744   */\n      add\n        /* \"#utility.yul\":1717:1723   */\n      dup6\n        /* \"#utility.yul\":1679:1745   */\n      tag_32\n      jump\t// in\n    tag_53:\n        /* \"#utility.yul\":1755:1821   */\n      tag_54\n        /* \"#utility.yul\":1817:1819   */\n      0x60\n        /* \"#utility.yul\":1806:1815   */\n      dup4\n        /* \"#utility.yul\":1802:1820   */\n      add\n        /* \"#utility.yul\":1793:1799   */\n      dup5\n        /* \"#utility.yul\":1755:1821   */\n      tag_32\n      jump\t// in\n    tag_54:\n        /* \"#utility.yul\":1323:1828   */\n      swap6\n      swap5\n      pop\n      pop\n      pop\n      pop\n      pop\n      jump\t// out\n        /* \"#utility.yul\":1834:2014   */\n    tag_33:\n        /* \"#utility.yul\":1882:1959   */\n      0x4e487b7100000000000000000000000000000000000000000000000000000000\n        /* \"#utility.yul\":1879:1880   */\n      0x00\n        /* \"#utility.yul\":1872:1960   */\n      mstore\n        /* \"#utility.yul\":1979:1983   */\n      0x11\n        /* \"#utility.yul\":1976:1977   */\n      0x04\n        /* \"#utility.yul\":1969:1984   */\n      mstore\n        /* \"#utility.yul\":2003:2007   */\n      0x24\n        /* \"#utility.yul\":2000:2001   */\n      0x00\n        /* \"#utility.yul\":1993:2008   */\n      revert\n        /* \"#utility.yul\":2020:2211   */\n    tag_20:\n        /* \"#utility.yul\":2060:2063   */\n      0x00\n        /* \"#utility.yul\":2079:2099   */\n      tag_57\n        /* \"#utility.yul\":2097:2098   */\n      dup3\n        /* \"#utility.yul\":2079:2099   */\n      tag_29\n      jump\t// in\n    tag_57:\n        /* \"#utility.yul\":2074:2099   */\n      swap2\n      pop\n        /* \"#utility.yul\":2113:2133   */\n      tag_58\n        /* \"#utility.yul\":2131:2132   */\n      dup4\n        /* \"#utility.yul\":2113:2133   */\n      tag_29\n      jump\t// in\n    tag_58:\n        /* \"#utility.yul\":2108:2133   */\n      swap3\n      pop\n        /* \"#utility.yul\":2156:2157   */\n      dup3\n        /* \"#utility.yul\":2153:2154   */\n      dup3\n        /* \"#utility.yul\":2149:2158   */\n      add\n        /* \"#utility.yul\":2142:2158   */\n      swap1\n      pop\n        /* \"#utility.yul\":2177:2180   */\n      dup1\n        /* \"#utility.yul\":2174:2175   */\n      dup3\n        /* \"#utility.yul\":2171:2181   */\n      gt\n        /* \"#utility.yul\":2168:2204   */\n      iszero\n      tag_59\n      jumpi\n        /* \"#utility.yul\":2184:2202   */\n      tag_60\n      tag_33\n      jump\t// in\n    tag_60:\n        /* \"#utility.yul\":2168:2204   */\n    tag_59:\n        /* \"#utility.yul\":2020:2211   */\n      swap3\n      swap2\n      pop\n      pop\n      jump\t// out\n        /* \"#utility.yul\":2217:2411   */\n    tag_22:\n        /* \"#utility.yul\":2257:2261   */\n      0x00\n        /* \"#utility.yul\":2277:2297   */\n      tag_62\n        /* \"#utility.yul\":2295:2296   */\n      dup3\n        /* \"#utility.yul\":2277:2297   */\n      tag_29\n      jump\t// in\n    tag_62:\n        /* \"#utility.yul\":2272:2297   */\n      swap2\n      pop\n        /* \"#utility.yul\":2311:2331   */\n      tag_63\n        /* \"#utility.yul\":2329:2330   */\n      dup4\n        /* \"#utility.yul\":2311:2331   */\n      tag_29\n      jump\t// in\n    tag_63:\n        /* \"#utility.yul\":2306:2331   */\n      swap3\n      pop\n        /* \"#utility.yul\":2355:2356   */\n      dup3\n        /* \"#utility.yul\":2352:2353   */\n      dup3\n        /* \"#utility.yul\":2348:2357   */\n      sub\n        /* \"#utility.yul\":2340:2357   */\n      swap1\n      pop\n        /* \"#utility.yul\":2379:2380   */\n      dup2\n        /* \"#utility.yul\":2373:2377   */\n      dup2\n        /* \"#utility.yul\":2370:2381   */\n      gt\n        /* \"#utility.yul\":2367:2404   */\n      iszero\n      tag_64\n      jumpi\n        /* \"#utility.yul\":2384:2402   */\n      tag_65\n      tag_33\n      jump\t// in\n    tag_65:\n        /* \"#utility.yul\":2367:2404   */\n    tag_64:\n        /* \"#utility.yul\":2217:2411   */\n      swap3\n      swap2\n      pop\n      pop\n      jump\t// out\n        /* \"#utility.yul\":2417:2597   */\n    tag_34:\n        /* \"#utility.yul\":2465:2542   */\n      0x4e487b7100000000000000000000000000000000000000000000000000000000\n        /* \"#utility.yul\":2462:2463   */\n      0x00\n        /* \"#utility.yul\":2455:2543   */\n      mstore\n        /* \"#utility.yul\":2562:2566   */\n      0x12\n        /* \"#utility.yul\":2559:2560   */\n      0x04\n        /* \"#utility.yul\":2552:2567   */\n      mstore\n        /* \"#utility.yul\":2586:2590   */\n      0x24\n        /* \"#utility.yul\":2583:2584   */\n      0x00\n        /* \"#utility.yul\":2576:2591   */\n      revert\n        /* \"#utility.yul\":2603:2788   */\n    tag_25:\n        /* \"#utility.yul\":2643:2644   */\n      0x00\n        /* \"#utility.yul\":2660:2680   */\n      tag_68\n        /* \"#utility.yul\":2678:2679   */\n      dup3\n        /* \"#utility.yul\":2660:2680   */\n      tag_29\n      jump\t// in\n    tag_68:\n        /* \"#utility.yul\":2655:2680   */\n      swap2\n      pop\n        /* \"#utility.yul\":2694:2714   */\n      tag_69\n        /* \"#utility.yul\":2712:2713   */\n      dup4\n        /* \"#utility.yul\":2694:2714   */\n      tag_29\n      jump\t// in\n    tag_69:\n        /* \"#utility.yul\":2689:2714   */\n      swap3\n      pop\n        /* \"#utility.yul\":2733:2734   */\n      dup3\n        /* \"#utility.yul\":2723:2758   */\n      tag_70\n      jumpi\n        /* \"#utility.yul\":2738:2756   */\n      tag_71\n      tag_34\n      jump\t// in\n    tag_71:\n        /* \"#utility.yul\":2723:2758   */\n    tag_70:\n        /* \"#utility.yul\":2780:2781   */\n      dup3\n        /* \"#utility.yul\":2777:2778   */\n      dup3\n        /* \"#utility.yul\":2773:2782   */\n      div\n        /* \"#utility.yul\":2768:2782   */\n      swap1\n      pop\n        /* \"#utility.yul\":2603:2788   */\n      swap3\n      swap2\n      pop\n      pop\n      jump\t// out\n        /* \"#utility.yul\":2794:2970   */\n    tag_27:\n        /* \"#utility.yul\":2826:2827   */\n      0x00\n        /* \"#utility.yul\":2843:2863   */\n      tag_73\n        /* \"#utility.yul\":2861:2862   */\n      dup3\n        /* \"#utility.yul\":2843:2863   */\n      tag_29\n      jump\t// in\n    tag_73:\n        /* \"#utility.yul\":2838:2863   */\n      swap2\n      pop\n        /* \"#utility.yul\":2877:2897   */\n      tag_74\n        /* \"#utility.yul\":2895:2896   */\n      dup4\n        /* \"#utility.yul\":2877:2897   */\n      tag_29\n      jump\t// in\n    tag_74:\n        /* \"#utility.yul\":2872:2897   */\n      swap3\n      pop\n        /* \"#utility.yul\":2916:2917   */\n      dup3\n        /* \"#utility.yul\":2906:2941   */\n      tag_75\n      jumpi\n        /* \"#utility.yul\":2921:2939   */\n      tag_76\n      tag_34\n      jump\t// in\n    tag_76:\n        /* \"#utility.yul\":2906:2941   */\n    tag_75:\n        /* \"#utility.yul\":2962:2963   */\n      dup3\n        /* \"#utility.yul\":2959:2960   */\n      dup3\n        /* \"#utility.yul\":2955:2964   */\n      mod\n        /* \"#utility.yul\":2950:2964   */\n      swap1\n      pop\n        /* \"#utility.yul\":2794:2970   */\n      swap3\n      swap2\n      pop\n      pop\n      jump\t// out\n\n    auxdata: 0xa2646970667358221220cbd818a90fa78893df8122e24b425fc624852c9b7db24ab228daacf6335bf70164736f6c634300081a0033\n}\n",
				"bytecode": {
					"linkReferences": {},
					"object": "608060405260145f55600a6001556005600255348015601c575f80fd5b506103978061002a5f395ff3fe608060405234801561000f575f80fd5b506004361061003f575f3560e01c806307b3b40e146100435780631151fad814610065578063d7dfa0dd14610083575b5f80fd5b61004b6100a4565b60405161005c95949392919061017a565b60405180910390f35b61006d61011e565b60405161007a91906101cb565b60405180910390f35b61008b610123565b60405161009b94939291906101fe565b60405180910390f35b5f805f805f806001545f546100b9919061026e565b90505f6001545f546100cb91906102a1565b90505f6001545f546100dd91906102a1565b90505f6001545f546100ef9190610301565b90505f6001545f546101019190610331565b905084848484849950995099509950995050505050509091929394565b5f5481565b5f805f805f6001545f541490505f6001545f54141590505f6001545f541190505f6001545f541090508383838397509750975097505050505090919293565b5f819050919050565b61017481610162565b82525050565b5f60a08201905061018d5f83018861016b565b61019a602083018761016b565b6101a7604083018661016b565b6101b4606083018561016b565b6101c1608083018461016b565b9695505050505050565b5f6020820190506101de5f83018461016b565b92915050565b5f8115159050919050565b6101f8816101e4565b82525050565b5f6080820190506102115f8301876101ef565b61021e60208301866101ef565b61022b60408301856101ef565b61023860608301846101ef565b95945050505050565b7f4e487b71000000000000000000000000000000000000000000000000000000005f52601160045260245ffd5b5f61027882610162565b915061028383610162565b925082820190508082111561029b5761029a610241565b5b92915050565b5f6102ab82610162565b91506102b683610162565b92508282039050818111156102ce576102cd610241565b5b92915050565b7f4e487b71000000000000000000000000000000000000000000000000000000005f52601260045260245ffd5b5f61030b82610162565b915061031683610162565b925082610326576103256102d4565b5b828204905092915050565b5f61033b82610162565b915061034683610162565b925082610356576103556102d4565b5b82820690509291505056fea2646970667358221220cbd818a90fa78893df8122e24b425fc624852c9b7db24ab228daacf6335bf70164736f6c634300081a0033",
					"opcodes": "PUSH1 0x80 PUSH1 0x40 MSTORE PUSH1 0x14 PUSH0 SSTORE PUSH1 0xA PUSH1 0x1 SSTORE PUSH1 0x5 PUSH1 0x2 SSTORE CALLVALUE DUP1 ISZERO PUSH1 0x1C JUMPI PUSH0 DUP1 REVERT JUMPDEST POP PUSH2 0x397 DUP1 PUSH2 0x2A PUSH0 CODECOPY PUSH0 RETURN INVALID PUSH1 0x80 PUSH1 0x40 MSTORE CALLVALUE DUP1 ISZERO PUSH2 0xF JUMPI PUSH0 DUP1 REVERT JUMPDEST POP PUSH1 0x4 CALLDATASIZE LT PUSH2 0x3F JUMPI PUSH0 CALLDATALOAD PUSH1 0xE0 SHR DUP1 PUSH4 0x7B3B40E EQ PUSH2 0x43 JUMPI DUP1 PUSH4 0x1151FAD8 EQ PUSH2 0x65 JUMPI DUP1 PUSH4 0xD7DFA0DD EQ PUSH2 0x83 JUMPI JUMPDEST PUSH0 DUP1 REVERT JUMPDEST PUSH2 0x4B PUSH2 0xA4 JUMP JUMPDEST PUSH1 0x40 MLOAD PUSH2 0x5C SWAP6 SWAP5 SWAP4 SWAP3 SWAP2 SWAP1 PUSH2 0x17A JUMP JUMPDEST PUSH1 0x40 MLOAD DUP1 SWAP2 SUB SWAP1 RETURN JUMPDEST PUSH2 0x6D PUSH2 0x11E JUMP JUMPDEST PUSH1 0x40 MLOAD PUSH2 0x7A SWAP2 SWAP1 PUSH2 0x1CB JUMP JUMPDEST PUSH1 0x40 MLOAD DUP1 SWAP2 SUB SWAP1 RETURN JUMPDEST PUSH2 0x8B PUSH2 0x123 JUMP JUMPDEST PUSH1 0x40 MLOAD PUSH2 0x9B SWAP5 SWAP4 SWAP3 SWAP2 SWAP1 PUSH2 0x1FE JUMP JUMPDEST PUSH1 0x40 MLOAD DUP1 SWAP2 SUB SWAP1 RETURN JUMPDEST PUSH0 DUP1 PUSH0 DUP1 PUSH0 DUP1 PUSH1 0x1 SLOAD PUSH0 SLOAD PUSH2 0xB9 SWAP2 SWAP1 PUSH2 0x26E JUMP JUMPDEST SWAP1 POP PUSH0 PUSH1 0x1 SLOAD PUSH0 SLOAD PUSH2 0xCB SWAP2 SWAP1 PUSH2 0x2A1 JUMP JUMPDEST SWAP1 POP PUSH0 PUSH1 0x1 SLOAD PUSH0 SLOAD PUSH2 0xDD SWAP2 SWAP1 PUSH2 0x2A1 JUMP JUMPDEST SWAP1 POP PUSH0 PUSH1 0x1 SLOAD PUSH0 SLOAD PUSH2 0xEF SWAP2 SWAP1 PUSH2 0x301 JUMP JUMPDEST SWAP1 POP PUSH0 PUSH1 0x1 SLOAD PUSH0 SLOAD PUSH2 0x101 SWAP2 SWAP1 PUSH2 0x331 JUMP JUMPDEST SWAP1 POP DUP5 DUP5 DUP5 DUP5 DUP5 SWAP10 POP SWAP10 POP SWAP10 POP SWAP10 POP SWAP10 POP POP POP POP POP POP SWAP1 SWAP2 SWAP3 SWAP4 SWAP5 JUMP JUMPDEST PUSH0 SLOAD DUP2 JUMP JUMPDEST PUSH0 DUP1 PUSH0 DUP1 PUSH0 PUSH1 0x1 SLOAD PUSH0 SLOAD EQ SWAP1 POP PUSH0 PUSH1 0x1 SLOAD PUSH0 SLOAD EQ ISZERO SWAP1 POP PUSH0 PUSH1 0x1 SLOAD PUSH0 SLOAD GT SWAP1 POP PUSH0 PUSH1 0x1 SLOAD PUSH0 SLOAD LT SWAP1 POP DUP4 DUP4 DUP4 DUP4 SWAP8 POP SWAP8 POP SWAP8 POP SWAP8 POP POP POP POP POP SWAP1 SWAP2 SWAP3 SWAP4 JUMP JUMPDEST PUSH0 DUP2 SWAP1 POP SWAP2 SWAP1 POP JUMP JUMPDEST PUSH2 0x174 DUP2 PUSH2 0x162 JUMP JUMPDEST DUP3 MSTORE POP POP JUMP JUMPDEST PUSH0 PUSH1 0xA0 DUP3 ADD SWAP1 POP PUSH2 0x18D PUSH0 DUP4 ADD DUP9 PUSH2 0x16B JUMP JUMPDEST PUSH2 0x19A PUSH1 0x20 DUP4 ADD DUP8 PUSH2 0x16B JUMP JUMPDEST PUSH2 0x1A7 PUSH1 0x40 DUP4 ADD DUP7 PUSH2 0x16B JUMP JUMPDEST PUSH2 0x1B4 PUSH1 0x60 DUP4 ADD DUP6 PUSH2 0x16B JUMP JUMPDEST PUSH2 0x1C1 PUSH1 0x80 DUP4 ADD DUP5 PUSH2 0x16B JUMP JUMPDEST SWAP7 SWAP6 POP POP POP POP POP POP JUMP JUMPDEST PUSH0 PUSH1 0x20 DUP3 ADD SWAP1 POP PUSH2 0x1DE PUSH0 DUP4 ADD DUP5 PUSH2 0x16B JUMP JUMPDEST SWAP3 SWAP2 POP POP JUMP JUMPDEST PUSH0 DUP2 ISZERO ISZERO SWAP1 POP SWAP2 SWAP1 POP JUMP JUMPDEST PUSH2 0x1F8 DUP2 PUSH2 0x1E4 JUMP JUMPDEST DUP3 MSTORE POP POP JUMP JUMPDEST PUSH0 PUSH1 0x80 DUP3 ADD SWAP1 POP PUSH2 0x211 PUSH0 DUP4 ADD DUP8 PUSH2 0x1EF JUMP JUMPDEST PUSH2 0x21E PUSH1 0x20 DUP4 ADD DUP7 PUSH2 0x1EF JUMP JUMPDEST PUSH2 0x22B PUSH1 0x40 DUP4 ADD DUP6 PUSH2 0x1EF JUMP JUMPDEST PUSH2 0x238 PUSH1 0x60 DUP4 ADD DUP5 PUSH2 0x1EF JUMP JUMPDEST SWAP6 SWAP5 POP POP POP POP POP JUMP JUMPDEST PUSH32 0x4E487B7100000000000000000000000000000000000000000000000000000000 PUSH0 MSTORE PUSH1 0x11 PUSH1 0x4 MSTORE PUSH1 0x24 PUSH0 REVERT JUMPDEST PUSH0 PUSH2 0x278 DUP3 PUSH2 0x162 JUMP JUMPDEST SWAP2 POP PUSH2 0x283 DUP4 PUSH2 0x162 JUMP JUMPDEST SWAP3 POP DUP3 DUP3 ADD SWAP1 POP DUP1 DUP3 GT ISZERO PUSH2 0x29B JUMPI PUSH2 0x29A PUSH2 0x241 JUMP JUMPDEST JUMPDEST SWAP3 SWAP2 POP POP JUMP JUMPDEST PUSH0 PUSH2 0x2AB DUP3 PUSH2 0x162 JUMP JUMPDEST SWAP2 POP PUSH2 0x2B6 DUP4 PUSH2 0x162 JUMP JUMPDEST SWAP3 POP DUP3 DUP3 SUB SWAP1 POP DUP2 DUP2 GT ISZERO PUSH2 0x2CE JUMPI PUSH2 0x2CD PUSH2 0x241 JUMP JUMPDEST JUMPDEST SWAP3 SWAP2 POP POP JUMP JUMPDEST PUSH32 0x4E487B7100000000000000000000000000000000000000000000000000000000 PUSH0 MSTORE PUSH1 0x12 PUSH1 0x4 MSTORE PUSH1 0x24 PUSH0 REVERT JUMPDEST PUSH0 PUSH2 0x30B DUP3 PUSH2 0x162 JUMP JUMPDEST SWAP2 POP PUSH2 0x316 DUP4 PUSH2 0x162 JUMP JUMPDEST SWAP3 POP DUP3 PUSH2 0x326 JUMPI PUSH2 0x325 PUSH2 0x2D4 JUMP JUMPDEST JUMPDEST DUP3 DUP3 DIV SWAP1 POP SWAP3 SWAP2 POP POP JUMP JUMPDEST PUSH0 PUSH2 0x33B DUP3 PUSH2 0x162 JUMP JUMPDEST SWAP2 POP PUSH2 0x346 DUP4 PUSH2 0x162 JUMP JUMPDEST SWAP3 POP DUP3 PUSH2 0x356 JUMPI PUSH2 0x355 PUSH2 0x2D4 JUMP JUMPDEST JUMPDEST DUP3 DUP3 MOD SWAP1 POP SWAP3 SWAP2 POP POP JUMP INVALID LOG2 PUSH5 0x6970667358 0x22 SLT KECCAK256 0xCB 0xD8 XOR 0xA9 0xF 0xA7 DUP9 SWAP4 0xDF DUP2 0x22 0xE2 0x4B TIMESTAMP PUSH0 0xC6 0x24 DUP6 0x2C SWAP12 PUSH30 0xB24AB228DAACF6335BF70164736F6C634300081A00330000000000000000 "
				},
				"gasEstimates": {
					"creation": {
						"codeDepositCost": "183800",
						"executionCost": "66541",
						"totalCost": "250341"
					},
					"external": {
						"logic()": "infinite",
						"maths()": "infinite",
						"publicVar()": "2424"
					}
				},
				"methodIdentifiers": {
					"logic()": "d7dfa0dd",
					"maths()": "07b3b40e",
					"publicVar()": "1151fad8"
				}
			},
			"storageLayout": {
				"storage": [
					{
						"astId": 32,
						"contract": "contracts/Hello.sol:Base",
						"label": "publicVar",
						"offset": 0,
						"slot": "0",
						"type": "t_uint256"
					},
					{
						"astId": 35,
						"contract": "contracts/Hello.sol:Base",
						"label": "privateVar",
						"offset": 0,
						"slot": "1",
						"type": "t_uint256"
					},
					{
						"astId": 38,
						"contract": "contracts/Hello.sol:Base",
						"label": "internalVar",
						"offset": 0,
						"slot": "2",
						"type": "t_uint256"
					},
					{
						"astId": 40,
						"contract": "contracts/Hello.sol:Base",
						"label": "result",
						"offset": 0,
						"slot": "3",
						"type": "t_bool"
					}
				],
				"types": {
					"t_bool": {
						"encoding": "inplace",
						"label": "bool",
						"numberOfBytes": "1"
					},
					"t_uint256": {
						"encoding": "inplace",
						"label": "uint256",
						"numberOfBytes": "32"
					}
				}
			},
			"userdoc": {
				"kind": "user",
				"methods": {},
				"version": 1
			}
		}
	}
}