{
	"contracts/Hello.sol": {
		"Base": {
			"abi": [
				{
					"inputs": [],
					"name": "logic",
					"outputs": [
						{
							"internalType": "bool",
							"name": "",
							"type": "bool"
						},
						{
							"internalType": "bool",
							"name": "",
							"type": "bool"
						},
						{
							"internalType": "bool",
							"name": "",
							"type": "bool"
						}
					],
					"stateMutability": "view",
					"type": "function"
				},
				{
					"inputs": [],
					"name": "maths",
					"outputs": [
						{
							"internalType": "uint256",
							"name": "",
							"type": "uint256"
						},
						{
							"internalType": "uint256",
							"name": "",
							"type": "uint256"
						},
						{
							"internalType": "uint256",
							"name": "",
							"type": "uint256"
						},
						{
							"internalType": "uint256",
							"name": "",
							"type": "uint256"
						},
						{
							"internalType": "uint256",
							"name": "",
							"type": "uint256"
						}
					],
					"stateMutability": "view",
					"type": "function"
				},
				{
					"inputs": [],
					"name": "publicVar",
					"outputs": [
						{
							"internalType": "uint256",
							"name": "",
							"type": "uint256"
						}
					],
					"stateMutability": "view",
					"type": "function"
				},
				{
					"inputs": [],
					"name": "relation",
					"outputs": [
						{
							"internalType": "bool",
							"name": "",
							"type": "bool"
						},
						{
							"internalType": "bool",
							"name": "",
							"type": "bool"
						},
						{
							"internalType": "bool",
							"name": "",
							"type": "bool"
						},
						{
							"internalType": "bool",
							"name": "",
							"type": "bool"
						}
					],
					"stateMutability": "view",
					"type": "function"
				}
			],
			"devdoc": {
				"kind": "dev",
				"methods": {},
				"version": 1
			},
			"evm": {
				"assembly": "    /* \"contracts/Hello.sol\":258:1261  contract Base {... */\n  mstore(0x40, 0x80)\n    /* \"contracts/Hello.sol\":302:304  20 */\n  0x14\n    /* \"contracts/Hello.sol\":278:304  uint public publicVar = 20 */\n  0x00\n  sstore\n    /* \"contracts/Hello.sol\":336:338  10 */\n  0x0a\n    /* \"contracts/Hello.sol\":310:338  uint private privateVar = 10 */\n  0x01\n  sstore\n    /* \"contracts/Hello.sol\":372:373  5 */\n  0x05\n    /* \"contracts/Hello.sol\":344:373  uint internal internalVar = 5 */\n  0x02\n  sstore\n    /* \"contracts/Hello.sol\":258:1261  contract Base {... */\n  callvalue\n  dup1\n  iszero\n  tag_1\n  jumpi\n  0x00\n  dup1\n  revert\ntag_1:\n  pop\n  dataSize(sub_0)\n  dup1\n  dataOffset(sub_0)\n  0x00\n  codecopy\n  0x00\n  return\nstop\n\nsub_0: assembly {\n        /* \"contracts/Hello.sol\":258:1261  contract Base {... */\n      mstore(0x40, 0x80)\n      callvalue\n      dup1\n      iszero\n      tag_1\n      jumpi\n      0x00\n      dup1\n      revert\n    tag_1:\n      pop\n      jumpi(tag_2, lt(calldatasize, 0x04))\n      shr(0xe0, calldataload(0x00))\n      dup1\n      0x07b3b40e\n      eq\n      tag_3\n      jumpi\n      dup1\n      0x1151fad8\n      eq\n      tag_4\n      jumpi\n      dup1\n      0x44e7d490\n      eq\n      tag_5\n      jumpi\n      dup1\n      0xd7dfa0dd\n      eq\n      tag_6\n      jumpi\n    tag_2:\n      0x00\n      dup1\n      revert\n        /* \"contracts/Hello.sol\":401:732  function maths() public view returns(uint, uint, uint, uint, uint){... */\n    tag_3:\n      tag_7\n      tag_8\n      jump\t// in\n    tag_7:\n      mload(0x40)\n      tag_9\n      swap6\n      swap5\n      swap4\n      swap3\n      swap2\n      swap1\n      tag_10\n      jump\t// in\n    tag_9:\n      mload(0x40)\n      dup1\n      swap2\n      sub\n      swap1\n      return\n        /* \"contracts/Hello.sol\":278:304  uint public publicVar = 20 */\n    tag_4:\n      tag_11\n      tag_12\n      jump\t// in\n    tag_11:\n      mload(0x40)\n      tag_13\n      swap2\n      swap1\n      tag_14\n      jump\t// in\n    tag_13:\n      mload(0x40)\n      dup1\n      swap2\n      sub\n      swap1\n      return\n        /* \"contracts/Hello.sol\":739:1014  function relation() public view returns(bool, bool, bool, bool){... */\n    tag_5:\n      tag_15\n      tag_16\n      jump\t// in\n    tag_15:\n      mload(0x40)\n      tag_17\n      swap5\n      swap4\n      swap3\n      swap2\n      swap1\n      tag_18\n      jump\t// in\n    tag_17:\n      mload(0x40)\n      dup1\n      swap2\n      sub\n      swap1\n      return\n        /* \"contracts/Hello.sol\":1020:1256  function logic() public view returns(bool, bool, bool){... */\n    tag_6:\n      tag_19\n      tag_20\n      jump\t// in\n    tag_19:\n      mload(0x40)\n      tag_21\n      swap4\n      swap3\n      swap2\n      swap1\n      tag_22\n      jump\t// in\n    tag_21:\n      mload(0x40)\n      dup1\n      swap2\n      sub\n      swap1\n      return\n        /* \"contracts/Hello.sol\":401:732  function maths() public view returns(uint, uint, uint, uint, uint){... */\n    tag_8:\n        /* \"contracts/Hello.sol\":438:442  uint */\n      0x00\n        /* \"contracts/Hello.sol\":444:448  uint */\n      dup1\n        /* \"contracts/Hello.sol\":450:454  uint */\n      0x00\n        /* \"contracts/Hello.sol\":456:460  uint */\n      dup1\n        /* \"contracts/Hello.sol\":462:466  uint */\n      0x00\n        /* \"contracts/Hello.sol\":477:485  uint add */\n      dup1\n        /* \"contracts/Hello.sol\":500:510  privateVar */\n      sload(0x01)\n        /* \"contracts/Hello.sol\":488:497  publicVar */\n      sload(0x00)\n        /* \"contracts/Hello.sol\":488:510  publicVar + privateVar */\n      tag_24\n      swap2\n      swap1\n      tag_25\n      jump\t// in\n    tag_24:\n        /* \"contracts/Hello.sol\":477:510  uint add = publicVar + privateVar */\n      swap1\n      pop\n        /* \"contracts/Hello.sol\":520:528  uint sub */\n      0x00\n        /* \"contracts/Hello.sol\":543:553  privateVar */\n      sload(0x01)\n        /* \"contracts/Hello.sol\":531:540  publicVar */\n      sload(0x00)\n        /* \"contracts/Hello.sol\":531:553  publicVar - privateVar */\n      tag_26\n      swap2\n      swap1\n      tag_27\n      jump\t// in\n    tag_26:\n        /* \"contracts/Hello.sol\":520:553  uint sub = publicVar - privateVar */\n      swap1\n      pop\n        /* \"contracts/Hello.sol\":563:571  uint mul */\n      0x00\n        /* \"contracts/Hello.sol\":586:596  privateVar */\n      sload(0x01)\n        /* \"contracts/Hello.sol\":574:583  publicVar */\n      sload(0x00)\n        /* \"contracts/Hello.sol\":574:596  publicVar - privateVar */\n      tag_28\n      swap2\n      swap1\n      tag_27\n      jump\t// in\n    tag_28:\n        /* \"contracts/Hello.sol\":563:596  uint mul = publicVar - privateVar */\n      swap1\n      pop\n        /* \"contracts/Hello.sol\":606:614  uint div */\n      0x00\n        /* \"contracts/Hello.sol\":629:639  privateVar */\n      sload(0x01)\n        /* \"contracts/Hello.sol\":617:626  publicVar */\n      sload(0x00)\n        /* \"contracts/Hello.sol\":617:639  publicVar / privateVar */\n      tag_29\n      swap2\n      swap1\n      tag_30\n      jump\t// in\n    tag_29:\n        /* \"contracts/Hello.sol\":606:639  uint div = publicVar / privateVar */\n      swap1\n      pop\n        /* \"contracts/Hello.sol\":649:657  uint mod */\n      0x00\n        /* \"contracts/Hello.sol\":672:682  privateVar */\n      sload(0x01)\n        /* \"contracts/Hello.sol\":660:669  publicVar */\n      sload(0x00)\n        /* \"contracts/Hello.sol\":660:682  publicVar % privateVar */\n      tag_31\n      swap2\n      swap1\n      tag_32\n      jump\t// in\n    tag_31:\n        /* \"contracts/Hello.sol\":649:682  uint mod = publicVar % privateVar */\n      swap1\n      pop\n        /* \"contracts/Hello.sol\":701:704  add */\n      dup5\n        /* \"contracts/Hello.sol\":706:709  sub */\n      dup5\n        /* \"contracts/Hello.sol\":711:714  mul */\n      dup5\n        /* \"contracts/Hello.sol\":716:719  div */\n      dup5\n        /* \"contracts/Hello.sol\":721:724  mod */\n      dup5\n        /* \"contracts/Hello.sol\":693:725  return (add, sub, mul, div, mod) */\n      swap10\n      pop\n      swap10\n      pop\n      swap10\n      pop\n      swap10\n      pop\n      swap10\n      pop\n      pop\n      pop\n      pop\n      pop\n      pop\n        /* \"contracts/Hello.sol\":401:732  function maths() public view returns(uint, uint, uint, uint, uint){... */\n      swap1\n      swap2\n      swap3\n      swap4\n      swap5\n      jump\t// out\n        /* \"contracts/Hello.sol\":278:304  uint public publicVar = 20 */\n    tag_12:\n      sload(0x00)\n      dup2\n      jump\t// out\n        /* \"contracts/Hello.sol\":739:1014  function relation() public view returns(bool, bool, bool, bool){... */\n    tag_16:\n        /* \"contracts/Hello.sol\":779:783  bool */\n      0x00\n        /* \"contracts/Hello.sol\":785:789  bool */\n      dup1\n        /* \"contracts/Hello.sol\":791:795  bool */\n      0x00\n        /* \"contracts/Hello.sol\":797:801  bool */\n      dup1\n        /* \"contracts/Hello.sol\":812:819  bool eq */\n      0x00\n        /* \"contracts/Hello.sol\":835:845  privateVar */\n      sload(0x01)\n        /* \"contracts/Hello.sol\":822:831  publicVar */\n      sload(0x00)\n        /* \"contracts/Hello.sol\":822:845  publicVar == privateVar */\n      eq\n        /* \"contracts/Hello.sol\":812:845  bool eq = publicVar == privateVar */\n      swap1\n      pop\n        /* \"contracts/Hello.sol\":855:863  bool not */\n      0x00\n        /* \"contracts/Hello.sol\":879:889  privateVar */\n      sload(0x01)\n        /* \"contracts/Hello.sol\":866:875  publicVar */\n      sload(0x00)\n        /* \"contracts/Hello.sol\":866:889  publicVar != privateVar */\n      eq\n      iszero\n        /* \"contracts/Hello.sol\":855:889  bool not = publicVar != privateVar */\n      swap1\n      pop\n        /* \"contracts/Hello.sol\":899:906  bool gt */\n      0x00\n        /* \"contracts/Hello.sol\":921:931  privateVar */\n      sload(0x01)\n        /* \"contracts/Hello.sol\":909:918  publicVar */\n      sload(0x00)\n        /* \"contracts/Hello.sol\":909:931  publicVar > privateVar */\n      gt\n        /* \"contracts/Hello.sol\":899:931  bool gt = publicVar > privateVar */\n      swap1\n      pop\n        /* \"contracts/Hello.sol\":941:948  bool ls */\n      0x00\n        /* \"contracts/Hello.sol\":963:973  privateVar */\n      sload(0x01)\n        /* \"contracts/Hello.sol\":951:960  publicVar */\n      sload(0x00)\n        /* \"contracts/Hello.sol\":951:973  publicVar < privateVar */\n      lt\n        /* \"contracts/Hello.sol\":941:973  bool ls = publicVar < privateVar */\n      swap1\n      pop\n        /* \"contracts/Hello.sol\":991:993  eq */\n      dup4\n        /* \"contracts/Hello.sol\":995:998  not */\n      dup4\n        /* \"contracts/Hello.sol\":1000:1002  gt */\n      dup4\n        /* \"contracts/Hello.sol\":1004:1006  ls */\n      dup4\n        /* \"contracts/Hello.sol\":983:1007  return (eq, not, gt, ls) */\n      swap8\n      pop\n      swap8\n      pop\n      swap8\n      pop\n      swap8\n      pop\n      pop\n      pop\n      pop\n      pop\n        /* \"contracts/Hello.sol\":739:1014  function relation() public view returns(bool, bool, bool, bool){... */\n      swap1\n      swap2\n      swap3\n      swap4\n      jump\t// out\n        /* \"contracts/Hello.sol\":1020:1256  function logic() public view returns(bool, bool, bool){... */\n    tag_20:\n        /* \"contracts/Hello.sol\":1057:1061  bool */\n      0x00\n        /* \"contracts/Hello.sol\":1063:1067  bool */\n      dup1\n        /* \"contracts/Hello.sol\":1069:1073  bool */\n      0x00\n        /* \"contracts/Hello.sol\":1084:1092  bool and */\n      dup1\n        /* \"contracts/Hello.sol\":1107:1108  5 */\n      0x05\n        /* \"contracts/Hello.sol\":1095:1104  publicVar */\n      sload(0x00)\n        /* \"contracts/Hello.sol\":1095:1108  publicVar > 5 */\n      gt\n        /* \"contracts/Hello.sol\":1095:1127  publicVar > 5 && privateVar < 10 */\n      dup1\n      iszero\n      tag_35\n      jumpi\n      pop\n        /* \"contracts/Hello.sol\":1125:1127  10 */\n      0x0a\n        /* \"contracts/Hello.sol\":1112:1122  privateVar */\n      sload(0x01)\n        /* \"contracts/Hello.sol\":1112:1127  privateVar < 10 */\n      lt\n        /* \"contracts/Hello.sol\":1095:1127  publicVar > 5 && privateVar < 10 */\n    tag_35:\n        /* \"contracts/Hello.sol\":1084:1127  bool and = publicVar > 5 && privateVar < 10 */\n      swap1\n      pop\n        /* \"contracts/Hello.sol\":1137:1144  bool or */\n      0x00\n        /* \"contracts/Hello.sol\":1159:1160  5 */\n      0x05\n        /* \"contracts/Hello.sol\":1147:1156  publicVar */\n      sload(0x00)\n        /* \"contracts/Hello.sol\":1147:1160  publicVar > 5 */\n      gt\n        /* \"contracts/Hello.sol\":1147:1180  publicVar > 5  || privateVar < 10 */\n      dup1\n      tag_36\n      jumpi\n      pop\n        /* \"contracts/Hello.sol\":1178:1180  10 */\n      0x0a\n        /* \"contracts/Hello.sol\":1165:1175  privateVar */\n      sload(0x01)\n        /* \"contracts/Hello.sol\":1165:1180  privateVar < 10 */\n      lt\n        /* \"contracts/Hello.sol\":1147:1180  publicVar > 5  || privateVar < 10 */\n    tag_36:\n        /* \"contracts/Hello.sol\":1137:1180  bool or = publicVar > 5  || privateVar < 10 */\n      swap1\n      pop\n        /* \"contracts/Hello.sol\":1190:1198  bool not */\n      0x00\n        /* \"contracts/Hello.sol\":1215:1216  5 */\n      0x05\n        /* \"contracts/Hello.sol\":1203:1212  publicVar */\n      sload(0x00)\n        /* \"contracts/Hello.sol\":1203:1216  publicVar > 5 */\n      gt\n        /* \"contracts/Hello.sol\":1201:1217  !(publicVar > 5) */\n      iszero\n        /* \"contracts/Hello.sol\":1190:1217  bool not = !(publicVar > 5) */\n      swap1\n      pop\n        /* \"contracts/Hello.sol\":1236:1239  and */\n      dup3\n        /* \"contracts/Hello.sol\":1241:1243  or */\n      dup3\n        /* \"contracts/Hello.sol\":1245:1248  not */\n      dup3\n        /* \"contracts/Hello.sol\":1228:1249  return (and, or, not) */\n      swap6\n      pop\n      swap6\n      pop\n      swap6\n      pop\n      pop\n      pop\n      pop\n        /* \"contracts/Hello.sol\":1020:1256  function logic() public view returns(bool, bool, bool){... */\n      swap1\n      swap2\n      swap3\n      jump\t// out\n        /* \"#utility.yul\":7:84   */\n    tag_37:\n        /* \"#utility.yul\":44:51   */\n      0x00\n        /* \"#utility.yul\":73:78   */\n      dup2\n        /* \"#utility.yul\":62:78   */\n      swap1\n      pop\n        /* \"#utility.yul\":7:84   */\n      swap2\n      swap1\n      pop\n      jump\t// out\n        /* \"#utility.yul\":90:208   */\n    tag_38:\n        /* \"#utility.yul\":177:201   */\n      tag_46\n        /* \"#utility.yul\":195:200   */\n      dup2\n        /* \"#utility.yul\":177:201   */\n      tag_37\n      jump\t// in\n    tag_46:\n        /* \"#utility.yul\":172:175   */\n      dup3\n        /* \"#utility.yul\":165:202   */\n      mstore\n        /* \"#utility.yul\":90:208   */\n      pop\n      pop\n      jump\t// out\n        /* \"#utility.yul\":214:878   */\n    tag_10:\n        /* \"#utility.yul\":419:423   */\n      0x00\n        /* \"#utility.yul\":457:460   */\n      0xa0\n        /* \"#utility.yul\":446:455   */\n      dup3\n        /* \"#utility.yul\":442:461   */\n      add\n        /* \"#utility.yul\":434:461   */\n      swap1\n      pop\n        /* \"#utility.yul\":471:542   */\n      tag_48\n        /* \"#utility.yul\":539:540   */\n      0x00\n        /* \"#utility.yul\":528:537   */\n      dup4\n        /* \"#utility.yul\":524:541   */\n      add\n        /* \"#utility.yul\":515:521   */\n      dup9\n        /* \"#utility.yul\":471:542   */\n      tag_38\n      jump\t// in\n    tag_48:\n        /* \"#utility.yul\":552:624   */\n      tag_49\n        /* \"#utility.yul\":620:622   */\n      0x20\n        /* \"#utility.yul\":609:618   */\n      dup4\n        /* \"#utility.yul\":605:623   */\n      add\n        /* \"#utility.yul\":596:602   */\n      dup8\n        /* \"#utility.yul\":552:624   */\n      tag_38\n      jump\t// in\n    tag_49:\n        /* \"#utility.yul\":634:706   */\n      tag_50\n        /* \"#utility.yul\":702:704   */\n      0x40\n        /* \"#utility.yul\":691:700   */\n      dup4\n        /* \"#utility.yul\":687:705   */\n      add\n        /* \"#utility.yul\":678:684   */\n      dup7\n        /* \"#utility.yul\":634:706   */\n      tag_38\n      jump\t// in\n    tag_50:\n        /* \"#utility.yul\":716:788   */\n      tag_51\n        /* \"#utility.yul\":784:786   */\n      0x60\n        /* \"#utility.yul\":773:782   */\n      dup4\n        /* \"#utility.yul\":769:787   */\n      add\n        /* \"#utility.yul\":760:766   */\n      dup6\n        /* \"#utility.yul\":716:788   */\n      tag_38\n      jump\t// in\n    tag_51:\n        /* \"#utility.yul\":798:871   */\n      tag_52\n        /* \"#utility.yul\":866:869   */\n      0x80\n        /* \"#utility.yul\":855:864   */\n      dup4\n        /* \"#utility.yul\":851:870   */\n      add\n        /* \"#utility.yul\":842:848   */\n      dup5\n        /* \"#utility.yul\":798:871   */\n      tag_38\n      jump\t// in\n    tag_52:\n        /* \"#utility.yul\":214:878   */\n      swap7\n      swap6\n      pop\n      pop\n      pop\n      pop\n      pop\n      pop\n      jump\t// out\n        /* \"#utility.yul\":884:1106   */\n    tag_14:\n        /* \"#utility.yul\":977:981   */\n      0x00\n        /* \"#utility.yul\":1015:1017   */\n      0x20\n        /* \"#utility.yul\":1004:1013   */\n      dup3\n        /* \"#utility.yul\":1000:1018   */\n      add\n        /* \"#utility.yul\":992:1018   */\n      swap1\n      pop\n        /* \"#utility.yul\":1028:1099   */\n      tag_54\n        /* \"#utility.yul\":1096:1097   */\n      0x00\n        /* \"#utility.yul\":1085:1094   */\n      dup4\n        /* \"#utility.yul\":1081:1098   */\n      add\n        /* \"#utility.yul\":1072:1078   */\n      dup5\n        /* \"#utility.yul\":1028:1099   */\n      tag_38\n      jump\t// in\n    tag_54:\n        /* \"#utility.yul\":884:1106   */\n      swap3\n      swap2\n      pop\n      pop\n      jump\t// out\n        /* \"#utility.yul\":1112:1202   */\n    tag_39:\n        /* \"#utility.yul\":1146:1153   */\n      0x00\n        /* \"#utility.yul\":1189:1194   */\n      dup2\n        /* \"#utility.yul\":1182:1195   */\n      iszero\n        /* \"#utility.yul\":1175:1196   */\n      iszero\n        /* \"#utility.yul\":1164:1196   */\n      swap1\n      pop\n        /* \"#utility.yul\":1112:1202   */\n      swap2\n      swap1\n      pop\n      jump\t// out\n        /* \"#utility.yul\":1208:1317   */\n    tag_40:\n        /* \"#utility.yul\":1289:1310   */\n      tag_57\n        /* \"#utility.yul\":1304:1309   */\n      dup2\n        /* \"#utility.yul\":1289:1310   */\n      tag_39\n      jump\t// in\n    tag_57:\n        /* \"#utility.yul\":1284:1287   */\n      dup3\n        /* \"#utility.yul\":1277:1311   */\n      mstore\n        /* \"#utility.yul\":1208:1317   */\n      pop\n      pop\n      jump\t// out\n        /* \"#utility.yul\":1323:1828   */\n    tag_18:\n        /* \"#utility.yul\":1476:1480   */\n      0x00\n        /* \"#utility.yul\":1514:1517   */\n      0x80\n        /* \"#utility.yul\":1503:1512   */\n      dup3\n        /* \"#utility.yul\":1499:1518   */\n      add\n        /* \"#utility.yul\":1491:1518   */\n      swap1\n      pop\n        /* \"#utility.yul\":1528:1593   */\n      tag_59\n        /* \"#utility.yul\":1590:1591   */\n      0x00\n        /* \"#utility.yul\":1579:1588   */\n      dup4\n        /* \"#utility.yul\":1575:1592   */\n      add\n        /* \"#utility.yul\":1566:1572   */\n      dup8\n        /* \"#utility.yul\":1528:1593   */\n      tag_40\n      jump\t// in\n    tag_59:\n        /* \"#utility.yul\":1603:1669   */\n      tag_60\n        /* \"#utility.yul\":1665:1667   */\n      0x20\n        /* \"#utility.yul\":1654:1663   */\n      dup4\n        /* \"#utility.yul\":1650:1668   */\n      add\n        /* \"#utility.yul\":1641:1647   */\n      dup7\n        /* \"#utility.yul\":1603:1669   */\n      tag_40\n      jump\t// in\n    tag_60:\n        /* \"#utility.yul\":1679:1745   */\n      tag_61\n        /* \"#utility.yul\":1741:1743   */\n      0x40\n        /* \"#utility.yul\":1730:1739   */\n      dup4\n        /* \"#utility.yul\":1726:1744   */\n      add\n        /* \"#utility.yul\":1717:1723   */\n      dup6\n        /* \"#utility.yul\":1679:1745   */\n      tag_40\n      jump\t// in\n    tag_61:\n        /* \"#utility.yul\":1755:1821   */\n      tag_62\n        /* \"#utility.yul\":1817:1819   */\n      0x60\n        /* \"#utility.yul\":1806:1815   */\n      dup4\n        /* \"#utility.yul\":1802:1820   */\n      add\n        /* \"#utility.yul\":1793:1799   */\n      dup5\n        /* \"#utility.yul\":1755:1821   */\n      tag_40\n      jump\t// in\n    tag_62:\n        /* \"#utility.yul\":1323:1828   */\n      swap6\n      swap5\n      pop\n      pop\n      pop\n      pop\n      pop\n      jump\t// out\n        /* \"#utility.yul\":1834:2240   */\n    tag_22:\n        /* \"#utility.yul\":1965:1969   */\n      0x00\n        /* \"#utility.yul\":2003:2005   */\n      0x60\n        /* \"#utility.yul\":1992:2001   */\n      dup3\n        /* \"#utility.yul\":1988:2006   */\n      add\n        /* \"#utility.yul\":1980:2006   */\n      swap1\n      pop\n        /* \"#utility.yul\":2016:2081   */\n      tag_64\n        /* \"#utility.yul\":2078:2079   */\n      0x00\n        /* \"#utility.yul\":2067:2076   */\n      dup4\n        /* \"#utility.yul\":2063:2080   */\n      add\n        /* \"#utility.yul\":2054:2060   */\n      dup7\n        /* \"#utility.yul\":2016:2081   */\n      tag_40\n      jump\t// in\n    tag_64:\n        /* \"#utility.yul\":2091:2157   */\n      tag_65\n        /* \"#utility.yul\":2153:2155   */\n      0x20\n        /* \"#utility.yul\":2142:2151   */\n      dup4\n        /* \"#utility.yul\":2138:2156   */\n      add\n        /* \"#utility.yul\":2129:2135   */\n      dup6\n        /* \"#utility.yul\":2091:2157   */\n      tag_40\n      jump\t// in\n    tag_65:\n        /* \"#utility.yul\":2167:2233   */\n      tag_66\n        /* \"#utility.yul\":2229:2231   */\n      0x40\n        /* \"#utility.yul\":2218:2227   */\n      dup4\n        /* \"#utility.yul\":2214:2232   */\n      add\n        /* \"#utility.yul\":2205:2211   */\n      dup5\n        /* \"#utility.yul\":2167:2233   */\n      tag_40\n      jump\t// in\n    tag_66:\n        /* \"#utility.yul\":1834:2240   */\n      swap5\n      swap4\n      pop\n      pop\n      pop\n      pop\n      jump\t// out\n        /* \"#utility.yul\":2246:2426   */\n    tag_41:\n        /* \"#utility.yul\":2294:2371   */\n      0x4e487b7100000000000000000000000000000000000000000000000000000000\n        /* \"#utility.yul\":2291:2292   */\n      0x00\n        /* \"#utility.yul\":2284:2372   */\n      mstore\n        /* \"#utility.yul\":2391:2395   */\n      0x11\n        /* \"#utility.yul\":2388:2389   */\n      0x04\n        /* \"#utility.yul\":2381:2396   */\n      mstore\n        /* \"#utility.yul\":2415:2419   */\n      0x24\n        /* \"#utility.yul\":2412:2413   */\n      0x00\n        /* \"#utility.yul\":2405:2420   */\n      revert\n        /* \"#utility.yul\":2432:2623   */\n    tag_25:\n        /* \"#utility.yul\":2472:2475   */\n      0x00\n        /* \"#utility.yul\":2491:2511   */\n      tag_69\n        /* \"#utility.yul\":2509:2510   */\n      dup3\n        /* \"#utility.yul\":2491:2511   */\n      tag_37\n      jump\t// in\n    tag_69:\n        /* \"#utility.yul\":2486:2511   */\n      swap2\n      pop\n        /* \"#utility.yul\":2525:2545   */\n      tag_70\n        /* \"#utility.yul\":2543:2544   */\n      dup4\n        /* \"#utility.yul\":2525:2545   */\n      tag_37\n      jump\t// in\n    tag_70:\n        /* \"#utility.yul\":2520:2545   */\n      swap3\n      pop\n        /* \"#utility.yul\":2568:2569   */\n      dup3\n        /* \"#utility.yul\":2565:2566   */\n      dup3\n        /* \"#utility.yul\":2561:2570   */\n      add\n        /* \"#utility.yul\":2554:2570   */\n      swap1\n      pop\n        /* \"#utility.yul\":2589:2592   */\n      dup1\n        /* \"#utility.yul\":2586:2587   */\n      dup3\n        /* \"#utility.yul\":2583:2593   */\n      gt\n        /* \"#utility.yul\":2580:2616   */\n      iszero\n      tag_71\n      jumpi\n        /* \"#utility.yul\":2596:2614   */\n      tag_72\n      tag_41\n      jump\t// in\n    tag_72:\n        /* \"#utility.yul\":2580:2616   */\n    tag_71:\n        /* \"#utility.yul\":2432:2623   */\n      swap3\n      swap2\n      pop\n      pop\n      jump\t// out\n        /* \"#utility.yul\":2629:2823   */\n    tag_27:\n        /* \"#utility.yul\":2669:2673   */\n      0x00\n        /* \"#utility.yul\":2689:2709   */\n      tag_74\n        /* \"#utility.yul\":2707:2708   */\n      dup3\n        /* \"#utility.yul\":2689:2709   */\n      tag_37\n      jump\t// in\n    tag_74:\n        /* \"#utility.yul\":2684:2709   */\n      swap2\n      pop\n        /* \"#utility.yul\":2723:2743   */\n      tag_75\n        /* \"#utility.yul\":2741:2742   */\n      dup4\n        /* \"#utility.yul\":2723:2743   */\n      tag_37\n      jump\t// in\n    tag_75:\n        /* \"#utility.yul\":2718:2743   */\n      swap3\n      pop\n        /* \"#utility.yul\":2767:2768   */\n      dup3\n        /* \"#utility.yul\":2764:2765   */\n      dup3\n        /* \"#utility.yul\":2760:2769   */\n      sub\n        /* \"#utility.yul\":2752:2769   */\n      swap1\n      pop\n        /* \"#utility.yul\":2791:2792   */\n      dup2\n        /* \"#utility.yul\":2785:2789   */\n      dup2\n        /* \"#utility.yul\":2782:2793   */\n      gt\n        /* \"#utility.yul\":2779:2816   */\n      iszero\n      tag_76\n      jumpi\n        /* \"#utility.yul\":2796:2814   */\n      tag_77\n      tag_41\n      jump\t// in\n    tag_77:\n        /* \"#utility.yul\":2779:2816   */\n    tag_76:\n        /* \"#utility.yul\":2629:2823   */\n      swap3\n      swap2\n      pop\n      pop\n      jump\t// out\n        /* \"#utility.yul\":2829:3009   */\n    tag_42:\n        /* \"#utility.yul\":2877:2954   */\n      0x4e487b7100000000000000000000000000000000000000000000000000000000\n        /* \"#utility.yul\":2874:2875   */\n      0x00\n        /* \"#utility.yul\":2867:2955   */\n      mstore\n        /* \"#utility.yul\":2974:2978   */\n      0x12\n        /* \"#utility.yul\":2971:2972   */\n      0x04\n        /* \"#utility.yul\":2964:2979   */\n      mstore\n        /* \"#utility.yul\":2998:3002   */\n      0x24\n        /* \"#utility.yul\":2995:2996   */\n      0x00\n        /* \"#utility.yul\":2988:3003   */\n      revert\n        /* \"#utility.yul\":3015:3200   */\n    tag_30:\n        /* \"#utility.yul\":3055:3056   */\n      0x00\n        /* \"#utility.yul\":3072:3092   */\n      tag_80\n        /* \"#utility.yul\":3090:3091   */\n      dup3\n        /* \"#utility.yul\":3072:3092   */\n      tag_37\n      jump\t// in\n    tag_80:\n        /* \"#utility.yul\":3067:3092   */\n      swap2\n      pop\n        /* \"#utility.yul\":3106:3126   */\n      tag_81\n        /* \"#utility.yul\":3124:3125   */\n      dup4\n        /* \"#utility.yul\":3106:3126   */\n      tag_37\n      jump\t// in\n    tag_81:\n        /* \"#utility.yul\":3101:3126   */\n      swap3\n      pop\n        /* \"#utility.yul\":3145:3146   */\n      dup3\n        /* \"#utility.yul\":3135:3170   */\n      tag_82\n      jumpi\n        /* \"#utility.yul\":3150:3168   */\n      tag_83\n      tag_42\n      jump\t// in\n    tag_83:\n        /* \"#utility.yul\":3135:3170   */\n    tag_82:\n        /* \"#utility.yul\":3192:3193   */\n      dup3\n        /* \"#utility.yul\":3189:3190   */\n      dup3\n        /* \"#utility.yul\":3185:3194   */\n      div\n        /* \"#utility.yul\":3180:3194   */\n      swap1\n      pop\n        /* \"#utility.yul\":3015:3200   */\n      swap3\n      swap2\n      pop\n      pop\n      jump\t// out\n        /* \"#utility.yul\":3206:3382   */\n    tag_32:\n        /* \"#utility.yul\":3238:3239   */\n      0x00\n        /* \"#utility.yul\":3255:3275   */\n      tag_85\n        /* \"#utility.yul\":3273:3274   */\n      dup3\n        /* \"#utility.yul\":3255:3275   */\n      tag_37\n      jump\t// in\n    tag_85:\n        /* \"#utility.yul\":3250:3275   */\n      swap2\n      pop\n        /* \"#utility.yul\":3289:3309   */\n      tag_86\n        /* \"#utility.yul\":3307:3308   */\n      dup4\n        /* \"#utility.yul\":3289:3309   */\n      tag_37\n      jump\t// in\n    tag_86:\n        /* \"#utility.yul\":3284:3309   */\n      swap3\n      pop\n        /* \"#utility.yul\":3328:3329   */\n      dup3\n        /* \"#utility.yul\":3318:3353   */\n      tag_87\n      jumpi\n        /* \"#utility.yul\":3333:3351   */\n      tag_88\n      tag_42\n      jump\t// in\n    tag_88:\n        /* \"#utility.yul\":3318:3353   */\n    tag_87:\n        /* \"#utility.yul\":3374:3375   */\n      dup3\n        /* \"#utility.yul\":3371:3372   */\n      dup3\n        /* \"#utility.yul\":3367:3376   */\n      mod\n        /* \"#utility.yul\":3362:3376   */\n      swap1\n      pop\n        /* \"#utility.yul\":3206:3382   */\n      swap3\n      swap2\n      pop\n      pop\n      jump\t// out\n\n    auxdata: 0xa264697066735822122035f4b677ffdbbc67114c50ce8caf3b5b6a081bc83d636f1be61d0b15b41a4fa464736f6c634300081a0033\n}\n",
				"bytecode": {
					"linkReferences": {},
					"object": "608060405260145f55600a6001556005600255348015601c575f80fd5b5061043f8061002a5f395ff3fe608060405234801561000f575f80fd5b506004361061004a575f3560e01c806307b3b40e1461004e5780631151fad81461007057806344e7d4901461008e578063d7dfa0dd146100af575b5f80fd5b6100566100cf565b6040516100679594939291906101ed565b60405180910390f35b610078610149565b604051610085919061023e565b60405180910390f35b61009661014e565b6040516100a69493929190610271565b60405180910390f35b6100b761018d565b6040516100c6939291906102b4565b60405180910390f35b5f805f805f806001545f546100e49190610316565b90505f6001545f546100f69190610349565b90505f6001545f546101089190610349565b90505f6001545f5461011a91906103a9565b90505f6001545f5461012c91906103d9565b905084848484849950995099509950995050505050509091929394565b5f5481565b5f805f805f6001545f541490505f6001545f54141590505f6001545f541190505f6001545f541090508383838397509750975097505050505090919293565b5f805f8060055f541180156101a45750600a600154105b90505f60055f5411806101b95750600a600154105b90505f60055f5411159050828282955095509550505050909192565b5f819050919050565b6101e7816101d5565b82525050565b5f60a0820190506102005f8301886101de565b61020d60208301876101de565b61021a60408301866101de565b61022760608301856101de565b61023460808301846101de565b9695505050505050565b5f6020820190506102515f8301846101de565b92915050565b5f8115159050919050565b61026b81610257565b82525050565b5f6080820190506102845f830187610262565b6102916020830186610262565b61029e6040830185610262565b6102ab6060830184610262565b95945050505050565b5f6060820190506102c75f830186610262565b6102d46020830185610262565b6102e16040830184610262565b949350505050565b7f4e487b71000000000000000000000000000000000000000000000000000000005f52601160045260245ffd5b5f610320826101d5565b915061032b836101d5565b9250828201905080821115610343576103426102e9565b5b92915050565b5f610353826101d5565b915061035e836101d5565b9250828203905081811115610376576103756102e9565b5b92915050565b7f4e487b71000000000000000000000000000000000000000000000000000000005f52601260045260245ffd5b5f6103b3826101d5565b91506103be836101d5565b9250826103ce576103cd61037c565b5b828204905092915050565b5f6103e3826101d5565b91506103ee836101d5565b9250826103fe576103fd61037c565b5b82820690509291505056fea264697066735822122035f4b677ffdbbc67114c50ce8caf3b5b6a081bc83d636f1be61d0b15b41a4fa464736f6c634300081a0033",
					"opcodes": "PUSH1 0x80 PUSH1 0x40 MSTORE PUSH1 0x14 PUSH0 SSTORE PUSH1 0xA PUSH1 0x1 SSTORE PUSH1 0x5 PUSH1 0x2 SSTORE CALLVALUE DUP1 ISZERO PUSH1 0x1C JUMPI PUSH0 DUP1 REVERT JUMPDEST POP PUSH2 0x43F DUP1 PUSH2 0x2A PUSH0 CODECOPY PUSH0 RETURN INVALID PUSH1 0x80 PUSH1 0x40 MSTORE CALLVALUE DUP1 ISZERO PUSH2 0xF JUMPI PUSH0 DUP1 REVERT JUMPDEST POP PUSH1 0x4 CALLDATASIZE LT PUSH2 0x4A JUMPI PUSH0 CALLDATALOAD PUSH1 0xE0 SHR DUP1 PUSH4 0x7B3B40E EQ PUSH2 0x4E JUMPI DUP1 PUSH4 0x1151FAD8 EQ PUSH2 0x70 JUMPI DUP1 PUSH4 0x44E7D490 EQ PUSH2 0x8E JUMPI DUP1 PUSH4 0xD7DFA0DD EQ PUSH2 0xAF JUMPI JUMPDEST PUSH0 DUP1 REVERT JUMPDEST PUSH2 0x56 PUSH2 0xCF JUMP JUMPDEST PUSH1 0x40 MLOAD PUSH2 0x67 SWAP6 SWAP5 SWAP4 SWAP3 SWAP2 SWAP1 PUSH2 0x1ED JUMP JUMPDEST PUSH1 0x40 MLOAD DUP1 SWAP2 SUB SWAP1 RETURN JUMPDEST PUSH2 0x78 PUSH2 0x149 JUMP JUMPDEST PUSH1 0x40 MLOAD PUSH2 0x85 SWAP2 SWAP1 PUSH2 0x23E JUMP JUMPDEST PUSH1 0x40 MLOAD DUP1 SWAP2 SUB SWAP1 RETURN JUMPDEST PUSH2 0x96 PUSH2 0x14E JUMP JUMPDEST PUSH1 0x40 MLOAD PUSH2 0xA6 SWAP5 SWAP4 SWAP3 SWAP2 SWAP1 PUSH2 0x271 JUMP JUMPDEST PUSH1 0x40 MLOAD DUP1 SWAP2 SUB SWAP1 RETURN JUMPDEST PUSH2 0xB7 PUSH2 0x18D JUMP JUMPDEST PUSH1 0x40 MLOAD PUSH2 0xC6 SWAP4 SWAP3 SWAP2 SWAP1 PUSH2 0x2B4 JUMP JUMPDEST PUSH1 0x40 MLOAD DUP1 SWAP2 SUB SWAP1 RETURN JUMPDEST PUSH0 DUP1 PUSH0 DUP1 PUSH0 DUP1 PUSH1 0x1 SLOAD PUSH0 SLOAD PUSH2 0xE4 SWAP2 SWAP1 PUSH2 0x316 JUMP JUMPDEST SWAP1 POP PUSH0 PUSH1 0x1 SLOAD PUSH0 SLOAD PUSH2 0xF6 SWAP2 SWAP1 PUSH2 0x349 JUMP JUMPDEST SWAP1 POP PUSH0 PUSH1 0x1 SLOAD PUSH0 SLOAD PUSH2 0x108 SWAP2 SWAP1 PUSH2 0x349 JUMP JUMPDEST SWAP1 POP PUSH0 PUSH1 0x1 SLOAD PUSH0 SLOAD PUSH2 0x11A SWAP2 SWAP1 PUSH2 0x3A9 JUMP JUMPDEST SWAP1 POP PUSH0 PUSH1 0x1 SLOAD PUSH0 SLOAD PUSH2 0x12C SWAP2 SWAP1 PUSH2 0x3D9 JUMP JUMPDEST SWAP1 POP DUP5 DUP5 DUP5 DUP5 DUP5 SWAP10 POP SWAP10 POP SWAP10 POP SWAP10 POP SWAP10 POP POP POP POP POP POP SWAP1 SWAP2 SWAP3 SWAP4 SWAP5 JUMP JUMPDEST PUSH0 SLOAD DUP2 JUMP JUMPDEST PUSH0 DUP1 PUSH0 DUP1 PUSH0 PUSH1 0x1 SLOAD PUSH0 SLOAD EQ SWAP1 POP PUSH0 PUSH1 0x1 SLOAD PUSH0 SLOAD EQ ISZERO SWAP1 POP PUSH0 PUSH1 0x1 SLOAD PUSH0 SLOAD GT SWAP1 POP PUSH0 PUSH1 0x1 SLOAD PUSH0 SLOAD LT SWAP1 POP DUP4 DUP4 DUP4 DUP4 SWAP8 POP SWAP8 POP SWAP8 POP SWAP8 POP POP POP POP POP SWAP1 SWAP2 SWAP3 SWAP4 JUMP JUMPDEST PUSH0 DUP1 PUSH0 DUP1 PUSH1 0x5 PUSH0 SLOAD GT DUP1 ISZERO PUSH2 0x1A4 JUMPI POP PUSH1 0xA PUSH1 0x1 SLOAD LT JUMPDEST SWAP1 POP PUSH0 PUSH1 0x5 PUSH0 SLOAD GT DUP1 PUSH2 0x1B9 JUMPI POP PUSH1 0xA PUSH1 0x1 SLOAD LT JUMPDEST SWAP1 POP PUSH0 PUSH1 0x5 PUSH0 SLOAD GT ISZERO SWAP1 POP DUP3 DUP3 DUP3 SWAP6 POP SWAP6 POP SWAP6 POP POP POP POP SWAP1 SWAP2 SWAP3 JUMP JUMPDEST PUSH0 DUP2 SWAP1 POP SWAP2 SWAP1 POP JUMP JUMPDEST PUSH2 0x1E7 DUP2 PUSH2 0x1D5 JUMP JUMPDEST DUP3 MSTORE POP POP JUMP JUMPDEST PUSH0 PUSH1 0xA0 DUP3 ADD SWAP1 POP PUSH2 0x200 PUSH0 DUP4 ADD DUP9 PUSH2 0x1DE JUMP JUMPDEST PUSH2 0x20D PUSH1 0x20 DUP4 ADD DUP8 PUSH2 0x1DE JUMP JUMPDEST PUSH2 0x21A PUSH1 0x40 DUP4 ADD DUP7 PUSH2 0x1DE JUMP JUMPDEST PUSH2 0x227 PUSH1 0x60 DUP4 ADD DUP6 PUSH2 0x1DE JUMP JUMPDEST PUSH2 0x234 PUSH1 0x80 DUP4 ADD DUP5 PUSH2 0x1DE JUMP JUMPDEST SWAP7 SWAP6 POP POP POP POP POP POP JUMP JUMPDEST PUSH0 PUSH1 0x20 DUP3 ADD SWAP1 POP PUSH2 0x251 PUSH0 DUP4 ADD DUP5 PUSH2 0x1DE JUMP JUMPDEST SWAP3 SWAP2 POP POP JUMP JUMPDEST PUSH0 DUP2 ISZERO ISZERO SWAP1 POP SWAP2 SWAP1 POP JUMP JUMPDEST PUSH2 0x26B DUP2 PUSH2 0x257 JUMP JUMPDEST DUP3 MSTORE POP POP JUMP JUMPDEST PUSH0 PUSH1 0x80 DUP3 ADD SWAP1 POP PUSH2 0x284 PUSH0 DUP4 ADD DUP8 PUSH2 0x262 JUMP JUMPDEST PUSH2 0x291 PUSH1 0x20 DUP4 ADD DUP7 PUSH2 0x262 JUMP JUMPDEST PUSH2 0x29E PUSH1 0x40 DUP4 ADD DUP6 PUSH2 0x262 JUMP JUMPDEST PUSH2 0x2AB PUSH1 0x60 DUP4 ADD DUP5 PUSH2 0x262 JUMP JUMPDEST SWAP6 SWAP5 POP POP POP POP POP JUMP JUMPDEST PUSH0 PUSH1 0x60 DUP3 ADD SWAP1 POP PUSH2 0x2C7 PUSH0 DUP4 ADD DUP7 PUSH2 0x262 JUMP JUMPDEST PUSH2 0x2D4 PUSH1 0x20 DUP4 ADD DUP6 PUSH2 0x262 JUMP JUMPDEST PUSH2 0x2E1 PUSH1 0x40 DUP4 ADD DUP5 PUSH2 0x262 JUMP JUMPDEST SWAP5 SWAP4 POP POP POP POP JUMP JUMPDEST PUSH32 0x4E487B7100000000000000000000000000000000000000000000000000000000 PUSH0 MSTORE PUSH1 0x11 PUSH1 0x4 MSTORE PUSH1 0x24 PUSH0 REVERT JUMPDEST PUSH0 PUSH2 0x320 DUP3 PUSH2 0x1D5 JUMP JUMPDEST SWAP2 POP PUSH2 0x32B DUP4 PUSH2 0x1D5 JUMP JUMPDEST SWAP3 POP DUP3 DUP3 ADD SWAP1 POP DUP1 DUP3 GT ISZERO PUSH2 0x343 JUMPI PUSH2 0x342 PUSH2 0x2E9 JUMP JUMPDEST JUMPDEST SWAP3 SWAP2 POP POP JUMP JUMPDEST PUSH0 PUSH2 0x353 DUP3 PUSH2 0x1D5 JUMP JUMPDEST SWAP2 POP PUSH2 0x35E DUP4 PUSH2 0x1D5 JUMP JUMPDEST SWAP3 POP DUP3 DUP3 SUB SWAP1 POP DUP2 DUP2 GT ISZERO PUSH2 0x376 JUMPI PUSH2 0x375 PUSH2 0x2E9 JUMP JUMPDEST JUMPDEST SWAP3 SWAP2 POP POP JUMP JUMPDEST PUSH32 0x4E487B7100000000000000000000000000000000000000000000000000000000 PUSH0 MSTORE PUSH1 0x12 PUSH1 0x4 MSTORE PUSH1 0x24 PUSH0 REVERT JUMPDEST PUSH0 PUSH2 0x3B3 DUP3 PUSH2 0x1D5 JUMP JUMPDEST SWAP2 POP PUSH2 0x3BE DUP4 PUSH2 0x1D5 JUMP JUMPDEST SWAP3 POP DUP3 PUSH2 0x3CE JUMPI PUSH2 0x3CD PUSH2 0x37C JUMP JUMPDEST JUMPDEST DUP3 DUP3 DIV SWAP1 POP SWAP3 SWAP2 POP POP JUMP JUMPDEST PUSH0 PUSH2 0x3E3 DUP3 PUSH2 0x1D5 JUMP JUMPDEST SWAP2 POP PUSH2 0x3EE DUP4 PUSH2 0x1D5 JUMP JUMPDEST SWAP3 POP DUP3 PUSH2 0x3FE JUMPI PUSH2 0x3FD PUSH2 0x37C JUMP JUMPDEST JUMPDEST DUP3 DUP3 MOD SWAP1 POP SWAP3 SWAP2 POP POP JUMP INVALID LOG2 PUSH5 0x6970667358 0x22 SLT KECCAK256 CALLDATALOAD DELEGATECALL 0xB6 PUSH24 0xFFDBBC67114C50CE8CAF3B5B6A081BC83D636F1BE61D0B15 0xB4 BYTE 0x4F LOG4 PUSH5 0x736F6C6343 STOP ADDMOD BYTE STOP CALLER "
				},
				"gasEstimates": {
					"creation": {
						"codeDepositCost": "217400",
						"executionCost": "66572",
						"totalCost": "283972"
					},
					"external": {
						"logic()": "infinite",
						"maths()": "infinite",
						"publicVar()": "2424",
						"relation()": "infinite"
					}
				},
				"methodIdentifiers": {
					"logic()": "d7dfa0dd",
					"maths()": "07b3b40e",
					"publicVar()": "1151fad8",
					"relation()": "44e7d490"
				}
			},
			"storageLayout": {
				"storage": [
					{
						"astId": 32,
						"contract": "contracts/Hello.sol:Base",
						"label": "publicVar",
						"offset": 0,
						"slot": "0",
						"type": "t_uint256"
					},
					{
						"astId": 35,
						"contract": "contracts/Hello.sol:Base",
						"label": "privateVar",
						"offset": 0,
						"slot": "1",
						"type": "t_uint256"
					},
					{
						"astId": 38,
						"contract": "contracts/Hello.sol:Base",
						"label": "internalVar",
						"offset": 0,
						"slot": "2",
						"type": "t_uint256"
					},
					{
						"astId": 40,
						"contract": "contracts/Hello.sol:Base",
						"label": "result",
						"offset": 0,
						"slot": "3",
						"type": "t_bool"
					}
				],
				"types": {
					"t_bool": {
						"encoding": "inplace",
						"label": "bool",
						"numberOfBytes": "1"
					},
					"t_uint256": {
						"encoding": "inplace",
						"label": "uint256",
						"numberOfBytes": "32"
					}
				}
			},
			"userdoc": {
				"kind": "user",
				"methods": {},
				"version": 1
			}
		}
	}
}