{
	"contracts/sep9.sol": {
		"myCar": {
			"abi": [
				{
					"inputs": [],
					"name": "getter",
					"outputs": [
						{
							"internalType": "string",
							"name": "",
							"type": "string"
						}
					],
					"stateMutability": "view",
					"type": "function"
				},
				{
					"inputs": [],
					"name": "s",
					"outputs": [
						{
							"internalType": "string",
							"name": "",
							"type": "string"
						}
					],
					"stateMutability": "view",
					"type": "function"
				},
				{
					"inputs": [
						{
							"internalType": "string",
							"name": "k",
							"type": "string"
						}
					],
					"name": "setter",
					"outputs": [],
					"stateMutability": "nonpayable",
					"type": "function"
				}
			],
			"devdoc": {
				"kind": "dev",
				"methods": {},
				"version": 1
			},
			"evm": {
				"assembly": "    /* \"contracts/sep9.sol\":1257:1444  contract myCar{... */\n  mstore(0x40, 0x80)\n  callvalue\n  dup1\n  iszero\n  tag_1\n  jumpi\n  0x00\n  dup1\n  revert\ntag_1:\n  pop\n  dataSize(sub_0)\n  dup1\n  dataOffset(sub_0)\n  0x00\n  codecopy\n  0x00\n  return\nstop\n\nsub_0: assembly {\n        /* \"contracts/sep9.sol\":1257:1444  contract myCar{... */\n      mstore(0x40, 0x80)\n      callvalue\n      dup1\n      iszero\n      tag_1\n      jumpi\n      0x00\n      dup1\n      revert\n    tag_1:\n      pop\n      jumpi(tag_2, lt(calldatasize, 0x04))\n      shr(0xe0, calldataload(0x00))\n      dup1\n      0x846228a3\n      eq\n      tag_3\n      jumpi\n      dup1\n      0x86b714e2\n      eq\n      tag_4\n      jumpi\n      dup1\n      0x993a04b7\n      eq\n      tag_5\n      jumpi\n    tag_2:\n      0x00\n      dup1\n      revert\n        /* \"contracts/sep9.sol\":1298:1360  function setter(string memory k) public {... */\n    tag_3:\n      tag_6\n      0x04\n      dup1\n      calldatasize\n      sub\n      dup2\n      add\n      swap1\n      tag_7\n      swap2\n      swap1\n      tag_8\n      jump\t// in\n    tag_7:\n      tag_9\n      jump\t// in\n    tag_6:\n      stop\n        /* \"contracts/sep9.sol\":1277:1292  string public s */\n    tag_4:\n      tag_10\n      tag_11\n      jump\t// in\n    tag_10:\n      mload(0x40)\n      tag_12\n      swap2\n      swap1\n      tag_13\n      jump\t// in\n    tag_12:\n      mload(0x40)\n      dup1\n      swap2\n      sub\n      swap1\n      return\n        /* \"contracts/sep9.sol\":1365:1442  function getter() public view returns(string memory){... */\n    tag_5:\n      tag_14\n      tag_15\n      jump\t// in\n    tag_14:\n      mload(0x40)\n      tag_16\n      swap2\n      swap1\n      tag_13\n      jump\t// in\n    tag_16:\n      mload(0x40)\n      dup1\n      swap2\n      sub\n      swap1\n      return\n        /* \"contracts/sep9.sol\":1298:1360  function setter(string memory k) public {... */\n    tag_9:\n        /* \"contracts/sep9.sol\":1352:1353  k */\n      dup1\n        /* \"contracts/sep9.sol\":1348:1349  s */\n      0x00\n        /* \"contracts/sep9.sol\":1348:1353  s = k */\n      swap1\n      dup2\n      tag_18\n      swap2\n      swap1\n      tag_19\n      jump\t// in\n    tag_18:\n      pop\n        /* \"contracts/sep9.sol\":1298:1360  function setter(string memory k) public {... */\n      pop\n      jump\t// out\n        /* \"contracts/sep9.sol\":1277:1292  string public s */\n    tag_11:\n      0x00\n      dup1\n      sload\n      tag_20\n      swap1\n      tag_21\n      jump\t// in\n    tag_20:\n      dup1\n      0x1f\n      add\n      0x20\n      dup1\n      swap2\n      div\n      mul\n      0x20\n      add\n      mload(0x40)\n      swap1\n      dup2\n      add\n      0x40\n      mstore\n      dup1\n      swap3\n      swap2\n      swap1\n      dup2\n      dup2\n      mstore\n      0x20\n      add\n      dup3\n      dup1\n      sload\n      tag_22\n      swap1\n      tag_21\n      jump\t// in\n    tag_22:\n      dup1\n      iszero\n      tag_23\n      jumpi\n      dup1\n      0x1f\n      lt\n      tag_24\n      jumpi\n      0x0100\n      dup1\n      dup4\n      sload\n      div\n      mul\n      dup4\n      mstore\n      swap2\n      0x20\n      add\n      swap2\n      jump(tag_23)\n    tag_24:\n      dup3\n      add\n      swap2\n      swap1\n      0x00\n      mstore\n      keccak256(0x00, 0x20)\n      swap1\n    tag_25:\n      dup2\n      sload\n      dup2\n      mstore\n      swap1\n      0x01\n      add\n      swap1\n      0x20\n      add\n      dup1\n      dup4\n      gt\n      tag_25\n      jumpi\n      dup3\n      swap1\n      sub\n      0x1f\n      and\n      dup3\n      add\n      swap2\n    tag_23:\n      pop\n      pop\n      pop\n      pop\n      pop\n      dup2\n      jump\t// out\n        /* \"contracts/sep9.sol\":1365:1442  function getter() public view returns(string memory){... */\n    tag_15:\n        /* \"contracts/sep9.sol\":1403:1416  string memory */\n      0x60\n        /* \"contracts/sep9.sol\":1434:1435  s */\n      0x00\n        /* \"contracts/sep9.sol\":1427:1435  return s */\n      dup1\n      sload\n      tag_27\n      swap1\n      tag_21\n      jump\t// in\n    tag_27:\n      dup1\n      0x1f\n      add\n      0x20\n      dup1\n      swap2\n      div\n      mul\n      0x20\n      add\n      mload(0x40)\n      swap1\n      dup2\n      add\n      0x40\n      mstore\n      dup1\n      swap3\n      swap2\n      swap1\n      dup2\n      dup2\n      mstore\n      0x20\n      add\n      dup3\n      dup1\n      sload\n      tag_28\n      swap1\n      tag_21\n      jump\t// in\n    tag_28:\n      dup1\n      iszero\n      tag_29\n      jumpi\n      dup1\n      0x1f\n      lt\n      tag_30\n      jumpi\n      0x0100\n      dup1\n      dup4\n      sload\n      div\n      mul\n      dup4\n      mstore\n      swap2\n      0x20\n      add\n      swap2\n      jump(tag_29)\n    tag_30:\n      dup3\n      add\n      swap2\n      swap1\n      0x00\n      mstore\n      keccak256(0x00, 0x20)\n      swap1\n    tag_31:\n      dup2\n      sload\n      dup2\n      mstore\n      swap1\n      0x01\n      add\n      swap1\n      0x20\n      add\n      dup1\n      dup4\n      gt\n      tag_31\n      jumpi\n      dup3\n      swap1\n      sub\n      0x1f\n      and\n      dup3\n      add\n      swap2\n    tag_29:\n      pop\n      pop\n      pop\n      pop\n      pop\n      swap1\n      pop\n        /* \"contracts/sep9.sol\":1365:1442  function getter() public view returns(string memory){... */\n      swap1\n      jump\t// out\n        /* \"#utility.yul\":7:82   */\n    tag_32:\n        /* \"#utility.yul\":40:46   */\n      0x00\n        /* \"#utility.yul\":73:75   */\n      0x40\n        /* \"#utility.yul\":67:76   */\n      mload\n        /* \"#utility.yul\":57:76   */\n      swap1\n      pop\n        /* \"#utility.yul\":7:82   */\n      swap1\n      jump\t// out\n        /* \"#utility.yul\":88:205   */\n    tag_33:\n        /* \"#utility.yul\":197:198   */\n      0x00\n        /* \"#utility.yul\":194:195   */\n      dup1\n        /* \"#utility.yul\":187:199   */\n      revert\n        /* \"#utility.yul\":211:328   */\n    tag_34:\n        /* \"#utility.yul\":320:321   */\n      0x00\n        /* \"#utility.yul\":317:318   */\n      dup1\n        /* \"#utility.yul\":310:322   */\n      revert\n        /* \"#utility.yul\":334:451   */\n    tag_35:\n        /* \"#utility.yul\":443:444   */\n      0x00\n        /* \"#utility.yul\":440:441   */\n      dup1\n        /* \"#utility.yul\":433:445   */\n      revert\n        /* \"#utility.yul\":457:574   */\n    tag_36:\n        /* \"#utility.yul\":566:567   */\n      0x00\n        /* \"#utility.yul\":563:564   */\n      dup1\n        /* \"#utility.yul\":556:568   */\n      revert\n        /* \"#utility.yul\":580:682   */\n    tag_37:\n        /* \"#utility.yul\":621:627   */\n      0x00\n        /* \"#utility.yul\":672:674   */\n      0x1f\n        /* \"#utility.yul\":668:675   */\n      not\n        /* \"#utility.yul\":663:665   */\n      0x1f\n        /* \"#utility.yul\":656:661   */\n      dup4\n        /* \"#utility.yul\":652:666   */\n      add\n        /* \"#utility.yul\":648:676   */\n      and\n        /* \"#utility.yul\":638:676   */\n      swap1\n      pop\n        /* \"#utility.yul\":580:682   */\n      swap2\n      swap1\n      pop\n      jump\t// out\n        /* \"#utility.yul\":688:868   */\n    tag_38:\n        /* \"#utility.yul\":736:813   */\n      0x4e487b7100000000000000000000000000000000000000000000000000000000\n        /* \"#utility.yul\":733:734   */\n      0x00\n        /* \"#utility.yul\":726:814   */\n      mstore\n        /* \"#utility.yul\":833:837   */\n      0x41\n        /* \"#utility.yul\":830:831   */\n      0x04\n        /* \"#utility.yul\":823:838   */\n      mstore\n        /* \"#utility.yul\":857:861   */\n      0x24\n        /* \"#utility.yul\":854:855   */\n      0x00\n        /* \"#utility.yul\":847:862   */\n      revert\n        /* \"#utility.yul\":874:1155   */\n    tag_39:\n        /* \"#utility.yul\":957:984   */\n      tag_75\n        /* \"#utility.yul\":979:983   */\n      dup3\n        /* \"#utility.yul\":957:984   */\n      tag_37\n      jump\t// in\n    tag_75:\n        /* \"#utility.yul\":949:955   */\n      dup2\n        /* \"#utility.yul\":945:985   */\n      add\n        /* \"#utility.yul\":1087:1093   */\n      dup2\n        /* \"#utility.yul\":1075:1085   */\n      dup2\n        /* \"#utility.yul\":1072:1094   */\n      lt\n        /* \"#utility.yul\":1051:1069   */\n      0xffffffffffffffff\n        /* \"#utility.yul\":1039:1049   */\n      dup3\n        /* \"#utility.yul\":1036:1070   */\n      gt\n        /* \"#utility.yul\":1033:1095   */\n      or\n        /* \"#utility.yul\":1030:1118   */\n      iszero\n      tag_76\n      jumpi\n        /* \"#utility.yul\":1098:1116   */\n      tag_77\n      tag_38\n      jump\t// in\n    tag_77:\n        /* \"#utility.yul\":1030:1118   */\n    tag_76:\n        /* \"#utility.yul\":1138:1148   */\n      dup1\n        /* \"#utility.yul\":1134:1136   */\n      0x40\n        /* \"#utility.yul\":1127:1149   */\n      mstore\n        /* \"#utility.yul\":917:1155   */\n      pop\n        /* \"#utility.yul\":874:1155   */\n      pop\n      pop\n      jump\t// out\n        /* \"#utility.yul\":1161:1290   */\n    tag_40:\n        /* \"#utility.yul\":1195:1201   */\n      0x00\n        /* \"#utility.yul\":1222:1242   */\n      tag_79\n      tag_32\n      jump\t// in\n    tag_79:\n        /* \"#utility.yul\":1212:1242   */\n      swap1\n      pop\n        /* \"#utility.yul\":1251:1284   */\n      tag_80\n        /* \"#utility.yul\":1279:1283   */\n      dup3\n        /* \"#utility.yul\":1271:1277   */\n      dup3\n        /* \"#utility.yul\":1251:1284   */\n      tag_39\n      jump\t// in\n    tag_80:\n        /* \"#utility.yul\":1161:1290   */\n      swap2\n      swap1\n      pop\n      jump\t// out\n        /* \"#utility.yul\":1296:1604   */\n    tag_41:\n        /* \"#utility.yul\":1358:1362   */\n      0x00\n        /* \"#utility.yul\":1448:1466   */\n      0xffffffffffffffff\n        /* \"#utility.yul\":1440:1446   */\n      dup3\n        /* \"#utility.yul\":1437:1467   */\n      gt\n        /* \"#utility.yul\":1434:1490   */\n      iszero\n      tag_82\n      jumpi\n        /* \"#utility.yul\":1470:1488   */\n      tag_83\n      tag_38\n      jump\t// in\n    tag_83:\n        /* \"#utility.yul\":1434:1490   */\n    tag_82:\n        /* \"#utility.yul\":1508:1537   */\n      tag_84\n        /* \"#utility.yul\":1530:1536   */\n      dup3\n        /* \"#utility.yul\":1508:1537   */\n      tag_37\n      jump\t// in\n    tag_84:\n        /* \"#utility.yul\":1500:1537   */\n      swap1\n      pop\n        /* \"#utility.yul\":1592:1596   */\n      0x20\n        /* \"#utility.yul\":1586:1590   */\n      dup2\n        /* \"#utility.yul\":1582:1597   */\n      add\n        /* \"#utility.yul\":1574:1597   */\n      swap1\n      pop\n        /* \"#utility.yul\":1296:1604   */\n      swap2\n      swap1\n      pop\n      jump\t// out\n        /* \"#utility.yul\":1610:1758   */\n    tag_42:\n        /* \"#utility.yul\":1708:1714   */\n      dup3\n        /* \"#utility.yul\":1703:1706   */\n      dup2\n        /* \"#utility.yul\":1698:1701   */\n      dup4\n        /* \"#utility.yul\":1685:1715   */\n      calldatacopy\n        /* \"#utility.yul\":1749:1750   */\n      0x00\n        /* \"#utility.yul\":1740:1746   */\n      dup4\n        /* \"#utility.yul\":1735:1738   */\n      dup4\n        /* \"#utility.yul\":1731:1747   */\n      add\n        /* \"#utility.yul\":1724:1751   */\n      mstore\n        /* \"#utility.yul\":1610:1758   */\n      pop\n      pop\n      pop\n      jump\t// out\n        /* \"#utility.yul\":1764:2189   */\n    tag_43:\n        /* \"#utility.yul\":1842:1847   */\n      0x00\n        /* \"#utility.yul\":1867:1933   */\n      tag_87\n        /* \"#utility.yul\":1883:1932   */\n      tag_88\n        /* \"#utility.yul\":1925:1931   */\n      dup5\n        /* \"#utility.yul\":1883:1932   */\n      tag_41\n      jump\t// in\n    tag_88:\n        /* \"#utility.yul\":1867:1933   */\n      tag_40\n      jump\t// in\n    tag_87:\n        /* \"#utility.yul\":1858:1933   */\n      swap1\n      pop\n        /* \"#utility.yul\":1956:1962   */\n      dup3\n        /* \"#utility.yul\":1949:1954   */\n      dup2\n        /* \"#utility.yul\":1942:1963   */\n      mstore\n        /* \"#utility.yul\":1994:1998   */\n      0x20\n        /* \"#utility.yul\":1987:1992   */\n      dup2\n        /* \"#utility.yul\":1983:1999   */\n      add\n        /* \"#utility.yul\":2032:2035   */\n      dup5\n        /* \"#utility.yul\":2023:2029   */\n      dup5\n        /* \"#utility.yul\":2018:2021   */\n      dup5\n        /* \"#utility.yul\":2014:2030   */\n      add\n        /* \"#utility.yul\":2011:2036   */\n      gt\n        /* \"#utility.yul\":2008:2120   */\n      iszero\n      tag_89\n      jumpi\n        /* \"#utility.yul\":2039:2118   */\n      tag_90\n      tag_36\n      jump\t// in\n    tag_90:\n        /* \"#utility.yul\":2008:2120   */\n    tag_89:\n        /* \"#utility.yul\":2129:2183   */\n      tag_91\n        /* \"#utility.yul\":2176:2182   */\n      dup5\n        /* \"#utility.yul\":2171:2174   */\n      dup3\n        /* \"#utility.yul\":2166:2169   */\n      dup6\n        /* \"#utility.yul\":2129:2183   */\n      tag_42\n      jump\t// in\n    tag_91:\n        /* \"#utility.yul\":1848:2189   */\n      pop\n        /* \"#utility.yul\":1764:2189   */\n      swap4\n      swap3\n      pop\n      pop\n      pop\n      jump\t// out\n        /* \"#utility.yul\":2209:2549   */\n    tag_44:\n        /* \"#utility.yul\":2265:2270   */\n      0x00\n        /* \"#utility.yul\":2314:2317   */\n      dup3\n        /* \"#utility.yul\":2307:2311   */\n      0x1f\n        /* \"#utility.yul\":2299:2305   */\n      dup4\n        /* \"#utility.yul\":2295:2312   */\n      add\n        /* \"#utility.yul\":2291:2318   */\n      slt\n        /* \"#utility.yul\":2281:2403   */\n      tag_93\n      jumpi\n        /* \"#utility.yul\":2322:2401   */\n      tag_94\n      tag_35\n      jump\t// in\n    tag_94:\n        /* \"#utility.yul\":2281:2403   */\n    tag_93:\n        /* \"#utility.yul\":2439:2445   */\n      dup2\n        /* \"#utility.yul\":2426:2446   */\n      calldataload\n        /* \"#utility.yul\":2464:2543   */\n      tag_95\n        /* \"#utility.yul\":2539:2542   */\n      dup5\n        /* \"#utility.yul\":2531:2537   */\n      dup3\n        /* \"#utility.yul\":2524:2528   */\n      0x20\n        /* \"#utility.yul\":2516:2522   */\n      dup7\n        /* \"#utility.yul\":2512:2529   */\n      add\n        /* \"#utility.yul\":2464:2543   */\n      tag_43\n      jump\t// in\n    tag_95:\n        /* \"#utility.yul\":2455:2543   */\n      swap2\n      pop\n        /* \"#utility.yul\":2271:2549   */\n      pop\n        /* \"#utility.yul\":2209:2549   */\n      swap3\n      swap2\n      pop\n      pop\n      jump\t// out\n        /* \"#utility.yul\":2555:3064   */\n    tag_8:\n        /* \"#utility.yul\":2624:2630   */\n      0x00\n        /* \"#utility.yul\":2673:2675   */\n      0x20\n        /* \"#utility.yul\":2661:2670   */\n      dup3\n        /* \"#utility.yul\":2652:2659   */\n      dup5\n        /* \"#utility.yul\":2648:2671   */\n      sub\n        /* \"#utility.yul\":2644:2676   */\n      slt\n        /* \"#utility.yul\":2641:2760   */\n      iszero\n      tag_97\n      jumpi\n        /* \"#utility.yul\":2679:2758   */\n      tag_98\n      tag_33\n      jump\t// in\n    tag_98:\n        /* \"#utility.yul\":2641:2760   */\n    tag_97:\n        /* \"#utility.yul\":2827:2828   */\n      0x00\n        /* \"#utility.yul\":2816:2825   */\n      dup3\n        /* \"#utility.yul\":2812:2829   */\n      add\n        /* \"#utility.yul\":2799:2830   */\n      calldataload\n        /* \"#utility.yul\":2857:2875   */\n      0xffffffffffffffff\n        /* \"#utility.yul\":2849:2855   */\n      dup2\n        /* \"#utility.yul\":2846:2876   */\n      gt\n        /* \"#utility.yul\":2843:2960   */\n      iszero\n      tag_99\n      jumpi\n        /* \"#utility.yul\":2879:2958   */\n      tag_100\n      tag_34\n      jump\t// in\n    tag_100:\n        /* \"#utility.yul\":2843:2960   */\n    tag_99:\n        /* \"#utility.yul\":2984:3047   */\n      tag_101\n        /* \"#utility.yul\":3039:3046   */\n      dup5\n        /* \"#utility.yul\":3030:3036   */\n      dup3\n        /* \"#utility.yul\":3019:3028   */\n      dup6\n        /* \"#utility.yul\":3015:3037   */\n      add\n        /* \"#utility.yul\":2984:3047   */\n      tag_44\n      jump\t// in\n    tag_101:\n        /* \"#utility.yul\":2974:3047   */\n      swap2\n      pop\n        /* \"#utility.yul\":2770:3057   */\n      pop\n        /* \"#utility.yul\":2555:3064   */\n      swap3\n      swap2\n      pop\n      pop\n      jump\t// out\n        /* \"#utility.yul\":3070:3169   */\n    tag_45:\n        /* \"#utility.yul\":3122:3128   */\n      0x00\n        /* \"#utility.yul\":3156:3161   */\n      dup2\n        /* \"#utility.yul\":3150:3162   */\n      mload\n        /* \"#utility.yul\":3140:3162   */\n      swap1\n      pop\n        /* \"#utility.yul\":3070:3169   */\n      swap2\n      swap1\n      pop\n      jump\t// out\n        /* \"#utility.yul\":3175:3344   */\n    tag_46:\n        /* \"#utility.yul\":3259:3270   */\n      0x00\n        /* \"#utility.yul\":3293:3299   */\n      dup3\n        /* \"#utility.yul\":3288:3291   */\n      dup3\n        /* \"#utility.yul\":3281:3300   */\n      mstore\n        /* \"#utility.yul\":3333:3337   */\n      0x20\n        /* \"#utility.yul\":3328:3331   */\n      dup3\n        /* \"#utility.yul\":3324:3338   */\n      add\n        /* \"#utility.yul\":3309:3338   */\n      swap1\n      pop\n        /* \"#utility.yul\":3175:3344   */\n      swap3\n      swap2\n      pop\n      pop\n      jump\t// out\n        /* \"#utility.yul\":3350:3489   */\n    tag_47:\n        /* \"#utility.yul\":3439:3445   */\n      dup3\n        /* \"#utility.yul\":3434:3437   */\n      dup2\n        /* \"#utility.yul\":3429:3432   */\n      dup4\n        /* \"#utility.yul\":3423:3446   */\n      mcopy\n        /* \"#utility.yul\":3480:3481   */\n      0x00\n        /* \"#utility.yul\":3471:3477   */\n      dup4\n        /* \"#utility.yul\":3466:3469   */\n      dup4\n        /* \"#utility.yul\":3462:3478   */\n      add\n        /* \"#utility.yul\":3455:3482   */\n      mstore\n        /* \"#utility.yul\":3350:3489   */\n      pop\n      pop\n      pop\n      jump\t// out\n        /* \"#utility.yul\":3495:3872   */\n    tag_48:\n        /* \"#utility.yul\":3583:3586   */\n      0x00\n        /* \"#utility.yul\":3611:3650   */\n      tag_106\n        /* \"#utility.yul\":3644:3649   */\n      dup3\n        /* \"#utility.yul\":3611:3650   */\n      tag_45\n      jump\t// in\n    tag_106:\n        /* \"#utility.yul\":3666:3737   */\n      tag_107\n        /* \"#utility.yul\":3730:3736   */\n      dup2\n        /* \"#utility.yul\":3725:3728   */\n      dup6\n        /* \"#utility.yul\":3666:3737   */\n      tag_46\n      jump\t// in\n    tag_107:\n        /* \"#utility.yul\":3659:3737   */\n      swap4\n      pop\n        /* \"#utility.yul\":3746:3811   */\n      tag_108\n        /* \"#utility.yul\":3804:3810   */\n      dup2\n        /* \"#utility.yul\":3799:3802   */\n      dup6\n        /* \"#utility.yul\":3792:3796   */\n      0x20\n        /* \"#utility.yul\":3785:3790   */\n      dup7\n        /* \"#utility.yul\":3781:3797   */\n      add\n        /* \"#utility.yul\":3746:3811   */\n      tag_47\n      jump\t// in\n    tag_108:\n        /* \"#utility.yul\":3836:3865   */\n      tag_109\n        /* \"#utility.yul\":3858:3864   */\n      dup2\n        /* \"#utility.yul\":3836:3865   */\n      tag_37\n      jump\t// in\n    tag_109:\n        /* \"#utility.yul\":3831:3834   */\n      dup5\n        /* \"#utility.yul\":3827:3866   */\n      add\n        /* \"#utility.yul\":3820:3866   */\n      swap2\n      pop\n        /* \"#utility.yul\":3587:3872   */\n      pop\n        /* \"#utility.yul\":3495:3872   */\n      swap3\n      swap2\n      pop\n      pop\n      jump\t// out\n        /* \"#utility.yul\":3878:4191   */\n    tag_13:\n        /* \"#utility.yul\":3991:3995   */\n      0x00\n        /* \"#utility.yul\":4029:4031   */\n      0x20\n        /* \"#utility.yul\":4018:4027   */\n      dup3\n        /* \"#utility.yul\":4014:4032   */\n      add\n        /* \"#utility.yul\":4006:4032   */\n      swap1\n      pop\n        /* \"#utility.yul\":4078:4087   */\n      dup2\n        /* \"#utility.yul\":4072:4076   */\n      dup2\n        /* \"#utility.yul\":4068:4088   */\n      sub\n        /* \"#utility.yul\":4064:4065   */\n      0x00\n        /* \"#utility.yul\":4053:4062   */\n      dup4\n        /* \"#utility.yul\":4049:4066   */\n      add\n        /* \"#utility.yul\":4042:4089   */\n      mstore\n        /* \"#utility.yul\":4106:4184   */\n      tag_111\n        /* \"#utility.yul\":4179:4183   */\n      dup2\n        /* \"#utility.yul\":4170:4176   */\n      dup5\n        /* \"#utility.yul\":4106:4184   */\n      tag_48\n      jump\t// in\n    tag_111:\n        /* \"#utility.yul\":4098:4184   */\n      swap1\n      pop\n        /* \"#utility.yul\":3878:4191   */\n      swap3\n      swap2\n      pop\n      pop\n      jump\t// out\n        /* \"#utility.yul\":4197:4377   */\n    tag_49:\n        /* \"#utility.yul\":4245:4322   */\n      0x4e487b7100000000000000000000000000000000000000000000000000000000\n        /* \"#utility.yul\":4242:4243   */\n      0x00\n        /* \"#utility.yul\":4235:4323   */\n      mstore\n        /* \"#utility.yul\":4342:4346   */\n      0x22\n        /* \"#utility.yul\":4339:4340   */\n      0x04\n        /* \"#utility.yul\":4332:4347   */\n      mstore\n        /* \"#utility.yul\":4366:4370   */\n      0x24\n        /* \"#utility.yul\":4363:4364   */\n      0x00\n        /* \"#utility.yul\":4356:4371   */\n      revert\n        /* \"#utility.yul\":4383:4703   */\n    tag_21:\n        /* \"#utility.yul\":4427:4433   */\n      0x00\n        /* \"#utility.yul\":4464:4465   */\n      0x02\n        /* \"#utility.yul\":4458:4462   */\n      dup3\n        /* \"#utility.yul\":4454:4466   */\n      div\n        /* \"#utility.yul\":4444:4466   */\n      swap1\n      pop\n        /* \"#utility.yul\":4511:4512   */\n      0x01\n        /* \"#utility.yul\":4505:4509   */\n      dup3\n        /* \"#utility.yul\":4501:4513   */\n      and\n        /* \"#utility.yul\":4532:4550   */\n      dup1\n        /* \"#utility.yul\":4522:4603   */\n      tag_114\n      jumpi\n        /* \"#utility.yul\":4588:4592   */\n      0x7f\n        /* \"#utility.yul\":4580:4586   */\n      dup3\n        /* \"#utility.yul\":4576:4593   */\n      and\n        /* \"#utility.yul\":4566:4593   */\n      swap2\n      pop\n        /* \"#utility.yul\":4522:4603   */\n    tag_114:\n        /* \"#utility.yul\":4650:4652   */\n      0x20\n        /* \"#utility.yul\":4642:4648   */\n      dup3\n        /* \"#utility.yul\":4639:4653   */\n      lt\n        /* \"#utility.yul\":4619:4637   */\n      dup2\n        /* \"#utility.yul\":4616:4654   */\n      sub\n        /* \"#utility.yul\":4613:4697   */\n      tag_115\n      jumpi\n        /* \"#utility.yul\":4669:4687   */\n      tag_116\n      tag_49\n      jump\t// in\n    tag_116:\n        /* \"#utility.yul\":4613:4697   */\n    tag_115:\n        /* \"#utility.yul\":4434:4703   */\n      pop\n        /* \"#utility.yul\":4383:4703   */\n      swap2\n      swap1\n      pop\n      jump\t// out\n        /* \"#utility.yul\":4709:4850   */\n    tag_50:\n        /* \"#utility.yul\":4758:4762   */\n      0x00\n        /* \"#utility.yul\":4781:4784   */\n      dup2\n        /* \"#utility.yul\":4773:4784   */\n      swap1\n      pop\n        /* \"#utility.yul\":4804:4807   */\n      dup2\n        /* \"#utility.yul\":4801:4802   */\n      0x00\n        /* \"#utility.yul\":4794:4808   */\n      mstore\n        /* \"#utility.yul\":4838:4842   */\n      0x20\n        /* \"#utility.yul\":4835:4836   */\n      0x00\n        /* \"#utility.yul\":4825:4843   */\n      keccak256\n        /* \"#utility.yul\":4817:4843   */\n      swap1\n      pop\n        /* \"#utility.yul\":4709:4850   */\n      swap2\n      swap1\n      pop\n      jump\t// out\n        /* \"#utility.yul\":4856:4949   */\n    tag_51:\n        /* \"#utility.yul\":4893:4899   */\n      0x00\n        /* \"#utility.yul\":4940:4942   */\n      0x20\n        /* \"#utility.yul\":4935:4937   */\n      0x1f\n        /* \"#utility.yul\":4928:4933   */\n      dup4\n        /* \"#utility.yul\":4924:4938   */\n      add\n        /* \"#utility.yul\":4920:4943   */\n      div\n        /* \"#utility.yul\":4910:4943   */\n      swap1\n      pop\n        /* \"#utility.yul\":4856:4949   */\n      swap2\n      swap1\n      pop\n      jump\t// out\n        /* \"#utility.yul\":4955:5062   */\n    tag_52:\n        /* \"#utility.yul\":4999:5007   */\n      0x00\n        /* \"#utility.yul\":5049:5054   */\n      dup3\n        /* \"#utility.yul\":5043:5047   */\n      dup3\n        /* \"#utility.yul\":5039:5055   */\n      shl\n        /* \"#utility.yul\":5018:5055   */\n      swap1\n      pop\n        /* \"#utility.yul\":4955:5062   */\n      swap3\n      swap2\n      pop\n      pop\n      jump\t// out\n        /* \"#utility.yul\":5068:5461   */\n    tag_53:\n        /* \"#utility.yul\":5137:5143   */\n      0x00\n        /* \"#utility.yul\":5187:5188   */\n      0x08\n        /* \"#utility.yul\":5175:5185   */\n      dup4\n        /* \"#utility.yul\":5171:5189   */\n      mul\n        /* \"#utility.yul\":5210:5307   */\n      tag_121\n        /* \"#utility.yul\":5240:5306   */\n      0xffffffffffffffffffffffffffffffffffffffffffffffffffffffffffffffff\n        /* \"#utility.yul\":5229:5238   */\n      dup3\n        /* \"#utility.yul\":5210:5307   */\n      tag_52\n      jump\t// in\n    tag_121:\n        /* \"#utility.yul\":5328:5367   */\n      tag_122\n        /* \"#utility.yul\":5358:5366   */\n      dup7\n        /* \"#utility.yul\":5347:5356   */\n      dup4\n        /* \"#utility.yul\":5328:5367   */\n      tag_52\n      jump\t// in\n    tag_122:\n        /* \"#utility.yul\":5316:5367   */\n      swap6\n      pop\n        /* \"#utility.yul\":5400:5404   */\n      dup1\n        /* \"#utility.yul\":5396:5405   */\n      not\n        /* \"#utility.yul\":5389:5394   */\n      dup5\n        /* \"#utility.yul\":5385:5406   */\n      and\n        /* \"#utility.yul\":5376:5406   */\n      swap4\n      pop\n        /* \"#utility.yul\":5449:5453   */\n      dup1\n        /* \"#utility.yul\":5439:5447   */\n      dup7\n        /* \"#utility.yul\":5435:5454   */\n      and\n        /* \"#utility.yul\":5428:5433   */\n      dup5\n        /* \"#utility.yul\":5425:5455   */\n      or\n        /* \"#utility.yul\":5415:5455   */\n      swap3\n      pop\n        /* \"#utility.yul\":5144:5461   */\n      pop\n      pop\n        /* \"#utility.yul\":5068:5461   */\n      swap4\n      swap3\n      pop\n      pop\n      pop\n      jump\t// out\n        /* \"#utility.yul\":5467:5544   */\n    tag_54:\n        /* \"#utility.yul\":5504:5511   */\n      0x00\n        /* \"#utility.yul\":5533:5538   */\n      dup2\n        /* \"#utility.yul\":5522:5538   */\n      swap1\n      pop\n        /* \"#utility.yul\":5467:5544   */\n      swap2\n      swap1\n      pop\n      jump\t// out\n        /* \"#utility.yul\":5550:5610   */\n    tag_55:\n        /* \"#utility.yul\":5578:5581   */\n      0x00\n        /* \"#utility.yul\":5599:5604   */\n      dup2\n        /* \"#utility.yul\":5592:5604   */\n      swap1\n      pop\n        /* \"#utility.yul\":5550:5610   */\n      swap2\n      swap1\n      pop\n      jump\t// out\n        /* \"#utility.yul\":5616:5758   */\n    tag_56:\n        /* \"#utility.yul\":5666:5675   */\n      0x00\n        /* \"#utility.yul\":5699:5752   */\n      tag_126\n        /* \"#utility.yul\":5717:5751   */\n      tag_127\n        /* \"#utility.yul\":5726:5750   */\n      tag_128\n        /* \"#utility.yul\":5744:5749   */\n      dup5\n        /* \"#utility.yul\":5726:5750   */\n      tag_54\n      jump\t// in\n    tag_128:\n        /* \"#utility.yul\":5717:5751   */\n      tag_55\n      jump\t// in\n    tag_127:\n        /* \"#utility.yul\":5699:5752   */\n      tag_54\n      jump\t// in\n    tag_126:\n        /* \"#utility.yul\":5686:5752   */\n      swap1\n      pop\n        /* \"#utility.yul\":5616:5758   */\n      swap2\n      swap1\n      pop\n      jump\t// out\n        /* \"#utility.yul\":5764:5839   */\n    tag_57:\n        /* \"#utility.yul\":5807:5810   */\n      0x00\n        /* \"#utility.yul\":5828:5833   */\n      dup2\n        /* \"#utility.yul\":5821:5833   */\n      swap1\n      pop\n        /* \"#utility.yul\":5764:5839   */\n      swap2\n      swap1\n      pop\n      jump\t// out\n        /* \"#utility.yul\":5845:6114   */\n    tag_58:\n        /* \"#utility.yul\":5955:5994   */\n      tag_131\n        /* \"#utility.yul\":5986:5993   */\n      dup4\n        /* \"#utility.yul\":5955:5994   */\n      tag_56\n      jump\t// in\n    tag_131:\n        /* \"#utility.yul\":6016:6107   */\n      tag_132\n        /* \"#utility.yul\":6065:6106   */\n      tag_133\n        /* \"#utility.yul\":6089:6105   */\n      dup3\n        /* \"#utility.yul\":6065:6106   */\n      tag_57\n      jump\t// in\n    tag_133:\n        /* \"#utility.yul\":6057:6063   */\n      dup5\n        /* \"#utility.yul\":6050:6054   */\n      dup5\n        /* \"#utility.yul\":6044:6055   */\n      sload\n        /* \"#utility.yul\":6016:6107   */\n      tag_53\n      jump\t// in\n    tag_132:\n        /* \"#utility.yul\":6010:6014   */\n      dup3\n        /* \"#utility.yul\":6003:6108   */\n      sstore\n        /* \"#utility.yul\":5921:6114   */\n      pop\n        /* \"#utility.yul\":5845:6114   */\n      pop\n      pop\n      pop\n      jump\t// out\n        /* \"#utility.yul\":6120:6193   */\n    tag_59:\n        /* \"#utility.yul\":6165:6168   */\n      0x00\n        /* \"#utility.yul\":6120:6193   */\n      swap1\n      jump\t// out\n        /* \"#utility.yul\":6199:6388   */\n    tag_60:\n        /* \"#utility.yul\":6276:6308   */\n      tag_136\n      tag_59\n      jump\t// in\n    tag_136:\n        /* \"#utility.yul\":6317:6382   */\n      tag_137\n        /* \"#utility.yul\":6375:6381   */\n      dup2\n        /* \"#utility.yul\":6367:6373   */\n      dup5\n        /* \"#utility.yul\":6361:6365   */\n      dup5\n        /* \"#utility.yul\":6317:6382   */\n      tag_58\n      jump\t// in\n    tag_137:\n        /* \"#utility.yul\":6252:6388   */\n      pop\n        /* \"#utility.yul\":6199:6388   */\n      pop\n      pop\n      jump\t// out\n        /* \"#utility.yul\":6394:6580   */\n    tag_61:\n        /* \"#utility.yul\":6454:6574   */\n    tag_139:\n        /* \"#utility.yul\":6471:6474   */\n      dup2\n        /* \"#utility.yul\":6464:6469   */\n      dup2\n        /* \"#utility.yul\":6461:6475   */\n      lt\n        /* \"#utility.yul\":6454:6574   */\n      iszero\n      tag_141\n      jumpi\n        /* \"#utility.yul\":6525:6564   */\n      tag_142\n        /* \"#utility.yul\":6562:6563   */\n      0x00\n        /* \"#utility.yul\":6555:6560   */\n      dup3\n        /* \"#utility.yul\":6525:6564   */\n      tag_60\n      jump\t// in\n    tag_142:\n        /* \"#utility.yul\":6498:6499   */\n      0x01\n        /* \"#utility.yul\":6491:6496   */\n      dup2\n        /* \"#utility.yul\":6487:6500   */\n      add\n        /* \"#utility.yul\":6478:6500   */\n      swap1\n      pop\n        /* \"#utility.yul\":6454:6574   */\n      jump(tag_139)\n    tag_141:\n        /* \"#utility.yul\":6394:6580   */\n      pop\n      pop\n      jump\t// out\n        /* \"#utility.yul\":6586:7129   */\n    tag_62:\n        /* \"#utility.yul\":6687:6689   */\n      0x1f\n        /* \"#utility.yul\":6682:6685   */\n      dup3\n        /* \"#utility.yul\":6679:6690   */\n      gt\n        /* \"#utility.yul\":6676:7122   */\n      iszero\n      tag_144\n      jumpi\n        /* \"#utility.yul\":6721:6759   */\n      tag_145\n        /* \"#utility.yul\":6753:6758   */\n      dup2\n        /* \"#utility.yul\":6721:6759   */\n      tag_50\n      jump\t// in\n    tag_145:\n        /* \"#utility.yul\":6805:6834   */\n      tag_146\n        /* \"#utility.yul\":6823:6833   */\n      dup5\n        /* \"#utility.yul\":6805:6834   */\n      tag_51\n      jump\t// in\n    tag_146:\n        /* \"#utility.yul\":6795:6803   */\n      dup2\n        /* \"#utility.yul\":6791:6835   */\n      add\n        /* \"#utility.yul\":6988:6990   */\n      0x20\n        /* \"#utility.yul\":6976:6986   */\n      dup6\n        /* \"#utility.yul\":6973:6991   */\n      lt\n        /* \"#utility.yul\":6970:7019   */\n      iszero\n      tag_147\n      jumpi\n        /* \"#utility.yul\":7009:7017   */\n      dup2\n        /* \"#utility.yul\":6994:7017   */\n      swap1\n      pop\n        /* \"#utility.yul\":6970:7019   */\n    tag_147:\n        /* \"#utility.yul\":7032:7112   */\n      tag_148\n        /* \"#utility.yul\":7088:7110   */\n      tag_149\n        /* \"#utility.yul\":7106:7109   */\n      dup6\n        /* \"#utility.yul\":7088:7110   */\n      tag_51\n      jump\t// in\n    tag_149:\n        /* \"#utility.yul\":7078:7086   */\n      dup4\n        /* \"#utility.yul\":7074:7111   */\n      add\n        /* \"#utility.yul\":7061:7072   */\n      dup3\n        /* \"#utility.yul\":7032:7112   */\n      tag_61\n      jump\t// in\n    tag_148:\n        /* \"#utility.yul\":6691:7122   */\n      pop\n      pop\n        /* \"#utility.yul\":6676:7122   */\n    tag_144:\n        /* \"#utility.yul\":6586:7129   */\n      pop\n      pop\n      pop\n      jump\t// out\n        /* \"#utility.yul\":7135:7252   */\n    tag_63:\n        /* \"#utility.yul\":7189:7197   */\n      0x00\n        /* \"#utility.yul\":7239:7244   */\n      dup3\n        /* \"#utility.yul\":7233:7237   */\n      dup3\n        /* \"#utility.yul\":7229:7245   */\n      shr\n        /* \"#utility.yul\":7208:7245   */\n      swap1\n      pop\n        /* \"#utility.yul\":7135:7252   */\n      swap3\n      swap2\n      pop\n      pop\n      jump\t// out\n        /* \"#utility.yul\":7258:7427   */\n    tag_64:\n        /* \"#utility.yul\":7302:7308   */\n      0x00\n        /* \"#utility.yul\":7335:7386   */\n      tag_152\n        /* \"#utility.yul\":7383:7384   */\n      0x00\n        /* \"#utility.yul\":7379:7385   */\n      not\n        /* \"#utility.yul\":7371:7376   */\n      dup5\n        /* \"#utility.yul\":7368:7369   */\n      0x08\n        /* \"#utility.yul\":7364:7377   */\n      mul\n        /* \"#utility.yul\":7335:7386   */\n      tag_63\n      jump\t// in\n    tag_152:\n        /* \"#utility.yul\":7331:7387   */\n      not\n        /* \"#utility.yul\":7416:7420   */\n      dup1\n        /* \"#utility.yul\":7410:7414   */\n      dup4\n        /* \"#utility.yul\":7406:7421   */\n      and\n        /* \"#utility.yul\":7396:7421   */\n      swap2\n      pop\n        /* \"#utility.yul\":7309:7427   */\n      pop\n        /* \"#utility.yul\":7258:7427   */\n      swap3\n      swap2\n      pop\n      pop\n      jump\t// out\n        /* \"#utility.yul\":7432:7727   */\n    tag_65:\n        /* \"#utility.yul\":7508:7512   */\n      0x00\n        /* \"#utility.yul\":7654:7683   */\n      tag_154\n        /* \"#utility.yul\":7679:7682   */\n      dup4\n        /* \"#utility.yul\":7673:7677   */\n      dup4\n        /* \"#utility.yul\":7654:7683   */\n      tag_64\n      jump\t// in\n    tag_154:\n        /* \"#utility.yul\":7646:7683   */\n      swap2\n      pop\n        /* \"#utility.yul\":7716:7719   */\n      dup3\n        /* \"#utility.yul\":7713:7714   */\n      0x02\n        /* \"#utility.yul\":7709:7720   */\n      mul\n        /* \"#utility.yul\":7703:7707   */\n      dup3\n        /* \"#utility.yul\":7700:7721   */\n      or\n        /* \"#utility.yul\":7692:7721   */\n      swap1\n      pop\n        /* \"#utility.yul\":7432:7727   */\n      swap3\n      swap2\n      pop\n      pop\n      jump\t// out\n        /* \"#utility.yul\":7732:9127   */\n    tag_19:\n        /* \"#utility.yul\":7849:7886   */\n      tag_156\n        /* \"#utility.yul\":7882:7885   */\n      dup3\n        /* \"#utility.yul\":7849:7886   */\n      tag_45\n      jump\t// in\n    tag_156:\n        /* \"#utility.yul\":7951:7969   */\n      0xffffffffffffffff\n        /* \"#utility.yul\":7943:7949   */\n      dup2\n        /* \"#utility.yul\":7940:7970   */\n      gt\n        /* \"#utility.yul\":7937:7993   */\n      iszero\n      tag_157\n      jumpi\n        /* \"#utility.yul\":7973:7991   */\n      tag_158\n      tag_38\n      jump\t// in\n    tag_158:\n        /* \"#utility.yul\":7937:7993   */\n    tag_157:\n        /* \"#utility.yul\":8017:8055   */\n      tag_159\n        /* \"#utility.yul\":8049:8053   */\n      dup3\n        /* \"#utility.yul\":8043:8054   */\n      sload\n        /* \"#utility.yul\":8017:8055   */\n      tag_21\n      jump\t// in\n    tag_159:\n        /* \"#utility.yul\":8102:8169   */\n      tag_160\n        /* \"#utility.yul\":8162:8168   */\n      dup3\n        /* \"#utility.yul\":8154:8160   */\n      dup3\n        /* \"#utility.yul\":8148:8152   */\n      dup6\n        /* \"#utility.yul\":8102:8169   */\n      tag_62\n      jump\t// in\n    tag_160:\n        /* \"#utility.yul\":8196:8197   */\n      0x00\n        /* \"#utility.yul\":8220:8224   */\n      0x20\n        /* \"#utility.yul\":8207:8224   */\n      swap1\n      pop\n        /* \"#utility.yul\":8252:8254   */\n      0x1f\n        /* \"#utility.yul\":8244:8250   */\n      dup4\n        /* \"#utility.yul\":8241:8255   */\n      gt\n        /* \"#utility.yul\":8269:8270   */\n      0x01\n        /* \"#utility.yul\":8264:8882   */\n      dup2\n      eq\n      tag_162\n      jumpi\n        /* \"#utility.yul\":8926:8927   */\n      0x00\n        /* \"#utility.yul\":8943:8949   */\n      dup5\n        /* \"#utility.yul\":8940:9017   */\n      iszero\n      tag_163\n      jumpi\n        /* \"#utility.yul\":8992:9001   */\n      dup3\n        /* \"#utility.yul\":8987:8990   */\n      dup8\n        /* \"#utility.yul\":8983:9002   */\n      add\n        /* \"#utility.yul\":8977:9003   */\n      mload\n        /* \"#utility.yul\":8968:9003   */\n      swap1\n      pop\n        /* \"#utility.yul\":8940:9017   */\n    tag_163:\n        /* \"#utility.yul\":9043:9110   */\n      tag_164\n        /* \"#utility.yul\":9103:9109   */\n      dup6\n        /* \"#utility.yul\":9096:9101   */\n      dup3\n        /* \"#utility.yul\":9043:9110   */\n      tag_65\n      jump\t// in\n    tag_164:\n        /* \"#utility.yul\":9037:9041   */\n      dup7\n        /* \"#utility.yul\":9030:9111   */\n      sstore\n        /* \"#utility.yul\":8899:9121   */\n      pop\n        /* \"#utility.yul\":8234:9121   */\n      jump(tag_161)\n        /* \"#utility.yul\":8264:8882   */\n    tag_162:\n        /* \"#utility.yul\":8316:8320   */\n      0x1f\n        /* \"#utility.yul\":8312:8321   */\n      not\n        /* \"#utility.yul\":8304:8310   */\n      dup5\n        /* \"#utility.yul\":8300:8322   */\n      and\n        /* \"#utility.yul\":8350:8387   */\n      tag_165\n        /* \"#utility.yul\":8382:8386   */\n      dup7\n        /* \"#utility.yul\":8350:8387   */\n      tag_50\n      jump\t// in\n    tag_165:\n        /* \"#utility.yul\":8409:8410   */\n      0x00\n        /* \"#utility.yul\":8423:8631   */\n    tag_166:\n        /* \"#utility.yul\":8437:8444   */\n      dup3\n        /* \"#utility.yul\":8434:8435   */\n      dup2\n        /* \"#utility.yul\":8431:8445   */\n      lt\n        /* \"#utility.yul\":8423:8631   */\n      iszero\n      tag_168\n      jumpi\n        /* \"#utility.yul\":8516:8525   */\n      dup5\n        /* \"#utility.yul\":8511:8514   */\n      dup10\n        /* \"#utility.yul\":8507:8526   */\n      add\n        /* \"#utility.yul\":8501:8527   */\n      mload\n        /* \"#utility.yul\":8493:8499   */\n      dup3\n        /* \"#utility.yul\":8486:8528   */\n      sstore\n        /* \"#utility.yul\":8567:8568   */\n      0x01\n        /* \"#utility.yul\":8559:8565   */\n      dup3\n        /* \"#utility.yul\":8555:8569   */\n      add\n        /* \"#utility.yul\":8545:8569   */\n      swap2\n      pop\n        /* \"#utility.yul\":8614:8616   */\n      0x20\n        /* \"#utility.yul\":8603:8612   */\n      dup6\n        /* \"#utility.yul\":8599:8617   */\n      add\n        /* \"#utility.yul\":8586:8617   */\n      swap5\n      pop\n        /* \"#utility.yul\":8460:8464   */\n      0x20\n        /* \"#utility.yul\":8457:8458   */\n      dup2\n        /* \"#utility.yul\":8453:8465   */\n      add\n        /* \"#utility.yul\":8448:8465   */\n      swap1\n      pop\n        /* \"#utility.yul\":8423:8631   */\n      jump(tag_166)\n    tag_168:\n        /* \"#utility.yul\":8659:8665   */\n      dup7\n        /* \"#utility.yul\":8650:8657   */\n      dup4\n        /* \"#utility.yul\":8647:8666   */\n      lt\n        /* \"#utility.yul\":8644:8823   */\n      iszero\n      tag_169\n      jumpi\n        /* \"#utility.yul\":8717:8726   */\n      dup5\n        /* \"#utility.yul\":8712:8715   */\n      dup10\n        /* \"#utility.yul\":8708:8727   */\n      add\n        /* \"#utility.yul\":8702:8728   */\n      mload\n        /* \"#utility.yul\":8760:8808   */\n      tag_170\n        /* \"#utility.yul\":8802:8806   */\n      0x1f\n        /* \"#utility.yul\":8794:8800   */\n      dup10\n        /* \"#utility.yul\":8790:8807   */\n      and\n        /* \"#utility.yul\":8779:8788   */\n      dup3\n        /* \"#utility.yul\":8760:8808   */\n      tag_64\n      jump\t// in\n    tag_170:\n        /* \"#utility.yul\":8752:8758   */\n      dup4\n        /* \"#utility.yul\":8745:8809   */\n      sstore\n        /* \"#utility.yul\":8667:8823   */\n      pop\n        /* \"#utility.yul\":8644:8823   */\n    tag_169:\n        /* \"#utility.yul\":8869:8870   */\n      0x01\n        /* \"#utility.yul\":8865:8866   */\n      0x02\n        /* \"#utility.yul\":8857:8863   */\n      dup9\n        /* \"#utility.yul\":8853:8867   */\n      mul\n        /* \"#utility.yul\":8849:8871   */\n      add\n        /* \"#utility.yul\":8843:8847   */\n      dup9\n        /* \"#utility.yul\":8836:8872   */\n      sstore\n        /* \"#utility.yul\":8271:8882   */\n      pop\n      pop\n      pop\n        /* \"#utility.yul\":8234:9121   */\n    tag_161:\n      pop\n        /* \"#utility.yul\":7824:9127   */\n      pop\n      pop\n      pop\n        /* \"#utility.yul\":7732:9127   */\n      pop\n      pop\n      jump\t// out\n\n    auxdata: 0xa26469706673582212201ff4fc2bafb89bc0982be51c6e2838822569c6e5c93f46386c45eeb6bf798a6b64736f6c634300081a0033\n}\n",
				"bytecode": {
					"linkReferences": {},
					"object": "6080604052348015600e575f80fd5b506106e38061001c5f395ff3fe608060405234801561000f575f80fd5b506004361061003f575f3560e01c8063846228a31461004357806386b714e21461005f578063993a04b71461007d575b5f80fd5b61005d60048036038101906100589190610314565b61009b565b005b6100676100ad565b60405161007491906103bb565b60405180910390f35b610085610138565b60405161009291906103bb565b60405180910390f35b805f90816100a991906105de565b5050565b5f80546100b990610408565b80601f01602080910402602001604051908101604052809291908181526020018280546100e590610408565b80156101305780601f1061010757610100808354040283529160200191610130565b820191905f5260205f20905b81548152906001019060200180831161011357829003601f168201915b505050505081565b60605f805461014690610408565b80601f016020809104026020016040519081016040528092919081815260200182805461017290610408565b80156101bd5780601f10610194576101008083540402835291602001916101bd565b820191905f5260205f20905b8154815290600101906020018083116101a057829003601f168201915b5050505050905090565b5f604051905090565b5f80fd5b5f80fd5b5f80fd5b5f80fd5b5f601f19601f8301169050919050565b7f4e487b71000000000000000000000000000000000000000000000000000000005f52604160045260245ffd5b610226826101e0565b810181811067ffffffffffffffff82111715610245576102446101f0565b5b80604052505050565b5f6102576101c7565b9050610263828261021d565b919050565b5f67ffffffffffffffff821115610282576102816101f0565b5b61028b826101e0565b9050602081019050919050565b828183375f83830152505050565b5f6102b86102b384610268565b61024e565b9050828152602081018484840111156102d4576102d36101dc565b5b6102df848285610298565b509392505050565b5f82601f8301126102fb576102fa6101d8565b5b813561030b8482602086016102a6565b91505092915050565b5f60208284031215610329576103286101d0565b5b5f82013567ffffffffffffffff811115610346576103456101d4565b5b610352848285016102e7565b91505092915050565b5f81519050919050565b5f82825260208201905092915050565b8281835e5f83830152505050565b5f61038d8261035b565b6103978185610365565b93506103a7818560208601610375565b6103b0816101e0565b840191505092915050565b5f6020820190508181035f8301526103d38184610383565b905092915050565b7f4e487b71000000000000000000000000000000000000000000000000000000005f52602260045260245ffd5b5f600282049050600182168061041f57607f821691505b602082108103610432576104316103db565b5b50919050565b5f819050815f5260205f209050919050565b5f6020601f8301049050919050565b5f82821b905092915050565b5f600883026104947fffffffffffffffffffffffffffffffffffffffffffffffffffffffffffffffff82610459565b61049e8683610459565b95508019841693508086168417925050509392505050565b5f819050919050565b5f819050919050565b5f6104e26104dd6104d8846104b6565b6104bf565b6104b6565b9050919050565b5f819050919050565b6104fb836104c8565b61050f610507826104e9565b848454610465565b825550505050565b5f90565b610523610517565b61052e8184846104f2565b505050565b5b81811015610551576105465f8261051b565b600181019050610534565b5050565b601f8211156105965761056781610438565b6105708461044a565b8101602085101561057f578190505b61059361058b8561044a565b830182610533565b50505b505050565b5f82821c905092915050565b5f6105b65f198460080261059b565b1980831691505092915050565b5f6105ce83836105a7565b9150826002028217905092915050565b6105e78261035b565b67ffffffffffffffff811115610600576105ff6101f0565b5b61060a8254610408565b610615828285610555565b5f60209050601f831160018114610646575f8415610634578287015190505b61063e85826105c3565b8655506106a5565b601f19841661065486610438565b5f5b8281101561067b57848901518255600182019150602085019450602081019050610656565b868310156106985784890151610694601f8916826105a7565b8355505b6001600288020188555050505b50505050505056fea26469706673582212201ff4fc2bafb89bc0982be51c6e2838822569c6e5c93f46386c45eeb6bf798a6b64736f6c634300081a0033",
					"opcodes": "PUSH1 0x80 PUSH1 0x40 MSTORE CALLVALUE DUP1 ISZERO PUSH1 0xE JUMPI PUSH0 DUP1 REVERT JUMPDEST POP PUSH2 0x6E3 DUP1 PUSH2 0x1C PUSH0 CODECOPY PUSH0 RETURN INVALID PUSH1 0x80 PUSH1 0x40 MSTORE CALLVALUE DUP1 ISZERO PUSH2 0xF JUMPI PUSH0 DUP1 REVERT JUMPDEST POP PUSH1 0x4 CALLDATASIZE LT PUSH2 0x3F JUMPI PUSH0 CALLDATALOAD PUSH1 0xE0 SHR DUP1 PUSH4 0x846228A3 EQ PUSH2 0x43 JUMPI DUP1 PUSH4 0x86B714E2 EQ PUSH2 0x5F JUMPI DUP1 PUSH4 0x993A04B7 EQ PUSH2 0x7D JUMPI JUMPDEST PUSH0 DUP1 REVERT JUMPDEST PUSH2 0x5D PUSH1 0x4 DUP1 CALLDATASIZE SUB DUP2 ADD SWAP1 PUSH2 0x58 SWAP2 SWAP1 PUSH2 0x314 JUMP JUMPDEST PUSH2 0x9B JUMP JUMPDEST STOP JUMPDEST PUSH2 0x67 PUSH2 0xAD JUMP JUMPDEST PUSH1 0x40 MLOAD PUSH2 0x74 SWAP2 SWAP1 PUSH2 0x3BB JUMP JUMPDEST PUSH1 0x40 MLOAD DUP1 SWAP2 SUB SWAP1 RETURN JUMPDEST PUSH2 0x85 PUSH2 0x138 JUMP JUMPDEST PUSH1 0x40 MLOAD PUSH2 0x92 SWAP2 SWAP1 PUSH2 0x3BB JUMP JUMPDEST PUSH1 0x40 MLOAD DUP1 SWAP2 SUB SWAP1 RETURN JUMPDEST DUP1 PUSH0 SWAP1 DUP2 PUSH2 0xA9 SWAP2 SWAP1 PUSH2 0x5DE JUMP JUMPDEST POP POP JUMP JUMPDEST PUSH0 DUP1 SLOAD PUSH2 0xB9 SWAP1 PUSH2 0x408 JUMP JUMPDEST DUP1 PUSH1 0x1F ADD PUSH1 0x20 DUP1 SWAP2 DIV MUL PUSH1 0x20 ADD PUSH1 0x40 MLOAD SWAP1 DUP2 ADD PUSH1 0x40 MSTORE DUP1 SWAP3 SWAP2 SWAP1 DUP2 DUP2 MSTORE PUSH1 0x20 ADD DUP3 DUP1 SLOAD PUSH2 0xE5 SWAP1 PUSH2 0x408 JUMP JUMPDEST DUP1 ISZERO PUSH2 0x130 JUMPI DUP1 PUSH1 0x1F LT PUSH2 0x107 JUMPI PUSH2 0x100 DUP1 DUP4 SLOAD DIV MUL DUP4 MSTORE SWAP2 PUSH1 0x20 ADD SWAP2 PUSH2 0x130 JUMP JUMPDEST DUP3 ADD SWAP2 SWAP1 PUSH0 MSTORE PUSH1 0x20 PUSH0 KECCAK256 SWAP1 JUMPDEST DUP2 SLOAD DUP2 MSTORE SWAP1 PUSH1 0x1 ADD SWAP1 PUSH1 0x20 ADD DUP1 DUP4 GT PUSH2 0x113 JUMPI DUP3 SWAP1 SUB PUSH1 0x1F AND DUP3 ADD SWAP2 JUMPDEST POP POP POP POP POP DUP2 JUMP JUMPDEST PUSH1 0x60 PUSH0 DUP1 SLOAD PUSH2 0x146 SWAP1 PUSH2 0x408 JUMP JUMPDEST DUP1 PUSH1 0x1F ADD PUSH1 0x20 DUP1 SWAP2 DIV MUL PUSH1 0x20 ADD PUSH1 0x40 MLOAD SWAP1 DUP2 ADD PUSH1 0x40 MSTORE DUP1 SWAP3 SWAP2 SWAP1 DUP2 DUP2 MSTORE PUSH1 0x20 ADD DUP3 DUP1 SLOAD PUSH2 0x172 SWAP1 PUSH2 0x408 JUMP JUMPDEST DUP1 ISZERO PUSH2 0x1BD JUMPI DUP1 PUSH1 0x1F LT PUSH2 0x194 JUMPI PUSH2 0x100 DUP1 DUP4 SLOAD DIV MUL DUP4 MSTORE SWAP2 PUSH1 0x20 ADD SWAP2 PUSH2 0x1BD JUMP JUMPDEST DUP3 ADD SWAP2 SWAP1 PUSH0 MSTORE PUSH1 0x20 PUSH0 KECCAK256 SWAP1 JUMPDEST DUP2 SLOAD DUP2 MSTORE SWAP1 PUSH1 0x1 ADD SWAP1 PUSH1 0x20 ADD DUP1 DUP4 GT PUSH2 0x1A0 JUMPI DUP3 SWAP1 SUB PUSH1 0x1F AND DUP3 ADD SWAP2 JUMPDEST POP POP POP POP POP SWAP1 POP SWAP1 JUMP JUMPDEST PUSH0 PUSH1 0x40 MLOAD SWAP1 POP SWAP1 JUMP JUMPDEST PUSH0 DUP1 REVERT JUMPDEST PUSH0 DUP1 REVERT JUMPDEST PUSH0 DUP1 REVERT JUMPDEST PUSH0 DUP1 REVERT JUMPDEST PUSH0 PUSH1 0x1F NOT PUSH1 0x1F DUP4 ADD AND SWAP1 POP SWAP2 SWAP1 POP JUMP JUMPDEST PUSH32 0x4E487B7100000000000000000000000000000000000000000000000000000000 PUSH0 MSTORE PUSH1 0x41 PUSH1 0x4 MSTORE PUSH1 0x24 PUSH0 REVERT JUMPDEST PUSH2 0x226 DUP3 PUSH2 0x1E0 JUMP JUMPDEST DUP2 ADD DUP2 DUP2 LT PUSH8 0xFFFFFFFFFFFFFFFF DUP3 GT OR ISZERO PUSH2 0x245 JUMPI PUSH2 0x244 PUSH2 0x1F0 JUMP JUMPDEST JUMPDEST DUP1 PUSH1 0x40 MSTORE POP POP POP JUMP JUMPDEST PUSH0 PUSH2 0x257 PUSH2 0x1C7 JUMP JUMPDEST SWAP1 POP PUSH2 0x263 DUP3 DUP3 PUSH2 0x21D JUMP JUMPDEST SWAP2 SWAP1 POP JUMP JUMPDEST PUSH0 PUSH8 0xFFFFFFFFFFFFFFFF DUP3 GT ISZERO PUSH2 0x282 JUMPI PUSH2 0x281 PUSH2 0x1F0 JUMP JUMPDEST JUMPDEST PUSH2 0x28B DUP3 PUSH2 0x1E0 JUMP JUMPDEST SWAP1 POP PUSH1 0x20 DUP2 ADD SWAP1 POP SWAP2 SWAP1 POP JUMP JUMPDEST DUP3 DUP2 DUP4 CALLDATACOPY PUSH0 DUP4 DUP4 ADD MSTORE POP POP POP JUMP JUMPDEST PUSH0 PUSH2 0x2B8 PUSH2 0x2B3 DUP5 PUSH2 0x268 JUMP JUMPDEST PUSH2 0x24E JUMP JUMPDEST SWAP1 POP DUP3 DUP2 MSTORE PUSH1 0x20 DUP2 ADD DUP5 DUP5 DUP5 ADD GT ISZERO PUSH2 0x2D4 JUMPI PUSH2 0x2D3 PUSH2 0x1DC JUMP JUMPDEST JUMPDEST PUSH2 0x2DF DUP5 DUP3 DUP6 PUSH2 0x298 JUMP JUMPDEST POP SWAP4 SWAP3 POP POP POP JUMP JUMPDEST PUSH0 DUP3 PUSH1 0x1F DUP4 ADD SLT PUSH2 0x2FB JUMPI PUSH2 0x2FA PUSH2 0x1D8 JUMP JUMPDEST JUMPDEST DUP2 CALLDATALOAD PUSH2 0x30B DUP5 DUP3 PUSH1 0x20 DUP7 ADD PUSH2 0x2A6 JUMP JUMPDEST SWAP2 POP POP SWAP3 SWAP2 POP POP JUMP JUMPDEST PUSH0 PUSH1 0x20 DUP3 DUP5 SUB SLT ISZERO PUSH2 0x329 JUMPI PUSH2 0x328 PUSH2 0x1D0 JUMP JUMPDEST JUMPDEST PUSH0 DUP3 ADD CALLDATALOAD PUSH8 0xFFFFFFFFFFFFFFFF DUP2 GT ISZERO PUSH2 0x346 JUMPI PUSH2 0x345 PUSH2 0x1D4 JUMP JUMPDEST JUMPDEST PUSH2 0x352 DUP5 DUP3 DUP6 ADD PUSH2 0x2E7 JUMP JUMPDEST SWAP2 POP POP SWAP3 SWAP2 POP POP JUMP JUMPDEST PUSH0 DUP2 MLOAD SWAP1 POP SWAP2 SWAP1 POP JUMP JUMPDEST PUSH0 DUP3 DUP3 MSTORE PUSH1 0x20 DUP3 ADD SWAP1 POP SWAP3 SWAP2 POP POP JUMP JUMPDEST DUP3 DUP2 DUP4 MCOPY PUSH0 DUP4 DUP4 ADD MSTORE POP POP POP JUMP JUMPDEST PUSH0 PUSH2 0x38D DUP3 PUSH2 0x35B JUMP JUMPDEST PUSH2 0x397 DUP2 DUP6 PUSH2 0x365 JUMP JUMPDEST SWAP4 POP PUSH2 0x3A7 DUP2 DUP6 PUSH1 0x20 DUP7 ADD PUSH2 0x375 JUMP JUMPDEST PUSH2 0x3B0 DUP2 PUSH2 0x1E0 JUMP JUMPDEST DUP5 ADD SWAP2 POP POP SWAP3 SWAP2 POP POP JUMP JUMPDEST PUSH0 PUSH1 0x20 DUP3 ADD SWAP1 POP DUP2 DUP2 SUB PUSH0 DUP4 ADD MSTORE PUSH2 0x3D3 DUP2 DUP5 PUSH2 0x383 JUMP JUMPDEST SWAP1 POP SWAP3 SWAP2 POP POP JUMP JUMPDEST PUSH32 0x4E487B7100000000000000000000000000000000000000000000000000000000 PUSH0 MSTORE PUSH1 0x22 PUSH1 0x4 MSTORE PUSH1 0x24 PUSH0 REVERT JUMPDEST PUSH0 PUSH1 0x2 DUP3 DIV SWAP1 POP PUSH1 0x1 DUP3 AND DUP1 PUSH2 0x41F JUMPI PUSH1 0x7F DUP3 AND SWAP2 POP JUMPDEST PUSH1 0x20 DUP3 LT DUP2 SUB PUSH2 0x432 JUMPI PUSH2 0x431 PUSH2 0x3DB JUMP JUMPDEST JUMPDEST POP SWAP2 SWAP1 POP JUMP JUMPDEST PUSH0 DUP2 SWAP1 POP DUP2 PUSH0 MSTORE PUSH1 0x20 PUSH0 KECCAK256 SWAP1 POP SWAP2 SWAP1 POP JUMP JUMPDEST PUSH0 PUSH1 0x20 PUSH1 0x1F DUP4 ADD DIV SWAP1 POP SWAP2 SWAP1 POP JUMP JUMPDEST PUSH0 DUP3 DUP3 SHL SWAP1 POP SWAP3 SWAP2 POP POP JUMP JUMPDEST PUSH0 PUSH1 0x8 DUP4 MUL PUSH2 0x494 PUSH32 0xFFFFFFFFFFFFFFFFFFFFFFFFFFFFFFFFFFFFFFFFFFFFFFFFFFFFFFFFFFFFFFFF DUP3 PUSH2 0x459 JUMP JUMPDEST PUSH2 0x49E DUP7 DUP4 PUSH2 0x459 JUMP JUMPDEST SWAP6 POP DUP1 NOT DUP5 AND SWAP4 POP DUP1 DUP7 AND DUP5 OR SWAP3 POP POP POP SWAP4 SWAP3 POP POP POP JUMP JUMPDEST PUSH0 DUP2 SWAP1 POP SWAP2 SWAP1 POP JUMP JUMPDEST PUSH0 DUP2 SWAP1 POP SWAP2 SWAP1 POP JUMP JUMPDEST PUSH0 PUSH2 0x4E2 PUSH2 0x4DD PUSH2 0x4D8 DUP5 PUSH2 0x4B6 JUMP JUMPDEST PUSH2 0x4BF JUMP JUMPDEST PUSH2 0x4B6 JUMP JUMPDEST SWAP1 POP SWAP2 SWAP1 POP JUMP JUMPDEST PUSH0 DUP2 SWAP1 POP SWAP2 SWAP1 POP JUMP JUMPDEST PUSH2 0x4FB DUP4 PUSH2 0x4C8 JUMP JUMPDEST PUSH2 0x50F PUSH2 0x507 DUP3 PUSH2 0x4E9 JUMP JUMPDEST DUP5 DUP5 SLOAD PUSH2 0x465 JUMP JUMPDEST DUP3 SSTORE POP POP POP POP JUMP JUMPDEST PUSH0 SWAP1 JUMP JUMPDEST PUSH2 0x523 PUSH2 0x517 JUMP JUMPDEST PUSH2 0x52E DUP2 DUP5 DUP5 PUSH2 0x4F2 JUMP JUMPDEST POP POP POP JUMP JUMPDEST JUMPDEST DUP2 DUP2 LT ISZERO PUSH2 0x551 JUMPI PUSH2 0x546 PUSH0 DUP3 PUSH2 0x51B JUMP JUMPDEST PUSH1 0x1 DUP2 ADD SWAP1 POP PUSH2 0x534 JUMP JUMPDEST POP POP JUMP JUMPDEST PUSH1 0x1F DUP3 GT ISZERO PUSH2 0x596 JUMPI PUSH2 0x567 DUP2 PUSH2 0x438 JUMP JUMPDEST PUSH2 0x570 DUP5 PUSH2 0x44A JUMP JUMPDEST DUP2 ADD PUSH1 0x20 DUP6 LT ISZERO PUSH2 0x57F JUMPI DUP2 SWAP1 POP JUMPDEST PUSH2 0x593 PUSH2 0x58B DUP6 PUSH2 0x44A JUMP JUMPDEST DUP4 ADD DUP3 PUSH2 0x533 JUMP JUMPDEST POP POP JUMPDEST POP POP POP JUMP JUMPDEST PUSH0 DUP3 DUP3 SHR SWAP1 POP SWAP3 SWAP2 POP POP JUMP JUMPDEST PUSH0 PUSH2 0x5B6 PUSH0 NOT DUP5 PUSH1 0x8 MUL PUSH2 0x59B JUMP JUMPDEST NOT DUP1 DUP4 AND SWAP2 POP POP SWAP3 SWAP2 POP POP JUMP JUMPDEST PUSH0 PUSH2 0x5CE DUP4 DUP4 PUSH2 0x5A7 JUMP JUMPDEST SWAP2 POP DUP3 PUSH1 0x2 MUL DUP3 OR SWAP1 POP SWAP3 SWAP2 POP POP JUMP JUMPDEST PUSH2 0x5E7 DUP3 PUSH2 0x35B JUMP JUMPDEST PUSH8 0xFFFFFFFFFFFFFFFF DUP2 GT ISZERO PUSH2 0x600 JUMPI PUSH2 0x5FF PUSH2 0x1F0 JUMP JUMPDEST JUMPDEST PUSH2 0x60A DUP3 SLOAD PUSH2 0x408 JUMP JUMPDEST PUSH2 0x615 DUP3 DUP3 DUP6 PUSH2 0x555 JUMP JUMPDEST PUSH0 PUSH1 0x20 SWAP1 POP PUSH1 0x1F DUP4 GT PUSH1 0x1 DUP2 EQ PUSH2 0x646 JUMPI PUSH0 DUP5 ISZERO PUSH2 0x634 JUMPI DUP3 DUP8 ADD MLOAD SWAP1 POP JUMPDEST PUSH2 0x63E DUP6 DUP3 PUSH2 0x5C3 JUMP JUMPDEST DUP7 SSTORE POP PUSH2 0x6A5 JUMP JUMPDEST PUSH1 0x1F NOT DUP5 AND PUSH2 0x654 DUP7 PUSH2 0x438 JUMP JUMPDEST PUSH0 JUMPDEST DUP3 DUP2 LT ISZERO PUSH2 0x67B JUMPI DUP5 DUP10 ADD MLOAD DUP3 SSTORE PUSH1 0x1 DUP3 ADD SWAP2 POP PUSH1 0x20 DUP6 ADD SWAP5 POP PUSH1 0x20 DUP2 ADD SWAP1 POP PUSH2 0x656 JUMP JUMPDEST DUP7 DUP4 LT ISZERO PUSH2 0x698 JUMPI DUP5 DUP10 ADD MLOAD PUSH2 0x694 PUSH1 0x1F DUP10 AND DUP3 PUSH2 0x5A7 JUMP JUMPDEST DUP4 SSTORE POP JUMPDEST PUSH1 0x1 PUSH1 0x2 DUP9 MUL ADD DUP9 SSTORE POP POP POP JUMPDEST POP POP POP POP POP POP JUMP INVALID LOG2 PUSH5 0x6970667358 0x22 SLT KECCAK256 0x1F DELEGATECALL 0xFC 0x2B 0xAF 0xB8 SWAP12 0xC0 SWAP9 0x2B 0xE5 SHR PUSH15 0x2838822569C6E5C93F46386C45EEB6 0xBF PUSH26 0x8A6B64736F6C634300081A003300000000000000000000000000 "
				},
				"gasEstimates": {
					"creation": {
						"codeDepositCost": "352600",
						"executionCost": "391",
						"totalCost": "352991"
					},
					"external": {
						"getter()": "infinite",
						"s()": "infinite",
						"setter(string)": "infinite"
					}
				},
				"methodIdentifiers": {
					"getter()": "993a04b7",
					"s()": "86b714e2",
					"setter(string)": "846228a3"
				}
			},
			"storageLayout": {
				"storage": [
					{
						"astId": 228,
						"contract": "contracts/sep9.sol:myCar",
						"label": "s",
						"offset": 0,
						"slot": "0",
						"type": "t_string_storage"
					}
				],
				"types": {
					"t_string_storage": {
						"encoding": "bytes",
						"label": "string",
						"numberOfBytes": "32"
					}
				}
			},
			"userdoc": {
				"kind": "user",
				"methods": {},
				"version": 1
			}
		}
	}
}