{
	"contracts/sep9.sol": {
		"darrays": {
			"abi": [
				{
					"inputs": [],
					"name": "myFun",
					"outputs": [
						{
							"internalType": "int256",
							"name": "",
							"type": "int256"
						},
						{
							"internalType": "int256[]",
							"name": "",
							"type": "int256[]"
						},
						{
							"internalType": "uint256[]",
							"name": "",
							"type": "uint256[]"
						}
					],
					"stateMutability": "nonpayable",
					"type": "function"
				}
			],
			"devdoc": {
				"kind": "dev",
				"methods": {},
				"version": 1
			},
			"evm": {
				"assembly": "    /* \"contracts/sep9.sol\":287:549  contract darrays{... */\n  mstore(0x40, 0x80)\n    /* \"contracts/sep9.sol\":309:332  uint[] arr1 = [1,2,3,4] */\n  mload(0x40)\n  dup1\n  0x80\n  add\n  0x40\n  mstore\n  dup1\n    /* \"contracts/sep9.sol\":324:325  1 */\n  0x01\n    /* \"contracts/sep9.sol\":309:332  uint[] arr1 = [1,2,3,4] */\n  0xff\n  and\n  dup2\n  mstore\n  0x20\n  add\n    /* \"contracts/sep9.sol\":326:327  2 */\n  0x02\n    /* \"contracts/sep9.sol\":309:332  uint[] arr1 = [1,2,3,4] */\n  0xff\n  and\n  dup2\n  mstore\n  0x20\n  add\n    /* \"contracts/sep9.sol\":328:329  3 */\n  0x03\n    /* \"contracts/sep9.sol\":309:332  uint[] arr1 = [1,2,3,4] */\n  0xff\n  and\n  dup2\n  mstore\n  0x20\n  add\n    /* \"contracts/sep9.sol\":330:331  4 */\n  0x04\n    /* \"contracts/sep9.sol\":309:332  uint[] arr1 = [1,2,3,4] */\n  0xff\n  and\n  dup2\n  mstore\n  pop\n  0x00\n  swap1\n  0x04\n  tag_1\n  swap3\n  swap2\n  swap1\n  tag_2\n  jump\t// in\ntag_1:\n  pop\n    /* \"contracts/sep9.sol\":287:549  contract darrays{... */\n  callvalue\n  dup1\n  iszero\n  tag_3\n  jumpi\n  0x00\n  dup1\n  revert\ntag_3:\n  pop\n  jump(tag_4)\ntag_2:\n  dup3\n  dup1\n  sload\n  dup3\n  dup3\n  sstore\n  swap1\n  0x00\n  mstore\n  keccak256(0x00, 0x20)\n  swap1\n  dup2\n  add\n  swap3\n  dup3\n  iszero\n  tag_5\n  jumpi\n  swap2\n  0x20\n  mul\n  dup3\n  add\ntag_6:\n  dup3\n  dup2\n  gt\n  iszero\n  tag_7\n  jumpi\n  dup3\n  mload\n  dup3\n  swap1\n  0xff\n  and\n  swap1\n  sstore\n  swap2\n  0x20\n  add\n  swap2\n  swap1\n  0x01\n  add\n  swap1\n  jump(tag_6)\ntag_7:\ntag_5:\n  pop\n  swap1\n  pop\n  tag_8\n  swap2\n  swap1\n  tag_9\n  jump\t// in\ntag_8:\n  pop\n  swap1\n  jump\t// out\ntag_9:\ntag_10:\n  dup1\n  dup3\n  gt\n  iszero\n  tag_11\n  jumpi\n  0x00\n  dup2\n  0x00\n  swap1\n  sstore\n  pop\n  0x01\n  add\n  jump(tag_10)\ntag_11:\n  pop\n  swap1\n  jump\t// out\ntag_4:\n  dataSize(sub_0)\n  dup1\n  dataOffset(sub_0)\n  0x00\n  codecopy\n  0x00\n  return\nstop\n\nsub_0: assembly {\n        /* \"contracts/sep9.sol\":287:549  contract darrays{... */\n      mstore(0x40, 0x80)\n      callvalue\n      dup1\n      iszero\n      tag_1\n      jumpi\n      0x00\n      dup1\n      revert\n    tag_1:\n      pop\n      jumpi(tag_2, lt(calldatasize, 0x04))\n      shr(0xe0, calldataload(0x00))\n      dup1\n      0x75bbb4e7\n      eq\n      tag_3\n      jumpi\n    tag_2:\n      0x00\n      dup1\n      revert\n        /* \"contracts/sep9.sol\":355:547  function myFun() public returns (int, int[] memory, uint[] memory){... */\n    tag_3:\n      tag_4\n      tag_5\n      jump\t// in\n    tag_4:\n      mload(0x40)\n      tag_6\n      swap4\n      swap3\n      swap2\n      swap1\n      tag_7\n      jump\t// in\n    tag_6:\n      mload(0x40)\n      dup1\n      swap2\n      sub\n      swap1\n      return\n    tag_5:\n        /* \"contracts/sep9.sol\":388:391  int */\n      0x00\n        /* \"contracts/sep9.sol\":393:405  int[] memory */\n      0x60\n        /* \"contracts/sep9.sol\":407:420  uint[] memory */\n      dup1\n        /* \"contracts/sep9.sol\":431:458  arr2 = [int(1),2,3,4,5,6,6] */\n      mload(0x40)\n      dup1\n      0xe0\n      add\n      0x40\n      mstore\n      dup1\n        /* \"contracts/sep9.sol\":443:444  1 */\n      0x01\n        /* \"contracts/sep9.sol\":431:458  arr2 = [int(1),2,3,4,5,6,6] */\n      dup2\n      mstore\n      0x20\n      add\n        /* \"contracts/sep9.sol\":446:447  2 */\n      0x02\n        /* \"contracts/sep9.sol\":431:458  arr2 = [int(1),2,3,4,5,6,6] */\n      dup2\n      mstore\n      0x20\n      add\n        /* \"contracts/sep9.sol\":448:449  3 */\n      0x03\n        /* \"contracts/sep9.sol\":431:458  arr2 = [int(1),2,3,4,5,6,6] */\n      dup2\n      mstore\n      0x20\n      add\n        /* \"contracts/sep9.sol\":450:451  4 */\n      0x04\n        /* \"contracts/sep9.sol\":431:458  arr2 = [int(1),2,3,4,5,6,6] */\n      dup2\n      mstore\n      0x20\n      add\n        /* \"contracts/sep9.sol\":452:453  5 */\n      0x05\n        /* \"contracts/sep9.sol\":431:458  arr2 = [int(1),2,3,4,5,6,6] */\n      dup2\n      mstore\n      0x20\n      add\n        /* \"contracts/sep9.sol\":454:455  6 */\n      0x06\n        /* \"contracts/sep9.sol\":431:458  arr2 = [int(1),2,3,4,5,6,6] */\n      dup2\n      mstore\n      0x20\n      add\n        /* \"contracts/sep9.sol\":456:457  6 */\n      0x06\n        /* \"contracts/sep9.sol\":431:458  arr2 = [int(1),2,3,4,5,6,6] */\n      dup2\n      mstore\n      pop\n        /* \"contracts/sep9.sol\":431:435  arr2 */\n      0x01\n        /* \"contracts/sep9.sol\":431:458  arr2 = [int(1),2,3,4,5,6,6] */\n      swap1\n      0x07\n      tag_9\n      swap3\n      swap2\n      swap1\n      tag_10\n      jump\t// in\n    tag_9:\n      pop\n        /* \"contracts/sep9.sol\":468:472  arr1 */\n      0x00\n        /* \"contracts/sep9.sol\":478:479  2 */\n      0x02\n        /* \"contracts/sep9.sol\":468:480  arr1.push(2) */\n      swap1\n      dup1\n      0x01\n      dup2\n      sload\n      add\n      dup1\n      dup3\n      sstore\n      dup1\n      swap2\n      pop\n      pop\n      0x01\n      swap1\n      sub\n      swap1\n      0x00\n      mstore\n      keccak256(0x00, 0x20)\n      add\n      0x00\n      swap1\n      swap2\n      swap1\n      swap2\n      swap1\n      swap2\n      pop\n      sstore\n        /* \"contracts/sep9.sol\":490:494  arr1 */\n      0x00\n        /* \"contracts/sep9.sol\":500:501  5 */\n      0x05\n        /* \"contracts/sep9.sol\":490:502  arr1.push(5) */\n      swap1\n      dup1\n      0x01\n      dup2\n      sload\n      add\n      dup1\n      dup3\n      sstore\n      dup1\n      swap2\n      pop\n      pop\n      0x01\n      swap1\n      sub\n      swap1\n      0x00\n      mstore\n      keccak256(0x00, 0x20)\n      add\n      0x00\n      swap1\n      swap2\n      swap1\n      swap2\n      swap1\n      swap2\n      pop\n      sstore\n        /* \"contracts/sep9.sol\":520:524  arr2 */\n      0x01\n        /* \"contracts/sep9.sol\":525:526  2 */\n      0x02\n        /* \"contracts/sep9.sol\":520:527  arr2[2] */\n      dup2\n      sload\n      dup2\n      lt\n      tag_13\n      jumpi\n      tag_14\n      tag_15\n      jump\t// in\n    tag_14:\n    tag_13:\n      swap1\n      0x00\n      mstore\n      keccak256(0x00, 0x20)\n      add\n      sload\n        /* \"contracts/sep9.sol\":529:533  arr2 */\n      0x01\n        /* \"contracts/sep9.sol\":535:539  arr1 */\n      0x00\n        /* \"contracts/sep9.sol\":512:540  return (arr2[2], arr2, arr1) */\n      dup2\n      dup1\n      sload\n      dup1\n      0x20\n      mul\n      0x20\n      add\n      mload(0x40)\n      swap1\n      dup2\n      add\n      0x40\n      mstore\n      dup1\n      swap3\n      swap2\n      swap1\n      dup2\n      dup2\n      mstore\n      0x20\n      add\n      dup3\n      dup1\n      sload\n      dup1\n      iszero\n      tag_17\n      jumpi\n      0x20\n      mul\n      dup3\n      add\n      swap2\n      swap1\n      0x00\n      mstore\n      keccak256(0x00, 0x20)\n      swap1\n    tag_18:\n      dup2\n      sload\n      dup2\n      mstore\n      0x20\n      add\n      swap1\n      0x01\n      add\n      swap1\n      dup1\n      dup4\n      gt\n      tag_18\n      jumpi\n    tag_17:\n      pop\n      pop\n      pop\n      pop\n      pop\n      swap2\n      pop\n      dup1\n      dup1\n      sload\n      dup1\n      0x20\n      mul\n      0x20\n      add\n      mload(0x40)\n      swap1\n      dup2\n      add\n      0x40\n      mstore\n      dup1\n      swap3\n      swap2\n      swap1\n      dup2\n      dup2\n      mstore\n      0x20\n      add\n      dup3\n      dup1\n      sload\n      dup1\n      iszero\n      tag_19\n      jumpi\n      0x20\n      mul\n      dup3\n      add\n      swap2\n      swap1\n      0x00\n      mstore\n      keccak256(0x00, 0x20)\n      swap1\n    tag_20:\n      dup2\n      sload\n      dup2\n      mstore\n      0x20\n      add\n      swap1\n      0x01\n      add\n      swap1\n      dup1\n      dup4\n      gt\n      tag_20\n      jumpi\n    tag_19:\n      pop\n      pop\n      pop\n      pop\n      pop\n      swap1\n      pop\n      swap3\n      pop\n      swap3\n      pop\n      swap3\n      pop\n        /* \"contracts/sep9.sol\":355:547  function myFun() public returns (int, int[] memory, uint[] memory){... */\n      swap1\n      swap2\n      swap3\n      jump\t// out\n    tag_10:\n      dup3\n      dup1\n      sload\n      dup3\n      dup3\n      sstore\n      swap1\n      0x00\n      mstore\n      keccak256(0x00, 0x20)\n      swap1\n      dup2\n      add\n      swap3\n      dup3\n      iszero\n      tag_21\n      jumpi\n      swap2\n      0x20\n      mul\n      dup3\n      add\n    tag_22:\n      dup3\n      dup2\n      gt\n      iszero\n      tag_23\n      jumpi\n      dup3\n      mload\n      dup3\n      sstore\n      swap2\n      0x20\n      add\n      swap2\n      swap1\n      0x01\n      add\n      swap1\n      jump(tag_22)\n    tag_23:\n    tag_21:\n      pop\n      swap1\n      pop\n      tag_24\n      swap2\n      swap1\n      tag_25\n      jump\t// in\n    tag_24:\n      pop\n      swap1\n      jump\t// out\n    tag_25:\n    tag_26:\n      dup1\n      dup3\n      gt\n      iszero\n      tag_27\n      jumpi\n      0x00\n      dup2\n      0x00\n      swap1\n      sstore\n      pop\n      0x01\n      add\n      jump(tag_26)\n    tag_27:\n      pop\n      swap1\n      jump\t// out\n        /* \"#utility.yul\":7:83   */\n    tag_28:\n        /* \"#utility.yul\":43:50   */\n      0x00\n        /* \"#utility.yul\":72:77   */\n      dup2\n        /* \"#utility.yul\":61:77   */\n      swap1\n      pop\n        /* \"#utility.yul\":7:83   */\n      swap2\n      swap1\n      pop\n      jump\t// out\n        /* \"#utility.yul\":89:204   */\n    tag_29:\n        /* \"#utility.yul\":174:197   */\n      tag_48\n        /* \"#utility.yul\":191:196   */\n      dup2\n        /* \"#utility.yul\":174:197   */\n      tag_28\n      jump\t// in\n    tag_48:\n        /* \"#utility.yul\":169:172   */\n      dup3\n        /* \"#utility.yul\":162:198   */\n      mstore\n        /* \"#utility.yul\":89:204   */\n      pop\n      pop\n      jump\t// out\n        /* \"#utility.yul\":210:323   */\n    tag_30:\n        /* \"#utility.yul\":276:282   */\n      0x00\n        /* \"#utility.yul\":310:315   */\n      dup2\n        /* \"#utility.yul\":304:316   */\n      mload\n        /* \"#utility.yul\":294:316   */\n      swap1\n      pop\n        /* \"#utility.yul\":210:323   */\n      swap2\n      swap1\n      pop\n      jump\t// out\n        /* \"#utility.yul\":329:512   */\n    tag_31:\n        /* \"#utility.yul\":427:438   */\n      0x00\n        /* \"#utility.yul\":461:467   */\n      dup3\n        /* \"#utility.yul\":456:459   */\n      dup3\n        /* \"#utility.yul\":449:468   */\n      mstore\n        /* \"#utility.yul\":501:505   */\n      0x20\n        /* \"#utility.yul\":496:499   */\n      dup3\n        /* \"#utility.yul\":492:506   */\n      add\n        /* \"#utility.yul\":477:506   */\n      swap1\n      pop\n        /* \"#utility.yul\":329:512   */\n      swap3\n      swap2\n      pop\n      pop\n      jump\t// out\n        /* \"#utility.yul\":518:649   */\n    tag_32:\n        /* \"#utility.yul\":584:588   */\n      0x00\n        /* \"#utility.yul\":607:610   */\n      dup2\n        /* \"#utility.yul\":599:610   */\n      swap1\n      pop\n        /* \"#utility.yul\":637:641   */\n      0x20\n        /* \"#utility.yul\":632:635   */\n      dup3\n        /* \"#utility.yul\":628:642   */\n      add\n        /* \"#utility.yul\":620:642   */\n      swap1\n      pop\n        /* \"#utility.yul\":518:649   */\n      swap2\n      swap1\n      pop\n      jump\t// out\n        /* \"#utility.yul\":655:760   */\n    tag_33:\n        /* \"#utility.yul\":730:753   */\n      tag_53\n        /* \"#utility.yul\":747:752   */\n      dup2\n        /* \"#utility.yul\":730:753   */\n      tag_28\n      jump\t// in\n    tag_53:\n        /* \"#utility.yul\":725:728   */\n      dup3\n        /* \"#utility.yul\":718:754   */\n      mstore\n        /* \"#utility.yul\":655:760   */\n      pop\n      pop\n      jump\t// out\n        /* \"#utility.yul\":766:941   */\n    tag_34:\n        /* \"#utility.yul\":833:843   */\n      0x00\n        /* \"#utility.yul\":854:898   */\n      tag_55\n        /* \"#utility.yul\":894:897   */\n      dup4\n        /* \"#utility.yul\":886:892   */\n      dup4\n        /* \"#utility.yul\":854:898   */\n      tag_33\n      jump\t// in\n    tag_55:\n        /* \"#utility.yul\":930:934   */\n      0x20\n        /* \"#utility.yul\":925:928   */\n      dup4\n        /* \"#utility.yul\":921:935   */\n      add\n        /* \"#utility.yul\":907:935   */\n      swap1\n      pop\n        /* \"#utility.yul\":766:941   */\n      swap3\n      swap2\n      pop\n      pop\n      jump\t// out\n        /* \"#utility.yul\":947:1059   */\n    tag_35:\n        /* \"#utility.yul\":1016:1020   */\n      0x00\n        /* \"#utility.yul\":1048:1052   */\n      0x20\n        /* \"#utility.yul\":1043:1046   */\n      dup3\n        /* \"#utility.yul\":1039:1053   */\n      add\n        /* \"#utility.yul\":1031:1053   */\n      swap1\n      pop\n        /* \"#utility.yul\":947:1059   */\n      swap2\n      swap1\n      pop\n      jump\t// out\n        /* \"#utility.yul\":1093:1817   */\n    tag_36:\n        /* \"#utility.yul\":1210:1213   */\n      0x00\n        /* \"#utility.yul\":1239:1292   */\n      tag_58\n        /* \"#utility.yul\":1286:1291   */\n      dup3\n        /* \"#utility.yul\":1239:1292   */\n      tag_30\n      jump\t// in\n    tag_58:\n        /* \"#utility.yul\":1308:1393   */\n      tag_59\n        /* \"#utility.yul\":1386:1392   */\n      dup2\n        /* \"#utility.yul\":1381:1384   */\n      dup6\n        /* \"#utility.yul\":1308:1393   */\n      tag_31\n      jump\t// in\n    tag_59:\n        /* \"#utility.yul\":1301:1393   */\n      swap4\n      pop\n        /* \"#utility.yul\":1417:1472   */\n      tag_60\n        /* \"#utility.yul\":1466:1471   */\n      dup4\n        /* \"#utility.yul\":1417:1472   */\n      tag_32\n      jump\t// in\n    tag_60:\n        /* \"#utility.yul\":1495:1502   */\n      dup1\n        /* \"#utility.yul\":1526:1527   */\n      0x00\n        /* \"#utility.yul\":1511:1792   */\n    tag_61:\n        /* \"#utility.yul\":1536:1542   */\n      dup4\n        /* \"#utility.yul\":1533:1534   */\n      dup2\n        /* \"#utility.yul\":1530:1543   */\n      lt\n        /* \"#utility.yul\":1511:1792   */\n      iszero\n      tag_63\n      jumpi\n        /* \"#utility.yul\":1612:1618   */\n      dup2\n        /* \"#utility.yul\":1606:1619   */\n      mload\n        /* \"#utility.yul\":1639:1700   */\n      tag_64\n        /* \"#utility.yul\":1696:1699   */\n      dup9\n        /* \"#utility.yul\":1681:1694   */\n      dup3\n        /* \"#utility.yul\":1639:1700   */\n      tag_34\n      jump\t// in\n    tag_64:\n        /* \"#utility.yul\":1632:1700   */\n      swap8\n      pop\n        /* \"#utility.yul\":1723:1782   */\n      tag_65\n        /* \"#utility.yul\":1775:1781   */\n      dup4\n        /* \"#utility.yul\":1723:1782   */\n      tag_35\n      jump\t// in\n    tag_65:\n        /* \"#utility.yul\":1713:1782   */\n      swap3\n      pop\n        /* \"#utility.yul\":1571:1792   */\n      pop\n        /* \"#utility.yul\":1558:1559   */\n      0x01\n        /* \"#utility.yul\":1555:1556   */\n      dup2\n        /* \"#utility.yul\":1551:1560   */\n      add\n        /* \"#utility.yul\":1546:1560   */\n      swap1\n      pop\n        /* \"#utility.yul\":1511:1792   */\n      jump(tag_61)\n    tag_63:\n        /* \"#utility.yul\":1515:1529   */\n      pop\n        /* \"#utility.yul\":1808:1811   */\n      dup6\n        /* \"#utility.yul\":1801:1811   */\n      swap4\n      pop\n        /* \"#utility.yul\":1215:1817   */\n      pop\n      pop\n      pop\n        /* \"#utility.yul\":1093:1817   */\n      swap3\n      swap2\n      pop\n      pop\n      jump\t// out\n        /* \"#utility.yul\":1823:1937   */\n    tag_37:\n        /* \"#utility.yul\":1890:1896   */\n      0x00\n        /* \"#utility.yul\":1924:1929   */\n      dup2\n        /* \"#utility.yul\":1918:1930   */\n      mload\n        /* \"#utility.yul\":1908:1930   */\n      swap1\n      pop\n        /* \"#utility.yul\":1823:1937   */\n      swap2\n      swap1\n      pop\n      jump\t// out\n        /* \"#utility.yul\":1943:2127   */\n    tag_38:\n        /* \"#utility.yul\":2042:2053   */\n      0x00\n        /* \"#utility.yul\":2076:2082   */\n      dup3\n        /* \"#utility.yul\":2071:2074   */\n      dup3\n        /* \"#utility.yul\":2064:2083   */\n      mstore\n        /* \"#utility.yul\":2116:2120   */\n      0x20\n        /* \"#utility.yul\":2111:2114   */\n      dup3\n        /* \"#utility.yul\":2107:2121   */\n      add\n        /* \"#utility.yul\":2092:2121   */\n      swap1\n      pop\n        /* \"#utility.yul\":1943:2127   */\n      swap3\n      swap2\n      pop\n      pop\n      jump\t// out\n        /* \"#utility.yul\":2133:2265   */\n    tag_39:\n        /* \"#utility.yul\":2200:2204   */\n      0x00\n        /* \"#utility.yul\":2223:2226   */\n      dup2\n        /* \"#utility.yul\":2215:2226   */\n      swap1\n      pop\n        /* \"#utility.yul\":2253:2257   */\n      0x20\n        /* \"#utility.yul\":2248:2251   */\n      dup3\n        /* \"#utility.yul\":2244:2258   */\n      add\n        /* \"#utility.yul\":2236:2258   */\n      swap1\n      pop\n        /* \"#utility.yul\":2133:2265   */\n      swap2\n      swap1\n      pop\n      jump\t// out\n        /* \"#utility.yul\":2271:2348   */\n    tag_40:\n        /* \"#utility.yul\":2308:2315   */\n      0x00\n        /* \"#utility.yul\":2337:2342   */\n      dup2\n        /* \"#utility.yul\":2326:2342   */\n      swap1\n      pop\n        /* \"#utility.yul\":2271:2348   */\n      swap2\n      swap1\n      pop\n      jump\t// out\n        /* \"#utility.yul\":2354:2462   */\n    tag_41:\n        /* \"#utility.yul\":2431:2455   */\n      tag_71\n        /* \"#utility.yul\":2449:2454   */\n      dup2\n        /* \"#utility.yul\":2431:2455   */\n      tag_40\n      jump\t// in\n    tag_71:\n        /* \"#utility.yul\":2426:2429   */\n      dup3\n        /* \"#utility.yul\":2419:2456   */\n      mstore\n        /* \"#utility.yul\":2354:2462   */\n      pop\n      pop\n      jump\t// out\n        /* \"#utility.yul\":2468:2647   */\n    tag_42:\n        /* \"#utility.yul\":2537:2547   */\n      0x00\n        /* \"#utility.yul\":2558:2604   */\n      tag_73\n        /* \"#utility.yul\":2600:2603   */\n      dup4\n        /* \"#utility.yul\":2592:2598   */\n      dup4\n        /* \"#utility.yul\":2558:2604   */\n      tag_41\n      jump\t// in\n    tag_73:\n        /* \"#utility.yul\":2636:2640   */\n      0x20\n        /* \"#utility.yul\":2631:2634   */\n      dup4\n        /* \"#utility.yul\":2627:2641   */\n      add\n        /* \"#utility.yul\":2613:2641   */\n      swap1\n      pop\n        /* \"#utility.yul\":2468:2647   */\n      swap3\n      swap2\n      pop\n      pop\n      jump\t// out\n        /* \"#utility.yul\":2653:2766   */\n    tag_43:\n        /* \"#utility.yul\":2723:2727   */\n      0x00\n        /* \"#utility.yul\":2755:2759   */\n      0x20\n        /* \"#utility.yul\":2750:2753   */\n      dup3\n        /* \"#utility.yul\":2746:2760   */\n      add\n        /* \"#utility.yul\":2738:2760   */\n      swap1\n      pop\n        /* \"#utility.yul\":2653:2766   */\n      swap2\n      swap1\n      pop\n      jump\t// out\n        /* \"#utility.yul\":2802:3534   */\n    tag_44:\n        /* \"#utility.yul\":2921:2924   */\n      0x00\n        /* \"#utility.yul\":2950:3004   */\n      tag_76\n        /* \"#utility.yul\":2998:3003   */\n      dup3\n        /* \"#utility.yul\":2950:3004   */\n      tag_37\n      jump\t// in\n    tag_76:\n        /* \"#utility.yul\":3020:3106   */\n      tag_77\n        /* \"#utility.yul\":3099:3105   */\n      dup2\n        /* \"#utility.yul\":3094:3097   */\n      dup6\n        /* \"#utility.yul\":3020:3106   */\n      tag_38\n      jump\t// in\n    tag_77:\n        /* \"#utility.yul\":3013:3106   */\n      swap4\n      pop\n        /* \"#utility.yul\":3130:3186   */\n      tag_78\n        /* \"#utility.yul\":3180:3185   */\n      dup4\n        /* \"#utility.yul\":3130:3186   */\n      tag_39\n      jump\t// in\n    tag_78:\n        /* \"#utility.yul\":3209:3216   */\n      dup1\n        /* \"#utility.yul\":3240:3241   */\n      0x00\n        /* \"#utility.yul\":3225:3509   */\n    tag_79:\n        /* \"#utility.yul\":3250:3256   */\n      dup4\n        /* \"#utility.yul\":3247:3248   */\n      dup2\n        /* \"#utility.yul\":3244:3257   */\n      lt\n        /* \"#utility.yul\":3225:3509   */\n      iszero\n      tag_81\n      jumpi\n        /* \"#utility.yul\":3326:3332   */\n      dup2\n        /* \"#utility.yul\":3320:3333   */\n      mload\n        /* \"#utility.yul\":3353:3416   */\n      tag_82\n        /* \"#utility.yul\":3412:3415   */\n      dup9\n        /* \"#utility.yul\":3397:3410   */\n      dup3\n        /* \"#utility.yul\":3353:3416   */\n      tag_42\n      jump\t// in\n    tag_82:\n        /* \"#utility.yul\":3346:3416   */\n      swap8\n      pop\n        /* \"#utility.yul\":3439:3499   */\n      tag_83\n        /* \"#utility.yul\":3492:3498   */\n      dup4\n        /* \"#utility.yul\":3439:3499   */\n      tag_43\n      jump\t// in\n    tag_83:\n        /* \"#utility.yul\":3429:3499   */\n      swap3\n      pop\n        /* \"#utility.yul\":3285:3509   */\n      pop\n        /* \"#utility.yul\":3272:3273   */\n      0x01\n        /* \"#utility.yul\":3269:3270   */\n      dup2\n        /* \"#utility.yul\":3265:3274   */\n      add\n        /* \"#utility.yul\":3260:3274   */\n      swap1\n      pop\n        /* \"#utility.yul\":3225:3509   */\n      jump(tag_79)\n    tag_81:\n        /* \"#utility.yul\":3229:3243   */\n      pop\n        /* \"#utility.yul\":3525:3528   */\n      dup6\n        /* \"#utility.yul\":3518:3528   */\n      swap4\n      pop\n        /* \"#utility.yul\":2926:3534   */\n      pop\n      pop\n      pop\n        /* \"#utility.yul\":2802:3534   */\n      swap3\n      swap2\n      pop\n      pop\n      jump\t// out\n        /* \"#utility.yul\":3540:4276   */\n    tag_7:\n        /* \"#utility.yul\":3785:3789   */\n      0x00\n        /* \"#utility.yul\":3823:3825   */\n      0x60\n        /* \"#utility.yul\":3812:3821   */\n      dup3\n        /* \"#utility.yul\":3808:3826   */\n      add\n        /* \"#utility.yul\":3800:3826   */\n      swap1\n      pop\n        /* \"#utility.yul\":3836:3905   */\n      tag_85\n        /* \"#utility.yul\":3902:3903   */\n      0x00\n        /* \"#utility.yul\":3891:3900   */\n      dup4\n        /* \"#utility.yul\":3887:3904   */\n      add\n        /* \"#utility.yul\":3878:3884   */\n      dup7\n        /* \"#utility.yul\":3836:3905   */\n      tag_29\n      jump\t// in\n    tag_85:\n        /* \"#utility.yul\":3952:3961   */\n      dup2\n        /* \"#utility.yul\":3946:3950   */\n      dup2\n        /* \"#utility.yul\":3942:3962   */\n      sub\n        /* \"#utility.yul\":3937:3939   */\n      0x20\n        /* \"#utility.yul\":3926:3935   */\n      dup4\n        /* \"#utility.yul\":3922:3940   */\n      add\n        /* \"#utility.yul\":3915:3963   */\n      mstore\n        /* \"#utility.yul\":3980:4086   */\n      tag_86\n        /* \"#utility.yul\":4081:4085   */\n      dup2\n        /* \"#utility.yul\":4072:4078   */\n      dup6\n        /* \"#utility.yul\":3980:4086   */\n      tag_36\n      jump\t// in\n    tag_86:\n        /* \"#utility.yul\":3972:4086   */\n      swap1\n      pop\n        /* \"#utility.yul\":4133:4142   */\n      dup2\n        /* \"#utility.yul\":4127:4131   */\n      dup2\n        /* \"#utility.yul\":4123:4143   */\n      sub\n        /* \"#utility.yul\":4118:4120   */\n      0x40\n        /* \"#utility.yul\":4107:4116   */\n      dup4\n        /* \"#utility.yul\":4103:4121   */\n      add\n        /* \"#utility.yul\":4096:4144   */\n      mstore\n        /* \"#utility.yul\":4161:4269   */\n      tag_87\n        /* \"#utility.yul\":4264:4268   */\n      dup2\n        /* \"#utility.yul\":4255:4261   */\n      dup5\n        /* \"#utility.yul\":4161:4269   */\n      tag_44\n      jump\t// in\n    tag_87:\n        /* \"#utility.yul\":4153:4269   */\n      swap1\n      pop\n        /* \"#utility.yul\":3540:4276   */\n      swap5\n      swap4\n      pop\n      pop\n      pop\n      pop\n      jump\t// out\n        /* \"#utility.yul\":4282:4462   */\n    tag_15:\n        /* \"#utility.yul\":4330:4407   */\n      0x4e487b7100000000000000000000000000000000000000000000000000000000\n        /* \"#utility.yul\":4327:4328   */\n      0x00\n        /* \"#utility.yul\":4320:4408   */\n      mstore\n        /* \"#utility.yul\":4427:4431   */\n      0x32\n        /* \"#utility.yul\":4424:4425   */\n      0x04\n        /* \"#utility.yul\":4417:4432   */\n      mstore\n        /* \"#utility.yul\":4451:4455   */\n      0x24\n        /* \"#utility.yul\":4448:4449   */\n      0x00\n        /* \"#utility.yul\":4441:4456   */\n      revert\n\n    auxdata: 0xa26469706673582212204eb51406a65d7add5cc1d7390c2accec60653be4edeffed38c9d7c4c0bc7f05664736f6c634300081a0033\n}\n",
				"bytecode": {
					"linkReferences": {},
					"object": "60806040526040518060800160405280600160ff168152602001600260ff168152602001600360ff168152602001600460ff168152505f90600460429291906052565b50348015604d575f80fd5b5060b6565b828054828255905f5260205f20908101928215608e579160200282015b82811115608d578251829060ff16905591602001919060010190606f565b5b50905060999190609d565b5090565b5b8082111560b2575f815f905550600101609e565b5090565b61044f806100c35f395ff3fe608060405234801561000f575f80fd5b5060043610610029575f3560e01c806375bbb4e71461002d575b5f80fd5b61003561004d565b604051610044939291906103a9565b60405180910390f35b5f6060806040518060e001604052806001815260200160028152602001600381526020016004815260200160058152602001600681526020016006815250600190600761009b9291906101b4565b505f6002908060018154018082558091505060019003905f5260205f20015f90919091909150555f6005908060018154018082558091505060019003905f5260205f20015f909190919091505560016002815481106100fd576100fc6103ec565b5b905f5260205f20015460015f8180548060200260200160405190810160405280929190818152602001828054801561015257602002820191905f5260205f20905b81548152602001906001019080831161013e575b50505050509150808054806020026020016040519081016040528092919081815260200182805480156101a257602002820191905f5260205f20905b81548152602001906001019080831161018e575b50505050509050925092509250909192565b828054828255905f5260205f209081019282156101ee579160200282015b828111156101ed5782518255916020019190600101906101d2565b5b5090506101fb91906101ff565b5090565b5b80821115610216575f815f905550600101610200565b5090565b5f819050919050565b61022c8161021a565b82525050565b5f81519050919050565b5f82825260208201905092915050565b5f819050602082019050919050565b6102648161021a565b82525050565b5f610275838361025b565b60208301905092915050565b5f602082019050919050565b5f61029782610232565b6102a1818561023c565b93506102ac8361024c565b805f5b838110156102dc5781516102c3888261026a565b97506102ce83610281565b9250506001810190506102af565b5085935050505092915050565b5f81519050919050565b5f82825260208201905092915050565b5f819050602082019050919050565b5f819050919050565b61032481610312565b82525050565b5f610335838361031b565b60208301905092915050565b5f602082019050919050565b5f610357826102e9565b61036181856102f3565b935061036c83610303565b805f5b8381101561039c578151610383888261032a565b975061038e83610341565b92505060018101905061036f565b5085935050505092915050565b5f6060820190506103bc5f830186610223565b81810360208301526103ce818561028d565b905081810360408301526103e2818461034d565b9050949350505050565b7f4e487b71000000000000000000000000000000000000000000000000000000005f52603260045260245ffdfea26469706673582212204eb51406a65d7add5cc1d7390c2accec60653be4edeffed38c9d7c4c0bc7f05664736f6c634300081a0033",
					"opcodes": "PUSH1 0x80 PUSH1 0x40 MSTORE PUSH1 0x40 MLOAD DUP1 PUSH1 0x80 ADD PUSH1 0x40 MSTORE DUP1 PUSH1 0x1 PUSH1 0xFF AND DUP2 MSTORE PUSH1 0x20 ADD PUSH1 0x2 PUSH1 0xFF AND DUP2 MSTORE PUSH1 0x20 ADD PUSH1 0x3 PUSH1 0xFF AND DUP2 MSTORE PUSH1 0x20 ADD PUSH1 0x4 PUSH1 0xFF AND DUP2 MSTORE POP PUSH0 SWAP1 PUSH1 0x4 PUSH1 0x42 SWAP3 SWAP2 SWAP1 PUSH1 0x52 JUMP JUMPDEST POP CALLVALUE DUP1 ISZERO PUSH1 0x4D JUMPI PUSH0 DUP1 REVERT JUMPDEST POP PUSH1 0xB6 JUMP JUMPDEST DUP3 DUP1 SLOAD DUP3 DUP3 SSTORE SWAP1 PUSH0 MSTORE PUSH1 0x20 PUSH0 KECCAK256 SWAP1 DUP2 ADD SWAP3 DUP3 ISZERO PUSH1 0x8E JUMPI SWAP2 PUSH1 0x20 MUL DUP3 ADD JUMPDEST DUP3 DUP2 GT ISZERO PUSH1 0x8D JUMPI DUP3 MLOAD DUP3 SWAP1 PUSH1 0xFF AND SWAP1 SSTORE SWAP2 PUSH1 0x20 ADD SWAP2 SWAP1 PUSH1 0x1 ADD SWAP1 PUSH1 0x6F JUMP JUMPDEST JUMPDEST POP SWAP1 POP PUSH1 0x99 SWAP2 SWAP1 PUSH1 0x9D JUMP JUMPDEST POP SWAP1 JUMP JUMPDEST JUMPDEST DUP1 DUP3 GT ISZERO PUSH1 0xB2 JUMPI PUSH0 DUP2 PUSH0 SWAP1 SSTORE POP PUSH1 0x1 ADD PUSH1 0x9E JUMP JUMPDEST POP SWAP1 JUMP JUMPDEST PUSH2 0x44F DUP1 PUSH2 0xC3 PUSH0 CODECOPY PUSH0 RETURN INVALID PUSH1 0x80 PUSH1 0x40 MSTORE CALLVALUE DUP1 ISZERO PUSH2 0xF JUMPI PUSH0 DUP1 REVERT JUMPDEST POP PUSH1 0x4 CALLDATASIZE LT PUSH2 0x29 JUMPI PUSH0 CALLDATALOAD PUSH1 0xE0 SHR DUP1 PUSH4 0x75BBB4E7 EQ PUSH2 0x2D JUMPI JUMPDEST PUSH0 DUP1 REVERT JUMPDEST PUSH2 0x35 PUSH2 0x4D JUMP JUMPDEST PUSH1 0x40 MLOAD PUSH2 0x44 SWAP4 SWAP3 SWAP2 SWAP1 PUSH2 0x3A9 JUMP JUMPDEST PUSH1 0x40 MLOAD DUP1 SWAP2 SUB SWAP1 RETURN JUMPDEST PUSH0 PUSH1 0x60 DUP1 PUSH1 0x40 MLOAD DUP1 PUSH1 0xE0 ADD PUSH1 0x40 MSTORE DUP1 PUSH1 0x1 DUP2 MSTORE PUSH1 0x20 ADD PUSH1 0x2 DUP2 MSTORE PUSH1 0x20 ADD PUSH1 0x3 DUP2 MSTORE PUSH1 0x20 ADD PUSH1 0x4 DUP2 MSTORE PUSH1 0x20 ADD PUSH1 0x5 DUP2 MSTORE PUSH1 0x20 ADD PUSH1 0x6 DUP2 MSTORE PUSH1 0x20 ADD PUSH1 0x6 DUP2 MSTORE POP PUSH1 0x1 SWAP1 PUSH1 0x7 PUSH2 0x9B SWAP3 SWAP2 SWAP1 PUSH2 0x1B4 JUMP JUMPDEST POP PUSH0 PUSH1 0x2 SWAP1 DUP1 PUSH1 0x1 DUP2 SLOAD ADD DUP1 DUP3 SSTORE DUP1 SWAP2 POP POP PUSH1 0x1 SWAP1 SUB SWAP1 PUSH0 MSTORE PUSH1 0x20 PUSH0 KECCAK256 ADD PUSH0 SWAP1 SWAP2 SWAP1 SWAP2 SWAP1 SWAP2 POP SSTORE PUSH0 PUSH1 0x5 SWAP1 DUP1 PUSH1 0x1 DUP2 SLOAD ADD DUP1 DUP3 SSTORE DUP1 SWAP2 POP POP PUSH1 0x1 SWAP1 SUB SWAP1 PUSH0 MSTORE PUSH1 0x20 PUSH0 KECCAK256 ADD PUSH0 SWAP1 SWAP2 SWAP1 SWAP2 SWAP1 SWAP2 POP SSTORE PUSH1 0x1 PUSH1 0x2 DUP2 SLOAD DUP2 LT PUSH2 0xFD JUMPI PUSH2 0xFC PUSH2 0x3EC JUMP JUMPDEST JUMPDEST SWAP1 PUSH0 MSTORE PUSH1 0x20 PUSH0 KECCAK256 ADD SLOAD PUSH1 0x1 PUSH0 DUP2 DUP1 SLOAD DUP1 PUSH1 0x20 MUL PUSH1 0x20 ADD PUSH1 0x40 MLOAD SWAP1 DUP2 ADD PUSH1 0x40 MSTORE DUP1 SWAP3 SWAP2 SWAP1 DUP2 DUP2 MSTORE PUSH1 0x20 ADD DUP3 DUP1 SLOAD DUP1 ISZERO PUSH2 0x152 JUMPI PUSH1 0x20 MUL DUP3 ADD SWAP2 SWAP1 PUSH0 MSTORE PUSH1 0x20 PUSH0 KECCAK256 SWAP1 JUMPDEST DUP2 SLOAD DUP2 MSTORE PUSH1 0x20 ADD SWAP1 PUSH1 0x1 ADD SWAP1 DUP1 DUP4 GT PUSH2 0x13E JUMPI JUMPDEST POP POP POP POP POP SWAP2 POP DUP1 DUP1 SLOAD DUP1 PUSH1 0x20 MUL PUSH1 0x20 ADD PUSH1 0x40 MLOAD SWAP1 DUP2 ADD PUSH1 0x40 MSTORE DUP1 SWAP3 SWAP2 SWAP1 DUP2 DUP2 MSTORE PUSH1 0x20 ADD DUP3 DUP1 SLOAD DUP1 ISZERO PUSH2 0x1A2 JUMPI PUSH1 0x20 MUL DUP3 ADD SWAP2 SWAP1 PUSH0 MSTORE PUSH1 0x20 PUSH0 KECCAK256 SWAP1 JUMPDEST DUP2 SLOAD DUP2 MSTORE PUSH1 0x20 ADD SWAP1 PUSH1 0x1 ADD SWAP1 DUP1 DUP4 GT PUSH2 0x18E JUMPI JUMPDEST POP POP POP POP POP SWAP1 POP SWAP3 POP SWAP3 POP SWAP3 POP SWAP1 SWAP2 SWAP3 JUMP JUMPDEST DUP3 DUP1 SLOAD DUP3 DUP3 SSTORE SWAP1 PUSH0 MSTORE PUSH1 0x20 PUSH0 KECCAK256 SWAP1 DUP2 ADD SWAP3 DUP3 ISZERO PUSH2 0x1EE JUMPI SWAP2 PUSH1 0x20 MUL DUP3 ADD JUMPDEST DUP3 DUP2 GT ISZERO PUSH2 0x1ED JUMPI DUP3 MLOAD DUP3 SSTORE SWAP2 PUSH1 0x20 ADD SWAP2 SWAP1 PUSH1 0x1 ADD SWAP1 PUSH2 0x1D2 JUMP JUMPDEST JUMPDEST POP SWAP1 POP PUSH2 0x1FB SWAP2 SWAP1 PUSH2 0x1FF JUMP JUMPDEST POP SWAP1 JUMP JUMPDEST JUMPDEST DUP1 DUP3 GT ISZERO PUSH2 0x216 JUMPI PUSH0 DUP2 PUSH0 SWAP1 SSTORE POP PUSH1 0x1 ADD PUSH2 0x200 JUMP JUMPDEST POP SWAP1 JUMP JUMPDEST PUSH0 DUP2 SWAP1 POP SWAP2 SWAP1 POP JUMP JUMPDEST PUSH2 0x22C DUP2 PUSH2 0x21A JUMP JUMPDEST DUP3 MSTORE POP POP JUMP JUMPDEST PUSH0 DUP2 MLOAD SWAP1 POP SWAP2 SWAP1 POP JUMP JUMPDEST PUSH0 DUP3 DUP3 MSTORE PUSH1 0x20 DUP3 ADD SWAP1 POP SWAP3 SWAP2 POP POP JUMP JUMPDEST PUSH0 DUP2 SWAP1 POP PUSH1 0x20 DUP3 ADD SWAP1 POP SWAP2 SWAP1 POP JUMP JUMPDEST PUSH2 0x264 DUP2 PUSH2 0x21A JUMP JUMPDEST DUP3 MSTORE POP POP JUMP JUMPDEST PUSH0 PUSH2 0x275 DUP4 DUP4 PUSH2 0x25B JUMP JUMPDEST PUSH1 0x20 DUP4 ADD SWAP1 POP SWAP3 SWAP2 POP POP JUMP JUMPDEST PUSH0 PUSH1 0x20 DUP3 ADD SWAP1 POP SWAP2 SWAP1 POP JUMP JUMPDEST PUSH0 PUSH2 0x297 DUP3 PUSH2 0x232 JUMP JUMPDEST PUSH2 0x2A1 DUP2 DUP6 PUSH2 0x23C JUMP JUMPDEST SWAP4 POP PUSH2 0x2AC DUP4 PUSH2 0x24C JUMP JUMPDEST DUP1 PUSH0 JUMPDEST DUP4 DUP2 LT ISZERO PUSH2 0x2DC JUMPI DUP2 MLOAD PUSH2 0x2C3 DUP9 DUP3 PUSH2 0x26A JUMP JUMPDEST SWAP8 POP PUSH2 0x2CE DUP4 PUSH2 0x281 JUMP JUMPDEST SWAP3 POP POP PUSH1 0x1 DUP2 ADD SWAP1 POP PUSH2 0x2AF JUMP JUMPDEST POP DUP6 SWAP4 POP POP POP POP SWAP3 SWAP2 POP POP JUMP JUMPDEST PUSH0 DUP2 MLOAD SWAP1 POP SWAP2 SWAP1 POP JUMP JUMPDEST PUSH0 DUP3 DUP3 MSTORE PUSH1 0x20 DUP3 ADD SWAP1 POP SWAP3 SWAP2 POP POP JUMP JUMPDEST PUSH0 DUP2 SWAP1 POP PUSH1 0x20 DUP3 ADD SWAP1 POP SWAP2 SWAP1 POP JUMP JUMPDEST PUSH0 DUP2 SWAP1 POP SWAP2 SWAP1 POP JUMP JUMPDEST PUSH2 0x324 DUP2 PUSH2 0x312 JUMP JUMPDEST DUP3 MSTORE POP POP JUMP JUMPDEST PUSH0 PUSH2 0x335 DUP4 DUP4 PUSH2 0x31B JUMP JUMPDEST PUSH1 0x20 DUP4 ADD SWAP1 POP SWAP3 SWAP2 POP POP JUMP JUMPDEST PUSH0 PUSH1 0x20 DUP3 ADD SWAP1 POP SWAP2 SWAP1 POP JUMP JUMPDEST PUSH0 PUSH2 0x357 DUP3 PUSH2 0x2E9 JUMP JUMPDEST PUSH2 0x361 DUP2 DUP6 PUSH2 0x2F3 JUMP JUMPDEST SWAP4 POP PUSH2 0x36C DUP4 PUSH2 0x303 JUMP JUMPDEST DUP1 PUSH0 JUMPDEST DUP4 DUP2 LT ISZERO PUSH2 0x39C JUMPI DUP2 MLOAD PUSH2 0x383 DUP9 DUP3 PUSH2 0x32A JUMP JUMPDEST SWAP8 POP PUSH2 0x38E DUP4 PUSH2 0x341 JUMP JUMPDEST SWAP3 POP POP PUSH1 0x1 DUP2 ADD SWAP1 POP PUSH2 0x36F JUMP JUMPDEST POP DUP6 SWAP4 POP POP POP POP SWAP3 SWAP2 POP POP JUMP JUMPDEST PUSH0 PUSH1 0x60 DUP3 ADD SWAP1 POP PUSH2 0x3BC PUSH0 DUP4 ADD DUP7 PUSH2 0x223 JUMP JUMPDEST DUP2 DUP2 SUB PUSH1 0x20 DUP4 ADD MSTORE PUSH2 0x3CE DUP2 DUP6 PUSH2 0x28D JUMP JUMPDEST SWAP1 POP DUP2 DUP2 SUB PUSH1 0x40 DUP4 ADD MSTORE PUSH2 0x3E2 DUP2 DUP5 PUSH2 0x34D JUMP JUMPDEST SWAP1 POP SWAP5 SWAP4 POP POP POP POP JUMP JUMPDEST PUSH32 0x4E487B7100000000000000000000000000000000000000000000000000000000 PUSH0 MSTORE PUSH1 0x32 PUSH1 0x4 MSTORE PUSH1 0x24 PUSH0 REVERT INVALID LOG2 PUSH5 0x6970667358 0x22 SLT KECCAK256 0x4E 0xB5 EQ MOD 0xA6 TSTORE PUSH27 0xDD5CC1D7390C2ACCEC60653BE4EDEFFED38C9D7C4C0BC7F0566473 PUSH16 0x6C634300081A00330000000000000000 "
				},
				"gasEstimates": {
					"creation": {
						"codeDepositCost": "220600",
						"executionCost": "infinite",
						"totalCost": "infinite"
					},
					"external": {
						"myFun()": "infinite"
					}
				},
				"methodIdentifiers": {
					"myFun()": "75bbb4e7"
				}
			},
			"storageLayout": {
				"storage": [
					{
						"astId": 57,
						"contract": "contracts/sep9.sol:darrays",
						"label": "arr1",
						"offset": 0,
						"slot": "0",
						"type": "t_array(t_uint256)dyn_storage"
					},
					{
						"astId": 60,
						"contract": "contracts/sep9.sol:darrays",
						"label": "arr2",
						"offset": 0,
						"slot": "1",
						"type": "t_array(t_int256)dyn_storage"
					}
				],
				"types": {
					"t_array(t_int256)dyn_storage": {
						"base": "t_int256",
						"encoding": "dynamic_array",
						"label": "int256[]",
						"numberOfBytes": "32"
					},
					"t_array(t_uint256)dyn_storage": {
						"base": "t_uint256",
						"encoding": "dynamic_array",
						"label": "uint256[]",
						"numberOfBytes": "32"
					},
					"t_int256": {
						"encoding": "inplace",
						"label": "int256",
						"numberOfBytes": "32"
					},
					"t_uint256": {
						"encoding": "inplace",
						"label": "uint256",
						"numberOfBytes": "32"
					}
				}
			},
			"userdoc": {
				"kind": "user",
				"methods": {},
				"version": 1
			}
		}
	}
}