{
	"contracts/sep9.sol": {
		"AddElements": {
			"abi": [
				{
					"inputs": [],
					"name": "add1",
					"outputs": [
						{
							"internalType": "int256[10]",
							"name": "",
							"type": "int256[10]"
						}
					],
					"stateMutability": "nonpayable",
					"type": "function"
				},
				{
					"inputs": [],
					"name": "add2",
					"outputs": [
						{
							"internalType": "int256[10]",
							"name": "",
							"type": "int256[10]"
						}
					],
					"stateMutability": "nonpayable",
					"type": "function"
				}
			],
			"devdoc": {
				"kind": "dev",
				"methods": {},
				"version": 1
			},
			"evm": {
				"assembly": "    /* \"contracts/sep9.sol\":811:1254  contract AddElements {... */\n  mstore(0x40, 0x80)\n  callvalue\n  dup1\n  iszero\n  tag_1\n  jumpi\n  0x00\n  dup1\n  revert\ntag_1:\n  pop\n  dataSize(sub_0)\n  dup1\n  dataOffset(sub_0)\n  0x00\n  codecopy\n  0x00\n  return\nstop\n\nsub_0: assembly {\n        /* \"contracts/sep9.sol\":811:1254  contract AddElements {... */\n      mstore(0x40, 0x80)\n      callvalue\n      dup1\n      iszero\n      tag_1\n      jumpi\n      0x00\n      dup1\n      revert\n    tag_1:\n      pop\n      jumpi(tag_2, lt(calldatasize, 0x04))\n      shr(0xe0, calldataload(0x00))\n      dup1\n      0x35921a\n      eq\n      tag_3\n      jumpi\n      dup1\n      0x6c1f222f\n      eq\n      tag_4\n      jumpi\n    tag_2:\n      0x00\n      dup1\n      revert\n        /* \"contracts/sep9.sol\":875:1055  function add1() public  returns (int[10] memory){... */\n    tag_3:\n      tag_5\n      tag_6\n      jump\t// in\n    tag_5:\n      mload(0x40)\n      tag_7\n      swap2\n      swap1\n      tag_8\n      jump\t// in\n    tag_7:\n      mload(0x40)\n      dup1\n      swap2\n      sub\n      swap1\n      return\n        /* \"contracts/sep9.sol\":1061:1252  function add2() public returns (int[10] memory){... */\n    tag_4:\n      tag_9\n      tag_10\n      jump\t// in\n    tag_9:\n      mload(0x40)\n      tag_11\n      swap2\n      swap1\n      tag_8\n      jump\t// in\n    tag_11:\n      mload(0x40)\n      dup1\n      swap2\n      sub\n      swap1\n      return\n        /* \"contracts/sep9.sol\":875:1055  function add1() public  returns (int[10] memory){... */\n    tag_6:\n        /* \"contracts/sep9.sol\":908:922  int[10] memory */\n      tag_12\n      tag_13\n      jump\t// in\n    tag_12:\n        /* \"contracts/sep9.sol\":933:939  uint i */\n      0x00\n        /* \"contracts/sep9.sol\":953:1028  while (i < 10) {... */\n    tag_15:\n        /* \"contracts/sep9.sol\":964:966  10 */\n      0x0a\n        /* \"contracts/sep9.sol\":960:961  i */\n      dup2\n        /* \"contracts/sep9.sol\":960:966  i < 10 */\n      lt\n        /* \"contracts/sep9.sol\":953:1028  while (i < 10) {... */\n      iszero\n      tag_16\n      jumpi\n        /* \"contracts/sep9.sol\":999:1000  2 */\n      0x02\n        /* \"contracts/sep9.sol\":996:997  i */\n      dup2\n        /* \"contracts/sep9.sol\":992:1000  int(i)*2 */\n      tag_17\n      swap2\n      swap1\n      tag_18\n      jump\t// in\n    tag_17:\n        /* \"contracts/sep9.sol\":982:986  arr1 */\n      0x00\n        /* \"contracts/sep9.sol\":987:988  i */\n      dup3\n        /* \"contracts/sep9.sol\":982:989  arr1[i] */\n      0x0a\n      dup2\n      lt\n      tag_19\n      jumpi\n      tag_20\n      tag_21\n      jump\t// in\n    tag_20:\n    tag_19:\n      add\n        /* \"contracts/sep9.sol\":982:1000  arr1[i] = int(i)*2 */\n      dup2\n      swap1\n      sstore\n      pop\n        /* \"contracts/sep9.sol\":1014:1017  i++ */\n      dup1\n      dup1\n      tag_23\n      swap1\n      tag_24\n      jump\t// in\n    tag_23:\n      swap2\n      pop\n      pop\n        /* \"contracts/sep9.sol\":953:1028  while (i < 10) {... */\n      jump(tag_15)\n    tag_16:\n        /* \"contracts/sep9.sol\":1044:1048  arr1 */\n      0x00\n        /* \"contracts/sep9.sol\":1037:1048  return arr1 */\n      0x0a\n      dup1\n      0x20\n      mul\n      mload(0x40)\n      swap1\n      dup2\n      add\n      0x40\n      mstore\n      dup1\n      swap3\n      swap2\n      swap1\n      dup3\n      0x0a\n      dup1\n      iszero\n      tag_25\n      jumpi\n      0x20\n      mul\n      dup3\n      add\n      swap2\n    tag_26:\n      dup2\n      sload\n      dup2\n      mstore\n      0x20\n      add\n      swap1\n      0x01\n      add\n      swap1\n      dup1\n      dup4\n      gt\n      tag_26\n      jumpi\n    tag_25:\n      pop\n      pop\n      pop\n      pop\n      pop\n      swap2\n      pop\n      pop\n        /* \"contracts/sep9.sol\":875:1055  function add1() public  returns (int[10] memory){... */\n      swap1\n      jump\t// out\n        /* \"contracts/sep9.sol\":1061:1252  function add2() public returns (int[10] memory){... */\n    tag_10:\n        /* \"contracts/sep9.sol\":1093:1107  int[10] memory */\n      tag_27\n      tag_13\n      jump\t// in\n    tag_27:\n        /* \"contracts/sep9.sol\":1118:1124  uint i */\n      0x00\n        /* \"contracts/sep9.sol\":1138:1225  do {... */\n    tag_29:\n        /* \"contracts/sep9.sol\":1172:1173  2 */\n      0x02\n        /* \"contracts/sep9.sol\":1169:1170  i */\n      dup2\n        /* \"contracts/sep9.sol\":1165:1173  int(i)*2 */\n      tag_32\n      swap2\n      swap1\n      tag_18\n      jump\t// in\n    tag_32:\n        /* \"contracts/sep9.sol\":1155:1159  arr2 */\n      0x0a\n        /* \"contracts/sep9.sol\":1160:1161  i */\n      dup3\n        /* \"contracts/sep9.sol\":1155:1162  arr2[i] */\n      0x0a\n      dup2\n      lt\n      tag_33\n      jumpi\n      tag_34\n      tag_21\n      jump\t// in\n    tag_34:\n    tag_33:\n      add\n        /* \"contracts/sep9.sol\":1155:1173  arr2[i] = int(i)*2 */\n      dup2\n      swap1\n      sstore\n      pop\n        /* \"contracts/sep9.sol\":1187:1190  i++ */\n      dup1\n      dup1\n      tag_36\n      swap1\n      tag_24\n      jump\t// in\n    tag_36:\n      swap2\n      pop\n      pop\n        /* \"contracts/sep9.sol\":1222:1223  5 */\n      0x05\n        /* \"contracts/sep9.sol\":1218:1219  i */\n      dup2\n        /* \"contracts/sep9.sol\":1218:1223  i < 5 */\n      lt\n        /* \"contracts/sep9.sol\":1138:1225  do {... */\n      tag_29\n      jumpi\n        /* \"contracts/sep9.sol\":1241:1245  arr2 */\n      0x0a\n        /* \"contracts/sep9.sol\":1234:1245  return arr2 */\n      dup1\n      dup1\n      0x20\n      mul\n      mload(0x40)\n      swap1\n      dup2\n      add\n      0x40\n      mstore\n      dup1\n      swap3\n      swap2\n      swap1\n      dup3\n      0x0a\n      dup1\n      iszero\n      tag_37\n      jumpi\n      0x20\n      mul\n      dup3\n      add\n      swap2\n    tag_38:\n      dup2\n      sload\n      dup2\n      mstore\n      0x20\n      add\n      swap1\n      0x01\n      add\n      swap1\n      dup1\n      dup4\n      gt\n      tag_38\n      jumpi\n    tag_37:\n      pop\n      pop\n      pop\n      pop\n      pop\n      swap2\n      pop\n      pop\n        /* \"contracts/sep9.sol\":1061:1252  function add2() public returns (int[10] memory){... */\n      swap1\n      jump\t// out\n    tag_13:\n      mload(0x40)\n      dup1\n      0x0140\n      add\n      0x40\n      mstore\n      dup1\n      0x0a\n      swap1\n      0x20\n      dup3\n      mul\n      dup1\n      calldatasize\n      dup4\n      calldatacopy\n      dup1\n      dup3\n      add\n      swap2\n      pop\n      pop\n      swap1\n      pop\n      pop\n      swap1\n      jump\t// out\n        /* \"#utility.yul\":7:111   */\n    tag_39:\n        /* \"#utility.yul\":72:78   */\n      0x00\n        /* \"#utility.yul\":100:104   */\n      0x0a\n        /* \"#utility.yul\":90:104   */\n      swap1\n      pop\n        /* \"#utility.yul\":7:111   */\n      swap2\n      swap1\n      pop\n      jump\t// out\n        /* \"#utility.yul\":117:260   */\n    tag_40:\n        /* \"#utility.yul\":214:225   */\n      0x00\n        /* \"#utility.yul\":251:254   */\n      dup2\n        /* \"#utility.yul\":236:254   */\n      swap1\n      pop\n        /* \"#utility.yul\":117:260   */\n      swap3\n      swap2\n      pop\n      pop\n      jump\t// out\n        /* \"#utility.yul\":266:364   */\n    tag_41:\n        /* \"#utility.yul\":331:335   */\n      0x00\n        /* \"#utility.yul\":354:357   */\n      dup2\n        /* \"#utility.yul\":346:357   */\n      swap1\n      pop\n        /* \"#utility.yul\":266:364   */\n      swap2\n      swap1\n      pop\n      jump\t// out\n        /* \"#utility.yul\":370:446   */\n    tag_42:\n        /* \"#utility.yul\":406:413   */\n      0x00\n        /* \"#utility.yul\":435:440   */\n      dup2\n        /* \"#utility.yul\":424:440   */\n      swap1\n      pop\n        /* \"#utility.yul\":370:446   */\n      swap2\n      swap1\n      pop\n      jump\t// out\n        /* \"#utility.yul\":452:557   */\n    tag_43:\n        /* \"#utility.yul\":527:550   */\n      tag_55\n        /* \"#utility.yul\":544:549   */\n      dup2\n        /* \"#utility.yul\":527:550   */\n      tag_42\n      jump\t// in\n    tag_55:\n        /* \"#utility.yul\":522:525   */\n      dup3\n        /* \"#utility.yul\":515:551   */\n      mstore\n        /* \"#utility.yul\":452:557   */\n      pop\n      pop\n      jump\t// out\n        /* \"#utility.yul\":563:738   */\n    tag_44:\n        /* \"#utility.yul\":630:640   */\n      0x00\n        /* \"#utility.yul\":651:695   */\n      tag_57\n        /* \"#utility.yul\":691:694   */\n      dup4\n        /* \"#utility.yul\":683:689   */\n      dup4\n        /* \"#utility.yul\":651:695   */\n      tag_43\n      jump\t// in\n    tag_57:\n        /* \"#utility.yul\":727:731   */\n      0x20\n        /* \"#utility.yul\":722:725   */\n      dup4\n        /* \"#utility.yul\":718:732   */\n      add\n        /* \"#utility.yul\":704:732   */\n      swap1\n      pop\n        /* \"#utility.yul\":563:738   */\n      swap3\n      swap2\n      pop\n      pop\n      jump\t// out\n        /* \"#utility.yul\":744:855   */\n    tag_45:\n        /* \"#utility.yul\":812:816   */\n      0x00\n        /* \"#utility.yul\":844:848   */\n      0x20\n        /* \"#utility.yul\":839:842   */\n      dup3\n        /* \"#utility.yul\":835:849   */\n      add\n        /* \"#utility.yul\":827:849   */\n      swap1\n      pop\n        /* \"#utility.yul\":744:855   */\n      swap2\n      swap1\n      pop\n      jump\t// out\n        /* \"#utility.yul\":893:1585   */\n    tag_46:\n        /* \"#utility.yul\":1029:1081   */\n      tag_60\n        /* \"#utility.yul\":1075:1080   */\n      dup2\n        /* \"#utility.yul\":1029:1081   */\n      tag_39\n      jump\t// in\n    tag_60:\n        /* \"#utility.yul\":1097:1181   */\n      tag_61\n        /* \"#utility.yul\":1174:1180   */\n      dup2\n        /* \"#utility.yul\":1169:1172   */\n      dup5\n        /* \"#utility.yul\":1097:1181   */\n      tag_40\n      jump\t// in\n    tag_61:\n        /* \"#utility.yul\":1090:1181   */\n      swap3\n      pop\n        /* \"#utility.yul\":1205:1259   */\n      tag_62\n        /* \"#utility.yul\":1253:1258   */\n      dup3\n        /* \"#utility.yul\":1205:1259   */\n      tag_41\n      jump\t// in\n    tag_62:\n        /* \"#utility.yul\":1282:1289   */\n      dup1\n        /* \"#utility.yul\":1313:1314   */\n      0x00\n        /* \"#utility.yul\":1298:1578   */\n    tag_63:\n        /* \"#utility.yul\":1323:1329   */\n      dup4\n        /* \"#utility.yul\":1320:1321   */\n      dup2\n        /* \"#utility.yul\":1317:1330   */\n      lt\n        /* \"#utility.yul\":1298:1578   */\n      iszero\n      tag_65\n      jumpi\n        /* \"#utility.yul\":1399:1405   */\n      dup2\n        /* \"#utility.yul\":1393:1406   */\n      mload\n        /* \"#utility.yul\":1426:1487   */\n      tag_66\n        /* \"#utility.yul\":1483:1486   */\n      dup8\n        /* \"#utility.yul\":1468:1481   */\n      dup3\n        /* \"#utility.yul\":1426:1487   */\n      tag_44\n      jump\t// in\n    tag_66:\n        /* \"#utility.yul\":1419:1487   */\n      swap7\n      pop\n        /* \"#utility.yul\":1510:1568   */\n      tag_67\n        /* \"#utility.yul\":1561:1567   */\n      dup4\n        /* \"#utility.yul\":1510:1568   */\n      tag_45\n      jump\t// in\n    tag_67:\n        /* \"#utility.yul\":1500:1568   */\n      swap3\n      pop\n        /* \"#utility.yul\":1358:1578   */\n      pop\n        /* \"#utility.yul\":1345:1346   */\n      0x01\n        /* \"#utility.yul\":1342:1343   */\n      dup2\n        /* \"#utility.yul\":1338:1347   */\n      add\n        /* \"#utility.yul\":1333:1347   */\n      swap1\n      pop\n        /* \"#utility.yul\":1298:1578   */\n      jump(tag_63)\n    tag_65:\n        /* \"#utility.yul\":1302:1316   */\n      pop\n        /* \"#utility.yul\":1005:1585   */\n      pop\n      pop\n      pop\n        /* \"#utility.yul\":893:1585   */\n      pop\n      pop\n      jump\t// out\n        /* \"#utility.yul\":1591:1906   */\n    tag_8:\n        /* \"#utility.yul\":1730:1734   */\n      0x00\n        /* \"#utility.yul\":1768:1771   */\n      0x0140\n        /* \"#utility.yul\":1757:1766   */\n      dup3\n        /* \"#utility.yul\":1753:1772   */\n      add\n        /* \"#utility.yul\":1745:1772   */\n      swap1\n      pop\n        /* \"#utility.yul\":1782:1899   */\n      tag_69\n        /* \"#utility.yul\":1896:1897   */\n      0x00\n        /* \"#utility.yul\":1885:1894   */\n      dup4\n        /* \"#utility.yul\":1881:1898   */\n      add\n        /* \"#utility.yul\":1872:1878   */\n      dup5\n        /* \"#utility.yul\":1782:1899   */\n      tag_46\n      jump\t// in\n    tag_69:\n        /* \"#utility.yul\":1591:1906   */\n      swap3\n      swap2\n      pop\n      pop\n      jump\t// out\n        /* \"#utility.yul\":1912:2092   */\n    tag_47:\n        /* \"#utility.yul\":1960:2037   */\n      0x4e487b7100000000000000000000000000000000000000000000000000000000\n        /* \"#utility.yul\":1957:1958   */\n      0x00\n        /* \"#utility.yul\":1950:2038   */\n      mstore\n        /* \"#utility.yul\":2057:2061   */\n      0x11\n        /* \"#utility.yul\":2054:2055   */\n      0x04\n        /* \"#utility.yul\":2047:2062   */\n      mstore\n        /* \"#utility.yul\":2081:2085   */\n      0x24\n        /* \"#utility.yul\":2078:2079   */\n      0x00\n        /* \"#utility.yul\":2071:2086   */\n      revert\n        /* \"#utility.yul\":2098:2654   */\n    tag_18:\n        /* \"#utility.yul\":2137:2144   */\n      0x00\n        /* \"#utility.yul\":2160:2179   */\n      tag_72\n        /* \"#utility.yul\":2177:2178   */\n      dup3\n        /* \"#utility.yul\":2160:2179   */\n      tag_42\n      jump\t// in\n    tag_72:\n        /* \"#utility.yul\":2155:2179   */\n      swap2\n      pop\n        /* \"#utility.yul\":2193:2212   */\n      tag_73\n        /* \"#utility.yul\":2210:2211   */\n      dup4\n        /* \"#utility.yul\":2193:2212   */\n      tag_42\n      jump\t// in\n    tag_73:\n        /* \"#utility.yul\":2188:2212   */\n      swap3\n      pop\n        /* \"#utility.yul\":2247:2248   */\n      dup3\n        /* \"#utility.yul\":2244:2245   */\n      dup3\n        /* \"#utility.yul\":2240:2249   */\n      mul\n        /* \"#utility.yul\":2269:2298   */\n      tag_74\n        /* \"#utility.yul\":2286:2297   */\n      dup2\n        /* \"#utility.yul\":2269:2298   */\n      tag_42\n      jump\t// in\n    tag_74:\n        /* \"#utility.yul\":2258:2298   */\n      swap2\n      pop\n        /* \"#utility.yul\":2356:2422   */\n      0x8000000000000000000000000000000000000000000000000000000000000000\n        /* \"#utility.yul\":2353:2354   */\n      dup5\n        /* \"#utility.yul\":2350:2423   */\n      eq\n        /* \"#utility.yul\":2346:2347   */\n      0x00\n        /* \"#utility.yul\":2343:2344   */\n      dup5\n        /* \"#utility.yul\":2339:2348   */\n      slt\n        /* \"#utility.yul\":2335:2424   */\n      and\n        /* \"#utility.yul\":2332:2447   */\n      iszero\n      tag_75\n      jumpi\n        /* \"#utility.yul\":2427:2445   */\n      tag_76\n      tag_47\n      jump\t// in\n    tag_76:\n        /* \"#utility.yul\":2332:2447   */\n    tag_75:\n        /* \"#utility.yul\":2597:2598   */\n      dup3\n        /* \"#utility.yul\":2588:2595   */\n      dup3\n        /* \"#utility.yul\":2583:2599   */\n      sdiv\n        /* \"#utility.yul\":2580:2581   */\n      dup5\n        /* \"#utility.yul\":2577:2600   */\n      eq\n        /* \"#utility.yul\":2557:2558   */\n      dup4\n        /* \"#utility.yul\":2550:2559   */\n      iszero\n        /* \"#utility.yul\":2530:2614   */\n      or\n        /* \"#utility.yul\":2507:2647   */\n      tag_77\n      jumpi\n        /* \"#utility.yul\":2627:2645   */\n      tag_78\n      tag_47\n      jump\t// in\n    tag_78:\n        /* \"#utility.yul\":2507:2647   */\n    tag_77:\n        /* \"#utility.yul\":2145:2654   */\n      pop\n        /* \"#utility.yul\":2098:2654   */\n      swap3\n      swap2\n      pop\n      pop\n      jump\t// out\n        /* \"#utility.yul\":2660:2840   */\n    tag_21:\n        /* \"#utility.yul\":2708:2785   */\n      0x4e487b7100000000000000000000000000000000000000000000000000000000\n        /* \"#utility.yul\":2705:2706   */\n      0x00\n        /* \"#utility.yul\":2698:2786   */\n      mstore\n        /* \"#utility.yul\":2805:2809   */\n      0x32\n        /* \"#utility.yul\":2802:2803   */\n      0x04\n        /* \"#utility.yul\":2795:2810   */\n      mstore\n        /* \"#utility.yul\":2829:2833   */\n      0x24\n        /* \"#utility.yul\":2826:2827   */\n      0x00\n        /* \"#utility.yul\":2819:2834   */\n      revert\n        /* \"#utility.yul\":2846:2923   */\n    tag_48:\n        /* \"#utility.yul\":2883:2890   */\n      0x00\n        /* \"#utility.yul\":2912:2917   */\n      dup2\n        /* \"#utility.yul\":2901:2917   */\n      swap1\n      pop\n        /* \"#utility.yul\":2846:2923   */\n      swap2\n      swap1\n      pop\n      jump\t// out\n        /* \"#utility.yul\":2929:3162   */\n    tag_24:\n        /* \"#utility.yul\":2968:2971   */\n      0x00\n        /* \"#utility.yul\":2991:3015   */\n      tag_82\n        /* \"#utility.yul\":3009:3014   */\n      dup3\n        /* \"#utility.yul\":2991:3015   */\n      tag_48\n      jump\t// in\n    tag_82:\n        /* \"#utility.yul\":2982:3015   */\n      swap2\n      pop\n        /* \"#utility.yul\":3037:3103   */\n      0xffffffffffffffffffffffffffffffffffffffffffffffffffffffffffffffff\n        /* \"#utility.yul\":3030:3035   */\n      dup3\n        /* \"#utility.yul\":3027:3104   */\n      sub\n        /* \"#utility.yul\":3024:3127   */\n      tag_83\n      jumpi\n        /* \"#utility.yul\":3107:3125   */\n      tag_84\n      tag_47\n      jump\t// in\n    tag_84:\n        /* \"#utility.yul\":3024:3127   */\n    tag_83:\n        /* \"#utility.yul\":3154:3155   */\n      0x01\n        /* \"#utility.yul\":3147:3152   */\n      dup3\n        /* \"#utility.yul\":3143:3156   */\n      add\n        /* \"#utility.yul\":3136:3156   */\n      swap1\n      pop\n        /* \"#utility.yul\":2929:3162   */\n      swap2\n      swap1\n      pop\n      jump\t// out\n\n    auxdata: 0xa26469706673582212205ec8b96e0558cc44cffb7b92e99cec31b9e9fac728ea82fdff1ad393a076bb5364736f6c634300081a0033\n}\n",
				"bytecode": {
					"linkReferences": {},
					"object": "6080604052348015600e575f80fd5b506103cb8061001c5f395ff3fe608060405234801561000f575f80fd5b5060043610610033575f3560e01c806235921a146100375780636c1f222f14610055575b5f80fd5b61003f610073565b60405161004c919061025b565b60405180910390f35b61005d610101565b60405161006a919061025b565b60405180910390f35b61007b61018a565b5f5b600a8110156100be5760028161009391906102a2565b5f82600a81106100a6576100a5610318565b5b018190555080806100b69061034e565b91505061007d565b5f600a806020026040519081016040528092919082600a80156100f6576020028201915b8154815260200190600101908083116100e2575b505050505091505090565b61010961018a565b5f5b60028161011891906102a2565b600a82600a811061012c5761012b610318565b5b0181905550808061013c9061034e565b9150506005811061010b57600a80806020026040519081016040528092919082600a801561017f576020028201915b81548152602001906001019080831161016b575b505050505091505090565b604051806101400160405280600a90602082028036833780820191505090505090565b5f600a9050919050565b5f81905092915050565b5f819050919050565b5f819050919050565b6101dc816101ca565b82525050565b5f6101ed83836101d3565b60208301905092915050565b5f602082019050919050565b61020e816101ad565b61021881846101b7565b9250610223826101c1565b805f5b8381101561025357815161023a87826101e2565b9650610245836101f9565b925050600181019050610226565b505050505050565b5f6101408201905061026f5f830184610205565b92915050565b7f4e487b71000000000000000000000000000000000000000000000000000000005f52601160045260245ffd5b5f6102ac826101ca565b91506102b7836101ca565b92508282026102c5816101ca565b91507f800000000000000000000000000000000000000000000000000000000000000084145f841216156102fc576102fb610275565b5b828205841483151761031157610310610275565b5b5092915050565b7f4e487b71000000000000000000000000000000000000000000000000000000005f52603260045260245ffd5b5f819050919050565b5f61035882610345565b91507fffffffffffffffffffffffffffffffffffffffffffffffffffffffffffffffff820361038a57610389610275565b5b60018201905091905056fea26469706673582212205ec8b96e0558cc44cffb7b92e99cec31b9e9fac728ea82fdff1ad393a076bb5364736f6c634300081a0033",
					"opcodes": "PUSH1 0x80 PUSH1 0x40 MSTORE CALLVALUE DUP1 ISZERO PUSH1 0xE JUMPI PUSH0 DUP1 REVERT JUMPDEST POP PUSH2 0x3CB DUP1 PUSH2 0x1C PUSH0 CODECOPY PUSH0 RETURN INVALID PUSH1 0x80 PUSH1 0x40 MSTORE CALLVALUE DUP1 ISZERO PUSH2 0xF JUMPI PUSH0 DUP1 REVERT JUMPDEST POP PUSH1 0x4 CALLDATASIZE LT PUSH2 0x33 JUMPI PUSH0 CALLDATALOAD PUSH1 0xE0 SHR DUP1 PUSH3 0x35921A EQ PUSH2 0x37 JUMPI DUP1 PUSH4 0x6C1F222F EQ PUSH2 0x55 JUMPI JUMPDEST PUSH0 DUP1 REVERT JUMPDEST PUSH2 0x3F PUSH2 0x73 JUMP JUMPDEST PUSH1 0x40 MLOAD PUSH2 0x4C SWAP2 SWAP1 PUSH2 0x25B JUMP JUMPDEST PUSH1 0x40 MLOAD DUP1 SWAP2 SUB SWAP1 RETURN JUMPDEST PUSH2 0x5D PUSH2 0x101 JUMP JUMPDEST PUSH1 0x40 MLOAD PUSH2 0x6A SWAP2 SWAP1 PUSH2 0x25B JUMP JUMPDEST PUSH1 0x40 MLOAD DUP1 SWAP2 SUB SWAP1 RETURN JUMPDEST PUSH2 0x7B PUSH2 0x18A JUMP JUMPDEST PUSH0 JUMPDEST PUSH1 0xA DUP2 LT ISZERO PUSH2 0xBE JUMPI PUSH1 0x2 DUP2 PUSH2 0x93 SWAP2 SWAP1 PUSH2 0x2A2 JUMP JUMPDEST PUSH0 DUP3 PUSH1 0xA DUP2 LT PUSH2 0xA6 JUMPI PUSH2 0xA5 PUSH2 0x318 JUMP JUMPDEST JUMPDEST ADD DUP2 SWAP1 SSTORE POP DUP1 DUP1 PUSH2 0xB6 SWAP1 PUSH2 0x34E JUMP JUMPDEST SWAP2 POP POP PUSH2 0x7D JUMP JUMPDEST PUSH0 PUSH1 0xA DUP1 PUSH1 0x20 MUL PUSH1 0x40 MLOAD SWAP1 DUP2 ADD PUSH1 0x40 MSTORE DUP1 SWAP3 SWAP2 SWAP1 DUP3 PUSH1 0xA DUP1 ISZERO PUSH2 0xF6 JUMPI PUSH1 0x20 MUL DUP3 ADD SWAP2 JUMPDEST DUP2 SLOAD DUP2 MSTORE PUSH1 0x20 ADD SWAP1 PUSH1 0x1 ADD SWAP1 DUP1 DUP4 GT PUSH2 0xE2 JUMPI JUMPDEST POP POP POP POP POP SWAP2 POP POP SWAP1 JUMP JUMPDEST PUSH2 0x109 PUSH2 0x18A JUMP JUMPDEST PUSH0 JUMPDEST PUSH1 0x2 DUP2 PUSH2 0x118 SWAP2 SWAP1 PUSH2 0x2A2 JUMP JUMPDEST PUSH1 0xA DUP3 PUSH1 0xA DUP2 LT PUSH2 0x12C JUMPI PUSH2 0x12B PUSH2 0x318 JUMP JUMPDEST JUMPDEST ADD DUP2 SWAP1 SSTORE POP DUP1 DUP1 PUSH2 0x13C SWAP1 PUSH2 0x34E JUMP JUMPDEST SWAP2 POP POP PUSH1 0x5 DUP2 LT PUSH2 0x10B JUMPI PUSH1 0xA DUP1 DUP1 PUSH1 0x20 MUL PUSH1 0x40 MLOAD SWAP1 DUP2 ADD PUSH1 0x40 MSTORE DUP1 SWAP3 SWAP2 SWAP1 DUP3 PUSH1 0xA DUP1 ISZERO PUSH2 0x17F JUMPI PUSH1 0x20 MUL DUP3 ADD SWAP2 JUMPDEST DUP2 SLOAD DUP2 MSTORE PUSH1 0x20 ADD SWAP1 PUSH1 0x1 ADD SWAP1 DUP1 DUP4 GT PUSH2 0x16B JUMPI JUMPDEST POP POP POP POP POP SWAP2 POP POP SWAP1 JUMP JUMPDEST PUSH1 0x40 MLOAD DUP1 PUSH2 0x140 ADD PUSH1 0x40 MSTORE DUP1 PUSH1 0xA SWAP1 PUSH1 0x20 DUP3 MUL DUP1 CALLDATASIZE DUP4 CALLDATACOPY DUP1 DUP3 ADD SWAP2 POP POP SWAP1 POP POP SWAP1 JUMP JUMPDEST PUSH0 PUSH1 0xA SWAP1 POP SWAP2 SWAP1 POP JUMP JUMPDEST PUSH0 DUP2 SWAP1 POP SWAP3 SWAP2 POP POP JUMP JUMPDEST PUSH0 DUP2 SWAP1 POP SWAP2 SWAP1 POP JUMP JUMPDEST PUSH0 DUP2 SWAP1 POP SWAP2 SWAP1 POP JUMP JUMPDEST PUSH2 0x1DC DUP2 PUSH2 0x1CA JUMP JUMPDEST DUP3 MSTORE POP POP JUMP JUMPDEST PUSH0 PUSH2 0x1ED DUP4 DUP4 PUSH2 0x1D3 JUMP JUMPDEST PUSH1 0x20 DUP4 ADD SWAP1 POP SWAP3 SWAP2 POP POP JUMP JUMPDEST PUSH0 PUSH1 0x20 DUP3 ADD SWAP1 POP SWAP2 SWAP1 POP JUMP JUMPDEST PUSH2 0x20E DUP2 PUSH2 0x1AD JUMP JUMPDEST PUSH2 0x218 DUP2 DUP5 PUSH2 0x1B7 JUMP JUMPDEST SWAP3 POP PUSH2 0x223 DUP3 PUSH2 0x1C1 JUMP JUMPDEST DUP1 PUSH0 JUMPDEST DUP4 DUP2 LT ISZERO PUSH2 0x253 JUMPI DUP2 MLOAD PUSH2 0x23A DUP8 DUP3 PUSH2 0x1E2 JUMP JUMPDEST SWAP7 POP PUSH2 0x245 DUP4 PUSH2 0x1F9 JUMP JUMPDEST SWAP3 POP POP PUSH1 0x1 DUP2 ADD SWAP1 POP PUSH2 0x226 JUMP JUMPDEST POP POP POP POP POP POP JUMP JUMPDEST PUSH0 PUSH2 0x140 DUP3 ADD SWAP1 POP PUSH2 0x26F PUSH0 DUP4 ADD DUP5 PUSH2 0x205 JUMP JUMPDEST SWAP3 SWAP2 POP POP JUMP JUMPDEST PUSH32 0x4E487B7100000000000000000000000000000000000000000000000000000000 PUSH0 MSTORE PUSH1 0x11 PUSH1 0x4 MSTORE PUSH1 0x24 PUSH0 REVERT JUMPDEST PUSH0 PUSH2 0x2AC DUP3 PUSH2 0x1CA JUMP JUMPDEST SWAP2 POP PUSH2 0x2B7 DUP4 PUSH2 0x1CA JUMP JUMPDEST SWAP3 POP DUP3 DUP3 MUL PUSH2 0x2C5 DUP2 PUSH2 0x1CA JUMP JUMPDEST SWAP2 POP PUSH32 0x8000000000000000000000000000000000000000000000000000000000000000 DUP5 EQ PUSH0 DUP5 SLT AND ISZERO PUSH2 0x2FC JUMPI PUSH2 0x2FB PUSH2 0x275 JUMP JUMPDEST JUMPDEST DUP3 DUP3 SDIV DUP5 EQ DUP4 ISZERO OR PUSH2 0x311 JUMPI PUSH2 0x310 PUSH2 0x275 JUMP JUMPDEST JUMPDEST POP SWAP3 SWAP2 POP POP JUMP JUMPDEST PUSH32 0x4E487B7100000000000000000000000000000000000000000000000000000000 PUSH0 MSTORE PUSH1 0x32 PUSH1 0x4 MSTORE PUSH1 0x24 PUSH0 REVERT JUMPDEST PUSH0 DUP2 SWAP1 POP SWAP2 SWAP1 POP JUMP JUMPDEST PUSH0 PUSH2 0x358 DUP3 PUSH2 0x345 JUMP JUMPDEST SWAP2 POP PUSH32 0xFFFFFFFFFFFFFFFFFFFFFFFFFFFFFFFFFFFFFFFFFFFFFFFFFFFFFFFFFFFFFFFF DUP3 SUB PUSH2 0x38A JUMPI PUSH2 0x389 PUSH2 0x275 JUMP JUMPDEST JUMPDEST PUSH1 0x1 DUP3 ADD SWAP1 POP SWAP2 SWAP1 POP JUMP INVALID LOG2 PUSH5 0x6970667358 0x22 SLT KECCAK256 MCOPY 0xC8 0xB9 PUSH15 0x558CC44CFFB7B92E99CEC31B9E9FA 0xC7 0x28 0xEA DUP3 REVERT SELFDESTRUCT BYTE 0xD3 SWAP4 LOG0 PUSH23 0xBB5364736F6C634300081A003300000000000000000000 "
				},
				"gasEstimates": {
					"creation": {
						"codeDepositCost": "194200",
						"executionCost": "236",
						"totalCost": "194436"
					},
					"external": {
						"add1()": "infinite",
						"add2()": "infinite"
					}
				},
				"methodIdentifiers": {
					"add1()": "0035921a",
					"add2()": "6c1f222f"
				}
			},
			"storageLayout": {
				"storage": [
					{
						"astId": 155,
						"contract": "contracts/sep9.sol:AddElements",
						"label": "arr1",
						"offset": 0,
						"slot": "0",
						"type": "t_array(t_int256)10_storage"
					},
					{
						"astId": 159,
						"contract": "contracts/sep9.sol:AddElements",
						"label": "arr2",
						"offset": 0,
						"slot": "10",
						"type": "t_array(t_int256)10_storage"
					}
				],
				"types": {
					"t_array(t_int256)10_storage": {
						"base": "t_int256",
						"encoding": "inplace",
						"label": "int256[10]",
						"numberOfBytes": "320"
					},
					"t_int256": {
						"encoding": "inplace",
						"label": "int256",
						"numberOfBytes": "32"
					}
				}
			},
			"userdoc": {
				"kind": "user",
				"methods": {},
				"version": 1
			}
		}
	}
}