{
	"data": {
		"bytecode": {
			"linkReferences": {},
			"object": "608060405260145f55600a6001556005600255348015601c575f80fd5b506103978061002a5f395ff3fe608060405234801561000f575f80fd5b506004361061003f575f3560e01c806307b3b40e146100435780631151fad814610065578063d7dfa0dd14610083575b5f80fd5b61004b6100a4565b60405161005c95949392919061017a565b60405180910390f35b61006d61011e565b60405161007a91906101cb565b60405180910390f35b61008b610123565b60405161009b94939291906101fe565b60405180910390f35b5f805f805f806001545f546100b9919061026e565b90505f6001545f546100cb91906102a1565b90505f6001545f546100dd91906102a1565b90505f6001545f546100ef9190610301565b90505f6001545f546101019190610331565b905084848484849950995099509950995050505050509091929394565b5f5481565b5f805f805f6001545f541490505f6001545f54141590505f6001545f541190505f6001545f541090508383838397509750975097505050505090919293565b5f819050919050565b61017481610162565b82525050565b5f60a08201905061018d5f83018861016b565b61019a602083018761016b565b6101a7604083018661016b565b6101b4606083018561016b565b6101c1608083018461016b565b9695505050505050565b5f6020820190506101de5f83018461016b565b92915050565b5f8115159050919050565b6101f8816101e4565b82525050565b5f6080820190506102115f8301876101ef565b61021e60208301866101ef565b61022b60408301856101ef565b61023860608301846101ef565b95945050505050565b7f4e487b71000000000000000000000000000000000000000000000000000000005f52601160045260245ffd5b5f61027882610162565b915061028383610162565b925082820190508082111561029b5761029a610241565b5b92915050565b5f6102ab82610162565b91506102b683610162565b92508282039050818111156102ce576102cd610241565b5b92915050565b7f4e487b71000000000000000000000000000000000000000000000000000000005f52601260045260245ffd5b5f61030b82610162565b915061031683610162565b925082610326576103256102d4565b5b828204905092915050565b5f61033b82610162565b915061034683610162565b925082610356576103556102d4565b5b82820690509291505056fea2646970667358221220cbd818a90fa78893df8122e24b425fc624852c9b7db24ab228daacf6335bf70164736f6c634300081a0033",
			"opcodes": "PUSH1 0x80 PUSH1 0x40 MSTORE PUSH1 0x14 PUSH0 SSTORE PUSH1 0xA PUSH1 0x1 SSTORE PUSH1 0x5 PUSH1 0x2 SSTORE CALLVALUE DUP1 ISZERO PUSH1 0x1C JUMPI PUSH0 DUP1 REVERT JUMPDEST POP PUSH2 0x397 DUP1 PUSH2 0x2A PUSH0 CODECOPY PUSH0 RETURN INVALID PUSH1 0x80 PUSH1 0x40 MSTORE CALLVALUE DUP1 ISZERO PUSH2 0xF JUMPI PUSH0 DUP1 REVERT JUMPDEST POP PUSH1 0x4 CALLDATASIZE LT PUSH2 0x3F JUMPI PUSH0 CALLDATALOAD PUSH1 0xE0 SHR DUP1 PUSH4 0x7B3B40E EQ PUSH2 0x43 JUMPI DUP1 PUSH4 0x1151FAD8 EQ PUSH2 0x65 JUMPI DUP1 PUSH4 0xD7DFA0DD EQ PUSH2 0x83 JUMPI JUMPDEST PUSH0 DUP1 REVERT JUMPDEST PUSH2 0x4B PUSH2 0xA4 JUMP JUMPDEST PUSH1 0x40 MLOAD PUSH2 0x5C SWAP6 SWAP5 SWAP4 SWAP3 SWAP2 SWAP1 PUSH2 0x17A JUMP JUMPDEST PUSH1 0x40 MLOAD DUP1 SWAP2 SUB SWAP1 RETURN JUMPDEST PUSH2 0x6D PUSH2 0x11E JUMP JUMPDEST PUSH1 0x40 MLOAD PUSH2 0x7A SWAP2 SWAP1 PUSH2 0x1CB JUMP JUMPDEST PUSH1 0x40 MLOAD DUP1 SWAP2 SUB SWAP1 RETURN JUMPDEST PUSH2 0x8B PUSH2 0x123 JUMP JUMPDEST PUSH1 0x40 MLOAD PUSH2 0x9B SWAP5 SWAP4 SWAP3 SWAP2 SWAP1 PUSH2 0x1FE JUMP JUMPDEST PUSH1 0x40 MLOAD DUP1 SWAP2 SUB SWAP1 RETURN JUMPDEST PUSH0 DUP1 PUSH0 DUP1 PUSH0 DUP1 PUSH1 0x1 SLOAD PUSH0 SLOAD PUSH2 0xB9 SWAP2 SWAP1 PUSH2 0x26E JUMP JUMPDEST SWAP1 POP PUSH0 PUSH1 0x1 SLOAD PUSH0 SLOAD PUSH2 0xCB SWAP2 SWAP1 PUSH2 0x2A1 JUMP JUMPDEST SWAP1 POP PUSH0 PUSH1 0x1 SLOAD PUSH0 SLOAD PUSH2 0xDD SWAP2 SWAP1 PUSH2 0x2A1 JUMP JUMPDEST SWAP1 POP PUSH0 PUSH1 0x1 SLOAD PUSH0 SLOAD PUSH2 0xEF SWAP2 SWAP1 PUSH2 0x301 JUMP JUMPDEST SWAP1 POP PUSH0 PUSH1 0x1 SLOAD PUSH0 SLOAD PUSH2 0x101 SWAP2 SWAP1 PUSH2 0x331 JUMP JUMPDEST SWAP1 POP DUP5 DUP5 DUP5 DUP5 DUP5 SWAP10 POP SWAP10 POP SWAP10 POP SWAP10 POP SWAP10 POP POP POP POP POP POP SWAP1 SWAP2 SWAP3 SWAP4 SWAP5 JUMP JUMPDEST PUSH0 SLOAD DUP2 JUMP JUMPDEST PUSH0 DUP1 PUSH0 DUP1 PUSH0 PUSH1 0x1 SLOAD PUSH0 SLOAD EQ SWAP1 POP PUSH0 PUSH1 0x1 SLOAD PUSH0 SLOAD EQ ISZERO SWAP1 POP PUSH0 PUSH1 0x1 SLOAD PUSH0 SLOAD GT SWAP1 POP PUSH0 PUSH1 0x1 SLOAD PUSH0 SLOAD LT SWAP1 POP DUP4 DUP4 DUP4 DUP4 SWAP8 POP SWAP8 POP SWAP8 POP SWAP8 POP POP POP POP POP SWAP1 SWAP2 SWAP3 SWAP4 JUMP JUMPDEST PUSH0 DUP2 SWAP1 POP SWAP2 SWAP1 POP JUMP JUMPDEST PUSH2 0x174 DUP2 PUSH2 0x162 JUMP JUMPDEST DUP3 MSTORE POP POP JUMP JUMPDEST PUSH0 PUSH1 0xA0 DUP3 ADD SWAP1 POP PUSH2 0x18D PUSH0 DUP4 ADD DUP9 PUSH2 0x16B JUMP JUMPDEST PUSH2 0x19A PUSH1 0x20 DUP4 ADD DUP8 PUSH2 0x16B JUMP JUMPDEST PUSH2 0x1A7 PUSH1 0x40 DUP4 ADD DUP7 PUSH2 0x16B JUMP JUMPDEST PUSH2 0x1B4 PUSH1 0x60 DUP4 ADD DUP6 PUSH2 0x16B JUMP JUMPDEST PUSH2 0x1C1 PUSH1 0x80 DUP4 ADD DUP5 PUSH2 0x16B JUMP JUMPDEST SWAP7 SWAP6 POP POP POP POP POP POP JUMP JUMPDEST PUSH0 PUSH1 0x20 DUP3 ADD SWAP1 POP PUSH2 0x1DE PUSH0 DUP4 ADD DUP5 PUSH2 0x16B JUMP JUMPDEST SWAP3 SWAP2 POP POP JUMP JUMPDEST PUSH0 DUP2 ISZERO ISZERO SWAP1 POP SWAP2 SWAP1 POP JUMP JUMPDEST PUSH2 0x1F8 DUP2 PUSH2 0x1E4 JUMP JUMPDEST DUP3 MSTORE POP POP JUMP JUMPDEST PUSH0 PUSH1 0x80 DUP3 ADD SWAP1 POP PUSH2 0x211 PUSH0 DUP4 ADD DUP8 PUSH2 0x1EF JUMP JUMPDEST PUSH2 0x21E PUSH1 0x20 DUP4 ADD DUP7 PUSH2 0x1EF JUMP JUMPDEST PUSH2 0x22B PUSH1 0x40 DUP4 ADD DUP6 PUSH2 0x1EF JUMP JUMPDEST PUSH2 0x238 PUSH1 0x60 DUP4 ADD DUP5 PUSH2 0x1EF JUMP JUMPDEST SWAP6 SWAP5 POP POP POP POP POP JUMP JUMPDEST PUSH32 0x4E487B7100000000000000000000000000000000000000000000000000000000 PUSH0 MSTORE PUSH1 0x11 PUSH1 0x4 MSTORE PUSH1 0x24 PUSH0 REVERT JUMPDEST PUSH0 PUSH2 0x278 DUP3 PUSH2 0x162 JUMP JUMPDEST SWAP2 POP PUSH2 0x283 DUP4 PUSH2 0x162 JUMP JUMPDEST SWAP3 POP DUP3 DUP3 ADD SWAP1 POP DUP1 DUP3 GT ISZERO PUSH2 0x29B JUMPI PUSH2 0x29A PUSH2 0x241 JUMP JUMPDEST JUMPDEST SWAP3 SWAP2 POP POP JUMP JUMPDEST PUSH0 PUSH2 0x2AB DUP3 PUSH2 0x162 JUMP JUMPDEST SWAP2 POP PUSH2 0x2B6 DUP4 PUSH2 0x162 JUMP JUMPDEST SWAP3 POP DUP3 DUP3 SUB SWAP1 POP DUP2 DUP2 GT ISZERO PUSH2 0x2CE JUMPI PUSH2 0x2CD PUSH2 0x241 JUMP JUMPDEST JUMPDEST SWAP3 SWAP2 POP POP JUMP JUMPDEST PUSH32 0x4E487B7100000000000000000000000000000000000000000000000000000000 PUSH0 MSTORE PUSH1 0x12 PUSH1 0x4 MSTORE PUSH1 0x24 PUSH0 REVERT JUMPDEST PUSH0 PUSH2 0x30B DUP3 PUSH2 0x162 JUMP JUMPDEST SWAP2 POP PUSH2 0x316 DUP4 PUSH2 0x162 JUMP JUMPDEST SWAP3 POP DUP3 PUSH2 0x326 JUMPI PUSH2 0x325 PUSH2 0x2D4 JUMP JUMPDEST JUMPDEST DUP3 DUP3 DIV SWAP1 POP SWAP3 SWAP2 POP POP JUMP JUMPDEST PUSH0 PUSH2 0x33B DUP3 PUSH2 0x162 JUMP JUMPDEST SWAP2 POP PUSH2 0x346 DUP4 PUSH2 0x162 JUMP JUMPDEST SWAP3 POP DUP3 PUSH2 0x356 JUMPI PUSH2 0x355 PUSH2 0x2D4 JUMP JUMPDEST JUMPDEST DUP3 DUP3 MOD SWAP1 POP SWAP3 SWAP2 POP POP JUMP INVALID LOG2 PUSH5 0x6970667358 0x22 SLT KECCAK256 0xCB 0xD8 XOR 0xA9 0xF 0xA7 DUP9 SWAP4 0xDF DUP2 0x22 0xE2 0x4B TIMESTAMP PUSH0 0xC6 0x24 DUP6 0x2C SWAP12 PUSH30 0xB24AB228DAACF6335BF70164736F6C634300081A00330000000000000000 "
		},
		"gasEstimates": {
			"creation": {
				"codeDepositCost": "183800",
				"executionCost": "66541",
				"totalCost": "250341"
			},
			"external": {
				"logic()": "infinite",
				"maths()": "infinite",
				"publicVar()": "2424"
			}
		},
		"methodIdentifiers": {
			"logic()": "d7dfa0dd",
			"maths()": "07b3b40e",
			"publicVar()": "1151fad8"
		}
	},
	"abi": [
		{
			"inputs": [],
			"name": "logic",
			"outputs": [
				{
					"internalType": "bool",
					"name": "",
					"type": "bool"
				},
				{
					"internalType": "bool",
					"name": "",
					"type": "bool"
				},
				{
					"internalType": "bool",
					"name": "",
					"type": "bool"
				},
				{
					"internalType": "bool",
					"name": "",
					"type": "bool"
				}
			],
			"stateMutability": "view",
			"type": "function"
		},
		{
			"inputs": [],
			"name": "maths",
			"outputs": [
				{
					"internalType": "uint256",
					"name": "",
					"type": "uint256"
				},
				{
					"internalType": "uint256",
					"name": "",
					"type": "uint256"
				},
				{
					"internalType": "uint256",
					"name": "",
					"type": "uint256"
				},
				{
					"internalType": "uint256",
					"name": "",
					"type": "uint256"
				},
				{
					"internalType": "uint256",
					"name": "",
					"type": "uint256"
				}
			],
			"stateMutability": "view",
			"type": "function"
		},
		{
			"inputs": [],
			"name": "publicVar",
			"outputs": [
				{
					"internalType": "uint256",
					"name": "",
					"type": "uint256"
				}
			],
			"stateMutability": "view",
			"type": "function"
		}
	]
}