{
	"data": {
		"bytecode": {
			"linkReferences": {},
			"object": "6080604052348015600e575f80fd5b506104a08061001c5f395ff3fe608060405234801561000f575f80fd5b506004361061003f575f3560e01c80632c27aaa9146100435780634c0811381461007857806372e0e984146100a8575b5f80fd5b61005d60048036038101906100589190610249565b6100d8565b60405161006f96959493929190610296565b60405180910390f35b610092600480360381019061008d91906102f5565b610125565b60405161009f9190610320565b60405180910390f35b6100c260048036038101906100bd91906102f5565b61013d565b6040516100cf9190610353565b60405180910390f35b5f805f805f805f87891690505f888a1790505f898b1890505f8a8c901b90505f8b8d901c90505f8d1990508585858585859b509b509b509b509b509b505050505050509295509295509295565b5f600a826101339190610399565b9150819050919050565b5f600282101561014f575f905061020d565b600282148061015e5750600382145b1561016c576001905061020d565b5f60028361017a91906103f9565b148061019157505f60038361018f91906103f9565b145b1561019e575f905061020d565b5f600590505b8281826101b19190610429565b11610207575f81846101c391906103f9565b14806101e557505f6002826101d89190610399565b846101e391906103f9565b145b156101f3575f91505061020d565b6006816102009190610399565b90506101a4565b50600190505b919050565b5f80fd5b5f819050919050565b61022881610216565b8114610232575f80fd5b50565b5f813590506102438161021f565b92915050565b5f806040838503121561025f5761025e610212565b5b5f61026c85828601610235565b925050602061027d85828601610235565b9150509250929050565b61029081610216565b82525050565b5f60c0820190506102a95f830189610287565b6102b66020830188610287565b6102c36040830187610287565b6102d06060830186610287565b6102dd6080830185610287565b6102ea60a0830184610287565b979650505050505050565b5f6020828403121561030a57610309610212565b5b5f61031784828501610235565b91505092915050565b5f6020820190506103335f830184610287565b92915050565b5f8115159050919050565b61034d81610339565b82525050565b5f6020820190506103665f830184610344565b92915050565b7f4e487b71000000000000000000000000000000000000000000000000000000005f52601160045260245ffd5b5f6103a382610216565b91506103ae83610216565b92508282019050808211156103c6576103c561036c565b5b92915050565b7f4e487b71000000000000000000000000000000000000000000000000000000005f52601260045260245ffd5b5f61040382610216565b915061040e83610216565b92508261041e5761041d6103cc565b5b828206905092915050565b5f61043382610216565b915061043e83610216565b925082820261044c81610216565b915082820484148315176104635761046261036c565b5b509291505056fea2646970667358221220611509b351dcab03323e6640cf1bf84c3bcfafd98b15968c8868628890f119cb64736f6c634300081a0033",
			"opcodes": "PUSH1 0x80 PUSH1 0x40 MSTORE CALLVALUE DUP1 ISZERO PUSH1 0xE JUMPI PUSH0 DUP1 REVERT JUMPDEST POP PUSH2 0x4A0 DUP1 PUSH2 0x1C PUSH0 CODECOPY PUSH0 RETURN INVALID PUSH1 0x80 PUSH1 0x40 MSTORE CALLVALUE DUP1 ISZERO PUSH2 0xF JUMPI PUSH0 DUP1 REVERT JUMPDEST POP PUSH1 0x4 CALLDATASIZE LT PUSH2 0x3F JUMPI PUSH0 CALLDATALOAD PUSH1 0xE0 SHR DUP1 PUSH4 0x2C27AAA9 EQ PUSH2 0x43 JUMPI DUP1 PUSH4 0x4C081138 EQ PUSH2 0x78 JUMPI DUP1 PUSH4 0x72E0E984 EQ PUSH2 0xA8 JUMPI JUMPDEST PUSH0 DUP1 REVERT JUMPDEST PUSH2 0x5D PUSH1 0x4 DUP1 CALLDATASIZE SUB DUP2 ADD SWAP1 PUSH2 0x58 SWAP2 SWAP1 PUSH2 0x249 JUMP JUMPDEST PUSH2 0xD8 JUMP JUMPDEST PUSH1 0x40 MLOAD PUSH2 0x6F SWAP7 SWAP6 SWAP5 SWAP4 SWAP3 SWAP2 SWAP1 PUSH2 0x296 JUMP JUMPDEST PUSH1 0x40 MLOAD DUP1 SWAP2 SUB SWAP1 RETURN JUMPDEST PUSH2 0x92 PUSH1 0x4 DUP1 CALLDATASIZE SUB DUP2 ADD SWAP1 PUSH2 0x8D SWAP2 SWAP1 PUSH2 0x2F5 JUMP JUMPDEST PUSH2 0x125 JUMP JUMPDEST PUSH1 0x40 MLOAD PUSH2 0x9F SWAP2 SWAP1 PUSH2 0x320 JUMP JUMPDEST PUSH1 0x40 MLOAD DUP1 SWAP2 SUB SWAP1 RETURN JUMPDEST PUSH2 0xC2 PUSH1 0x4 DUP1 CALLDATASIZE SUB DUP2 ADD SWAP1 PUSH2 0xBD SWAP2 SWAP1 PUSH2 0x2F5 JUMP JUMPDEST PUSH2 0x13D JUMP JUMPDEST PUSH1 0x40 MLOAD PUSH2 0xCF SWAP2 SWAP1 PUSH2 0x353 JUMP JUMPDEST PUSH1 0x40 MLOAD DUP1 SWAP2 SUB SWAP1 RETURN JUMPDEST PUSH0 DUP1 PUSH0 DUP1 PUSH0 DUP1 PUSH0 DUP8 DUP10 AND SWAP1 POP PUSH0 DUP9 DUP11 OR SWAP1 POP PUSH0 DUP10 DUP12 XOR SWAP1 POP PUSH0 DUP11 DUP13 SWAP1 SHL SWAP1 POP PUSH0 DUP12 DUP14 SWAP1 SHR SWAP1 POP PUSH0 DUP14 NOT SWAP1 POP DUP6 DUP6 DUP6 DUP6 DUP6 DUP6 SWAP12 POP SWAP12 POP SWAP12 POP SWAP12 POP SWAP12 POP SWAP12 POP POP POP POP POP POP POP SWAP3 SWAP6 POP SWAP3 SWAP6 POP SWAP3 SWAP6 JUMP JUMPDEST PUSH0 PUSH1 0xA DUP3 PUSH2 0x133 SWAP2 SWAP1 PUSH2 0x399 JUMP JUMPDEST SWAP2 POP DUP2 SWAP1 POP SWAP2 SWAP1 POP JUMP JUMPDEST PUSH0 PUSH1 0x2 DUP3 LT ISZERO PUSH2 0x14F JUMPI PUSH0 SWAP1 POP PUSH2 0x20D JUMP JUMPDEST PUSH1 0x2 DUP3 EQ DUP1 PUSH2 0x15E JUMPI POP PUSH1 0x3 DUP3 EQ JUMPDEST ISZERO PUSH2 0x16C JUMPI PUSH1 0x1 SWAP1 POP PUSH2 0x20D JUMP JUMPDEST PUSH0 PUSH1 0x2 DUP4 PUSH2 0x17A SWAP2 SWAP1 PUSH2 0x3F9 JUMP JUMPDEST EQ DUP1 PUSH2 0x191 JUMPI POP PUSH0 PUSH1 0x3 DUP4 PUSH2 0x18F SWAP2 SWAP1 PUSH2 0x3F9 JUMP JUMPDEST EQ JUMPDEST ISZERO PUSH2 0x19E JUMPI PUSH0 SWAP1 POP PUSH2 0x20D JUMP JUMPDEST PUSH0 PUSH1 0x5 SWAP1 POP JUMPDEST DUP3 DUP2 DUP3 PUSH2 0x1B1 SWAP2 SWAP1 PUSH2 0x429 JUMP JUMPDEST GT PUSH2 0x207 JUMPI PUSH0 DUP2 DUP5 PUSH2 0x1C3 SWAP2 SWAP1 PUSH2 0x3F9 JUMP JUMPDEST EQ DUP1 PUSH2 0x1E5 JUMPI POP PUSH0 PUSH1 0x2 DUP3 PUSH2 0x1D8 SWAP2 SWAP1 PUSH2 0x399 JUMP JUMPDEST DUP5 PUSH2 0x1E3 SWAP2 SWAP1 PUSH2 0x3F9 JUMP JUMPDEST EQ JUMPDEST ISZERO PUSH2 0x1F3 JUMPI PUSH0 SWAP2 POP POP PUSH2 0x20D JUMP JUMPDEST PUSH1 0x6 DUP2 PUSH2 0x200 SWAP2 SWAP1 PUSH2 0x399 JUMP JUMPDEST SWAP1 POP PUSH2 0x1A4 JUMP JUMPDEST POP PUSH1 0x1 SWAP1 POP JUMPDEST SWAP2 SWAP1 POP JUMP JUMPDEST PUSH0 DUP1 REVERT JUMPDEST PUSH0 DUP2 SWAP1 POP SWAP2 SWAP1 POP JUMP JUMPDEST PUSH2 0x228 DUP2 PUSH2 0x216 JUMP JUMPDEST DUP2 EQ PUSH2 0x232 JUMPI PUSH0 DUP1 REVERT JUMPDEST POP JUMP JUMPDEST PUSH0 DUP2 CALLDATALOAD SWAP1 POP PUSH2 0x243 DUP2 PUSH2 0x21F JUMP JUMPDEST SWAP3 SWAP2 POP POP JUMP JUMPDEST PUSH0 DUP1 PUSH1 0x40 DUP4 DUP6 SUB SLT ISZERO PUSH2 0x25F JUMPI PUSH2 0x25E PUSH2 0x212 JUMP JUMPDEST JUMPDEST PUSH0 PUSH2 0x26C DUP6 DUP3 DUP7 ADD PUSH2 0x235 JUMP JUMPDEST SWAP3 POP POP PUSH1 0x20 PUSH2 0x27D DUP6 DUP3 DUP7 ADD PUSH2 0x235 JUMP JUMPDEST SWAP2 POP POP SWAP3 POP SWAP3 SWAP1 POP JUMP JUMPDEST PUSH2 0x290 DUP2 PUSH2 0x216 JUMP JUMPDEST DUP3 MSTORE POP POP JUMP JUMPDEST PUSH0 PUSH1 0xC0 DUP3 ADD SWAP1 POP PUSH2 0x2A9 PUSH0 DUP4 ADD DUP10 PUSH2 0x287 JUMP JUMPDEST PUSH2 0x2B6 PUSH1 0x20 DUP4 ADD DUP9 PUSH2 0x287 JUMP JUMPDEST PUSH2 0x2C3 PUSH1 0x40 DUP4 ADD DUP8 PUSH2 0x287 JUMP JUMPDEST PUSH2 0x2D0 PUSH1 0x60 DUP4 ADD DUP7 PUSH2 0x287 JUMP JUMPDEST PUSH2 0x2DD PUSH1 0x80 DUP4 ADD DUP6 PUSH2 0x287 JUMP JUMPDEST PUSH2 0x2EA PUSH1 0xA0 DUP4 ADD DUP5 PUSH2 0x287 JUMP JUMPDEST SWAP8 SWAP7 POP POP POP POP POP POP POP JUMP JUMPDEST PUSH0 PUSH1 0x20 DUP3 DUP5 SUB SLT ISZERO PUSH2 0x30A JUMPI PUSH2 0x309 PUSH2 0x212 JUMP JUMPDEST JUMPDEST PUSH0 PUSH2 0x317 DUP5 DUP3 DUP6 ADD PUSH2 0x235 JUMP JUMPDEST SWAP2 POP POP SWAP3 SWAP2 POP POP JUMP JUMPDEST PUSH0 PUSH1 0x20 DUP3 ADD SWAP1 POP PUSH2 0x333 PUSH0 DUP4 ADD DUP5 PUSH2 0x287 JUMP JUMPDEST SWAP3 SWAP2 POP POP JUMP JUMPDEST PUSH0 DUP2 ISZERO ISZERO SWAP1 POP SWAP2 SWAP1 POP JUMP JUMPDEST PUSH2 0x34D DUP2 PUSH2 0x339 JUMP JUMPDEST DUP3 MSTORE POP POP JUMP JUMPDEST PUSH0 PUSH1 0x20 DUP3 ADD SWAP1 POP PUSH2 0x366 PUSH0 DUP4 ADD DUP5 PUSH2 0x344 JUMP JUMPDEST SWAP3 SWAP2 POP POP JUMP JUMPDEST PUSH32 0x4E487B7100000000000000000000000000000000000000000000000000000000 PUSH0 MSTORE PUSH1 0x11 PUSH1 0x4 MSTORE PUSH1 0x24 PUSH0 REVERT JUMPDEST PUSH0 PUSH2 0x3A3 DUP3 PUSH2 0x216 JUMP JUMPDEST SWAP2 POP PUSH2 0x3AE DUP4 PUSH2 0x216 JUMP JUMPDEST SWAP3 POP DUP3 DUP3 ADD SWAP1 POP DUP1 DUP3 GT ISZERO PUSH2 0x3C6 JUMPI PUSH2 0x3C5 PUSH2 0x36C JUMP JUMPDEST JUMPDEST SWAP3 SWAP2 POP POP JUMP JUMPDEST PUSH32 0x4E487B7100000000000000000000000000000000000000000000000000000000 PUSH0 MSTORE PUSH1 0x12 PUSH1 0x4 MSTORE PUSH1 0x24 PUSH0 REVERT JUMPDEST PUSH0 PUSH2 0x403 DUP3 PUSH2 0x216 JUMP JUMPDEST SWAP2 POP PUSH2 0x40E DUP4 PUSH2 0x216 JUMP JUMPDEST SWAP3 POP DUP3 PUSH2 0x41E JUMPI PUSH2 0x41D PUSH2 0x3CC JUMP JUMPDEST JUMPDEST DUP3 DUP3 MOD SWAP1 POP SWAP3 SWAP2 POP POP JUMP JUMPDEST PUSH0 PUSH2 0x433 DUP3 PUSH2 0x216 JUMP JUMPDEST SWAP2 POP PUSH2 0x43E DUP4 PUSH2 0x216 JUMP JUMPDEST SWAP3 POP DUP3 DUP3 MUL PUSH2 0x44C DUP2 PUSH2 0x216 JUMP JUMPDEST SWAP2 POP DUP3 DUP3 DIV DUP5 EQ DUP4 ISZERO OR PUSH2 0x463 JUMPI PUSH2 0x462 PUSH2 0x36C JUMP JUMPDEST JUMPDEST POP SWAP3 SWAP2 POP POP JUMP INVALID LOG2 PUSH5 0x6970667358 0x22 SLT KECCAK256 PUSH2 0x1509 0xB3 MLOAD 0xDC 0xAB SUB ORIGIN RETURNDATACOPY PUSH7 0x40CF1BF84C3BCF 0xAF 0xD9 DUP12 ISZERO SWAP7 DUP13 DUP9 PUSH9 0x628890F119CB64736F PUSH13 0x634300081A0033000000000000 "
		},
		"gasEstimates": {
			"creation": {
				"codeDepositCost": "236800",
				"executionCost": "273",
				"totalCost": "237073"
			},
			"external": {
				"assign(uint256)": "infinite",
				"bitwise(uint256,uint256)": "infinite",
				"prime(uint256)": "infinite"
			}
		},
		"methodIdentifiers": {
			"assign(uint256)": "4c081138",
			"bitwise(uint256,uint256)": "2c27aaa9",
			"prime(uint256)": "72e0e984"
		}
	},
	"abi": [
		{
			"inputs": [
				{
					"internalType": "uint256",
					"name": "a",
					"type": "uint256"
				}
			],
			"name": "assign",
			"outputs": [
				{
					"internalType": "uint256",
					"name": "",
					"type": "uint256"
				}
			],
			"stateMutability": "pure",
			"type": "function"
		},
		{
			"inputs": [
				{
					"internalType": "uint256",
					"name": "a",
					"type": "uint256"
				},
				{
					"internalType": "uint256",
					"name": "b",
					"type": "uint256"
				}
			],
			"name": "bitwise",
			"outputs": [
				{
					"internalType": "uint256",
					"name": "",
					"type": "uint256"
				},
				{
					"internalType": "uint256",
					"name": "",
					"type": "uint256"
				},
				{
					"internalType": "uint256",
					"name": "",
					"type": "uint256"
				},
				{
					"internalType": "uint256",
					"name": "",
					"type": "uint256"
				},
				{
					"internalType": "uint256",
					"name": "",
					"type": "uint256"
				},
				{
					"internalType": "uint256",
					"name": "",
					"type": "uint256"
				}
			],
			"stateMutability": "pure",
			"type": "function"
		},
		{
			"inputs": [
				{
					"internalType": "uint256",
					"name": "a",
					"type": "uint256"
				}
			],
			"name": "prime",
			"outputs": [
				{
					"internalType": "bool",
					"name": "",
					"type": "bool"
				}
			],
			"stateMutability": "pure",
			"type": "function"
		}
	]
}