{
	"data": {
		"bytecode": {
			"linkReferences": {},
			"object": "608060405260055f557ffffffffffffffffffffffffffffffffffffffffffffffffffffffffffffffffd6001556040518060400160405280600b81526020017f48656c6c6f20576f726c640000000000000000000000000000000000000000008152506002908161007091906102d6565b50600160035f6101000a81548160ff021916908315150217905550348015610096575f80fd5b506103a5565b5f81519050919050565b7f4e487b71000000000000000000000000000000000000000000000000000000005f52604160045260245ffd5b7f4e487b71000000000000000000000000000000000000000000000000000000005f52602260045260245ffd5b5f600282049050600182168061011757607f821691505b60208210810361012a576101296100d3565b5b50919050565b5f819050815f5260205f209050919050565b5f6020601f8301049050919050565b5f82821b905092915050565b5f6008830261018c7fffffffffffffffffffffffffffffffffffffffffffffffffffffffffffffffff82610151565b6101968683610151565b95508019841693508086168417925050509392505050565b5f819050919050565b5f819050919050565b5f6101da6101d56101d0846101ae565b6101b7565b6101ae565b9050919050565b5f819050919050565b6101f3836101c0565b6102076101ff826101e1565b84845461015d565b825550505050565b5f90565b61021b61020f565b6102268184846101ea565b505050565b5b818110156102495761023e5f82610213565b60018101905061022c565b5050565b601f82111561028e5761025f81610130565b61026884610142565b81016020851015610277578190505b61028b61028385610142565b83018261022b565b50505b505050565b5f82821c905092915050565b5f6102ae5f1984600802610293565b1980831691505092915050565b5f6102c6838361029f565b9150826002028217905092915050565b6102df8261009c565b67ffffffffffffffff8111156102f8576102f76100a6565b5b6103028254610100565b61030d82828561024d565b5f60209050601f83116001811461033e575f841561032c578287015190505b61033685826102bb565b86555061039d565b601f19841661034c86610130565b5f5b828110156103735784890151825560018201915060208501945060208101905061034e565b86831015610390578489015161038c601f89168261029f565b8355505b6001600288020188555050505b505050505050565b6108b6806103b25f395ff3fe608060405234801561000f575f80fd5b5060043610610091575f3560e01c8063a1c5191511610064578063a1c5191514610107578063a2375d1e14610125578063af3b690214610143578063d46300fd1461015f578063ee919d501461017d57610091565b80631a14ff7a146100955780631b72e3cd146100b35780632495477e146100cf57806358b46482146100eb575b5f80fd5b61009d610199565b6040516100aa91906102c4565b60405180910390f35b6100cd60048036038101906100c89190610346565b6101ae565b005b6100e960048036038101906100e491906103bb565b6101c4565b005b61010560048036038101906101009190610346565b6101e0565b005b61010f6101f6565b60405161011c91906103fe565b60405180910390f35b61012d6101ff565b60405161013a9190610487565b60405180910390f35b61015d600480360381019061015891906104d1565b61028f565b005b610167610299565b6040516101749190610514565b60405180910390f35b61019760048036038101906101929190610557565b6102a1565b005b5f60035f9054906101000a900460ff16905090565b8181600291826101bf9291906107b3565b505050565b8060035f6101000a81548160ff02191690831515021790555050565b8181600291826101f19291906107b3565b505050565b5f600154905090565b60606002805461020e906105e6565b80601f016020809104026020016040519081016040528092919081815260200182805461023a906105e6565b80156102855780601f1061025c57610100808354040283529160200191610285565b820191905f5260205f20905b81548152906001019060200180831161026857829003601f168201915b5050505050905090565b8060018190555050565b5f8054905090565b805f8190555050565b5f8115159050919050565b6102be816102aa565b82525050565b5f6020820190506102d75f8301846102b5565b92915050565b5f80fd5b5f80fd5b5f80fd5b5f80fd5b5f80fd5b5f8083601f840112610306576103056102e5565b5b8235905067ffffffffffffffff811115610323576103226102e9565b5b60208301915083600182028301111561033f5761033e6102ed565b5b9250929050565b5f806020838503121561035c5761035b6102dd565b5b5f83013567ffffffffffffffff811115610379576103786102e1565b5b610385858286016102f1565b92509250509250929050565b61039a816102aa565b81146103a4575f80fd5b50565b5f813590506103b581610391565b92915050565b5f602082840312156103d0576103cf6102dd565b5b5f6103dd848285016103a7565b91505092915050565b5f819050919050565b6103f8816103e6565b82525050565b5f6020820190506104115f8301846103ef565b92915050565b5f81519050919050565b5f82825260208201905092915050565b8281835e5f83830152505050565b5f601f19601f8301169050919050565b5f61045982610417565b6104638185610421565b9350610473818560208601610431565b61047c8161043f565b840191505092915050565b5f6020820190508181035f83015261049f818461044f565b905092915050565b6104b0816103e6565b81146104ba575f80fd5b50565b5f813590506104cb816104a7565b92915050565b5f602082840312156104e6576104e56102dd565b5b5f6104f3848285016104bd565b91505092915050565b5f819050919050565b61050e816104fc565b82525050565b5f6020820190506105275f830184610505565b92915050565b610536816104fc565b8114610540575f80fd5b50565b5f813590506105518161052d565b92915050565b5f6020828403121561056c5761056b6102dd565b5b5f61057984828501610543565b91505092915050565b5f82905092915050565b7f4e487b71000000000000000000000000000000000000000000000000000000005f52604160045260245ffd5b7f4e487b71000000000000000000000000000000000000000000000000000000005f52602260045260245ffd5b5f60028204905060018216806105fd57607f821691505b6020821081036106105761060f6105b9565b5b50919050565b5f819050815f5260205f209050919050565b5f6020601f8301049050919050565b5f82821b905092915050565b5f600883026106727fffffffffffffffffffffffffffffffffffffffffffffffffffffffffffffffff82610637565b61067c8683610637565b95508019841693508086168417925050509392505050565b5f819050919050565b5f6106b76106b26106ad846104fc565b610694565b6104fc565b9050919050565b5f819050919050565b6106d08361069d565b6106e46106dc826106be565b848454610643565b825550505050565b5f90565b6106f86106ec565b6107038184846106c7565b505050565b5b818110156107265761071b5f826106f0565b600181019050610709565b5050565b601f82111561076b5761073c81610616565b61074584610628565b81016020851015610754578190505b61076861076085610628565b830182610708565b50505b505050565b5f82821c905092915050565b5f61078b5f1984600802610770565b1980831691505092915050565b5f6107a3838361077c565b9150826002028217905092915050565b6107bd8383610582565b67ffffffffffffffff8111156107d6576107d561058c565b5b6107e082546105e6565b6107eb82828561072a565b5f601f831160018114610818575f8415610806578287013590505b6108108582610798565b865550610877565b601f19841661082686610616565b5f5b8281101561084d57848901358255600182019150602085019450602081019050610828565b8683101561086a5784890135610866601f89168261077c565b8355505b6001600288020188555050505b5050505050505056fea26469706673582212202a61d4f10aa8bfb027f4cb9d362d07c682e70d086b2ec8b0b3a159ccd0c65eb764736f6c634300081a0033",
			"opcodes": "PUSH1 0x80 PUSH1 0x40 MSTORE PUSH1 0x5 PUSH0 SSTORE PUSH32 0xFFFFFFFFFFFFFFFFFFFFFFFFFFFFFFFFFFFFFFFFFFFFFFFFFFFFFFFFFFFFFFFD PUSH1 0x1 SSTORE PUSH1 0x40 MLOAD DUP1 PUSH1 0x40 ADD PUSH1 0x40 MSTORE DUP1 PUSH1 0xB DUP2 MSTORE PUSH1 0x20 ADD PUSH32 0x48656C6C6F20576F726C64000000000000000000000000000000000000000000 DUP2 MSTORE POP PUSH1 0x2 SWAP1 DUP2 PUSH2 0x70 SWAP2 SWAP1 PUSH2 0x2D6 JUMP JUMPDEST POP PUSH1 0x1 PUSH1 0x3 PUSH0 PUSH2 0x100 EXP DUP2 SLOAD DUP2 PUSH1 0xFF MUL NOT AND SWAP1 DUP4 ISZERO ISZERO MUL OR SWAP1 SSTORE POP CALLVALUE DUP1 ISZERO PUSH2 0x96 JUMPI PUSH0 DUP1 REVERT JUMPDEST POP PUSH2 0x3A5 JUMP JUMPDEST PUSH0 DUP2 MLOAD SWAP1 POP SWAP2 SWAP1 POP JUMP JUMPDEST PUSH32 0x4E487B7100000000000000000000000000000000000000000000000000000000 PUSH0 MSTORE PUSH1 0x41 PUSH1 0x4 MSTORE PUSH1 0x24 PUSH0 REVERT JUMPDEST PUSH32 0x4E487B7100000000000000000000000000000000000000000000000000000000 PUSH0 MSTORE PUSH1 0x22 PUSH1 0x4 MSTORE PUSH1 0x24 PUSH0 REVERT JUMPDEST PUSH0 PUSH1 0x2 DUP3 DIV SWAP1 POP PUSH1 0x1 DUP3 AND DUP1 PUSH2 0x117 JUMPI PUSH1 0x7F DUP3 AND SWAP2 POP JUMPDEST PUSH1 0x20 DUP3 LT DUP2 SUB PUSH2 0x12A JUMPI PUSH2 0x129 PUSH2 0xD3 JUMP JUMPDEST JUMPDEST POP SWAP2 SWAP1 POP JUMP JUMPDEST PUSH0 DUP2 SWAP1 POP DUP2 PUSH0 MSTORE PUSH1 0x20 PUSH0 KECCAK256 SWAP1 POP SWAP2 SWAP1 POP JUMP JUMPDEST PUSH0 PUSH1 0x20 PUSH1 0x1F DUP4 ADD DIV SWAP1 POP SWAP2 SWAP1 POP JUMP JUMPDEST PUSH0 DUP3 DUP3 SHL SWAP1 POP SWAP3 SWAP2 POP POP JUMP JUMPDEST PUSH0 PUSH1 0x8 DUP4 MUL PUSH2 0x18C PUSH32 0xFFFFFFFFFFFFFFFFFFFFFFFFFFFFFFFFFFFFFFFFFFFFFFFFFFFFFFFFFFFFFFFF DUP3 PUSH2 0x151 JUMP JUMPDEST PUSH2 0x196 DUP7 DUP4 PUSH2 0x151 JUMP JUMPDEST SWAP6 POP DUP1 NOT DUP5 AND SWAP4 POP DUP1 DUP7 AND DUP5 OR SWAP3 POP POP POP SWAP4 SWAP3 POP POP POP JUMP JUMPDEST PUSH0 DUP2 SWAP1 POP SWAP2 SWAP1 POP JUMP JUMPDEST PUSH0 DUP2 SWAP1 POP SWAP2 SWAP1 POP JUMP JUMPDEST PUSH0 PUSH2 0x1DA PUSH2 0x1D5 PUSH2 0x1D0 DUP5 PUSH2 0x1AE JUMP JUMPDEST PUSH2 0x1B7 JUMP JUMPDEST PUSH2 0x1AE JUMP JUMPDEST SWAP1 POP SWAP2 SWAP1 POP JUMP JUMPDEST PUSH0 DUP2 SWAP1 POP SWAP2 SWAP1 POP JUMP JUMPDEST PUSH2 0x1F3 DUP4 PUSH2 0x1C0 JUMP JUMPDEST PUSH2 0x207 PUSH2 0x1FF DUP3 PUSH2 0x1E1 JUMP JUMPDEST DUP5 DUP5 SLOAD PUSH2 0x15D JUMP JUMPDEST DUP3 SSTORE POP POP POP POP JUMP JUMPDEST PUSH0 SWAP1 JUMP JUMPDEST PUSH2 0x21B PUSH2 0x20F JUMP JUMPDEST PUSH2 0x226 DUP2 DUP5 DUP5 PUSH2 0x1EA JUMP JUMPDEST POP POP POP JUMP JUMPDEST JUMPDEST DUP2 DUP2 LT ISZERO PUSH2 0x249 JUMPI PUSH2 0x23E PUSH0 DUP3 PUSH2 0x213 JUMP JUMPDEST PUSH1 0x1 DUP2 ADD SWAP1 POP PUSH2 0x22C JUMP JUMPDEST POP POP JUMP JUMPDEST PUSH1 0x1F DUP3 GT ISZERO PUSH2 0x28E JUMPI PUSH2 0x25F DUP2 PUSH2 0x130 JUMP JUMPDEST PUSH2 0x268 DUP5 PUSH2 0x142 JUMP JUMPDEST DUP2 ADD PUSH1 0x20 DUP6 LT ISZERO PUSH2 0x277 JUMPI DUP2 SWAP1 POP JUMPDEST PUSH2 0x28B PUSH2 0x283 DUP6 PUSH2 0x142 JUMP JUMPDEST DUP4 ADD DUP3 PUSH2 0x22B JUMP JUMPDEST POP POP JUMPDEST POP POP POP JUMP JUMPDEST PUSH0 DUP3 DUP3 SHR SWAP1 POP SWAP3 SWAP2 POP POP JUMP JUMPDEST PUSH0 PUSH2 0x2AE PUSH0 NOT DUP5 PUSH1 0x8 MUL PUSH2 0x293 JUMP JUMPDEST NOT DUP1 DUP4 AND SWAP2 POP POP SWAP3 SWAP2 POP POP JUMP JUMPDEST PUSH0 PUSH2 0x2C6 DUP4 DUP4 PUSH2 0x29F JUMP JUMPDEST SWAP2 POP DUP3 PUSH1 0x2 MUL DUP3 OR SWAP1 POP SWAP3 SWAP2 POP POP JUMP JUMPDEST PUSH2 0x2DF DUP3 PUSH2 0x9C JUMP JUMPDEST PUSH8 0xFFFFFFFFFFFFFFFF DUP2 GT ISZERO PUSH2 0x2F8 JUMPI PUSH2 0x2F7 PUSH2 0xA6 JUMP JUMPDEST JUMPDEST PUSH2 0x302 DUP3 SLOAD PUSH2 0x100 JUMP JUMPDEST PUSH2 0x30D DUP3 DUP3 DUP6 PUSH2 0x24D JUMP JUMPDEST PUSH0 PUSH1 0x20 SWAP1 POP PUSH1 0x1F DUP4 GT PUSH1 0x1 DUP2 EQ PUSH2 0x33E JUMPI PUSH0 DUP5 ISZERO PUSH2 0x32C JUMPI DUP3 DUP8 ADD MLOAD SWAP1 POP JUMPDEST PUSH2 0x336 DUP6 DUP3 PUSH2 0x2BB JUMP JUMPDEST DUP7 SSTORE POP PUSH2 0x39D JUMP JUMPDEST PUSH1 0x1F NOT DUP5 AND PUSH2 0x34C DUP7 PUSH2 0x130 JUMP JUMPDEST PUSH0 JUMPDEST DUP3 DUP2 LT ISZERO PUSH2 0x373 JUMPI DUP5 DUP10 ADD MLOAD DUP3 SSTORE PUSH1 0x1 DUP3 ADD SWAP2 POP PUSH1 0x20 DUP6 ADD SWAP5 POP PUSH1 0x20 DUP2 ADD SWAP1 POP PUSH2 0x34E JUMP JUMPDEST DUP7 DUP4 LT ISZERO PUSH2 0x390 JUMPI DUP5 DUP10 ADD MLOAD PUSH2 0x38C PUSH1 0x1F DUP10 AND DUP3 PUSH2 0x29F JUMP JUMPDEST DUP4 SSTORE POP JUMPDEST PUSH1 0x1 PUSH1 0x2 DUP9 MUL ADD DUP9 SSTORE POP POP POP JUMPDEST POP POP POP POP POP POP JUMP JUMPDEST PUSH2 0x8B6 DUP1 PUSH2 0x3B2 PUSH0 CODECOPY PUSH0 RETURN INVALID PUSH1 0x80 PUSH1 0x40 MSTORE CALLVALUE DUP1 ISZERO PUSH2 0xF JUMPI PUSH0 DUP1 REVERT JUMPDEST POP PUSH1 0x4 CALLDATASIZE LT PUSH2 0x91 JUMPI PUSH0 CALLDATALOAD PUSH1 0xE0 SHR DUP1 PUSH4 0xA1C51915 GT PUSH2 0x64 JUMPI DUP1 PUSH4 0xA1C51915 EQ PUSH2 0x107 JUMPI DUP1 PUSH4 0xA2375D1E EQ PUSH2 0x125 JUMPI DUP1 PUSH4 0xAF3B6902 EQ PUSH2 0x143 JUMPI DUP1 PUSH4 0xD46300FD EQ PUSH2 0x15F JUMPI DUP1 PUSH4 0xEE919D50 EQ PUSH2 0x17D JUMPI PUSH2 0x91 JUMP JUMPDEST DUP1 PUSH4 0x1A14FF7A EQ PUSH2 0x95 JUMPI DUP1 PUSH4 0x1B72E3CD EQ PUSH2 0xB3 JUMPI DUP1 PUSH4 0x2495477E EQ PUSH2 0xCF JUMPI DUP1 PUSH4 0x58B46482 EQ PUSH2 0xEB JUMPI JUMPDEST PUSH0 DUP1 REVERT JUMPDEST PUSH2 0x9D PUSH2 0x199 JUMP JUMPDEST PUSH1 0x40 MLOAD PUSH2 0xAA SWAP2 SWAP1 PUSH2 0x2C4 JUMP JUMPDEST PUSH1 0x40 MLOAD DUP1 SWAP2 SUB SWAP1 RETURN JUMPDEST PUSH2 0xCD PUSH1 0x4 DUP1 CALLDATASIZE SUB DUP2 ADD SWAP1 PUSH2 0xC8 SWAP2 SWAP1 PUSH2 0x346 JUMP JUMPDEST PUSH2 0x1AE JUMP JUMPDEST STOP JUMPDEST PUSH2 0xE9 PUSH1 0x4 DUP1 CALLDATASIZE SUB DUP2 ADD SWAP1 PUSH2 0xE4 SWAP2 SWAP1 PUSH2 0x3BB JUMP JUMPDEST PUSH2 0x1C4 JUMP JUMPDEST STOP JUMPDEST PUSH2 0x105 PUSH1 0x4 DUP1 CALLDATASIZE SUB DUP2 ADD SWAP1 PUSH2 0x100 SWAP2 SWAP1 PUSH2 0x346 JUMP JUMPDEST PUSH2 0x1E0 JUMP JUMPDEST STOP JUMPDEST PUSH2 0x10F PUSH2 0x1F6 JUMP JUMPDEST PUSH1 0x40 MLOAD PUSH2 0x11C SWAP2 SWAP1 PUSH2 0x3FE JUMP JUMPDEST PUSH1 0x40 MLOAD DUP1 SWAP2 SUB SWAP1 RETURN JUMPDEST PUSH2 0x12D PUSH2 0x1FF JUMP JUMPDEST PUSH1 0x40 MLOAD PUSH2 0x13A SWAP2 SWAP1 PUSH2 0x487 JUMP JUMPDEST PUSH1 0x40 MLOAD DUP1 SWAP2 SUB SWAP1 RETURN JUMPDEST PUSH2 0x15D PUSH1 0x4 DUP1 CALLDATASIZE SUB DUP2 ADD SWAP1 PUSH2 0x158 SWAP2 SWAP1 PUSH2 0x4D1 JUMP JUMPDEST PUSH2 0x28F JUMP JUMPDEST STOP JUMPDEST PUSH2 0x167 PUSH2 0x299 JUMP JUMPDEST PUSH1 0x40 MLOAD PUSH2 0x174 SWAP2 SWAP1 PUSH2 0x514 JUMP JUMPDEST PUSH1 0x40 MLOAD DUP1 SWAP2 SUB SWAP1 RETURN JUMPDEST PUSH2 0x197 PUSH1 0x4 DUP1 CALLDATASIZE SUB DUP2 ADD SWAP1 PUSH2 0x192 SWAP2 SWAP1 PUSH2 0x557 JUMP JUMPDEST PUSH2 0x2A1 JUMP JUMPDEST STOP JUMPDEST PUSH0 PUSH1 0x3 PUSH0 SWAP1 SLOAD SWAP1 PUSH2 0x100 EXP SWAP1 DIV PUSH1 0xFF AND SWAP1 POP SWAP1 JUMP JUMPDEST DUP2 DUP2 PUSH1 0x2 SWAP2 DUP3 PUSH2 0x1BF SWAP3 SWAP2 SWAP1 PUSH2 0x7B3 JUMP JUMPDEST POP POP POP JUMP JUMPDEST DUP1 PUSH1 0x3 PUSH0 PUSH2 0x100 EXP DUP2 SLOAD DUP2 PUSH1 0xFF MUL NOT AND SWAP1 DUP4 ISZERO ISZERO MUL OR SWAP1 SSTORE POP POP JUMP JUMPDEST DUP2 DUP2 PUSH1 0x2 SWAP2 DUP3 PUSH2 0x1F1 SWAP3 SWAP2 SWAP1 PUSH2 0x7B3 JUMP JUMPDEST POP POP POP JUMP JUMPDEST PUSH0 PUSH1 0x1 SLOAD SWAP1 POP SWAP1 JUMP JUMPDEST PUSH1 0x60 PUSH1 0x2 DUP1 SLOAD PUSH2 0x20E SWAP1 PUSH2 0x5E6 JUMP JUMPDEST DUP1 PUSH1 0x1F ADD PUSH1 0x20 DUP1 SWAP2 DIV MUL PUSH1 0x20 ADD PUSH1 0x40 MLOAD SWAP1 DUP2 ADD PUSH1 0x40 MSTORE DUP1 SWAP3 SWAP2 SWAP1 DUP2 DUP2 MSTORE PUSH1 0x20 ADD DUP3 DUP1 SLOAD PUSH2 0x23A SWAP1 PUSH2 0x5E6 JUMP JUMPDEST DUP1 ISZERO PUSH2 0x285 JUMPI DUP1 PUSH1 0x1F LT PUSH2 0x25C JUMPI PUSH2 0x100 DUP1 DUP4 SLOAD DIV MUL DUP4 MSTORE SWAP2 PUSH1 0x20 ADD SWAP2 PUSH2 0x285 JUMP JUMPDEST DUP3 ADD SWAP2 SWAP1 PUSH0 MSTORE PUSH1 0x20 PUSH0 KECCAK256 SWAP1 JUMPDEST DUP2 SLOAD DUP2 MSTORE SWAP1 PUSH1 0x1 ADD SWAP1 PUSH1 0x20 ADD DUP1 DUP4 GT PUSH2 0x268 JUMPI DUP3 SWAP1 SUB PUSH1 0x1F AND DUP3 ADD SWAP2 JUMPDEST POP POP POP POP POP SWAP1 POP SWAP1 JUMP JUMPDEST DUP1 PUSH1 0x1 DUP2 SWAP1 SSTORE POP POP JUMP JUMPDEST PUSH0 DUP1 SLOAD SWAP1 POP SWAP1 JUMP JUMPDEST DUP1 PUSH0 DUP2 SWAP1 SSTORE POP POP JUMP JUMPDEST PUSH0 DUP2 ISZERO ISZERO SWAP1 POP SWAP2 SWAP1 POP JUMP JUMPDEST PUSH2 0x2BE DUP2 PUSH2 0x2AA JUMP JUMPDEST DUP3 MSTORE POP POP JUMP JUMPDEST PUSH0 PUSH1 0x20 DUP3 ADD SWAP1 POP PUSH2 0x2D7 PUSH0 DUP4 ADD DUP5 PUSH2 0x2B5 JUMP JUMPDEST SWAP3 SWAP2 POP POP JUMP JUMPDEST PUSH0 DUP1 REVERT JUMPDEST PUSH0 DUP1 REVERT JUMPDEST PUSH0 DUP1 REVERT JUMPDEST PUSH0 DUP1 REVERT JUMPDEST PUSH0 DUP1 REVERT JUMPDEST PUSH0 DUP1 DUP4 PUSH1 0x1F DUP5 ADD SLT PUSH2 0x306 JUMPI PUSH2 0x305 PUSH2 0x2E5 JUMP JUMPDEST JUMPDEST DUP3 CALLDATALOAD SWAP1 POP PUSH8 0xFFFFFFFFFFFFFFFF DUP2 GT ISZERO PUSH2 0x323 JUMPI PUSH2 0x322 PUSH2 0x2E9 JUMP JUMPDEST JUMPDEST PUSH1 0x20 DUP4 ADD SWAP2 POP DUP4 PUSH1 0x1 DUP3 MUL DUP4 ADD GT ISZERO PUSH2 0x33F JUMPI PUSH2 0x33E PUSH2 0x2ED JUMP JUMPDEST JUMPDEST SWAP3 POP SWAP3 SWAP1 POP JUMP JUMPDEST PUSH0 DUP1 PUSH1 0x20 DUP4 DUP6 SUB SLT ISZERO PUSH2 0x35C JUMPI PUSH2 0x35B PUSH2 0x2DD JUMP JUMPDEST JUMPDEST PUSH0 DUP4 ADD CALLDATALOAD PUSH8 0xFFFFFFFFFFFFFFFF DUP2 GT ISZERO PUSH2 0x379 JUMPI PUSH2 0x378 PUSH2 0x2E1 JUMP JUMPDEST JUMPDEST PUSH2 0x385 DUP6 DUP3 DUP7 ADD PUSH2 0x2F1 JUMP JUMPDEST SWAP3 POP SWAP3 POP POP SWAP3 POP SWAP3 SWAP1 POP JUMP JUMPDEST PUSH2 0x39A DUP2 PUSH2 0x2AA JUMP JUMPDEST DUP2 EQ PUSH2 0x3A4 JUMPI PUSH0 DUP1 REVERT JUMPDEST POP JUMP JUMPDEST PUSH0 DUP2 CALLDATALOAD SWAP1 POP PUSH2 0x3B5 DUP2 PUSH2 0x391 JUMP JUMPDEST SWAP3 SWAP2 POP POP JUMP JUMPDEST PUSH0 PUSH1 0x20 DUP3 DUP5 SUB SLT ISZERO PUSH2 0x3D0 JUMPI PUSH2 0x3CF PUSH2 0x2DD JUMP JUMPDEST JUMPDEST PUSH0 PUSH2 0x3DD DUP5 DUP3 DUP6 ADD PUSH2 0x3A7 JUMP JUMPDEST SWAP2 POP POP SWAP3 SWAP2 POP POP JUMP JUMPDEST PUSH0 DUP2 SWAP1 POP SWAP2 SWAP1 POP JUMP JUMPDEST PUSH2 0x3F8 DUP2 PUSH2 0x3E6 JUMP JUMPDEST DUP3 MSTORE POP POP JUMP JUMPDEST PUSH0 PUSH1 0x20 DUP3 ADD SWAP1 POP PUSH2 0x411 PUSH0 DUP4 ADD DUP5 PUSH2 0x3EF JUMP JUMPDEST SWAP3 SWAP2 POP POP JUMP JUMPDEST PUSH0 DUP2 MLOAD SWAP1 POP SWAP2 SWAP1 POP JUMP JUMPDEST PUSH0 DUP3 DUP3 MSTORE PUSH1 0x20 DUP3 ADD SWAP1 POP SWAP3 SWAP2 POP POP JUMP JUMPDEST DUP3 DUP2 DUP4 MCOPY PUSH0 DUP4 DUP4 ADD MSTORE POP POP POP JUMP JUMPDEST PUSH0 PUSH1 0x1F NOT PUSH1 0x1F DUP4 ADD AND SWAP1 POP SWAP2 SWAP1 POP JUMP JUMPDEST PUSH0 PUSH2 0x459 DUP3 PUSH2 0x417 JUMP JUMPDEST PUSH2 0x463 DUP2 DUP6 PUSH2 0x421 JUMP JUMPDEST SWAP4 POP PUSH2 0x473 DUP2 DUP6 PUSH1 0x20 DUP7 ADD PUSH2 0x431 JUMP JUMPDEST PUSH2 0x47C DUP2 PUSH2 0x43F JUMP JUMPDEST DUP5 ADD SWAP2 POP POP SWAP3 SWAP2 POP POP JUMP JUMPDEST PUSH0 PUSH1 0x20 DUP3 ADD SWAP1 POP DUP2 DUP2 SUB PUSH0 DUP4 ADD MSTORE PUSH2 0x49F DUP2 DUP5 PUSH2 0x44F JUMP JUMPDEST SWAP1 POP SWAP3 SWAP2 POP POP JUMP JUMPDEST PUSH2 0x4B0 DUP2 PUSH2 0x3E6 JUMP JUMPDEST DUP2 EQ PUSH2 0x4BA JUMPI PUSH0 DUP1 REVERT JUMPDEST POP JUMP JUMPDEST PUSH0 DUP2 CALLDATALOAD SWAP1 POP PUSH2 0x4CB DUP2 PUSH2 0x4A7 JUMP JUMPDEST SWAP3 SWAP2 POP POP JUMP JUMPDEST PUSH0 PUSH1 0x20 DUP3 DUP5 SUB SLT ISZERO PUSH2 0x4E6 JUMPI PUSH2 0x4E5 PUSH2 0x2DD JUMP JUMPDEST JUMPDEST PUSH0 PUSH2 0x4F3 DUP5 DUP3 DUP6 ADD PUSH2 0x4BD JUMP JUMPDEST SWAP2 POP POP SWAP3 SWAP2 POP POP JUMP JUMPDEST PUSH0 DUP2 SWAP1 POP SWAP2 SWAP1 POP JUMP JUMPDEST PUSH2 0x50E DUP2 PUSH2 0x4FC JUMP JUMPDEST DUP3 MSTORE POP POP JUMP JUMPDEST PUSH0 PUSH1 0x20 DUP3 ADD SWAP1 POP PUSH2 0x527 PUSH0 DUP4 ADD DUP5 PUSH2 0x505 JUMP JUMPDEST SWAP3 SWAP2 POP POP JUMP JUMPDEST PUSH2 0x536 DUP2 PUSH2 0x4FC JUMP JUMPDEST DUP2 EQ PUSH2 0x540 JUMPI PUSH0 DUP1 REVERT JUMPDEST POP JUMP JUMPDEST PUSH0 DUP2 CALLDATALOAD SWAP1 POP PUSH2 0x551 DUP2 PUSH2 0x52D JUMP JUMPDEST SWAP3 SWAP2 POP POP JUMP JUMPDEST PUSH0 PUSH1 0x20 DUP3 DUP5 SUB SLT ISZERO PUSH2 0x56C JUMPI PUSH2 0x56B PUSH2 0x2DD JUMP JUMPDEST JUMPDEST PUSH0 PUSH2 0x579 DUP5 DUP3 DUP6 ADD PUSH2 0x543 JUMP JUMPDEST SWAP2 POP POP SWAP3 SWAP2 POP POP JUMP JUMPDEST PUSH0 DUP3 SWAP1 POP SWAP3 SWAP2 POP POP JUMP JUMPDEST PUSH32 0x4E487B7100000000000000000000000000000000000000000000000000000000 PUSH0 MSTORE PUSH1 0x41 PUSH1 0x4 MSTORE PUSH1 0x24 PUSH0 REVERT JUMPDEST PUSH32 0x4E487B7100000000000000000000000000000000000000000000000000000000 PUSH0 MSTORE PUSH1 0x22 PUSH1 0x4 MSTORE PUSH1 0x24 PUSH0 REVERT JUMPDEST PUSH0 PUSH1 0x2 DUP3 DIV SWAP1 POP PUSH1 0x1 DUP3 AND DUP1 PUSH2 0x5FD JUMPI PUSH1 0x7F DUP3 AND SWAP2 POP JUMPDEST PUSH1 0x20 DUP3 LT DUP2 SUB PUSH2 0x610 JUMPI PUSH2 0x60F PUSH2 0x5B9 JUMP JUMPDEST JUMPDEST POP SWAP2 SWAP1 POP JUMP JUMPDEST PUSH0 DUP2 SWAP1 POP DUP2 PUSH0 MSTORE PUSH1 0x20 PUSH0 KECCAK256 SWAP1 POP SWAP2 SWAP1 POP JUMP JUMPDEST PUSH0 PUSH1 0x20 PUSH1 0x1F DUP4 ADD DIV SWAP1 POP SWAP2 SWAP1 POP JUMP JUMPDEST PUSH0 DUP3 DUP3 SHL SWAP1 POP SWAP3 SWAP2 POP POP JUMP JUMPDEST PUSH0 PUSH1 0x8 DUP4 MUL PUSH2 0x672 PUSH32 0xFFFFFFFFFFFFFFFFFFFFFFFFFFFFFFFFFFFFFFFFFFFFFFFFFFFFFFFFFFFFFFFF DUP3 PUSH2 0x637 JUMP JUMPDEST PUSH2 0x67C DUP7 DUP4 PUSH2 0x637 JUMP JUMPDEST SWAP6 POP DUP1 NOT DUP5 AND SWAP4 POP DUP1 DUP7 AND DUP5 OR SWAP3 POP POP POP SWAP4 SWAP3 POP POP POP JUMP JUMPDEST PUSH0 DUP2 SWAP1 POP SWAP2 SWAP1 POP JUMP JUMPDEST PUSH0 PUSH2 0x6B7 PUSH2 0x6B2 PUSH2 0x6AD DUP5 PUSH2 0x4FC JUMP JUMPDEST PUSH2 0x694 JUMP JUMPDEST PUSH2 0x4FC JUMP JUMPDEST SWAP1 POP SWAP2 SWAP1 POP JUMP JUMPDEST PUSH0 DUP2 SWAP1 POP SWAP2 SWAP1 POP JUMP JUMPDEST PUSH2 0x6D0 DUP4 PUSH2 0x69D JUMP JUMPDEST PUSH2 0x6E4 PUSH2 0x6DC DUP3 PUSH2 0x6BE JUMP JUMPDEST DUP5 DUP5 SLOAD PUSH2 0x643 JUMP JUMPDEST DUP3 SSTORE POP POP POP POP JUMP JUMPDEST PUSH0 SWAP1 JUMP JUMPDEST PUSH2 0x6F8 PUSH2 0x6EC JUMP JUMPDEST PUSH2 0x703 DUP2 DUP5 DUP5 PUSH2 0x6C7 JUMP JUMPDEST POP POP POP JUMP JUMPDEST JUMPDEST DUP2 DUP2 LT ISZERO PUSH2 0x726 JUMPI PUSH2 0x71B PUSH0 DUP3 PUSH2 0x6F0 JUMP JUMPDEST PUSH1 0x1 DUP2 ADD SWAP1 POP PUSH2 0x709 JUMP JUMPDEST POP POP JUMP JUMPDEST PUSH1 0x1F DUP3 GT ISZERO PUSH2 0x76B JUMPI PUSH2 0x73C DUP2 PUSH2 0x616 JUMP JUMPDEST PUSH2 0x745 DUP5 PUSH2 0x628 JUMP JUMPDEST DUP2 ADD PUSH1 0x20 DUP6 LT ISZERO PUSH2 0x754 JUMPI DUP2 SWAP1 POP JUMPDEST PUSH2 0x768 PUSH2 0x760 DUP6 PUSH2 0x628 JUMP JUMPDEST DUP4 ADD DUP3 PUSH2 0x708 JUMP JUMPDEST POP POP JUMPDEST POP POP POP JUMP JUMPDEST PUSH0 DUP3 DUP3 SHR SWAP1 POP SWAP3 SWAP2 POP POP JUMP JUMPDEST PUSH0 PUSH2 0x78B PUSH0 NOT DUP5 PUSH1 0x8 MUL PUSH2 0x770 JUMP JUMPDEST NOT DUP1 DUP4 AND SWAP2 POP POP SWAP3 SWAP2 POP POP JUMP JUMPDEST PUSH0 PUSH2 0x7A3 DUP4 DUP4 PUSH2 0x77C JUMP JUMPDEST SWAP2 POP DUP3 PUSH1 0x2 MUL DUP3 OR SWAP1 POP SWAP3 SWAP2 POP POP JUMP JUMPDEST PUSH2 0x7BD DUP4 DUP4 PUSH2 0x582 JUMP JUMPDEST PUSH8 0xFFFFFFFFFFFFFFFF DUP2 GT ISZERO PUSH2 0x7D6 JUMPI PUSH2 0x7D5 PUSH2 0x58C JUMP JUMPDEST JUMPDEST PUSH2 0x7E0 DUP3 SLOAD PUSH2 0x5E6 JUMP JUMPDEST PUSH2 0x7EB DUP3 DUP3 DUP6 PUSH2 0x72A JUMP JUMPDEST PUSH0 PUSH1 0x1F DUP4 GT PUSH1 0x1 DUP2 EQ PUSH2 0x818 JUMPI PUSH0 DUP5 ISZERO PUSH2 0x806 JUMPI DUP3 DUP8 ADD CALLDATALOAD SWAP1 POP JUMPDEST PUSH2 0x810 DUP6 DUP3 PUSH2 0x798 JUMP JUMPDEST DUP7 SSTORE POP PUSH2 0x877 JUMP JUMPDEST PUSH1 0x1F NOT DUP5 AND PUSH2 0x826 DUP7 PUSH2 0x616 JUMP JUMPDEST PUSH0 JUMPDEST DUP3 DUP2 LT ISZERO PUSH2 0x84D JUMPI DUP5 DUP10 ADD CALLDATALOAD DUP3 SSTORE PUSH1 0x1 DUP3 ADD SWAP2 POP PUSH1 0x20 DUP6 ADD SWAP5 POP PUSH1 0x20 DUP2 ADD SWAP1 POP PUSH2 0x828 JUMP JUMPDEST DUP7 DUP4 LT ISZERO PUSH2 0x86A JUMPI DUP5 DUP10 ADD CALLDATALOAD PUSH2 0x866 PUSH1 0x1F DUP10 AND DUP3 PUSH2 0x77C JUMP JUMPDEST DUP4 SSTORE POP JUMPDEST PUSH1 0x1 PUSH1 0x2 DUP9 MUL ADD DUP9 SSTORE POP POP POP JUMPDEST POP POP POP POP POP POP POP JUMP INVALID LOG2 PUSH5 0x6970667358 0x22 SLT KECCAK256 0x2A PUSH2 0xD4F1 EXP 0xA8 0xBF 0xB0 0x27 DELEGATECALL 0xCB SWAP14 CALLDATASIZE 0x2D SMOD 0xC6 DUP3 0xE7 0xD ADDMOD PUSH12 0x2EC8B0B3A159CCD0C65EB764 PUSH20 0x6F6C634300081A00330000000000000000000000 "
		},
		"gasEstimates": {
			"creation": {
				"codeDepositCost": "446000",
				"executionCost": "infinite",
				"totalCost": "infinite"
			},
			"external": {
				"getA()": "2498",
				"getB()": "2432",
				"getC()": "infinite",
				"getD()": "2474",
				"modC(string)": "infinite",
				"setA(uint256)": "22602",
				"setB(int256)": "22559",
				"setC(string)": "infinite",
				"setD(bool)": "24718"
			}
		},
		"methodIdentifiers": {
			"getA()": "d46300fd",
			"getB()": "a1c51915",
			"getC()": "a2375d1e",
			"getD()": "1a14ff7a",
			"modC(string)": "58b46482",
			"setA(uint256)": "ee919d50",
			"setB(int256)": "af3b6902",
			"setC(string)": "1b72e3cd",
			"setD(bool)": "2495477e"
		}
	},
	"abi": [
		{
			"inputs": [],
			"name": "getA",
			"outputs": [
				{
					"internalType": "uint256",
					"name": "",
					"type": "uint256"
				}
			],
			"stateMutability": "view",
			"type": "function"
		},
		{
			"inputs": [],
			"name": "getB",
			"outputs": [
				{
					"internalType": "int256",
					"name": "",
					"type": "int256"
				}
			],
			"stateMutability": "view",
			"type": "function"
		},
		{
			"inputs": [],
			"name": "getC",
			"outputs": [
				{
					"internalType": "string",
					"name": "",
					"type": "string"
				}
			],
			"stateMutability": "view",
			"type": "function"
		},
		{
			"inputs": [],
			"name": "getD",
			"outputs": [
				{
					"internalType": "bool",
					"name": "",
					"type": "bool"
				}
			],
			"stateMutability": "view",
			"type": "function"
		},
		{
			"inputs": [
				{
					"internalType": "string",
					"name": "data",
					"type": "string"
				}
			],
			"name": "modC",
			"outputs": [],
			"stateMutability": "nonpayable",
			"type": "function"
		},
		{
			"inputs": [
				{
					"internalType": "uint256",
					"name": "x",
					"type": "uint256"
				}
			],
			"name": "setA",
			"outputs": [],
			"stateMutability": "nonpayable",
			"type": "function"
		},
		{
			"inputs": [
				{
					"internalType": "int256",
					"name": "x",
					"type": "int256"
				}
			],
			"name": "setB",
			"outputs": [],
			"stateMutability": "nonpayable",
			"type": "function"
		},
		{
			"inputs": [
				{
					"internalType": "string",
					"name": "x",
					"type": "string"
				}
			],
			"name": "setC",
			"outputs": [],
			"stateMutability": "nonpayable",
			"type": "function"
		},
		{
			"inputs": [
				{
					"internalType": "bool",
					"name": "x",
					"type": "bool"
				}
			],
			"name": "setD",
			"outputs": [],
			"stateMutability": "nonpayable",
			"type": "function"
		}
	]
}