{
	"data": {
		"bytecode": {
			"linkReferences": {},
			"object": "6080604052348015600e575f80fd5b5061018f8061001c5f395ff3fe608060405234801561000f575f80fd5b506004361061003f575f3560e01c806377ebc1191461004357806382b6ad2a1461004d578063dd15b9ff1461006b575b5f80fd5b61004b610089565b005b6100556100b4565b6040516100629190610140565b60405180910390f35b6100736100c8565b6040516100809190610140565b60405180910390f35b60025f806101000a81548160ff021916908360028111156100ad576100ac6100cd565b5b0217905550565b5f805f9054906101000a900460ff16905090565b600181565b7f4e487b71000000000000000000000000000000000000000000000000000000005f52602160045260245ffd5b6003811061010b5761010a6100cd565b5b50565b5f81905061011b826100fa565b919050565b5f61012a8261010e565b9050919050565b61013a81610120565b82525050565b5f6020820190506101535f830184610131565b9291505056fea264697066735822122079de081f14b6433bc49893b41e9c59762454d4f20a2076af213aba9788af7adb64736f6c634300081a0033",
			"opcodes": "PUSH1 0x80 PUSH1 0x40 MSTORE CALLVALUE DUP1 ISZERO PUSH1 0xE JUMPI PUSH0 DUP1 REVERT JUMPDEST POP PUSH2 0x18F DUP1 PUSH2 0x1C PUSH0 CODECOPY PUSH0 RETURN INVALID PUSH1 0x80 PUSH1 0x40 MSTORE CALLVALUE DUP1 ISZERO PUSH2 0xF JUMPI PUSH0 DUP1 REVERT JUMPDEST POP PUSH1 0x4 CALLDATASIZE LT PUSH2 0x3F JUMPI PUSH0 CALLDATALOAD PUSH1 0xE0 SHR DUP1 PUSH4 0x77EBC119 EQ PUSH2 0x43 JUMPI DUP1 PUSH4 0x82B6AD2A EQ PUSH2 0x4D JUMPI DUP1 PUSH4 0xDD15B9FF EQ PUSH2 0x6B JUMPI JUMPDEST PUSH0 DUP1 REVERT JUMPDEST PUSH2 0x4B PUSH2 0x89 JUMP JUMPDEST STOP JUMPDEST PUSH2 0x55 PUSH2 0xB4 JUMP JUMPDEST PUSH1 0x40 MLOAD PUSH2 0x62 SWAP2 SWAP1 PUSH2 0x140 JUMP JUMPDEST PUSH1 0x40 MLOAD DUP1 SWAP2 SUB SWAP1 RETURN JUMPDEST PUSH2 0x73 PUSH2 0xC8 JUMP JUMPDEST PUSH1 0x40 MLOAD PUSH2 0x80 SWAP2 SWAP1 PUSH2 0x140 JUMP JUMPDEST PUSH1 0x40 MLOAD DUP1 SWAP2 SUB SWAP1 RETURN JUMPDEST PUSH1 0x2 PUSH0 DUP1 PUSH2 0x100 EXP DUP2 SLOAD DUP2 PUSH1 0xFF MUL NOT AND SWAP1 DUP4 PUSH1 0x2 DUP2 GT ISZERO PUSH2 0xAD JUMPI PUSH2 0xAC PUSH2 0xCD JUMP JUMPDEST JUMPDEST MUL OR SWAP1 SSTORE POP JUMP JUMPDEST PUSH0 DUP1 PUSH0 SWAP1 SLOAD SWAP1 PUSH2 0x100 EXP SWAP1 DIV PUSH1 0xFF AND SWAP1 POP SWAP1 JUMP JUMPDEST PUSH1 0x1 DUP2 JUMP JUMPDEST PUSH32 0x4E487B7100000000000000000000000000000000000000000000000000000000 PUSH0 MSTORE PUSH1 0x21 PUSH1 0x4 MSTORE PUSH1 0x24 PUSH0 REVERT JUMPDEST PUSH1 0x3 DUP2 LT PUSH2 0x10B JUMPI PUSH2 0x10A PUSH2 0xCD JUMP JUMPDEST JUMPDEST POP JUMP JUMPDEST PUSH0 DUP2 SWAP1 POP PUSH2 0x11B DUP3 PUSH2 0xFA JUMP JUMPDEST SWAP2 SWAP1 POP JUMP JUMPDEST PUSH0 PUSH2 0x12A DUP3 PUSH2 0x10E JUMP JUMPDEST SWAP1 POP SWAP2 SWAP1 POP JUMP JUMPDEST PUSH2 0x13A DUP2 PUSH2 0x120 JUMP JUMPDEST DUP3 MSTORE POP POP JUMP JUMPDEST PUSH0 PUSH1 0x20 DUP3 ADD SWAP1 POP PUSH2 0x153 PUSH0 DUP4 ADD DUP5 PUSH2 0x131 JUMP JUMPDEST SWAP3 SWAP2 POP POP JUMP INVALID LOG2 PUSH5 0x6970667358 0x22 SLT KECCAK256 PUSH26 0xDE081F14B6433BC49893B41E9C59762454D4F20A2076AF213ABA SWAP8 DUP9 0xAF PUSH27 0xDB64736F6C634300081A0033000000000000000000000000000000 "
		},
		"gasEstimates": {
			"creation": {
				"codeDepositCost": "79800",
				"executionCost": "127",
				"totalCost": "79927"
			},
			"external": {
				"change_basket()": "24407",
				"default_value()": "441",
				"get_basket()": "2561"
			}
		},
		"methodIdentifiers": {
			"change_basket()": "77ebc119",
			"default_value()": "dd15b9ff",
			"get_basket()": "82b6ad2a"
		}
	},
	"abi": [
		{
			"inputs": [],
			"name": "change_basket",
			"outputs": [],
			"stateMutability": "nonpayable",
			"type": "function"
		},
		{
			"inputs": [],
			"name": "default_value",
			"outputs": [
				{
					"internalType": "enum Fruits.fruit_list",
					"name": "",
					"type": "uint8"
				}
			],
			"stateMutability": "view",
			"type": "function"
		},
		{
			"inputs": [],
			"name": "get_basket",
			"outputs": [
				{
					"internalType": "enum Fruits.fruit_list",
					"name": "",
					"type": "uint8"
				}
			],
			"stateMutability": "view",
			"type": "function"
		}
	]
}